:020000040800F2
:10000000502B0020F98100087903000885030008BF
:10001000910300089D030008A903000800000000E8
:10002000000000000000000000000000B503000810
:10003000C1030008000000009F310008E3320008FF
:100040000B8200080B8200080B8200080B8200085C
:100050000B8200080B8200080B8200080B8200084C
:100060000B8200080B8200080B8200080B8200083C
:100070000B8200080B8200080B8200080B8200082C
:100080000B8200080B8200080B8200080B8200081C
:100090000B8200080B8200080B8200080B8200080C
:1000A0000B8200080B8200080B8200083504000850
:1000B0000B8200080B8200080B8200080B820008EC
:1000C0000B8200080B8200080B8200080B820008DC
:1000D0000B820008EF0300080B8200080B82000867
:1000E0000B8200080B8200080B82000800F002F867
:1000F00000F03CF80AA090E8000C82448344AAF186
:100100000107DA4501D100F031F8AFF2090EBAE883
:100110000F0013F0010F18BFFB1A43F0010318473B
:10012000C88A0000E88A0000103A24BF78C878C165
:10013000FAD8520724BF30C830C144BF04680C60ED
:10014000704700000023002400250026103A28BF35
:1001500078C1FBD8520728BF30C148BF0B60704739
:100160001FB5AFF300801FBD10B510BD08F061F8DA
:100170001146FFF7F5FF00F087F808F07FF8FFF76A
:10018000F3FF08F085F800001CB500240CE052498C
:10019000085D694605F0D7FE18B9DDE9000188421F
:1001A00001D2FA201CBD641C072CF0D34B48007808
:1001B00010B14FF4FA70F5E740F2EE20F2E710B517
:1001C00000BFFFF7E1FF84B223460022114610462C
:1001D00005F0D1FF002002F08DFDF2E700B587B0F9
:1001E0000323002280213E48CDE90323CDE901010C
:1001F000172300F5FE7200213A48009305F06DFCCC
:10020000069006AA38A1172005F0FBFD07B000BD37
:1002100010B502F04EFD03F075F803F020FE00F07B
:100220001FF901F012F902F0EBF900F013FA60B9CE
:100230003148007820B90021084600F0FFFE0EE0AA
:100240000121084600F0FAFE09E000202A49087062
:100250000021084600F0F2FE082000F0EBFAFFF75C
:10026000BDFF02F055F90EE0642000F041F90446AC
:10027000A4F57F41FF3902D0204602F0E0F802F0F9
:10028000EBF802F064F9EFE700B587B007F089FFFB
:1002900003F0E5FC0323002280211848CDE9032365
:1002A00000F5FE72CDE9003002910021144805F0FE
:1002B00014FC069006AA13A1032005F0A2FD03F08A
:1002C000B6FD002007B000BD70477047704770470B
:1002D0007047704770470000A6820008B2000020F7
:1002E00014030020BF0100085573657220494620A1
:1002F0005461736B00000000B40000201401002062
:10030000110200085374617274205461736B000011
:10031000024606E04FF4FA5100E0491E0029FCD1E4
:10032000521E002AF6D1704770B5054600210846D6
:1003300002F0E6FB0021012002F0E2FBFA20FFF7C9
:10034000E7FF002002F0D6FC012002F0D3FCFA20E7
:10035000FFF7DEFF00240CE0012002F0CBFCFA20C6
:10036000FFF7D6FF012002F0C5FCFA20FFF7D0FF0F
:10037000641CAC42F0D370BD10B500BF0120FFF784
:10038000D3FFFBE710B500BF0220FFF7CDFFFBE76F
:1003900010B500BF0320FFF7C7FFFBE710B500BF94
:1003A0000420FFF7C1FFFBE710B500BF0520FFF7F2
:1003B000BBFFFBE710B500BF0620FFF7B5FFFBE76B
:1003C00010B500BF0720FFF7AFFFFBE7704770478E
:1003D00010B502F0C3FE04461F480078401C1E49B9
:1003E0000870204602F0BEFE03F061FC10BD70B53F
:1003F00002F0B4FE044618480078401C1649087004
:10040000204602F0AFFE40F22551144807F01FFECF
:1004100028B1124807F0B2FD054600F03CF840F262
:1004200026610E4807F013FE08B100F091F803F0C2
:100430003EFC70BD10B502F091FE044606480078FF
:10044000401C05490870204602F08CFE00F030FF89
:1004500003F02DFC10BD0000D10000200038014049
:1004600010B500207849086008390860091D086047
:1004700005F013F874490C3108600020091F08606A
:10048000091F0860012005F008F86F491031086065
:1004900002F0EDFC10BD70B50446002502F05EFED2
:1004A00005466948006820281ED267480068401C3D
:1004B00065490860A1F1080001680068401C624AB3
:1004C000083A1060614820F811401046006800F0BA
:1004D0001F0011460860284602F044FE5A480C30BE
:1004E000006805F035F902E0284602F03BFE70BDD9
:1004F000F8B5044600256A46214653480C3000688A
:1005000005F065F802F02AFE05464F480068C8B1BC
:100510004D480068401E4C490860081F016800688B
:10052000401C494A121F1060484830F811601046BC
:10053000006800F01F0011460860284602F012FE15
:100540003046F8BD284602F00DFE4FF6FF70F8E782
:1005500010B53D48001D00683B49083109688842D4
:100560000FD23948001D02680068401C364B1B1D25
:1005700018603648403030F81210354807F0FAFC61
:100580000DE0002240F22661314807F090FC002087
:1005900002F060FC2C481030006805F0D9F810BD5E
:1005A000F8B504460D4616466A46314626481030D0
:1005B000006805F00CF89DF80000D0B9012002F0A9
:1005C00049FC002706E035F817002049403121F8A2
:1005D00017007F1CA742F6D31B4808300460002098
:1005E0001949091D0860012240F22661184807F0E8
:1005F0005EFC9DF80000F8BD13B50C462246694626
:100600000120FFF7CDFF1CBD70B504460D4601204B
:1006100002F020FC002606E035F816000B494031B8
:1006200021F81600761CA642F6D30748083004606D
:1006300000200549091D0860012240F22661044896
:1006400007F035FC70BD00000800002014050020F4
:10065000003801401CB56A4601A9002002F057FB92
:100660009DF8040008B900201CBD6A4601A90120BC
:1006700002F04DFB9DF8040008B90020F4E70120CA
:10068000F2E710B500240AE004F0010002F032FBAA
:10069000C82300221146104605F06DFD641C0A2C8B
:1006A000F2D3002404E00121E0B202F029FA641C34
:1006B000022CF8D310BD10B500BF002403E0E0B257
:1006C00001F0F0FF641C022CF9D30023012219462B
:1006D000184605F050FDF0E77CB5002519E06A46A4
:1006E00001A9E8B202F013FB9DF8040030B99DF8AF
:1006F000000008B9032407E0022405E09DF800008B
:1007000008B9012400E000242146E8B201F0B4FF5A
:100710006D1C022DE3D37CBD2DE9F047044604F0A7
:10072000070008282BD2DFE800F004080D12171C80
:10073000212601250026A84622E0012502264FF0A9
:1007400003081DE0032502264FF0070818E00325E3
:1007500003264FF00F0813E0022503264FF00E0882
:100760000EE0022501264FF00C0809E000250126C5
:100770004FF0080804E000250026A84600E000BF6E
:1007800000BF2946002002F05DF83146012002F04A
:1007900059F84FF4487001F0E9FF002002F0EFFA39
:1007A0008146012002F0F4FA49EA4009002002F0F3
:1007B000EFFA49EA8009012002F0E1FA49EAC007AC
:1007C000474502D10120BDE8F0870020FBE770B566
:1007D00088B04A48007808B1092400E008240120C4
:1007E000A040401E86B201F0BDFF0546002406E091
:1007F00045FA04F0284430402DF81400641C102CF5
:10080000F6D3032269461020FFF7CAFE10B100207C
:1008100008B070BD002409E00320FFF769FE3DF831
:100820001410884201D00020F2E7641C102CF3D38E
:100830000120EDE72DE9F05F0446FFF722FF02F00B
:10084000EEF905464FF001094FF4616060434FF443
:100850007A714843491090FBF1F74FF0000A4FF0CE
:10086000000B4FF0000843E002F0D9F90646AE4213
:1008700003D0012002F03EFA3546FFF72DFFB9F113
:10088000000F04D008F00700FFF746FF8146FFF78E
:100890009EFF10B1002002F02DFA002000F0CBFCEA
:1008A00005280BD15146002000F0EEFCBAF1000FF4
:1008B00002D14FF00A0A01E04FF0000A012000F0D7
:1008C000BAFC05280BD15946012000F0DDFCBBF134
:1008D000000F02D14FF00A0B01E04FF0000B4FF474
:1008E000FA7300221146104605F045FC08F1010894
:1008F000B845B9D3FFF7DFFEBDE8F09FB200002096
:100900000146B1F5806F01D20B203EE0B1F5606F7A
:1009100001D8002039E0B1F5B05F01D8012034E002
:10092000B1F5F05F01D802202FE0B1F5185F01D8D2
:1009300003202AE0B1F5385F01D8042025E0B1F5A5
:10094000585F01D8052020E0B1F5785F01D8062076
:100950001BE0B1F58C4F01D8072016E0B1F59C4F94
:1009600001D8082011E0B1F5AC4F01D809200CE006
:100970004CF66602914201D20C2006E04DF6993207
:10098000914201D80A2000E00D20704710B50446BE
:10099000204602F03DFA10BD70B504460D46FF48F2
:1009A00030F814100022FE4806F030FF00212046E7
:1009B00002F015F82B4600221146104605F0DBFB2D
:1009C0000321204602F000F870BD10B5012921D1A5
:1009D000262A0FD2F34B1B8803EB430404EB0313CB
:1009E000F14C04EB830333F81230EE4C1E3424F840
:1009F000103030E0EB4B1B8803EB430404EB031394
:100A0000E94C04EB8303B3F84A30E64C1E3424F877
:100A1000103020E0F9B90A2A0FD2E24B9B1D1B8847
:100A200003EB8303E14C04EB830333F812305B10D8
:100A3000DC4C1E3424F810300DE0DA4B9B1D1B8873
:100A400003EB8303D94C04EB83035B8A5B10D54C27
:100A50001E3424F8103010BD2DE9F74F84B0044641
:100A600015462046FFF792FF8046002002904FF087
:100A70000A0B059E75E0CB49163151F8240003AAF4
:100A8000002104F0A4FDC7480E3850F82400401C93
:100A9000C4490E3941F82400701E163109784843C4
:100AA00001900198584501D9CDF804B0BD480E38E1
:100AB00050F824100198814204D2BA480E3850F8F8
:100AC0002400019000212046019AFFF77EFF204676
:100AD00002F02EF918B9012007B0BDE8F08F4746A3
:100AE000A7EB0509B9F1000F01DAC9F100092046A9
:100AF000FFF74CFF8046A8EB050ABAF1000F01DAB8
:100B0000CAF1000ACA4502DA0020029009E0CA458B
:100B100007D00298401C02900298642801D9042052
:100B2000DAE7BAF5997F07D84046FFF7E9FE9D4915
:100B3000223108550020CFE740F2662082450DD2D1
:100B4000984808300078834505D9964808300078E1
:100B5000ABEB000B04E04FF0000B01E04FF00A0B91
:100B6000761E002E87D10520B6E72DE9F041044618
:100B70000D4616469846069F00208A490E3941F8D0
:100B8000240008310855002229462046FFF71DFFA2
:100B90000021204601F023FF3146204602F0DAF81A
:100BA0004146204601F010FF01F0DCFD3844804949
:100BB00051F824100880794830F81410784807F06C
:100BC000B3F8764830F814100122754806F01EFE7E
:100BD000BDE8F0812DE9F84304460E467148223005
:100BE00010F80480464535D0B8F10B0F08D0B8F1A5
:100BF0000C0F01D10A2E03D0A6EB0800002801DD5E
:100C0000012700E0002749F640436A480093037833
:100C10003A4600212046FFF7A8FF6448503030F8DC
:100C200016204FF4C8512046FFF716FF054628004E
:100C300005D0012802D0052805D102E004E00525F1
:100C400002E0022500E000BF00BF0A212046FFF7B6
:100C5000A3FE00E005252846BDE8F8832DE9F84FFE
:100C600004462046FFF792FE83465846FFF748FEAB
:100C700005464C4822300555204601F053FC82467B
:100C8000012600BF4749263151F824006A46B1B217
:100C900004F09DFC43480930005D0B2810DA002069
:100CA00040491239085501F11B00015D2046FFF74C
:100CB00091FF3C4912390855FF201B310855E1E7E7
:100CC0002046FFF763FE83465846FFF719FE0546A8
:100CD0000B2D07DA3348223005554FF00808082756
:100CE0006426CFE707B17F1E204601F01BFC824639
:100CF000BAF1000F0ED0B8F1000F0BD057B9B9F10F
:100D0000000F02D14FF0010906E04FF00009A8F1F1
:100D1000010801E04FF000094946204601F05FFE5E
:100D200057B9B8F1000F02D0BAF1000F04D11D4835
:100D3000223005551426A5E70126A3E710B5044681
:100D40000120FFF78BFF10BD2DE9F84304460D4647
:100D50001646012D04D11348801C90F8008007E04E
:100D600025B91048083090F8008001E04FF00108E4
:100D7000374638E0781E00FB08F90A49163151F869
:100D800024006A46002104F022FC06480E3850F880
:100D90002400401C03490E390EE00000B082000818
:100DA000002C01402E000020BE820008EE830008C7
:100DB000B4820008B300002041F82400084650F82F
:100DC0002400484502D2084650F824904A46294655
:100DD0002046FFF7FAFD204601F0AAFF10B90120D6
:100DE000BDE8F8837F1E002FC4D10520F8E7F8B5D1
:100DF00004460D4616462F4624E0F84951F82400D3
:100E00006A46002104F0E3FBF448243850F824003B
:100E1000401CF249243941F82400084650F82420A7
:100E200001212046FFF7D1FD204601F081FF08B9DE
:100E30000120F8BD204601F0A2FFB04201D1002000
:100E4000F7E77F1E002FD8D10520F2E738B5054619
:100E5000284601F094FF01282BD04FF47A53E04844
:100E600000930378012211462846FFF77EFE0122F7
:100E700040F6C4112846FFF7BAFF0446200005D00B
:100E8000012802D0052805D102E004E0052402E093
:100E9000022400E000BF00BF052C05D1192201216A
:100EA0002846FFF751FF044604212846FFF774FD4A
:100EB00000E00524204638BDF8B504460E4620461D
:100EC00001F05DFF012804D02046FFF7BFFF054673
:100ED00000E00525052D29D14FF47A53C048009331
:100EE0000378002201212046FFF73FFE00224FF445
:100EF00016712046FFF77BFF05462DB1012D02D06C
:100F0000052D05D102E004E0052502E0022500E000
:100F100000BF00BF052D05D1324601212046FFF755
:100F200013FF054604212046FFF736FD2846F8BD8D
:100F30002DE9F0410446A9481A3801882046FFF7F8
:100F4000BBFF0546052D18D1A448243850F824705D
:100F5000962300221146104605F00DF92046FFF7B2
:100F600075FF0546052D08D19C48243850F82460AB
:100F700006F5C870B84200D203252846BDE8F081C6
:100F800010B504469548183801882046FFF794FFAD
:100F900010BD10B504462046FFF758FF10BD38B508
:100FA000044600BF8D49103151F824006A460021E3
:100FB00004F00DFB89481338005D012804D0022895
:100FC0000DD0032821D115E0002084492839085587
:100FD0002046FFF7DEFF81492839085516E000203A
:100FE0007E49283908552046FFF7CAFF7B49283932
:100FF00008550BE000207949283908552046FFF7AD
:1010000097FF76492839085500E000BF00BF00204F
:10101000724913390855C5E710B504460120FFF79A
:10102000BEFF10BD10B504460020FFF717FE10BD2F
:1010300010B504460020FFF7B2FF10BD70B586B0B2
:1010400004460D46012C04D16648644908390860FD
:1010500003E06548614908390860012D04D16348FF
:101060005E490839486003E061485C4908394860D6
:10107000002629E0002004F010FA584941F8260023
:10108000002004F00AFA5549103141F826000323E4
:1010900000224FF48071574800EB8620CDE90323EE
:1010A000CDE901015448835D014600938B5D5149B0
:1010B00001EB862101F57F724849083951F8260075
:1010C000002104F00AFD761C022ED3D306B070BDB9
:1010D00001280AD1042903DA404A163A11800FE0A8
:1010E00003223E4B163B1A800AE048B9042903DA72
:1010F0003A4A103A118003E00322384B103B1A8021
:10110000704700EB800149004FF4C86251434FF42F
:10111000B47291FBF2F1314A1A3A1180704700EB38
:10112000800149004FF4C86251434FF4B47291FBFF
:10113000F2F12A4A183A1180704770B5044600252A
:10114000022C03DA25481338005D08B1002070BD79
:1011500002F004F8054621482838065D05201F499D
:1011600028390855284601F0FDFF3046EFE70146D3
:10117000022907DA19481338405C18B9174828388B
:10118000405C08B9012070470020FCE770B50546B7
:101190000C46022D12DA012C03D0022C01D0032CB4
:1011A0000CD10E481338405D40B90C4813384455F3
:1011B00000F1230151F8250004F0CAFA70BD014680
:1011C000022908DA05480C30405C0B2803DA034892
:1011D0000C30405C70470B20FCE70000440000200E
:1011E000B300002031100008251000081910000875
:1011F0003D0D000874050020BC8200082DE9F04177
:1012000004460D46022C14DA142D12DC00260CE0E4
:10121000204601F0C6FD0746FFF772FB0A2802D1FF
:101220000120BDE8F081701CC6B2AE42F0DB0020A8
:10123000F7E70120F5E770B504460025022C03DA34
:101240003648005DFF2801D0002070BD01F086FF08
:10125000054632481B38065D052030491B390855C4
:10126000284601F07FFF3046EFE70146022907DA02
:101270002A48405CFF2803D128481B38405C08B945
:10128000012070470020FCE770B505460C46022D92
:101290000DDA0B2C0BDA2148405DFF2807D11F48DF
:1012A000445500F11D0151F8250004F051FA70BDBC
:1012B00070B500242FE01A4830F81410194806F0D1
:1012C00022FD30B3164830F81410164806F02CFDF5
:1012D000154850F8240000881049153131F81410D1
:1012E0000844114951F8241008800C480F38005D5B
:1012F00008B9012506E0002508490D3151F8240000
:1013000004F026FA2946204601F069FB03480F380D
:101310000555601CC4B2022CCDDB70BD3700002027
:10132000B0820008002C0140B482000870B5054668
:10133000AB48007820B9284601F021FD044603E0BF
:10134000284601F025FD0446012C01D1002070BD86
:101350000120FCE770B5044600252046FFF7E6FFB4
:10136000064601F0FBFE05469D48001D50F824008E
:10137000C6F1FF31884217D899480C3050F8240044
:1013800010F1020F10D89648001D50F82400304488
:101390009349091D41F8240001F1080050F8240088
:1013A000401C083141F82400284601F0DBFE70BDE6
:1013B00001468B480078012803D18A48007801282B
:1013C00005D08748007820B98648007808B9012000
:1013D00070470020FCE72DE9F0410024002500BF04
:1013E00000BF012300221146104604F0C4FE641C15
:1013F00084B1002400260BE0F0B2FFF7D9FF30B132
:101400007748401C805D10B1F0B2FFF7A3FF761C57
:10141000022EF1D36D1C0A2DE3D30025002611E026
:101420006F481830805D6E4916318855881D805D83
:10143000091D8855881C8219001F8119F0B201F01E
:1014400066FC761C022EEBD3CBE700B585B00323F8
:10145000002280216448CDE90323CDE901010F2357
:1014600000F5FE7200216148009304F036FB05B0E0
:1014700000BD014602291ADA59481630405C01289D
:1014800006D157481830405C012801D1012200E004
:10149000002253481A30405C012806D150481C30C5
:1014A000405C012801D1012303E0002301E0002278
:1014B000002342EA4300C0B27047494908707047B0
:1014C00070B50025002413E001F048FE0546002019
:1014D0004349091D41F82400083141F8240008312E
:1014E0000855012013390855284601F03BFE641CBD
:1014F000022CE9D370BD70B5002500243DE001F059
:101500002DFE0546E0B2FFF753FF30B33448401CD0
:10151000005DD0B132480C3050F8240000EB800060
:101520002F49091D51F8241001EBC10202EB0111F2
:10153000B0EB810F04D9012029491431085510E07E
:1015400000202749143108550BE0002024491431AC
:10155000085501201339085503E0002020491431B3
:10156000085500201E49091D41F82400083141F8A2
:101570002400284601F0F6FD641C022CBFD370BD88
:1015800070B50025002412E001F0E8FD05460020BA
:101590001349091D41F82400083141F8240008319D
:1015A000085513390855284601F0DCFD641C022C4F
:1015B000EAD370BD70B504460025022C0DDA01F0A7
:1015C000CDFD054606481430065D0020044914315F
:1015D0000855284601F0C6FD00E00026304670BDE3
:1015E0005C000020B4000020740D0020D713000818
:1015F0000146072908D2DFE801F00908040B0C0AAC
:10160000050000BF0120704700BF00BF00BF00BF42
:1016100000BF0020F7E7014607290AD2DFE801F002
:101620000A05040B0C07060000BF00BF00BF012025
:10163000704700BF00BF00BF0020F9E70246072A3D
:1016400017D2DFE802F0171304181407050000BFD3
:1016500001207047F848405C022803D0F648405CFF
:10166000062801D10120F4E70220F2E700BF0220A2
:10167000EFE700BF00BF0320EBE70146EE481E384E
:10168000405CA8B9EC48801E405C07280CD2DFE81B
:1016900000F00D08090C0705040000BF0220704788
:1016A00000BF00BF0120FAE700BF00BF0020F6E73F
:1016B0000020F4E70146E0481E38405CA8B9DE4847
:1016C000801E405C07280CD2DFE800F00D09060CF4
:1016D0000805040000BF00BF0220704700BF0120C2
:1016E000FBE700BF00BF0020F7E70020F5E770B57B
:1016F0000546D1481738007880B9CF481E38405D7C
:1017000038B9CD49891E485D2946FFF797FF044641
:1017100000E003242146284600F0AEFF70BD70B5FE
:101720000446C54816380078012818D1C2481E382A
:10173000005DA0B9C049891E085DFFF76CFF18B1B4
:10174000BD481438057800E00A2529462046FFF7F1
:101750009BFD0020B84918390870012070BD002099
:10176000FCE770B504462046FFF7A4FF0546014696
:10177000204601F067F870BD014641B1012903D050
:10178000022903D1082070470420FCE700BF022093
:10179000F9E770B50546A848143805700120A64938
:1017A00016390870002403E0E0B2FFF7B8FF641CAC
:1017B000022CF9D370BDF0B5024602239F48007891
:1017C000401E032690FBF6F0C4B29C480078401EF1
:1017D00090FBF6F706FB1700C5B28C4201DB002434
:1017E000002532F81400C5F10206760030410126CA
:1017F000C6EB86063040F0BD704770B504460D4616
:101800000020FFF7C6FF70BD70B504460D460120ED
:10181000FFF7BFFF70BD70B504460D460220FFF70D
:10182000B8FF70BD70B504460D460320FFF7B1FF49
:1018300070BD70B504460D460420FFF7AAFF70BDC9
:1018400070B504460D460520FFF7A3FF70BD70B5C7
:1018500004460D460620FFF79CFF70BD70B5044698
:101860000D460720FFF795FF70BD70B504460D4685
:101870000820FFF78EFF70BD70B504460D460920A5
:10188000FFF787FF70BD70B504460D460A20FFF7CD
:1018900080FF70BD2DE9F04104460D4629462046E3
:1018A000FFF789FF064616F0020F04D000206249B8
:1018B0001E39087003E001205F491E39087016F0D8
:1018C000010F04D000205C491E39487003E001205C
:1018D00059491E394870002714E0F8B2FFF707FF96
:1018E000F8B2FFF73EFF54481838007848B952481C
:1018F0001A38C05D28B9F8B2FFF711FF4E491A39FE
:10190000C8557F1C022FE8D3BDE8F0814A4A103A3F
:1019100012887AB1028802F07F02474B103B1B8885
:101920009A420CD1428802F07F02434B123B1B8843
:101930009A4204D10022404B0E3B1A7003E0012270
:101940003D4B0E3B1A70704770B505460C463A4841
:10195000801E405D38494855881E44552846FFF78B
:10196000C6FE2846FFF7FDFE70BD10B5044632489E
:10197000801E005D012802D005280AD104E0022162
:101980002046FFF7E1FF05E006212046FFF7DCFFD8
:1019900000E000BF00BF10BD70B504460D462946EB
:1019A0002046FFF708FF064616F0020F02D000207F
:1019B000FFF7DBFF16F0010F02D00120FFF7D5FF84
:1019C00070BD70B504460E46208810F07F0F01D11F
:1019D000002500E001252846FFF76FFD70BD70B5BA
:1019E00005460E46002001F0D3F9012801D1142448
:1019F00000E0152400212046FEF7FEFD70BD70B505
:101A000004460D4629462046FFF7D5FE064616F049
:101A1000020F04D0012008491C39087003E000209F
:101A200005491C39087016F0010F09D00120024940
:101A30001C39487007E000009A000020B500002023
:101A40000020FB49487070BD70B505460E46002465
:101A500008E0F748801E005D18B90121E0B2FFF7E9
:101A600095FB641C022CF4D370BD70B505460E4680
:101A700000240CE0EE48801E005D38B9EC48005DA3
:101A8000012803D10221E0B2FFF780FB641C022C85
:101A9000F0D370BD70B505460E4600240CE0E44856
:101AA000801E005D38B9E248005D012803D10321A2
:101AB000E0B2FFF76BFB641C022CF0D370BD70B575
:101AC00004460E46002510E0218801F07F00FFF754
:101AD00018FB618801F07F00FFF721FBA08800F070
:101AE0007F010120FFF7F4FA6D1C022DECD370BDCD
:101AF00070B504460D4600210120FEF77DFD70BD46
:101B000070B504460D460121002000F0B5FD70BD02
:101B100070B504460D460221002000F0ADFD70BDF9
:101B200070B504460D460021084600F0A5FD70BDC5
:101B30000122BF4B5B1D1A70704770B505460E46FB
:101B40000020BB49491D0870002403E0E0B2FFF704
:101B5000CEFD641C022CF9D370BD70B504460D4651
:101B60000121084600F088FD70BD70B504460D46A1
:101B70000221012000F080FD70BD70B504460D46C5
:101B80000021012000F078FD70BD0022A84B9B1DB4
:101B90001A70704770B505460E460020FFF765FBCA
:101BA00008B1122420E0A248C01D007818B1A04856
:101BB0000830047818E00020FFF701FB04460A2CE7
:101BC00012D09B48001D007870B999480830007801
:101BD0000A2803D096480830047805E00821002040
:101BE000FFF70CFB00B10A2400212046FEF704FD9C
:101BF00070BD70B505460E460120FFF736FB08B1F3
:101C0000122420E08A48C01D007818B188480830A6
:101C1000047818E00120FFF7D2FA04460A2C12D00B
:101C20008348001D007870B98148083000780A2880
:101C300003D07F480830047805E008210120FFF731
:101C4000DDFA00B10A2400212046FEF7D5FC70BD64
:101C500070B505460E460020FFF707FB08B11224B9
:101C600003E0002001F0D4F8041200212046FEF722
:101C7000C3FC70BD70B505460E460120FFF7F5FAAE
:101C800008B1122403E0012001F0C2F8041200217F
:101C90002046FEF7B1FC70BD70B505460E4600202B
:101CA0006349891D08700120491C0870002407E061
:101CB0005F48801E005D10B9E0B200F0F3FC641CC8
:101CC000022CF5D370BD70B505460E46002413E016
:101CD0005748801E005D70B955491A31085DFFF7FD
:101CE00087FC40B152481C30005D022803D002211D
:101CF000E0B200F0C1FC641C022CE9D370BD10B549
:101D0000002431E04A481A30005D032806D0042838
:101D100009D005280CD0062823D11DE00021E0B20F
:101D2000FFF712FE1EE00121E0B2FFF70DFE19E001
:101D30003F481C30005D022804D03D481C30005D47
:101D4000062804D10221E0B2FFF7FEFD03E00121E5
:101D5000E0B2FFF7F9FD05E00221E0B2FFF7F4FD84
:101D600000E000BF00BF641C022CCBD310BD70B5D7
:101D700004460D46FFF7C3FF70BD10B500241AE0FE
:101D80002B481A30005D20B1012807D002280FD15E
:101D900009E00321E0B2FFF7D7FD0AE00421E0B239
:101DA000FFF7D2FD05E00621E0B2FFF7CDFD00E030
:101DB00000BF00BF641C022CE2D310BD70B5044606
:101DC0000D46FFF7DAFF70BD2DE9F04106460F46DC
:101DD0000020FFF752FC0546FFF7CEFC0005040C7F
:101DE0000120FFF74AFC0546FFF7C6FC044300212B
:101DF0002046FEF701FCBDE8F08170B505460E46B1
:101E000001200B49891D087000240EE00848001DC0
:101E1000007848B90648801C005D28B9E0B2FFF799
:101E20007EFC0349891C0855641C022CEED370BD4E
:101E30007E00002010B5002413E0F948005D022860
:101E400002D006280AD104E00121E0B2FFF77CFDB0
:101E500005E00521E0B2FFF777FD00E000BF00BF1D
:101E6000641C022CE9D310BD70B505460E46002057
:101E7000EB49143908700120491C0870E9480078C2
:101E800068B9FFF7D7FF002407E0E5481C38005D7C
:101E900010B9E0B200F006FC641C022CF5D3FFF789
:101EA0000FFB70BD70B504460D460020DC491339A8
:101EB0000870FFF765FB70BD10B5D9480838006899
:101EC000401CD7490839086008460068032803D138
:101ED00000200860FFF70FFB10BD70B505460E46E9
:101EE0000020CF49143908700120491C0870CD48E2
:101EF0000078A0B9FFF7E0FF00240DE0C849085DB5
:101F0000FFF789FB012806D1E0B2FFF753FB10B1C0
:101F1000E0B2FFF72AFD641C022CEFD301E0FFF7CB
:101F2000CBFF70BD70B505460E46BD481C38007825
:101F300018B90020FFF71BF938B9B9481C384078A8
:101F400028B90120FFF713F908B1122417E0B448AB
:101F50001C38007830B9002000F011FF012801D0B2
:101F600061240CE0AE481C38407830B9012000F004
:101F700006FF012801D0602401E0AB48047800216D
:101F80002046FEF739FB70BD2DE9FC4106460F46A1
:101F900000241AE0A2481C38005D78B9A0481A381D
:101FA000005D01280AD1E0B2FFF7C7F801A9085582
:101FB000E0B2FFF7FFFA0DF8040005E0052001A9E3
:101FC000085500200DF80400641C022CE2D39DF893
:101FD000040010B19DF8050008B912254AE09DF8EB
:101FE0000400012803D09DF80400022801D1312506
:101FF00040E09DF80500012803D09DF80500022867
:1020000001D1302536E09DF80400032801D12125B7
:1020100030E09DF80500032801D120252AE09DF835
:102020000000012809D19DF80100012805D17C4854
:102030001338007808B113251CE09DF80000012832
:1020400005D177481338007808B1512512E09DF882
:102050000100012805D172481338007808B15025D5
:1020600008E06F480C380078012801D1162501E0FE
:102070006D48057800212846FEF7BEFABDE8FC81D0
:102080002DE9FF4106460F46002432E064481C3823
:10209000005D18BBE0B2FFF7CEF803A90855604910
:1020A000085DFFF7A5FA02A90855E0B2FFF7E1F9CC
:1020B000032803D1012001A9085502E0002001A94D
:1020C0000855E0B2FFF77BF80B2803D101200DF88B
:1020D00004000DE000200DF8040009E0052003A92C
:1020E0000855002002A9085501A908550DF804005B
:1020F000641C022CCAD39DF80C0010B19DF80D0091
:1021000008B912255EE09DF80C00012803D09DF867
:102110000C00022801D1312554E09DF80D00012862
:1021200003D09DF80D00022801D130254AE09DF82A
:102130000C00042801D1412544E09DF80D0004283D
:1021400001D140253EE09DF80400012801D1212560
:1021500038E09DF80500012801D1202532E09DF8E6
:102160000800012805D12E481338007808B1512500
:1021700028E09DF80900012805D129481338007886
:1021800008B150251EE09DF80000012806D1244822
:1021900014380078012801D1612513E09DF8010071
:1021A000012806D11E4814380078012801D1602585
:1021B00008E01B480C380078012801D1162501E001
:1021C0001948057800212846FEF716FABDE8FF8178
:1021D00010B504461248005D06281DD2DFE800F065
:1021E00003041C0F101100BF02212046FFF7ACFBB7
:1021F0002046FFF794FA0A49183908550DE000BF48
:1022000000BF06212046FFF79FFB2046FFF787FA15
:1022100003491839085500E000BF00BF10BD000099
:1022200098000020B4000020B500002010B504463E
:10223000D448005D10B1032816D10AE001212046E0
:10224000FFF782FB2046FFF76AFACE491839085596
:102250000BE004212046FFF777FB2046FFF75FFAEB
:10226000C8491839085500E000BF00BF10BD10B5BF
:102270000446C448005D07281ED2DFE800F01D05B3
:10228000041D1211100000BF00212046FFF75CFB67
:102290002046FFF744FABB49183908550DE000BF46
:1022A00000BF03212046FFF74FFB2046FFF737FA18
:1022B000B4491839085500E000BF00BF10BD014601
:1022C000C9B2C81101D1012070470020FCE70146C6
:1022D000C9B219B1AC480078814201D101207047E0
:1022E0000020FCE710B502460023002405E032F888
:1022F0001400184483B2601CC4B28C42F7DB03F0B4
:102300007F0010BD2DE9F04704462046FFF7D7FFB8
:10231000B0B19C48001F006830B100209949091FE6
:102320000860012000F0E6FC9648001F0168006884
:10233000401C944A121F1060944820F811407BE022
:102340009048001F0068002873D08E48001F016865
:102350000068401C8B4A121F10608C4820F8114006
:1023600045888B4800882E1A06EB4600884901EB09
:102370008000877810460168B81C81425CD183498F
:102380000888FFF7A4FF00284DD0DFF8008208F18D
:10239000040880480078B8B906EB46007C4901EB98
:1023A0008000394682684046904706EB46007849EF
:1023B00001EB800080687849884202D04FF0010923
:1023C00019E04FF0000916E006EB4600704901EBFA
:1023D0008000394642684046904706EB46006C490B
:1023E00001EB800040686C49884202D04FF001093F
:1023F00001E04FF0000987B1D12D0ED0B9F1000FE7
:102400000BD039464046FFF76DFF5E491039088012
:1024100007F07F00891C088005E000205949103929
:102420000880891C088000205649091F086003E0C5
:10243000FFE7012000F05EFCBDE8F087704710B5B3
:1024400004465648007818B12046FFF7F7FF02E02F
:102450002046FFF757FF10BD10B54E48007810BB5F
:1024600000241EE0E0B2FEF700FFC8B9E0B2FFF7BB
:1024700000F830B1012808D002280AD003280DD076
:102480000BE0E0B2FFF7D2FE09E0E0B2FFF7A0FEFA
:1024900005E0E0B2FFF7EBFE01E000BF00BF00BFC8
:1024A000641C022CDED310BD10B53A480078002819
:1024B0002CD1002428E0E0B2FEF7DBFF30B1012888
:1024C00008D002280AD003280DD00BE001202D49A6
:1024D00008550CE002202B49085508E00020294946
:1024E000085504E000BF00202649085500BF00BF82
:1024F000E0B2FFF7FCF8E0B2FFF733F92148005DE6
:102500002049891C0855641C022CD4D310BD704787
:1025100010B52248007810B1FFF7F9FF01E0FFF78E
:10252000C3FF10BD014602290FDA16481C38405C73
:1025300038B914481538007818B91248133800789B
:1025400008B1002070470020FCE70020FAE710B532
:1025500010480078A8B90B481338007888B90024CF
:102560000DE0022C0AD207481C38005D30B905483E
:10257000005D022802D1E0B200F094F8641C022C45
:10258000EFD310BD98000020B5000020740F00208C
:1025900054840008B4000020F9170008B20000209D
:1025A00070B50446257800BF4349485D03F017FD28
:1025B00001221146284600F057FA032616E00122B0
:1025C0000021284600F050FA6423002211461046EC
:1025D00003F0D1FD01221146284600F045FA64239C
:1025E00000221146104603F0C6FD761E002EE6D1ED
:1025F0003248425D801E415D284600F035FAD3E73F
:1026000030B585B0002425E001202C49891E0855ED
:102610000020891C08552A480A3941F82400032360
:1026200000228021274800EB442001AD0FC522483D
:10263000035D054600932B5D224D05EB442505F512
:10264000FE72214D29191D4D0A3D55F8240003F055
:1026500044FA641C022CD7D305B030BD01460229D0
:1026600008DA1648405C154A921E525C40EA420065
:10267000C0B270470320FCE770B504460D46022C3B
:102680000FDAC5F340000D49891E085505F0010019
:10269000891C08550846025D801E015D204600F039
:1026A000E3F970BD10B50446022C03DA0249085D57
:1026B00003F0F8FB10BD0000568A0008A6000020B9
:1026C000A1250008880F0020548A000810B50121B8
:1026D000432004F04CFD0121FE4804F062FD01217D
:1026E0004CF67D6004F050FD10BD08B54FF4E0607D
:1026F00003F006FE25208DF8000008208DF802006A
:1027000001208DF80300684603F0FFFD1B208DF8C3
:10271000000004208DF8020001208DF803006846B7
:1027200003F0F3FD08BD0EB5EB480068EB49B0FBC4
:10273000F1F0401E80B2ADF800000020ADF80200BC
:102740004FF6FF70ADF804000020ADF806008DF8DC
:1027500008006946E24804F0DBFD0121E04805F08D
:102760003AF80EBDDE4824300088704710B5DC4CC6
:1027700024342188022800DA02200C18A2B28A42EE
:1027800008DD00BFD64C243423888B420ADB9342F9
:10279000F8DB07E000BFD24C243423889342FADBF5
:1027A0008B42F8DA10BDFEB5002418E0CA48006874
:1027B0004FF4FA51B0FBF1F0C0EB001080000A2199
:1027C000B0FBF1F504F1080086B206EB450071009C
:1027D000B0FBF1F0401EC34921F81400641C5D2CCD
:1027E000E4D3C0480088ADF800000020ADF8020036
:1027F0004FF6FF70ADF804000020ADF806008DF82C
:1028000008006946B84804F083FD0121B64804F089
:10281000E2FFFEBD10B50446082C0ADB642C08DC80
:10282000A4F10800AF4A32F810100122AE4805F0BA
:102830007BF810BDAC482430008870470020AB49BD
:102840000870704770B504460D46A949085D2A46D0
:10285000022100F032FC70BD10B500240AE0A4494A
:10286000085D1022022100F0B1FB0121E0B2FFF768
:10287000E9FF641C022CF2D310BD00B591B09D4855
:10288000019098482038029000200390082004907E
:10289000002005908020069080000790800008901E
:1028A0002020099000200A900B9001A9924804F082
:1028B00056F80121904804F07DF84FF4404004F0B0
:1028C000C7FB4FF4C0200C9000208DF8340001208D
:1028D0008DF835004FF460200E9000200F900120FD
:1028E0008DF840000CA983484C3803F0A0FD0CA9DA
:1028F000824803F09CFD0623012208217D484C38C4
:1029000003F02BFE0623012209217C4803F025FE5B
:10291000012178484C3803F0C0FD0121774803F0CD
:1029200076FE012173484C3803F0ACFD0121734859
:1029300003F0A8FD6F484C3803F0C6FD6F4803F064
:10294000C3FD00BF6B484C3803F0C3FD0028F9D12C
:1029500000BF6A4803F0BDFD0028FAD165484C3835
:1029600003F0C1FD654803F0BEFD00BF61484C386F
:1029700003F0BEFD0028F9D100BF604803F0B8FDA8
:102980000028FAD10021102000F008FB00211120BE
:1029900000F004FB012157484C3803F0B3FD11B09F
:1029A00000BD10B500240CE05149091F085D482105
:1029B00000F0F4FA4E49891E085D482100F0EEFA55
:1029C000641C022CF0D310BD70B504460D46484976
:1029D0001039085D2A46022100F06FFB70BD70B50A
:1029E00004460D4642491439085D294600F04EFB65
:1029F00070BD10B51021382000F0D0FA10214E2003
:102A000000F0CCFA0121382000F040FB002421E046
:102A100037491639085D482100F0C0FA34491439A5
:102A2000085D102100F0BAFA0021E0B2FFF7D7FFED
:102A30002F491239085D102100F0B0FA2C491039E5
:102A4000085D1022022100F0C1FA0321E0B2FFF775
:102A5000BBFF641C022CDBD30820FFF787FE01219B
:102A60004E2000F013FB10BD70B504460D4616460F
:102A70001F490839085D294600F008FB1C49891FD9
:102A8000085D314600F002FB70BD10B500241DE06A
:102A900017490C39085D482100F080FA14490A39B9
:102AA000085D482100F07AFA11490839085D1021C3
:102AB00000F074FA0E49891F085D102100F06EFACB
:102AC00001221146E0B2FFF7CFFF641C022CDFD3D6
:102AD00010BD000007000402D48B000800127A0029
:102AE000002C0140A813002000040040B200002088
:102AF0006E8A00084C240140080002400028014072
:102B000070B504460E46254604EBD4714910A4EB7B
:102B10004101F64A505C314600F0B8FA70BD10B57C
:102B2000002409E0F149085D142100F037FA012181
:102B3000E0B2FFF7E5FF641C022CF3D310BD1CB517
:102B40000221002004F085F90821012004F081F918
:102B50000420009000208DF804000C208DF8050062
:102B600001208DF80600684603F08CFF4FF480705A
:102B7000009000208DF804000C208DF80500012045
:102B80008DF80600684603F07DFF1CBD10B586B0C9
:102B90000020ADF80C00ADF80E0040F23F60ADF83B
:102BA00010000020ADF81200684604F002FE062076
:102BB000ADF8080000242EE0CD4951F8240003A907
:102BC00004F0A6FBCA4951F8240002230022032185
:102BD00004F0B5FEC64951F82400694604F051FDE1
:102BE000C2491031085D0422022100F0EFF9BF490B
:102BF0001231085D042100F0D1F9BD4951F82400DB
:102C00000122114604F002FEB94951F824000121C5
:102C100004F0E1FD641C022CCED306B010BD10B54B
:102C20000421202000F0FEF904460421084600F0AB
:102C3000F9F944EA00140221242000F0F3F944EAEF
:102C40000024C4F3090010BD70B5482206212020DD
:102C500000F0BCF948220421084600F0B7F96425C9
:102C600023E0FFF7DCFF044604F00300A1490870ED
:102C7000C4F30010A0490870C4F383109F49087082
:102C80000846007818B910209D49087003E09B4859
:102C900000789B4908704FF4FA50FFF767FDFFF783
:102CA000BEFFA04200D102E06D1E002DD9D100BFB1
:102CB00070BD10B5FFF70AFDFFF717FDFFF733FDF5
:102CC000FFF7BCFDFFF7C0FF8E48007828B1FFF783
:102CD0006AFDFFF75BFFFFF732FFFFF720FFFFF70B
:102CE000D4FEFFF786FEFFF75CFEFFF7C6FDFFF799
:102CF000B3FD10BD70B50446254604EBD4714910F0
:102D0000A4EB4101794A505C00F0F5F970BD70B553
:102D100004460D4616467549891C085D00F074F995
:102D200028707249091D085D00F06EF9307070BDA1
:102D300010B504466D490839085D00F065F9C0B268
:102D400010BD10B504466949891F085D00F07DF982
:102D5000C0B210BD70B504460D466449091F085D38
:102D6000294600F093F970BD614A52F82020918401
:102D7000704701465E4850F82100808C704710B5BE
:102D800004465A490A31085D00F03EF9C0B210BD50
:102D900010B5044655490C31085D00F035F9C0B254
:102DA00010BD10B5014611B101292BD114E05048D6
:102DB000083003780078401C4D4C0834207052488D
:102DC00030F8232023461878C31700EB5373DB1029
:102DD000A0EBC303237017E045480930037800785F
:102DE000401C434C09342070474800EB8300428864
:102DF00023461878C31700EB5373DB10A0EBC30313
:102E0000237001E0002200BF00BF1005000C10BDC0
:102E10000146002311B1012917D10AE0002205E083
:102E2000394830F82200184483B2521C082AF7D3DC
:102E30000CE0002206E0344800EB82004088184491
:102E400083B2521C082AF6D300E000BF00BF58042A
:102E5000000C704710B5044624B101212D2000F06C
:102E600015F903E000212D2000F010F910BD1FB569
:102E7000264800902348007820B14FF48050ADF8E8
:102E8000040002E00020ADF804004FF40050ADF85B
:102E900006000020ADF80800ADF80C000C20ADF8DD
:102EA0000A0069461A4804F086FF012240F22551C3
:102EB000174804F0FCFF002240F22661144804F099
:102EC000F6FF10212D2000F069F81821092000F0EC
:102ED00065F804210A2000F061F80020FFF7BAFF2E
:102EE00001210B4804F0D7FF1FBD0000608A0008D5
:102EF000A8000020B3000020B4000020B50000208E
:102F0000B6000020B200002088130020A086010037
:102F1000003801400311072B17D2DFE803F0040744
:102F20000A0D10131700864B0B6012E0854B0B60E7
:102F30000FE0854B0B600CE0844B0B6009E0844B89
:102F40000B6006E0834B0B6003E000BF824B0B601D
:102F500000BF00BF00F00F03136070472DE9F84376
:102F600004460D4616461F46DDF820806A46314667
:102F70002046FFF7CFFF0098C0F110094D4501D85A
:102F8000284600E04846814600983860012000FA53
:102F900009F0401EC8F80000BDE8F8833EB50446BD
:102FA0000D4601AA02A92046FFF7B4FF01200199AE
:102FB000884080B2ADF800008DF8035003208DF8F2
:102FC00002006946029803F045FE3EBD70B586B02A
:102FD00004460D46164603AB009304AB05AA2946EA
:102FE0002046FFF7BBFFDDE90301884080B2ADF862
:102FF00008008DF80B6003208DF80A0002A90598DF
:1030000003F028FE06B070BD1CB504466A4601A94F
:103010002046FFF77FFF019880680099C84000F0C4
:1030200001001CBD7FB504460D4601AB009302AB09
:1030300003AA29462046FFF791FF0398806802996A
:10304000C8400199084004B070BD1CB504466A46EA
:1030500001A92046FFF75EFF0198C0680099C840AB
:1030600000F001001CBD7FB504460D4601AB009386
:1030700002AB03AA29462046FFF770FF0398C068F9
:103080000299C8400199084004B070BD7CB504465F
:103090000D466A4601A92046FFF73CFF0198C0682B
:1030A0000121009A9140884305F00101914040EAD6
:1030B00001060198C66030467CBD2DE9FF410446FB
:1030C0000D46164601AB009302AB03AA29462046E3
:1030D000FFF744FF0398C068DDE90112914088437F
:1030E00001993140914040EA01070398C760384692
:1030F00004B0BDE8F0811CB504466A4601A920462B
:10310000FFF708FF0198C1680120009A90404140F4
:103110000198C1601CBD7FB504460D4601AB00930C
:1031200002AB03AA29462046FFF718FF0398C1689F
:10313000DDE90102904041400398C1607FBD00007D
:1031400000080140000C0140001001400014014043
:1031500000180140001C014000200140EFF31080E6
:1031600072B6704780F3108870471D484FF0FF011A
:103170000170002080F309881A48012101701A4863
:103180004FF08051016062B6FEE717484FF0805162
:103190000160704714484FF080510160704772B66B
:1031A000EFF3098028B1203880E8F00F0F49096853
:1031B000086000B50E4880475DF804EB0D480E49E5
:1031C0000A78027009480D490A680260106890E8A0
:1031D000F00F203080F309884EF0040E62B670477D
:1031E00022ED00E0DA00002004ED00E0E000002025
:1031F000C7320008D3000020D4000020E8000020DF
:103200007047704710B504462046FDF75DF810BDC5
:1032100010B504462046FDF758F810BD10B5FDF76F
:1032200055F810BD10B5FDF752F810BD70B5044645
:1032300010464FF080750560051F28462C606FF022
:103240000105061F304635604FF01235061F304627
:1032500035604FF00335061F304635604FF00235BC
:10326000061F304635606D10061F30463560051F5D
:10327000284629604FF01135061F304635604FF063
:103280001035061F304635604FF00935061F3046B1
:1032900035604FF00835061F304635604FF0073572
:1032A000061F304635604FF00635061F3046356044
:1032B0004FF00535061F304635604FF00435061FC8
:1032C0003046356070BD10B5FDF702F810BD10B581
:1032D00004462046FCF7FDFF10BD10B5FCF7FAFFD1
:1032E00010BD10B5FFF73AFF04461A480078401C9D
:1032F000184908702046FFF735FF00F0CFFD00F0B9
:10330000D6FC10BD144909684FF47A72B1FBF2F093
:10331000B0F1807F00D31CE020F07F41491E4FF0C8
:10332000E022516100BF5117002905DA0F21090180
:103330000A4A0B23D15404E00F210901084A53170C
:10334000D15400BF00214FF0E022916107211161AB
:1033500000BF7047D1000020DC8B000818ED00E0B2
:1033600000E400E0174818481848194819481A4856
:103370001A481B481B481C481C481D481D481E482D
:103380001E481F481F4820482048214821482248FD
:1033900022482348234824482448254825482648CD
:1033A00026482748274828482848294829482A489D
:1033B0002A482B482B482C482C482D482D4800BF24
:1033C00070470000748A0008788A00087C8A000828
:1033D0007E8A0008808A0008828A0008848A0008A1
:1033E000868A0008888A00088A8A00088C8A000871
:1033F0008E8A0008908A0008928A0008948A000841
:10340000968A0008988A00089A8A00089C8A000810
:103410009E8A0008A08A0008A28A0008A48A0008E0
:10342000A68A0008A88A0008AA8A0008AC8A0008B0
:10343000AE8A0008B08A0008B28A0008B48A000880
:10344000B68A0008B88A0008BA8A0008BC8A000850
:10345000BE8A0008C08A0008C28A0008C48A000820
:10346000C68A0008C88A0008CA8A0008CC8A0008F0
:10347000CE8A0008D08A00080246002005E011F834
:10348000013B02F8013B431CD8B20B78002BF6D16C
:10349000137070472DE9F04104460D46164600278B
:1034A00016B90020BDE8F0811CB90420307000205E
:1034B000F8E71DB90C2030700020F3E7FC480078D5
:1034C000002803DD112030700020EBE72078012870
:1034D00008D0022807D0032802D0042804D100E035
:1034E00000BF00BF00BF03E0012030700020D9E71B
:1034F00000BFFFF733FE074604F10F012846FFF730
:10350000BBFF80463846FFF72DFE00203070404656
:10351000C8E70146002002E0491C421CD0B20A78EC
:10352000002AF9D170472DE9F04104460D461646B0
:103530004FF000080EB9BDE8F08114B904203070D6
:10354000F9E715B90C203070F5E7D9480078002864
:1035500002DD12203070EEE72078012808D0022822
:1035600007D0032802D0042804D100E000BF00BF28
:1035700000BF02E001203070DDE700BFFFF7EEFD85
:1035800080462846FFF7C5FF07460F2F05DD40465A
:10359000FFF7E8FD0B203070CDE7294604F10F005E
:1035A000FFF76AFF4046FFF7DDFD00203070C2E7FD
:1035B000F0B510F8344F8578467834380A4611460D
:1035C00013680EE003F10B0717F804C02CEA060C91
:1035D00007F804C03F5D17B99F7AAF439F72121D71
:1035E0001368002BEED1F0BDB249B34A1278885C63
:1035F000B249095CAF4A515C01EBC001B04A11709D
:10360000704710B50024FFF7A9FD0446A8480078CC
:10361000F8B9AC480078E0B9FFF7E6FFAA48A84936
:10362000097850F82100A9490860A5480078A84900
:10363000097888420DD0A5480068806B401CA349DA
:1036400009688863A3480068401CA2490860FFF726
:103650009CFD2046FFF786FD10BD70B500249E4DF1
:103660002D68EC619C4C24682062014608460B687A
:103670001BE0994C246894F8345003F10B04645D0A
:10368000954D2D6895F835502C43934D2D6895F840
:10369000346003F10B05AC559C7A8F4D2D6895F87D
:1036A00036502C439C72091D0B68002BE1D18A4CCB
:1036B000246894F83420814CA45C874D2D6895F8DB
:1036C0003550AC437D4DAC542C46A45C44B9824C7F
:1036D000246894F83650784C2478AC43764D2C709E
:1036E00070BD2DE9FF5F04460D4616461F46DDF806
:1036F000388000200090B8F1000F02D104B0BDE87E
:10370000F09F24B9042088F800000020F6E725B9CE
:10371000042088F800000020F0E726B9042088F88B
:1037200000000020EAE700202860A1464C46D9F8B6
:1037300000A017E09AF80000062807D2DFE800F0A2
:1037400006040503070808E007E006E000BF00BF25
:10375000012088F800000020D0E700BF09F104092B
:10376000D9F800A0BAF1000FE4D151480078002840
:1037700004DD022088F800000020BFE751480078EF
:10378000002804DD0D2088F800000020B6E7FFF7D0
:10379000E5FC00900020039002900190A1464C4669
:1037A000D9F800A073E09AF8000006285ED2DFE89E
:1037B00000F05D1C33035E5FBAF8080000280FDDDF
:1037C000BAF80800401EAAF8080045F804AB01202A
:1037D0000390002001C60298401C80B2029003E0D2
:1037E000019840F0010001904CE0DAF8040070B15B
:1037F000DAF8040001C60020CAF8040045F804AB5A
:10380000012003900298401C80B2029003E00198CE
:1038100040F00200019035E0DAF804B0BBF8160081
:1038200000281EDDDBF81010081DCBF8100008681A
:1038300001C6DBF80810DBF81000884203D1DBF882
:103840000400CBF81000BBF81600401EABF81600C1
:1038500045F804AB012003900298401C80B202900E
:1038600003E0019840F0040001900BE000BF00BFAE
:103870000098FFF777FC00202860012088F80000FE
:1038800002983BE700BF09F10409D9F800A0BAF19A
:10389000000F88D10398012820D1002028600098CB
:1038A000FFF760FC002088F80000029826E700007F
:1038B000D1000020D28A0008D5000020D6000020C8
:1038C000D4000020D2000020701B0020E80000205F
:1038D000D3000020B8000020E0000020FF4800686E
:1038E00090F83000019941F080010843FB490968D4
:1038F00081F830000020F949096881F83100F74863
:103900000068C7852046FFF7A8FE0098FFF72AFC4D
:10391000FFF777FEFFF722FC0090F048006890F870
:10392000310020B101281FD002281CD100E000BFC7
:10393000EA480068D0F81CA0BAF1000F08D045F89A
:1039400004AB002028600298401C80B2029009E07D
:103950000120E249096881F831002146DF4800680A
:10396000FFF726FE06E000BF2146DC480068FFF7AF
:103970001FFE00BF00BFD948006890F8310020B199
:1039800001282CD0022829D122E09AF8000006282C
:103990000DD2DFE800F00C0607030D0E002001C673
:1039A00011E000BFCD480068406A01C60BE000BFCF
:1039B00000BF0098FFF7D6FB00202860012088F8A0
:1039C000000002989AE600BF002088F800000CE092
:1039D000002001C60E2088F8000006E000BF00208D
:1039E00001C60A2088F8000000BF00BF0020BB49C4
:1039F000096881F83000B949096881F83100B74990
:103A00000968C861B54909680862B449096848622B
:103A10000098FFF7A7FB029870E67CB5002614E03B
:103A20006946304602F08FFA054665B9AC4850F851
:103A3000264044B1012C06D0D4E9020100EB8100FC
:103A400060640198A064701CC6B21F2EE8DD7CBDC6
:103A500010B5002402E0C82002F05EFBA148007807
:103A60000028F8D0A04800686421B0FBF1F09E491E
:103A700008600846006828B900209C490870FF20AB
:103A800002F0ADFA00BFFFF769FB044698480068F2
:103A9000984908600020964908602046FFF762FBBD
:103AA0009448006890490968B0FBF1F0C0F16400E7
:103AB0008E490870FFF7B6FBFFF7AFFF642002F0F6
:103AC0002BFBE0E700B587B00323002280218A4862
:103AD000CDE90323CDE901014FF6FE7300931E23C8
:103AE00000F5FE720021AFF2970001F0F6FF06AA82
:103AF00082A11E2002F085F907B000BD10B5002498
:103B000000BFFFF72BFB044679480068401C78494A
:103B100008602046FFF726FBFFF780FBF1E700B5C2
:103B200087B00323002280217848CDE90323CDE923
:103B300001014FF6FF7300931F2300F5FE72002171
:103B4000AFF2470001F0C9FF06AA71A11F2002F0E1
:103B500058F907B000BD04E0002200F8012B4A1E0E
:103B600091B20029F8DC704730B54FF420716C48F1
:103B7000FFF7F1FF6A4C04F1200500230AE0002062
:103B8000207065603F20E0730021217420342035CF
:103B9000581C83B2132BF2DB0020207060603F20A2
:103BA000E073002121745E485E49086030BD30B585
:103BB0004FF4FD615C48FFF7CEFF80214848FFF7D6
:103BC000CAFF594C04F15C0500230AE065613F20FF
:103BD00084F84C0000214D2001555C345C35581CA4
:103BE000C3B2152BF2D3002060613F2084F84C0053
:103BF00000214D20015500204C4908604A484C499D
:103C0000086030BD00224B4B1A704B48002104E085
:103C1000002200F8012B4A1CD1B20429F8DB002253
:103C2000464B1A70464B1A70464B1A602B4B1A6063
:103C300070470020444908604449087044490870AE
:103C4000444908704449087044490860284908609C
:103C5000284908602449086022490870704710B557
:103C6000FFF7CEFAFFF7E5FFFFF7CCFFFFF79FFF67
:103C7000FFF77AFF00F04EFF01F094F801F0D9FB56
:103C8000FFF74DFFFFF71EFFFFF7BBFAFFF76AFBD9
:103C900010BD31480078012808D12C480078FF2851
:103CA00004D22A480078401C28490870704710B593
:103CB000002429480078012875D1FFF74FFA0446FF
:103CC00022480078002804DD20480078401E1F4963
:103CD00008701E48007800B942E061E0E000002072
:103CE000701B0020D0000020C8000020C40000206D
:103CF000DC000020CC0000207017002075432F4FFF
:103D0000532D49492053746174000000701900203C
:103D100075432F4F532D49492049646C65000000BD
:103D200064140020BC000020F01B0020EC000020E8
:103D3000E4000020D5000020D6000020D3000020A1
:103D4000D4000020E8000020FC000020D10000206A
:103D5000D2000020DB000020DA000020B8000020A4
:103D6000FF480078E0B9FFF73FFCFE48FE490978BC
:103D700050F82100FD490860FB480078FC490978AB
:103D800088420DD0F9480068806B401CF7490968EB
:103D90008863F8480068401CF6490860FFF7FAF9A4
:103DA0002046FFF7DFF910BD10B50024F248007877
:103DB000012811D1FFF7D2F90446F048007840B944
:103DC000E7480078FF2804D2E5480078401CE44921
:103DD00008702046FFF7C6F910BD10B50024E6486C
:103DE0000078012822D1FFF7B9F90446DC480078B1
:103DF000002818DDDA480078401ED94908700846C6
:103E0000007860B9DD48007828B92046FFF7AAF9A4
:103E1000FFF7F7FB0AE02046FFF7A4F906E020468B
:103E2000FFF7A0F902E02046FFF79CF910BD10B59E
:103E3000D148007890B9FFF7D7FBCB480078CC4940
:103E40000870C848C849097850F82100C749086077
:103E500008460068CA490860FFF787F910BD10B529
:103E60000024022002F058F9FFF778F904460020F8
:103E7000C44908602046FFF775F9642002F04CF948
:103E8000FFF76CF90446BF480068BF49086001208D
:103E9000BE4908702046FFF765F910BD70B50026D1
:103EA000FFF71BFAFFF75AF90646B9480068401CAD
:103EB000B74908603046FFF755F9AF480078012848
:103EC00054D1B448007820B1012804D0022809D187
:103ED00003E001250BE0002509E001250120AD49A3
:103EE000087004E001250020AA49087000BF00BF47
:103EF00005B970BDA848046834E0FFF72FF90646FD
:103F0000E08D58B3E08D401E0004000CE08525D103
:103F100094F8300010F0370F08D014F8300F20F06C
:103F20003700207001206070303C02E0002084F8EF
:103F3000310094F8300010F0080F0FD13434A0781D
:103F40009649097808439549087020789449085C97
:103F50006178084314F83419914A50546469304622
:103F6000FFF700F994F832001F28C6D1C1E74FF4DB
:103F70008F707047704710B590F8342001F10B0333
:103F80009B5C90F83540A34301F10B04A3542346F6
:103F90009B5C23B98B7A90F83640A3438B7210BD9B
:103FA0002DE9F04F04460D4616461F46A07A7D497E
:103FB00011F8009004F10B0010F8090011F800A0AE
:103FC0000AEBC90000F0FF0B664850F82B80002078
:103FD000A8F82E00C8F8245098F83000B04388F8AC
:103FE000300088F8317098F8300010F0080F0FD1C9
:103FF00098F83600694909780843684908706848A4
:1040000010F8090098F835100843654901F80900CF
:1040100021464046FFF7AFFFD8F8200030B14046B8
:10402000D8F82010FFF7C4FAC8F81C405846BDE87D
:10403000F08F10B5524A1268D061514A126892F856
:10404000343000F10B02D25C4D4B1B6893F83530D5
:104050001A434B4B1B6893F8344000F10B031A557D
:10406000827A474B1B6893F836301A438272444A6F
:10407000126892F834104A4A525C414B1B6893F81C
:1040800035309A43464B5A541A46525C42B93C4A20
:10409000126892F83630414A12789A433F4B1A70B0
:1040A00010BD0023837200F10B01002204E0002305
:1040B00001F8013B531CDAB2042AF8DB704705E033
:1040C00011F8013B00F8013B531E9AB2002AF7DCBD
:1040D00070472DE9F84F04460D4616461F46DDE9A8
:1040E0000B9ADDF8288000200090FFF737F8009049
:1040F0002D48D0F800B0BBF1000F7ED02A49DBF884
:10410000140008600098FFF72DF8CBF800508BF8EA
:10411000324000208BF830008BF83100ABF82E00D5
:10412000CBF80490CBF80C80CBF80860ABF810A06B
:10413000ABF812708BF83700E0108BF8340004F005
:1041400007008BF833009BF83410012088408BF86F
:1041500036009BF83310012088408BF8350025E0AD
:10416000D2000020701B0020D4000020E8000020B6
:10417000D3000020B8000020DA000020D100002089
:10418000E0000020DC000020C8000020D00000205B
:10419000FC000020F0000020EC000020D5000020F2
:1041A000D6000020D28A0008E40000200020CBF8CE
:1041B0001C00CBF82000CBF82800CBF82400CBF86B
:1041C0003800CBF84000CBF83C00CBF84400CBF8EB
:1041D00048003F208BF84C0000214D2000F80B10C8
:1041E0005846FFF774F85846FFF70CF8FEF7B6FF8D
:1041F00000901C4840F824B000E02DE01A48006808
:10420000CBF814000020CBF818001748006818B14C
:1042100015480068C0F818B01348C0F800B09BF803
:104220003600124909780843104908709BF8340099
:104230000F49085C9BF8351008439BF834100C4A72
:1042400050540C480078401C0A4908700098FEF74A
:1042500089FF0020BDE8F88F0098FEF783FF422019
:10426000F8E70000701B0020EC000020D5000020C3
:10427000D6000020DB0000202DE9F05F04460D464B
:1042800016461F464FF0000B17B90020BDE8F09FFF
:104290001CB96E2038700020F8E72078052803D07C
:1042A000012038700020F1E706F08009B9F1000F15
:1042B00004D026F080064FF0010A01E04FF0000A1A
:1042C00000203870FEF74AFF83466EB3012E3ED0C1
:1042D000022E02D0032E4ED112E0208900EA0508FA
:1042E000A84507D1BAF1010F06D1208920EA0800BC
:1042F000208101E0702038705846FEF733FF42E01D
:10430000208900EA0508B8F1000F07D0BAF1010FC3
:1043100006D1208920EA0800208101E07020387051
:104320005846FEF71FFF2EE0208925EA0008A84521
:1043300007D1BAF1010F06D1208940EA0800208197
:1043400001E0702038705846FEF70CFF1BE0208912
:1043500025EA0008B8F1000F07D0BAF1010F06D125
:10436000208940EA0800208101E07020387058461A
:10437000FEF7F8FE07E05846FEF7F4FE4FF000089F
:104380006F20387000BF00BF40467FE72DE9F04145
:1043900004460D46002715B90020BDE8F081FA4813
:1043A0000078002803DD102028700020F5E7FEF7D4
:1043B000D5FE0746F548066896B100684068F3499F
:1043C0000860052030703481002070603F20B0729A
:1043D0000021F1723846FEF7C5FE0020287004E087
:1043E0003846FEF7BFFE722028703046D5E730B55C
:1043F000436804682BB9C26854602CB1002565601D
:1044000002E01C6004B16360816800258D6230BDEC
:10441000F0B504460D46A66800202C367080358025
:10442000307920F0200030710020707130792C3EFE
:1044300088B93436B078D64909780843D449087029
:104440003078D449085C7178084316F83419D14A99
:104450005054012700E000272046FFF7C8FF3846E8
:10446000F0BD2DE9F04704460D4616464FF0000A10
:1044700016B92046BDE8F0871CB96E203070204682
:10448000F8E7C1480078002803DD0F20307020468F
:10449000F0E72078052803D0012030702046E9E7B6
:1044A000FEF75CFE8246606808B1012700E0002745
:1044B00015B1012D40D11BE09FB93F20A072002112
:1044C000E17200202070B148006860600020208107
:1044D000AE4804605046FEF745FE0020307080462E
:1044E00005E05046FEF73EFE49203070A0462AE027
:1044F000D4F8049005E000214846FFF789FFD9F879
:104500000090B9F1000FF6D13F20A0720021E172B6
:10451000002020709D4800686060002020819B483A
:1045200004605046FEF71EFE012F01D1FFF769F827
:1045300000203070804606E05046FEF713FE07204C
:104540003070A04600BF00BF404693E72DE9F04120
:1045500004460D461646002716B90020BDE8F08136
:104560001CB96E2030700020F8E71DB90C203070A7
:104570000020F3E784480078002803DD1120307024
:104580000020EBE7FEF7EAFD07462078052806D075
:104590003846FEF7E7FD012030700020DEE704F129
:1045A0000A012846FEF768FF80463846FEF7DAFD26
:1045B000002030704046D1E72DE9F04104460D4619
:1045C00016464FF000080EB9BDE8F08114B96E2010
:1045D0003070F9E715B90C203070F5E76A480078BB
:1045E000002802DD12203070EEE7FEF7B7FD8046AE
:1045F0002078052805D04046FEF7B4FD0120307034
:10460000E2E72846FEF785FF07460F2F05DD404607
:10461000FEF7A8FD73203070D6E7294604F10A00A2
:10462000FEF72AFF4046FEF79DFD00203070CBE7E5
:10463000F0B5059D584F3F6897F8307047F0200758
:10464000DFF854C1DCF800C08CF830700027DFF8C8
:1046500048C1DCF800C08CF831704F4F3F68FD85D1
:104660004D4F3F68B9620A828B744B4F3F688F6031
:1046700047680F6000274F60C860466806B17160E8
:104680004160454F3F6897F83440424F3F5DDFF847
:1046900008C1DCF800C09CF835C027EA0C07DFF839
:1046A000F4C00CF8047067463F5D5FB93A4F3F684D
:1046B00097F836C0364F3F7827EA0C07DFF8D0C0AE
:1046C0008CF80070F0BD2DE9F04F89B004460D461E
:1046D00016461F46DDF8488000200290B8F1000F12
:1046E00002D109B0BDE8F08F24B96E2088F800002F
:1046F0000020F6E724480078002804DD022088F82E
:1047000000000020EDE725480078002804DD0D209A
:1047100088F800000020E4E72078052804D0012074
:1047200088F800000020DCE706F080000390039882
:1047300020B126F080064FF0010B01E04FF0000B96
:10474000FEF70CFD0290002E59D0012E7CD0022ED7
:1047500002D0032E6CD12EE0208900EA0509A9457C
:104760001ED1BBF1010F03D1208920EA090020816D
:1047700009480068A0F82C900298FEF7F3FC00208E
:1047800088F800004846ACE7D1000020C0000020B7
:10479000D5000020D6000020E0000020D20000203C
:1047A00033462A4604A920460097FFF741FF0298A6
:1047B000FEF7D8FC76E0208900EA0509B9F1000F80
:1047C00012D0BBF1010F03D1208920EA090020811A
:1047D000E1480068A0F82C900298FEF7C3FC002086
:1047E00088F8000048467CE733462A4604A920465C
:1047F0000097FFF71DFF0298FEF7B4FC52E02089F6
:1048000025EA0009A94514D1BBF1010F03D1208984
:1048100040EA09002081D0480068A0F82C90029856
:10482000FEF7A0FC002088F80000484659E70BE09E
:104830002EE033462A4604A920460097FFF7F8FEEB
:104840000298FEF78FFC2DE0208925EA0009B9F1D6
:10485000000F12D0BBF1010F03D1208940EA0900FB
:104860002081BD480068A0F82C900298FEF77AFCE1
:10487000002088F80000484633E733462A4604A95A
:1048800020460097FFF7D4FE0298FEF76BFC09E084
:104890000298FEF767FC4FF000096F2088F80000CF
:1048A00048461EE700BFFEF7ACFEFEF757FC02903D
:1048B000A948006890F8310038B3A748006890F81C
:1048C00031A00020A449096881F8310004A8FFF74D
:1048D0008EFD0020A049096881F830000298FEF79B
:1048E00041FC4FF00009BAF1010F07D0BAF1020FF5
:1048F00003D10E2088F8000004E000BF0A2088F8E9
:10490000000000BF00BF4846EBE693480068B0F8DF
:104910002C90BBF1010F1CD166B1012E0BD0022EE1
:1049200002D0032E0CD100E000BF208920EA09004C
:1049300020810DE000BF208940EA0900208107E0C6
:104940000298FEF70FFC6F2088F800000020C8E6F0
:1049500000BF0298FEF706FC002088F800004846D9
:10496000BFE670B50025FEF7F9FB05467A480068FA
:10497000848D2846FEF7F6FB204670BD2DE9FC5FCE
:1049800004460D4616461F46002000900FB9BDE8AC
:10499000FC9F1CB96E2038700020F8E720780528AD
:1049A00003D0012038700020F1E7FEF7D7FB00901C
:1049B00016B1012E08D103E02089A84320810AE026
:1049C00020892843208106E00098FEF7CBFB712068
:1049D00038700020DBE700BF4FF00009D4F80480F6
:1049E00061E098F8120068B301283FD0022802D095
:1049F00003284ED113E02089B8F8101000EA010A0C
:104A0000B8F81000504509D151464046FFF700FD67
:104A10008346BBF1010F01D14FF0010940E020892D
:104A2000B8F8101000EA010ABAF1000F09D0514697
:104A30004046FFF7EDFC8346BBF1010F01D14FF07B
:104A400001092DE0B8F81000218920EA010AB8F820
:104A50001000504509D151464046FFF7D9FC834626
:104A6000BBF1010F01D14FF0010919E0B8F81000B6
:104A7000218920EA010ABAF1000F09D051464046C7
:104A8000FFF7C6FC8346BBF1010F01D14FF00109CE
:104A900006E00098FEF766FB6F203870002076E78E
:104AA00000BFD8F80080B8F1000F9AD10098FEF747
:104AB00059FBB9F1010F01D1FEF7A3FDFEF74EFB43
:104AC0000090208901900098FEF74CFB0020387080
:104AD00001985CE72DE9F04104460D46002715B921
:104AE0000020BDE8F0811CB96E2028700020F8E796
:104AF0002078052803D0012028700020F1E7FEF778
:104B00002DFB074626893846FEF72CFB002028702F
:104B10003046E6E770B58C211048FFF71CF80F4DC2
:104B200005F11C0600240AE0002028706E603F207A
:104B3000A8720021E9721C351C36601C84B2042C5A
:104B4000F2DB0020287068603F20A8720021E97223
:104B500002480349086070BDE0000020E416002010
:104B6000C00000202DE9F84F04460D4616461F46AA
:104B7000002000900FB9BDE8F88F1CB96220387092
:104B80000020F8E714F0030F03D0622038700020F3
:104B9000F1E7022D03D25B2038700020EBE7042EF2
:104BA00003D25C2038700020E5E7FEF7D7FA0090CA
:104BB0008D48D0F80080006820B18B4800684068BC
:104BC000894908600098FEF7CDFAB8F1000F03D1CB
:104BD0005A2038700020CEE7A24604EB06094FF0B9
:104BE000000B05E0CAF80090CA46B1440BF1010B76
:104BF000681E5845F6D80020CAF80000C8F80040E2
:104C0000C8F80440C8F81050C8F80C50C8F808603C
:104C100038704046AFE72DE9F04104460D460027C5
:104C200015B90020BDE8F0811CB960202870002073
:104C3000F8E7FEF793FA0746206960B166683068C6
:104C400060602069401E20613846FEF78BFA002024
:104C500028703046E6E73846FEF784FA5D20287073
:104C60000020DFE72DE9F04104460D4616460027F7
:104C700016B90020BDE8F0811CB96020307000201A
:104C8000F8E71DB90C2030700020F3E75748007892
:104C9000002803DD112030700020EBE7FEF75EFAFC
:104CA000074604F114012846FEF7E6FB8046384625
:104CB000FEF758FA002030704046DBE72DE9F0415E
:104CC00004460D4616464FF000080EB9BDE8F081C7
:104CD00014B960203070F9E715B90C203070F5E791
:104CE00042480078002802DD12203070EEE7FEF71F
:104CF00035FA80462846FEF70CFC07460F2F05DDE7
:104D00004046FEF72FFA63203070DFE7294604F1B2
:104D10001400FEF7B1FB4046FEF724FA0020307085
:104D2000D4E770B504460D4600260CB9602070BD6E
:104D30000DB95F20FBE7FEF711FA0646D4E9031030
:104D4000884204D33046FEF70DFA5E20EFE7606834
:104D5000286065602069401C20613046FEF702FA39
:104D60000020E4E770B504460D4600260CB960202B
:104D700070BD0DB96120FBE7FEF7F0F9064620682B
:104D8000286060686860A068A860E068E8602069E2
:104D900028613046FEF7E6F9D5E90301401A68615B
:104DA0000020E5E770B5B4211148FEF7D4FE104DA0
:104DB00000240DE0601C00EBC0000D4901EB8000F9
:104DC00068603F202875002169752435601C84B215
:104DD000042CEFDB002068603F20287500216975F6
:104DE00003480149086070BDF4000020D100002094
:104DF000D82300202DE9F04104460D464FF000086D
:104E000015B90020BDE8F0811CB9042028700020ED
:104E1000F8E72078022803D0012028700020F1E76D
:104E2000FEF79CF980466768F88A00280FDD39692B
:104E3000081D38610E68F88A401EF882B968386922
:104E4000884201D1786838610020287002E01F2074
:104E5000287000264046FEF785F93046D2E72DE956
:104E6000F04104460D464FF00008FA48007800284B
:104E700002DD0020BDE8F081FEF770F98046F648BB
:104E80000668006820B1F44800684068F24908608C
:104E90004046FEF767F9002E2BD0FEF75FF98046FB
:104EA000EE480768E7B100680068EC4908604046D2
:104EB000FEF758F97C6004EB8500B860FC603C614B
:104EC000BD820020F882022030700020308177609F
:104ED0003F20F073002131743046FFF7E2F808E01C
:104EE000DD4800687060DC4806604046FEF73AF92D
:104EF00000263046BEE72DE9F04704460D4616462B
:104F00004FF0000A16B92046BDE8F0871CB904200E
:104F100030702046F8E72078022803D00120307056
:104F20002046F1E7CB480078002803DD0F203070E1
:104F30002046E9E7FEF712F98246A07A08B1012778
:104F400000E0002715B1012D50D124E0E7B93F2042
:104F5000E07300212174D4F80480C0480068C8F8C8
:104F60000000BE48C0F8008000202070BA480068E9
:104F7000606000202081B84804605046FEF7F2F8D7
:104F800000203070814605E05046FEF7EBF84920DE
:104F90003070A14631E005E0002304221946204686
:104FA000FEF7FEFFA07A0028F6D13F20E073002133
:104FB0002174D4F80480A9480068C8F80000A74804
:104FC000C0F8008000202070A348006860600020C6
:104FD0002081A14804605046FEF7C4F8012F01D19A
:104FE000FEF70FFB00203070814606E05046FEF7CA
:104FF000B9F807203070A14600BF00BF484683E7DC
:1050000070B5044600260CB9042070BD2078022833
:1050100001D00120F9E7FEF7A1F806466568686847
:10502000E860686828610020E8823046FEF79AF858
:105030000020EAE72DE9F04704460D4616464FF0FA
:10504000000916B90020BDE8F0871CB904203070B3
:105050000020F8E72078022803D0012030700020DB
:10506000F1E77C480078002803DD02203070002042
:10507000E9E77B480078002803DD0D203070002030
:10508000E1E7FEF76BF88146D4F80480B8F8160023
:1050900000281BDDD8F81010081DC8F810000F6894
:1050A000B8F81600401EA8F81600D8F80810D8F86E
:1050B0001000884203D1D8F80400C8F81000484610
:1050C000FEF750F8002030703846BCE765480068AD
:1050D00090F8300040F004006249096881F830001F
:1050E00000206049096881F831005E480068C58584
:1050F0002046FEF79EFF4846FEF734F8FEF781FA99
:10510000FEF72CF881465748006890F8310020B12E
:1051100001280DD002280AD105E052480068476AEC
:10512000002030700DE000270E20307009E000BF35
:1051300021464C480068FEF71EFF00270A20307009
:1051400000BF00BF00204749096881F83000454989
:10515000096881F8310043490968C8614149096813
:1051600008624049096848624846FDF7FBFF384637
:1051700069E72DE9F04104460D4616464FF0000858
:1051800016B90020BDE8F0811CB904203070002061
:10519000F8E72078022803D0012030700020F1E7E2
:1051A000FDF7DCFF8046A07A20B300277DB1012DFA
:1051B0000CD107E00223042200212046FEF7F0FE76
:1051C000781CC7B2A07A0028F4D109E000BF0223FE
:1051D000042200212046FEF7E3FE781CC7B200BF80
:1051E00000BF4046FDF7BEFFFEF70BFA0E20307001
:1051F0003846C7E74046FDF7B5FF00203070C1E7ED
:105200002DE9F04104460D46002714B90420BDE8FD
:10521000F0812078022801D00120F8E7FDF79EFFF9
:105220000746A07A60B10023042229462046FEF7F3
:10523000B7FE3846FDF796FFFEF7E3F90020E6E7F4
:105240006668F08AB18A88420EDB3846FDF78AFF2D
:105250001E20DCE7D1000020BC000020F800002068
:10526000D2000020E0000020F168081DF0600D6011
:10527000F08A401CF082D6E90210884201D17068A1
:10528000F0603846FDF76EFF0020C0E72DE9F041E1
:1052900004460D46002714B90420BDE8F0812078AB
:1052A000022801D00120F8E7FDF758FF0746A07A51
:1052B00060B10023042229462046FEF771FE3846DD
:1052C000FDF750FFFEF79DF90020E6E76668F08ADB
:1052D000B18A884204DB3846FDF744FF1E20DCE734
:1052E00071683069884201D1B06830613069001F4F
:1052F000306130690560F08A401CF0823846FDF765
:1053000031FF0020C9E72DE9F04104460D4616465D
:105310004FF0000814B90420BDE8F081207802287D
:1053200001D00120F8E7FDF719FF8046A07AE8B127
:1053300016F0010F0AD005E000230422294620467A
:10534000FEF72EFEA07A0028F6D105E00023042205
:1053500029462046FEF724FE4046FDF703FF16F0DF
:10536000040F01D1FEF74DF90020D5E76768F88AF0
:10537000B98A884204DB4046FDF7F4FE1E20CBE7E5
:1053800016F0020F0BD079683869884201D1B868ED
:1053900038613869001F38613869056009E0F968CB
:1053A000081DF8600D60D7E90210884201D17868C5
:1053B000F860F88A401CF8824046FDF7D3FE0020D2
:1053C000AAE72DE9F04704460D464FF0000A14B94C
:1053D0000420BDE8F0870DB90920FAE720780228FB
:1053E00001D00120F5E7FDF7B9FE8246A07A2873C7
:1053F00004F10B0805F10809002705E018F8010B76
:1054000009F8010B781CC7B2042FF7DB6668F08A35
:10541000002803DD30690068286001E00020286072
:10542000F08AA880B08AE8805046FDF79BFE0020F5
:10543000CFE770B560210A48FEF78DFB084D05F1F6
:105440001806002404E02E6018351836601C84B25B
:10545000032CF8DB0020286001480249086070BD79
:105460008C240020F800002070B5044600260CB9FA
:10547000002070BD2078032801D00020F9E7FDF757
:105480006DFE06462589002D02DD2089401E208103
:105490003046FDF767FE2846EBE770B50446002668
:1054A000EE480078002801DD002070BDFDF756FEB3
:1054B0000646EB480568006820B1E9480068406886
:1054C000E74908603046FDF74DFE5DB103202870C6
:1054D0002C81002068603F20E87300212974284651
:1054E000FEF7DFFD2846E0E72DE9F04704460D46CC
:1054F00016464FF0000916B92046BDE8F0871CB9E2
:10550000042030702046F8E72078032803D00120DB
:1055100030702046F1E7D1480078002803DD0F20E5
:1055200030702046E9E7FDF719FE8146A07A08B100
:10553000012700E0002715B1012D3ED11BE09FB9E6
:105540003F20E0730021217400202070C4480068CF
:10555000606000202081C24804604846FDF702FEDA
:1055600000203070804605E04846FDF7FBFD4920ED
:105570003070A04628E005E00023012219462046AD
:10558000FEF70EFDA07A0028F6D13F20E07300213F
:10559000217400202070B2480068606000202081E3
:1055A000AF4804604846FDF7DDFD012F01D1FEF74D
:1055B00028F800203070804606E04846FDF7D2FD0E
:1055C00007203070A04600BF00BF404695E72DE998
:1055D000F04104460D46164600270EB9BDE8F0819D
:1055E00014B904203070F9E72078032802D0012094
:1055F0003070F3E799480078002802DD022030700F
:10560000ECE798480078002802DD0D203070E5E7CF
:10561000FDF7A4FD07462089002808DD2089401EEB
:1056200020813846FDF79EFD00203070D6E78E4879
:10563000006890F8300040F001008B49096881F85B
:10564000300000208849096881F8310086480068E8
:10565000C5852046FEF7EDFC3846FDF783FDFDF7D6
:10566000D0FFFDF77BFD07467F48006890F83100CA
:1056700020B1012809D0022806D102E000203070B4
:105680000BE00E20307008E000BF2146764800682D
:10569000FEF771FC0A20307000BF00BF0020724985
:1056A000096881F830007049096881F831006E4955
:1056B0000968C8616C49096808623846FDF752FDFF
:1056C0008CE72DE9F04104460D4616464FF00008E0
:1056D00016B90020BDE8F0811CB90420307000200C
:1056E000F8E72078032803D0012030700020F1E78C
:1056F000FDF734FD8046A07A20B300277DB1012D4F
:105700000CD107E00223012200212046FEF748FCCD
:10571000781CC7B2A07A0028F4D109E000BF0223A8
:10572000012200212046FEF73BFC781CC7B200BFD7
:1057300000BF4046FDF716FDFDF763FF0E203070F9
:105740003846C7E74046FDF70DFD00203070C1E741
:1057500070B5044600250CB9042070BD20780328DC
:1057600001D00120F9E7FDF7F9FC0546A07A60B108
:105770000023012219462046FEF712FC2846FDF7B9
:10578000F1FCFDF73EFF0020E7E720894FF6FF71AF
:10579000884207D22089401C20812846FDF7E2FC80
:1057A0000020DAE72846FDF7DDFC3220D5E72DE9B9
:1057B000F04704460D464FF0000914B90420BDE837
:1057C000F0870DB90920FAE72078032801D00120DD
:1057D000F5E7FDF7C3FC8146A07AA87104F10B063A
:1057E000AF1C4FF0000807E016F8010B07F8010B9B
:1057F00008F1010000F0FF08B8F1040FF4DB208984
:1058000028804846FDF7AEFC0020D8E72DE9F0419E
:1058100004460D46164600270EB9BDE8F08114B9BE
:1058200004203070F9E72078032802D0012030707E
:10583000F3E7FDF793FC074600203070208900282D
:1058400001DD258105E0A07A08B9258101E0492024
:1058500030703846FDF786FCDFE70000D1000020FD
:10586000BC000020D2000020E00000202DE9F04F15
:1058700085B004460D46002000901F2C05DBFF2C50
:1058800003D02A2005B0BDE8F08F1F2D01DB2A20B0
:10589000F8E7FDF763FC0090FF4850F8250020B1C1
:1058A0000098FDF75FFC2820ECE7FF2C03D1FB48B4
:1058B000006890F83240F84850F82480B8F1000FA2
:1058C00004D10098FDF74EFC2920DBE7B8F1010F69
:1058D00004D10098FDF746FC4320D3E74FEAE509E1
:1058E00005F007000490012000FA09F0C0B203900F
:1058F00001210498814001F0FF0B0020E64941F8A6
:105900002400084640F8258098F834A098F836001E
:10591000029098F835100191E14810F80A000199B9
:1059200008421FD0DE4810F80A0001998843DC497C
:1059300001F80A00084610F80A0028B9D94800788A
:1059400002998843D7490870D648007803990843DC
:10595000D4490870D24810F8090040EA0B00D04939
:1059600001F80900D8F81C60E6B106F10B0010F848
:105970000A100198814306F10B0000F80A1010F894
:105980000A0018B9B07A02998843B072B07A0399C4
:105990000843B07206F10B0010F8091041EA0B0140
:1059A00000F80910D8F8200020B3D8F820703E681D
:1059B0001EE006F10B0010F80A100198814306F171
:1059C0000B0000F80A1010F80A0018B9B07A029912
:1059D0008843B072B07A03990843B07206F10B00A5
:1059E00010F8091041EA0B0100F809103F1D3E684C
:1059F000002EDED188F8325088F83490049888F868
:105A00003300039888F8360088F835B00098FDF721
:105A1000A9FBA5480078012801D1FDF7F2FD00207F
:105A200030E72DE9FE4F04460D46164698464FF0E6
:105A30000009B8F11F0F02DD2A20BDE8FE8FFDF737
:105A40008DFB814699480078002804DD4846FDF723
:105A500089FB3C20F1E7904850F8280058BB012012
:105A60008D4941F828004846FDF77CFB002332466B
:105A700029462046FDF7DAFB824600230093019376
:105A80001A46514640460293FEF723FB074637B9B4
:105A90008548007801280CD1FDF7B3FD09E0FDF73A
:105AA0005DFB814600207C4941F828004846FDF70F
:105AB00059FB3846C1E74846FDF754FB2820BCE7B0
:105AC00012F0010F08D012F0020F05D002E0491EBB
:105AD000002308C00029FAD170472DE9F04F87B0A4
