:020000040800F2
:10000000B82D0020E99C0008750400087F04000852
:1000100089040008930400089D0400080000000003
:10002000000000000000000000000000A70400081D
:10003000B1040008000000007F470008C348000822
:10004000FB9C0008FB9C0008FB9C0008FB9C000834
:10005000FB9C0008FB9C0008FB9C0008FB9C000824
:10006000FB9C0008FB9C0008FB9C0008FB9C000814
:10007000FB9C0008FB9C0008FB9C0008FB9C000804
:10008000FB9C0008FB9C0008FB9C0008FB9C0008F4
:10009000FB9C0008FB9C0008FB9C0008FB9C0008E4
:1000A000FB9C0008FB9C0008FB9C00082305000843
:1000B000FB9C0008FB9C0008FB9C0008FB9C0008C4
:1000C000FB9C0008FB9C0008FB9C0008FB9C0008B4
:1000D000FB9C0008DD040008FB9C0008FB9C00085A
:1000E000FB9C0008FB9C0008FB9C000800F002F849
:1000F00000F04CF80AA090E8000C82448344AAF176
:100100000107DA4501D100F041F8AFF2090EBAE873
:100110000F0013F0010F18BFFB1A43F0010318473B
:10012000BCDA0000DCDA00000A4410F8014B14F0DD
:100130000F0508BF10F8015B240908BF10F8014B38
:100140006D1E05D010F8013B6D1E01F8013BF9D181
:10015000641E03D0641E01F8015BFBD19142E4D31D
:10016000704700000023002400250026103A28BF15
:1001700078C1FBD8520728BF30C148BF0B60704719
:100180001FB50BF006FB1FBD10B510BD0BF0C5FA77
:100190001146FFF7F5FF00F0CBF80BF0E3FA03B4DC
:1001A000FFF7F2FF03BC0BF0EDFA00001CB50024D2
:1001B0000CE07D49085D694607F058F918B9DDE99A
:1001C0000001884201D2FA201CBD641C072CF0D328
:1001D0007648007810B14FF4FA70F5E740F2EE205F
:1001E000F2E700BFFFF7E2FF85B22B46002211467F
:1001F000104607F04DFA002003F033FE6C480078FB
:100200000028EFD0012003F02CFE002405E04FF081
:100210008041E0B203F055FA641C022CE2D2F6E70A
:1002200000B587B00323002280216248CDE9032373
:10023000CDE90101172300F5FE7200215E4800930D
:1002400006F0DDFE069006AA5CA1172007F06AF80A
:1002500007B000BD03F0E2FD04F044FB05F0CFF869
:1002600000F074F901F099FB03F0DAF90020574926
:1002700008705749087000F05DFA60B95548007879
:1002800020B90021084600F0CEFF0EE0012108460B
:1002900000F0C9FF09E000204E490870002108461F
:1002A00000F0C1FF082000F04CFB18224A494B48DF
:1002B0000BF006FA4A494B4803F00EFF4A494948F9
:1002C0000BF0D5F903F017FF03F045FF3F48007826
:1002D000012802D10520454908703C4800780128D2
:1002E00005D1052041490870012031490870FFF708
:1002F00097FF02F0C9FE002404E00121E0B203F000
:100300005CFC641C022CF8D311E0642000F061F95D
:100310000546A5F57F40FF3802D0284602F04DFE85
:1003200002F058FE3248007808B102F0EDFEECE72A
:1003300000B587B009F0ADFC04F062FF0323002292
:1003400080212C48CDE9032300F5FE72CDE9003071
:1003500002910021284806F052FE069006AA27A125
:10036000032006F0DFFF05F032F8002007B000BDE3
:1003700070477047704770477047704710B500244A
:1003800021480068401E204908600846006850B9AE
:100390004FF4FA70086004F0D1F9044604F087F8CD
:1003A000204604F0CFF910BDA0B7000822010020BC
:1003B0000E000020A0030020E301000855736572C1
:1003C000204946205461736B000000002701002083
:1003D000280100202401002020070020A005002083
:1003E00001000020380700202C0000200D00002014
:1003F00032010020A00100205502000853746172F0
:1004000074205461736B000028000020014606E050
:100410004FF4FA5200E0521E002AFCD1491E002976
:10042000F6D1704770B504460021084603F0C5FBBD
:100430000021012003F0C1FBFA20FFF7E7FF0020B5
:1004400003F00FFD012003F00CFDFA20FFF7DEFFA3
:1004500000250CE0012003F004FDFA20FFF7D6FF91
:10046000012003F0FEFCFA20FFF7D0FF6D1CA5422F
:10047000F0D370BD00BF0120FFF7D4FFFBE700BF42
:100480000220FFF7CFFFFBE700BF0320FFF7CAFF03
:10049000FBE700BF0420FFF7C5FFFBE700BF052017
:1004A000FFF7C0FFFBE700BF0620FFF7BBFFFBE73E
:1004B00000BF0720FFF7B6FFFBE77047704710B596
:1004C00004F03CF904461F480078401C1D490870A0
:1004D000204604F037F904F0BBFE10BD70B504F0FF
:1004E0002DF9044617480078401C1649087020462C
:1004F00004F028F940F22551134809F020FB28B1F7
:10050000114809F0B3FA054600F039F840F22661C7
:100510000D4809F014FB08B100F089F804F098FECA
:1005200070BD10B504F00AF9044606480078401C76
:1005300004490870204604F005F901F068F904F058
:1005400087FE10BD510100200038014010B5002089
:100550006E4908606E4908606E49086006F033FA1B
:100560006D49086000206D4908606D4908600120F0
:1005700006F029FA6B49086003F070FD10BD70B5F4
:100580000446002504F0DAF8054660480068202893
:100590001BD25E480068401C5C4908605C480168EA
:1005A0000068401C5A4A10605F4820F8114010460D
:1005B000006800F01F0011460860284604F0C2F8E9
:1005C0005548006806F05FFB02E0284604F0BAF8E0
:1005D00070BDF8B5044600266A4621464E480068BC
:1005E00006F08EFA04F0AAF8064648480068C0B142
:1005F00046480068401E4549086046480168006852
:10060000401C444A1060484830F8115010460068B9
:1006100000F01F0011460860304604F093F82846A9
:10062000F8BD304604F08EF84FF6FF70F8E710B5CD
:100630003B4800683949096888420CD2384802684A
:100640000068401C364B1860384830F812103848A3
:1006500009F008FA0CE0002240F22661344809F063
:100660009DF9002003F0EDFC2E48006806F00BFB1E
:1006700010BDF8B505460F4616466A46314629486C
:10068000006806F03DFA9DF80000B8B9012003F0BB
:10069000D8FC002405E037F81400244921F81400A0
:1006A000641CAC42F7D31D48056000201C4908605B
:1006B000012240F226611E4809F070F99DF8000001
:1006C000F8BD13B50C46224669460120FFF7D1FF5D
:1006D0001CBD70B505460E46012003F0B2FC002497
:1006E00005E036F81400114921F81400641CAC42EE
:1006F000F7D30A480560002009490860012240F24A
:1007000026610B4809F04AF970BD00003C0000204A
:100710003400002038000020480000204400002061
:10072000400000204C0000204E0700208E070020D3
:10073000003801401CB56A4601A9002003F09EFB69
:100740009DF8040008B900201CBD6A4601A90120DB
:1007500003F094FB9DF8040008B90020F4E70120A1
:10076000F2E710B500240AE004F0010003F079FB81
:10077000C82300221146104606F08AFF641C0A2C8A
:10078000F2D3002404E00121E0B203F016FA641C65
:10079000022CF8D310BD00BF002404E00321E0B216
:1007A00002F08FFF641C022CF8D3002301221946AB
:1007B000184606F06DFFEFE77CB5002419E06A46A5
:1007C00001A9E0B203F05AFB9DF8040030B99DF88E
:1007D000000008B9032507E0022505E09DF80000A8
:1007E00008B9012500E000252946E0B202F051FFDA
:1007F000641C022CE3D37CBD2DE9F047074607F0CB
:100800000700082825D2DFE800F004080C101418AF
:100810001C200124002501261CE0012402250326BA
:1008200018E003240225072614E0032403250F26DD
:1008300010E0022403250E260CE0022401250C26DC
:1008400008E000240125082604E0002400250026F5
:1008500000E000BF00BF2146002003F00BF829464E
:10086000012003F007F84FF4C86002F09AFF00205F
:1008700003F059FB8146012003F05DFB49EA400982
:10088000002003F058FB49EA8009012003F04BFBEC
:1008900049EAC008B04502D10120BDE8F087002038
:1008A000FBE770B590B08348007808B1092400E0F8
:1008B00008240120A040401E86B202F06FFF0546CA
:1008C000002406E045FA04F0284430402DF81400D6
:1008D000641C202CF6D3032269462020FFF7C9FEB2
:1008E00010B1002010B070BD002409E00320FFF714
:1008F00070FE3DF81410884201D00020F2E7641C1D
:10090000202CF3D30120EDE770B5054615F0010F5B
:100910000BD0002406E06849E2B2885C002103F0B5
:10092000A4FE641C002CF6D00AE0002406E0624914
:10093000E2B2885C012103F098FE641C002CF6D022
:1009400070BD0EB58246FFF70CFF03F0C3F9834676
:100950004FF461610AFB01F04FF47A71484349108A
:1009600090FBF1F0029000208DF8040003208DF838
:10097000050007208DF806000A208DF807000020EA
:100980008DF8000003208DF8010007208DF802008B
:100990000A208DF80300002785E003F09BF9064646
:1009A0005E4503D0012003F05CFAB346FFF704FF75
:1009B00007F00700FFF720FFFFF773FF10B10020DB
:1009C00003F04FFA002000F084FD05280ED19DF8B9
:1009D0000410002000F0A2FD9DF8040018B90A20C0
:1009E0008DF8040002E000208DF80400012000F0E2
:1009F00070FD05280ED19DF80010012000F08EFD3D
:100A00009DF8000018B90A208DF8000002E00020CF
:100A10008DF80000002003F0F2FA0546012003F0F3
:100A2000EEFA0446A84509DDA8EB050064280EDDB2
:100A300022490878012103F018FE08E0A5EB080020
:100A4000642804DD1D490878012103F00EFEA1454C
:100A500009DDA9EB040064280EDD1749487801215F
:100A600003F003FE08E0A4EB0900642804DD12494A
:100A70004878012103F0F9FDA846A1463846FFF762
:100A800043FF4FF4FA7300221146104606F000FEB1
:100A90000A490878002103F0E8FD07494878002159
:100AA00003F0E3FD7F1C02988742FFF476AFFFF767
:100AB00072FE000022010020A7B70008A9B70008B5
:100AC000FA480078704770B504460D46F84830F88B
:100AD00014100022F74808F0F3FB0021204602F032
:100AE0009CFF2B4600221146104606F0D1FD022144
:100AF000204602F088FF70BD10B501292BD1262AAF
:100B000014D2ED4B1B8803EB430404EB0313EB4CB3
:100B100004EB830333F81230E94C247863436424F4
:100B200093FBF4F3E74C24F8103037E0E24B1B88DA
:100B300003EB430404EB0313E04C04EB8303B3F82F
:100B40004A30DF4C24786343642493FBF4F3DD4C98
:100B500024F8103022E009BB0A2A0DD2DA4B1B8898
:100B600003EB8303D94C04EB830333F812305B109F
:100B7000D44C24F8103011E0D34B1B8803EB8303D3
:100B8000D24C04EB83035B8A5B10CD4C2478634327
:100B9000642493FBF4F3CB4C24F8103010BD2DE902
:100BA000F84304460F469046012F02D1C848067804
:100BB00004E017B9C748067800E00126454628E05A
:100BC000681E70434FEA4009C34951F824006A4641
:100BD000002105F095FFC14850F82400401CBF4992
:100BE00041F82400084650F82400484504D208463D
:100BF00050F824004FEA80094A4639462046FFF75C
:100C00007BFF204603F06BF910B90120BDE8F883A3
:100C10006D1E002DD4D10520F8E7F8B504460D4629
:100C200016462F4622E0AC4951F824006A460021BE
:100C300005F066FFA94850F82400401CA74941F878
:100C40002400084650F8242001212046FFF754FFD5
:100C5000204603F044F908B90120F8BD204603F00E
:100C600062F9B04201D10020F7E77F1E002FDAD1F0
:100C70000520F2E72DE9F04104460E461546984658
:100C8000069F0020954941F8240095490855002207
:100C900031462046FFF730FF0021204602F0BDFE1E
:100CA0002946204603F02BF90121204602F0ABFE35
:100CB00002F074FD38448B4951F8241008807C48B8
:100CC00030F814107B4808F0A6FD794830F814106D
:100CD0000122784808F0F4FABDE8F081F8B505463D
:100CE0000E468148007810B18048405D70BB2846B0
:100CF00003F019F901282AD04FF4FA537C480093E5
:100D00000378012211462846FFF7B4FF012240F282
:100D1000EE212846FFF781FF04462CB1012C02D0BA
:100D2000052C05D102E004E0052402E0022400E0E5
:100D300000BF00BF052C05D10A2201212846FFF77C
:100D40002EFF044601212846FFF7BDFE00E00524E2
:100D5000284603F0E8F8012829D14FF4FA536448F3
:100D600000930378002201212846FFF783FF002229
:100D700040F2EE212846FFF750FF04462CB1012C2B
:100D800002D0052C05D102E004E0052402E0022493
:100D900000E000BF00BF052C05D10A220121284632
:100DA000FFF7FDFE044601212846FFF78CFE022CCA
:100DB00029D14FF4FA534E480093037800220121C1
:100DC0002846FFF757FF002240F2EE212846FFF7A2
:100DD00024FF04462CB1012C02D0052C05D102E0E1
:100DE00004E0052402E0022400E000BF00BF052C5F
:100DF00005D10A2201212846FFF7D1FE0446012130
:100E00002846FFF760FE052C29D14FF4FA533848E5
:100E100000930378012211462846FFF72BFF012299
:100E200040F2EE212846FFF7F8FE04462CB1012CD3
:100E300002D0052C05D102E004E0052402E00224E2
:100E400000E000BF00BF052C05D10A220121284681
:100E5000FFF7A5FE044601212846FFF734FE23488C
:100E6000405D10B90120214948552046F8BDF8B52C
:100E700005460E46284603F056F801285AD04FF48E
:100E8000FA531B4800930378012211462846FFF7C6
:100E9000F1FE01224FF4C8712846FFF7BEFE04465A
:100EA00044B3012C27D0052C2AD127E09400002040
:100EB000ACB70008002C014066000020BAB700085B
:100EC00026000020840000206C000020EAB8000802
:100ED000680000206E0000207C00002058000020E8
:100EE00060000020B0B70008DB000020DC0000201C
:100EF0002301002000E004E0052402E0022400E0D9
:100F000000BF00BF052C10D1192201212846FFF790
:100F100046FE0446284603F006F8012805D1FB48A2
:100F200001882846FFF7DAFE044601212846FFF72C
:100F3000CAFD00E005242046F8BD70B504464FF414
:100F4000C3712046FFF793FF0546284670BD70B574
:100F50000446EE4801882046FFF7C0FE05462846B5
:100F600070BDF8B505460E464FF4FA53E8480093B5
:100F70000378012211462846FFF77CFE00224FF439
:100F8000C3712846FFF749FE04462CB1012C02D05C
:100F9000052C05D102E004E0052402E0022400E073
:100FA00000BF00BF052C05D10A2201212846FFF70A
:100FB000F6FD044601212846FFF785FD052C29D1C1
:100FC0004FF4FA53D24800930378002201212846B7
:100FD000FFF750FE012240F2EE212846FFF71DFEEA
:100FE00004462CB1012C02D0052C05D102E004E00E
:100FF000052402E0022400E000BF00BF052C05D15B
:101000000A2201212846FFF7CAFD0446012128468D
:10101000FFF759FD022C05D1284602F084FF012874
:1010200000D105242046F8BD70B50446B7480188B4
:101030002046FFF796FF0546284670BD38B50546A1
:10104000284602F070FF01282AD04FF4FA53B04826
:1010500000930378012211462846FFF70BFE012278
:10106000AC4801682846FFF7D8FD04462CB1012C96
:1010700002D0052C05D102E004E0052402E00224A0
:1010800000E000BF00BF052C05D119220121284630
:10109000FFF785FD044601212846FFF714FD00E017
:1010A0000524204638BDF8B506460D46304602F008
:1010B0003AFF012804D03046FFF7C0FF044600E0A5
:1010C0000524052C29D14FF4FA5391480093037855
:1010D000002201213046FFF7CDFD002240F2EE2133
:1010E0003046FFF79AFD04462CB1012C02D0052CA6
:1010F00005D102E004E0052402E0022400E000BF84
:1011000000BF052C05D12A4601213046FFF747FDD7
:10111000044601213046FFF7D6FC2046F8BD2DE9F4
:10112000F0410446794801882046FFF7BCFF054698
:10113000052D10D1784850F824602046FFF77EFF37
:101140000546052D07D1744850F8247007F5C8707E
:10115000B04200D203252846BDE8F08110B5044610
:101160006E4801882046FFF79EFF10BD10B504466B
:101170002046FFF763FF10BD08B5044600BF68496D
:1011800051F824006A46002105F0BAFC6548005D6C
:101190000A3806283AD2DFE800F0271E030C153083
:1011A0000020614908552046FFF7E0FF5E490855D9
:1011B0002DE000205C4908552046FFF7CFFF5A4933
:1011C000085524E00020584908552046FFF7A7FF9E
:1011D000554908551BE00020534908552046FFF7A4
:1011E00023FF5149085512E000204F490855204679
:1011F000FFF7ADFE4C49085509E000204A49085563
:101200002046FFF79AFE4849085500E000BF00BF9E
:10121000002044490855B2E70120FFF7ADFF7047B1
:101220000020FFF7A9FF70B586B005460E46012DD8
:1012300003D13E483E49086002E03E483C49086010
:10124000012E03D139483A49486002E03A4838490A
:101250004860002427E0002005F0B5FB374941F83D
:101260002400002005F0AFFB2D4941F824000323A2
:1012700000224FF48071324800EB8420CDE9032333
:10128000CDE901012F48035D014600930B5D2C4918
:1012900001EB842101F57F72254951F824000021DA
:1012A00005F0ADFE641C022CD5D306B070BD01283C
:1012B00008D1042902DA244A11800CE00322224BCF
:1012C0001A8008E038B9042902DA204A118002E0C5
:1012D00003221E4B1A80704700EB800149004FF437
:1012E000C86251434FF4B47291FBF2F1074A118086
:1012F000704700EB800149004FF4C86251434FF43E
:10130000B47291FBF2F1054A11807047620000202F
:10131000230100205000002058000020640000201D
:101320008C00002069000020540000201F120008DB
:101330007400002021120008191200087C0000200F
:10134000D0070020B8B70008660000206C0000201D
:101350004FF4C86141434FF4B47291FBF2F1FF4A7C
:10136000118070474FF4C86141434FF4B47291FB50
:10137000F2F1FB4A1180704770B504460026022C3A
:1013800002DAF848005D08B1002070BD03F0D6F91C
:101390000646F548055D0520F3490855304603F03B
:1013A000D1F92846F1E70146022905DAED48405C0B
:1013B00010B9ED48405C08B9012070470020FCE7F7
:1013C00070B505460C46022D13DA0C2C07D00D2CF7
:1013D00005D00E2C03D00A2C01D00B2C09D1E148EA
:1013E000405D30B9DF484455E04951F8250005F02B
:1013F0004AFC70BD0146022906DADD48405C0B2834
:1014000002DADB48405C70470B20FCE70146B1F58F
:10141000806F01D20B203EE0B1F5606F01D8002053
:1014200039E0B1F5B05F01D8012034E0B1F5F05FEB
:1014300001D802202FE0B1F5185F01D803202AE07F
:10144000B1F5385F01D8042025E0B1F5585F01D827
:10145000052020E0B1F5785F01D806201BE0B1F54A
:101460008C4F01D8072016E0B1F59C4F01D8082019
:1014700011E0B1F5AC4F01D809200CE04CF6660242
:10148000914201D20C2006E04DF69932914201D8EA
:101490000A2000E00D2070472DE9F04106460C4679
:1014A000022E14DA142C12DC00250CE0304602F077
:1014B00073FD0746FFF7AAFF0A2802D10120BDE805
:1014C000F081681CC5B2A542F0DB0020F7E70120DF
:1014D000F5E770B504460026022C03DAA548005D46
:1014E000FF2801D0002070BD03F028F906469E4871
:1014F000055D05209C490855304603F023F9284630
:10150000F1E70146022905DA9648405C10B9964891
:10151000405C08B9012070470020FCE770B5044624
:101520000D46022C0CDA0B2D0ADA9248005DFF28DA
:1015300006D1904805558D4951F8240005F0A3FBCC
:1015400070BD10B50446204602F059FD10BD2DE9CE
:10155000F74F84B0044691462046FFF7F2FF064657
:10156000002001904FF00A08DDF814A068E08249DD
:1015700051F8240003AA002105F0C2FA7F4850F870
:101580002400401C7D4941F82400AAF101007C4957
:10159000097800FB01FBC34500D9C346774850F8E2
:1015A0002400584502D2754850F824B05A4600210C
:1015B0002046FFF7A1FA204602F091FC18B901205D
:1015C00007B0BDE8F08F0296029EA6EB0907002F38
:1015D00000DA7F422046FFF7B4FF0646A6EB090576
:1015E000002D00DA6D42BD4202DA0020019009E0D0
:1015F000BD4207D00198401C01900198642801D990
:101600000420DDE7B5F5997F06D83046FFF7FEFEEA
:10161000574908550020D3E740F2662085420BD297
:1016200057480078804504D955480078A8EB000851
:1016300004E04FF0000801E04FF00A08AAF1010AA7
:10164000BAF1000F93D10520BAE72DE9F84380469F
:101650000C46474810F80860B44230D00B2E06D034
:101660000C2E01D10A2C02D0A01B002801DD01277D
:1016700000E0002749F640434248009303783A4689
:1016800000214046FFF7F6FA3F4830F814204FF4A7
:10169000C8514046FFF75BFF05462DB1012D02D032
:1016A000052D05D102E004E0052502E0022500E059
:1016B00000BF00BF0A214046FFF705FA00E00525FC
:1016C0002846BDE8F8831CB504462046FFF739FFDD
:1016D00001900198FFF79AFE0546254805552046DA
:1016E00001F000FD81464FF0010B00BF1F4951F88A
:1016F00024006A461FFA8BF105F002FA1D48005DCE
:101700000B2845DA2148005D012818D100201F4927
:101710000855184810F804A00A201649085500205A
:10172000114908551348015D2046FFF78EFF0E4909
:101730000855FF200F490855084600F804A000206E
:10174000094908550B48015D2046FFF77EFF064911
:101750000855FF2007490855C8E70000620000202F
:101760006400002069000020540000208C0000204C
:10177000880000206F0000207C000020580000201E
:101780006E000020230100203AB900082400002048
:101790002046FFF7D6FE01900198FFF737FE054679
:1017A0000B2D06DA33480555082708264FF0640B41
:1017B0009CE706B1761E204601F094FC8146B9F103
:1017C000000F0BD057B14EB9B8F1000F02D14FF056
:1017D000010805E04FF000087F1E01E04FF000080F
:1017E0004146204602F019F946B917B1B9F1000F88
:1017F00004D1204805554FF0140B77E74FF0010B4B
:1018000074E70020FFF75FFF0120FFF75CFF70B572
:1018100000242BE0184830F81410184807F0EAFFAD
:1018200010B3154830F81410144807F0F4FF1448AA
:1018300050F824000088134931F814100844104966
:1018400051F8241008801048005D08B9012505E012
:1018500000250E4951F8240005F015FA29462046C6
:1018600002F0DBF808480555601CC4B2022CD1DB3D
:1018700070BD000088000020ACB70008002C0140BB
:10188000B0B7000884000020600000207C00002029
:1018900070B505469E48007820B9284602F043FB03
:1018A000044603E0284602F046FB0446012C01D121
:1018B000002070BD0120FCE770B5044600262046DC
:1018C000FFF7E6FF054602F039FF0646914850F85B
:1018D0002400C5F1FF31884213D88F4850F8240006
:1018E00010F1020F0DD88B4850F824002844894984
:1018F00041F82400884850F82400401C864941F8EB
:101900002400304602F01EFF70BD0146804800787A
:10191000012803D181480078012805D07C4800784F
:1019200020B97E48007808B9012070470020FCE704
:101930000025002600BF00BF0123002211461046EB
:1019400005F0A6FE6D1C7DB1002500240AE0E0B282
:10195000FFF7DBFF28B17248005D10B1E0B2FFF77E
:10196000ABFF641C022CF2D3761C0A2EE4D30026B3
:1019700000240FE06B48005D6B4908556B48005D23
:101980006B4908556948021966480119E0B202F02E
:1019900075FA641C022CCFD2ECE700B585B00323A6
:1019A000002280216348CDE90323CDE901010F2303
:1019B00000F5FE7200216048009305F020FB05B0A1
:1019C00000BD0146022916DA5748405C012805D1BE
:1019D0005448405C012801D1012300E00023544811
:1019E000405C012805D15148405C012801D1012209
:1019F00003E0002201E00023002243EA4200C0B2DB
:101A0000704743490870704770B50025002412E004
:101A100002F094FE054600203E4941F824003E496C
:101A200041F824004549085501203D4908552846FC
:101A300002F088FE641C022CEAD370BD70B500254C
:101A4000002434E002F07AFE0546E0B2FFF75DFFC5
:101A5000F8B13348005DA8B12E4850F82400384949
:101A6000097848432C4951F82410364A12785143DA
:101A7000884203D20120314908550DE000202F494A
:101A8000085509E000202D49085501202449085532
:101A900002E000202949085500201E4941F8240091
:101AA0001D4941F82400284602F04CFE641C022C1B
:101AB000C8D370BD70B50025002411E002F03EFED1
:101AC00005460020134941F82400134941F8240039
:101AD0001A49085512490855284602F033FE641C7D
:101AE000022CEBD370BD70B504460026022C0BDA35
:101AF00002F024FE06461148055D00200F490855F6
:101B0000304602F01FFE00E00025284670BD0000B0
:101B10009A000020A0000020A8000020240100203E
:101B20009B000020B4000020B2000020B80000207C
:101B3000B6000020D00F002031190008B0000020AE
:101B400098000020990000200146072908D2DFE80C
:101B500001F00908040B0C0A050000BF01207047C2
:101B600000BF00BF00BF00BF00BF0020F7E7014675
:101B700007290AD2DFE801F00A05040B0C0706006A
:101B800000BF00BF00BF0120704700BF00BF00BF03
:101B90000020F9E70246072A17D2DFE802F0171300
:101BA00004181407050000BF01207047F748405C87
:101BB000022803D0F548405C062801D10120F4E753
:101BC0000220F2E700BF0220EFE700BF00BF0320C2
:101BD000EBE70146EE48405CA0B9EE48405C0728C0
:101BE0000CD2DFE800F00D08090C0705040000BF67
:101BF0000220704700BF00BF0120FAE700BF00BF0E
:101C00000020F6E70020F4E70146E148405CA0B977
:101C1000E048405C07280CD2DFE800F00D09060C14
:101C20000805040000BF00BF0220704700BF01206C
:101C3000FBE700BF00BF0020F7E70020F5E770B525
:101C40000546D5480078E0B9D148405D30B9D14962
:101C5000485D2946FFF79EFF044600E00324214625
:101C6000284601F016FDCD48007850B1012C04D172
:101C7000A107284601F025FD03E00021284601F0D8
:101C800020FD70BD10B500240FE0E0B202F04BF96A
:101C9000012802D0C248007818B90120C14908556E
:101CA00002E00020BF490855641C022CEDD310BD92
:101CB00070B50446FFF7E6FFB649085DFFF757FF2A
:101CC00038B1B948005D012803D1B648005D01284C
:101CD00017D0B049085DFFF74AFF30B1B04800782F
:101CE00018B9B24800780A280BD0AA49085DFFF756
:101CF0003EFF48B1AE48005D30B9AC4800780A28D4
:101D000002D1AA48057800E01025A84800780A28E2
:101D100003D0A64800780E2803D10120A549085514
:101D20000EE0A24800780B2803D10220A1490855F3
:101D300006E09E4800780D2802D103209D490855F1
:101D400029462046FFF73CFB00209B4908700120F4
:101D500070BD70B50446FFF795FF8E49085DFFF72B
:101D600006FF20B98949085DFFF701FF38B18E48A9
:101D7000005D012803D18B48005D012803D086480F
:101D80000078012805D18248005D10B987480578A0
:101D900000E01025854800780A2803D083480078A1
:101DA0000E2803D10120834908550EE07F480078B2
:101DB0000B2803D102207F49085506E07B480078B4
:101DC0000D2802D103207B49085529462046FFF7FC
:101DD000F7FA002078490870012070BD70B50446FC
:101DE0002046FFF711FF05460146204601F042FD5F
:101DF00070BD014641B1012903D0022903D1082059
:101E000070470420FCE700BF0220F9E770B50446E4
:101E10006A480470002C18DD0A2C16DA684902465C
:101E20001278885CFFF79EFA6549644A1278885CEC
:101E3000FFF78EFA5A48007818B90D205B490870F0
:101E400017E00E205949087013E01CB90A205749C1
:101E500008700EE00A2C03D10B205449087008E0EA
:101E60000B2C03D10F205149087002E010204F497C
:101E7000087001205349087000250AE001204A49F2
:101E8000485514B900204A494855E8B2FFF710FFF9
:101E90006D1C022DF2D370BDF0B502460B46022533
:101EA00049480078002812DD4748007810280EDAEB
:101EB00045480078401E032690FBF6F0C1B2424828
:101EC0000078401E90FBF6F706FB1700C4B23E48B0
:101ED0000078702812DD3C48007880280EDA3A48F5
:101EE00000787138032690FBF6F0C1B236480078CE
:101EF000713890FBF6F706FB1700C4B2994201DB7C
:101F00000021002432F81100C4F1020676003041AD
:101F10000126C6EB86063040F0BD704770B504461A
:101F20000D460A20FFF772FF70BD70B504460D46DE
:101F30000020FFF76BFF70BD70B504460D46012011
:101F4000FFF764FF70BD70B504460D460220FFF731
:101F50005DFF70BD70B504460D460320FFF756FFC8
:101F600070BD70B504460D460420FFF74FFF70BDED
:101F700070B504460D460520FFF748FF70BD70B5EB
:101F800004460D460620FFF741FF70BDEE0000201D
:101F9000C6000020EC000020D1000020320100200B
:101FA000DB000020CC000020CA000020F000002050
:101FB000DC00002022000020D0000020DE000020F5
:101FC000BC000020D20000202501002070B504468E
:101FD0000D460720FFF71AFF70BD70B504460D4689
:101FE0000820FFF713FF70BD70B504460D460920A9
:101FF000FFF70CFF70BD30B502460B46002011887C
:10200000A1F18004A0B2052806DA002804DBFE4C0A
:10201000245CFE4D2C7002E06424FC4D2C7030BD1D
:10202000704738B5002410E0F948005D48B9F94818
:10203000005D012805D1E0B2FFF79EF90DF804001C
:1020400002E005200DF80400641C022CECD39DF87E
:10205000000010B19DF8010008B9222512E09DF89A
:102060000000012803D09DF80000022801D10225BC
:1020700008E09DF80100012803D09DF80100022826
:1020800000D12025284638BDF8B506460F46002564
:10209000002454E0E048005D28B90CB903254DE068
:1020A00045F030054AE0DA48005D48B9D948005D9E
:1020B000012805D1E0B2FFF75FF90DF8040002E056
:1020C00005200DF804001DF80400052827D1002084
:1020D00001F029FF012801D0012509E0CF4800784F
:1020E000012800D10425CD480078022800D102251E
:1020F000012001F018FF012802D045F010050BE087
:10210000C6484078012801D145F04005C3484078D1
:10211000022801D145F02005C14805800EE0BE48E7
:10212000005D012805D10CB9032504E045F0300518
:1021300001E0BB4805880220B7490855641C022C01
:10214000A8D300212846FEF7BCFAF8BD70B50546B5
:102150000E46B448047800212046FEF7B2FA70BD5E
:102160000022B14B1A7070470122AF4B1A707047B2
:102170002DE9F04106460F4639463046FFF78CFE02
:10218000054615F0020F03D00020A149087002E0B7
:1021900001209F49087015F0010F03D000209C49D1
:1021A000487002E001209A494870002411E0E0B232
:1021B000FFF745FDE0B2FFF711FE9C48007838B903
:1021C0009B48005D20B9E0B2FFF772FD98490855C1
:1021D000641C022CEBD3BDE8F081964A12886AB1E8
:1021E000028802F07F02934B1B889A420AD14288F0
:1021F00002F07F02904B1B889A4203D100228F4B42
:102200001A7002E001228D4B1A70704770B50446B7
:102210000D468B48005D8B49095D884202D0012044
:10222000894908558748005D854908558548055501
:102230002046FFF704FD2046FFF7D0FD70BD10B526
:1022400004468048005D012802D005280AD104E038
:1022500002212046FFF7DAFF05E006212046FFF7BE
:10226000D5FF00E000BF00BF10BD70B505460E46AB
:1022700031462846FFF710FE044614F0020F02D044
:102280000020FFF7DCFF14F0010F02D00120FFF760
:10229000D6FF70BD2DE9F04104460E460227208886
:1022A00010F07F0F01D1002500E001252846FFF73F
:1022B000A8FBB74205DA34F8170000F07F00634945
:1022C000087062480078012803DB604800786328C2
:1022D00002DD14205D490870BDE8F08170B5054647
:1022E0000E46002001F027FE012801D1142400E051
:1022F000152400212046FEF7E4F970BD70B50546AF
:102300000E4631462846FFF7C7FD044614F0020F7B
:1023100003D001203F49087002E000203D490870C9
:1023200014F0010F03D001203A49487002E0002068
:102330003849487070BD70B505460E4600240CE063
:102340003348005D40B93F49085DFFF710FC18B104
:102350000C21E0B2FFF734F8641C022CF0D370BDFE
:1023600070B505460E46002410E02948005D60B9AE
:102370002848005D012808D13249085DFFF7F7FBC6
:1023800018B10D21E0B2FFF71BF8641C022CECD34E
:1023900070BD70B505460E46002410E01C48005D77
:1023A00060B91C48005D012808D12649085DFFF787
:1023B000DEFB18B10E21E0B2FFF702F8641C022C1C
:1023C000ECD370BD70B504460D4616461048005D4E
:1023D00040B91C49085DFFF7CAFB18B10C21204623
:1023E000FEF7EEFF70BD70B504460D461646084870
:1023F000005D40B91349085DFFF7B9FB18B10B2127
:102400002046FEF7DDFF70BD1D00002026000020E5
:10241000C6000020C8000020E000002022000020AC
:10242000E200002025010020DB000020D000002079
:10243000CE000020D8000020D6000020DA000020C6
:10244000EE000020EC000020CA00002098000020D0
:1024500070B504460D461646FB48005D40B9FB4981
:10246000085DFFF784FB18B10A212046FEF7A8FF9C
:1024700070BD70B504460D461646F348005D60B960
:10248000F348005D012808D1F049085DFFF76FFBB4
:1024900018B10D212046FEF793FF70BD70B50446BC
:1024A0000D461646E848005D60B9E948005D012820
:1024B00008D1E649085DFFF75AFB18B10E21204606
:1024C000FEF77EFF70BD70B504460E46002510E095
:1024D000218801F07F00FEF7FFFE618801F07F0098
:1024E000FEF707FFA08800F07F010120FEF7DFFE66
:1024F0006D1C022DECD370BD70B504460D46002155
:102500000320FEF7DEF870BD70B504460D460121CC
:10251000002001F0BEF870BD70B504460D460221E2
:10252000002001F0B6F870BD70B504460D460021DC
:10253000084601F0AEF870BD70B504460D460121A5
:10254000084601F0A6F870BD70B504460D4602219C
:10255000012001F09EF870BD70B504460D460021C3
:10256000012001F096F870BD70B504460D460020BC
:10257000FFF727FA022803D000210846FFF7C4FF1F
:102580000120FFF71EFA022803D000210846FFF7BA
:10259000D3FF0120AF490870AF480078AF490870F9
:1025A000AD48007810B90920AB49087070BD70B50E
:1025B00004460D460020A7490870FFF702FA0228DA
:1025C00003D000210846FFF7A7FF0120FFF7F9F924
:1025D000022803D000210846FFF7B6FF9F48007885
:1025E0009D49087070BD00229D4B1A70704770B5F0
:1025F00005460E460020FEF784FF08B112241BE0BA
:102600009848007810B19848047815E00020FEF74B
:10261000F1FE04460A2C0FD09448007860B9924825
:1026200000780A2802D09048047805E008210020AC
:10263000FEF732FF00B10A2400212046FEF741F8E0
:1026400070BD70B505460E460120FEF75AFF08B171
:1026500012241BE08348007810B18348047815E009
:102660000120FEF7C7FE04460A2C0FD07F480078F1
:1026700060B97D4800780A2802D07B48047805E0DC
:1026800008210120FEF708FF00B10A24002120469E
:10269000FEF717F870BD70B505460E460020FEF730
:1026A00030FF08B1122403E0002001F0A8FC04125E
:1026B00000212046FEF705F870BD70B505460E46B0
:1026C0000120FEF71EFF08B1122403E0012001F0F3
:1026D00096FC041200212046FDF7F3FF70BD70B593
:1026E00005460E4600205E49087001205D490870CD
:1026F000002407E05448005D18B90321E0B200F05F
:10270000E0FF641C022CF5D370BD70B505460E4683
:10271000002410E04C48005D60B94C49085DFFF7AB
:1027200013FA38B15248005D022803D00221E0B20A
:1027300000F0AFFF641C022CECD370BD10B500217B
:102740000846FFF7E2FF002431E04048005D03281F
:1027500006D0042809D005280CD0062821D11BE07A
:102760000021E0B2FFF752FD1FE00121E0B2FFF7C8
:102770004DFD1AE03E48005D022803D03C48005D54
:10278000062804D10221E0B2FFF740FD03E0012159
:10279000E0B2FFF73BFD08E00221E0B2FFF736FDB3
:1027A00003E001202949085500BF00BF641C022C2A
:1027B000CBD310BD70B504460D46FFF7BFFF002117
:1027C0000846FFF7A2FF70BD10B5002419E01F48AE
:1027D000005D20B1012807D002280FD109E00321B4
:1027E000E0B2FFF713FD0AE00421E0B2FFF70EFDAF
:1027F00005E00621E0B2FFF709FD00E000BF00BFE1
:10280000641C022CE3D310BD70B504460D46FFF7DF
:10281000DBFF70BD2DE9F04106460F460020FFF7B3
:10282000D8F90546FFF7E5FA0005040C0120FFF78B
:10283000D0F90546FFF7DDFA044300212046FDF7F5
:1028400040FFBDE8F0810000C6000020EC00002041
:10285000C8000020D1000020DE000020DF000020A2
:10286000D2000020D3000020D4000020D00000209F
:10287000EE00002070B505460E460120FF490870A5
:1028800000240BE0FE48007838B9FE48005D20B90E
:10289000E0B2FFF70DFAFB490855641C022CF1D396
:1028A00070BD10B5002413E0F748005D022802D087
:1028B00006280AD104E00121E0B2FFF7A7FC05E0F9
:1028C0000521E0B2FFF7A2FC00E000BF00BF641CDE
:1028D000022CE9D310BD70B505460E460020E7492D
:1028E00008700120E9490870E948007868B9FFF7E5
:1028F000D8FF002407E0E748005D18B90321E0B2E3
:1029000000F0DFFE641C022CF5D3FFF77DF870BDEC
:1029100070B504460D460020DC490870FFF7CAF880
:1029200070BD10B5FFF78AF810BD70B505460E46AC
:102930000020D24908700120D4490870D44800789A
:10294000A0B9FFF7EEFF00240DE0CF49085DFFF7C7
:102950000EF9012806D1E0B2FFF7C5F810B1E0B2D8
:10296000FFF76DFC641C022CEFD301E0FFF7D9FFE9
:1029700070BD7CB5002518E0C648405D70B9C648FA
:10298000405D01280AD1E8B2FEF7F6FC01A94855DE
:10299000E8B2FFF7A8F80DF8050005E0052001A949
:1029A000485500200DF805006D1C022DE4D39DF85C
:1029B000040010B19DF8050008B9122446E09DF806
:1029C0000400012803D09DF80400022801D131241D
:1029D0003CE09DF80500012803D09DF80500022881
:1029E00001D1302432E09DF80400032801D12124D4
:1029F0002CE09DF80500032801D1202426E09DF855
:102A00000000012808D19DF80100012804D19F4849
:102A1000007808B1132419E09DF80000012804D1C2
:102A20009A48007808B1512410E09DF8010001286F
:102A300004D19648007808B1502407E09748007800
:102A4000012801D1162401E09548047820467CBD78
:102A500070B505460E46FFF78CFF04469048007897
:102A6000844212D18B48007830B9002001F05BFA23
:102A7000012801D0612408E08648407828B9012067
:102A800001F051FA012800D0602400212046FDF712
:102A900018FE70BD70B505460E46FFF76AFF044686
:102AA00000212046FDF70DFE70BD2DE9FF410646D1
:102AB0000F46002431E07748005D18BBE0B2FEF716
:102AC00008FD03A908557049085DFFF73DF802A904
:102AD0000855E0B2FEF775FF032803D1012001A9D4
:102AE000085502E0002001A90855E0B2FEF782FC7B
:102AF0000B2803D101200DF804000DE000200DF893
:102B0000040009E0052003A90855002002A9085582
:102B100001A908550DF80400641C022CCBD39DF8C4
:102B20000C0010B19DF80D0008B9122559E09DF870
:102B30000C00012803D09DF80C00022801D131259A
:102B40004FE09DF80D00012803D09DF80D000228EC
:102B500001D1302545E09DF80C00042801D1412524
:102B60003FE09DF80D00042801D1402539E09DF893
:102B70000400012801D1212533E09DF8050001283A
:102B800001D120252DE09DF80800012804D13F48FF
:102B9000007808B1512524E09DF80900012804D1EE
:102BA0003A48007808B150251BE09DF80000012844
:102BB00005D132480078012801D1612511E09DF846
:102BC0000100012805D12D480078012801D1602598
:102BD00007E032480078012801D1162501E030488D
:102BE000057800212846FDF76CFDBDE8FF8110B592
:102BF00004462548005D062821D2DFE800F00304E2
:102C00002011121300BF02212046FFF7FFFA102007
:102C1000244908702046FFF79CF81A4908550FE030
:102C200000BF00BF06212046FFF7F0FA10201D4923
:102C300008702046FFF78DF81249085500E000BFE4
:102C400000BF1948007801283DD1204601F06BF9FA
:102C5000012838D11549164A1278885CFEF782FBA4
:102C60001249134A1278885CFEF772FB0120114961
:102C700008550D200B49087000201DE0D2000020EF
:102C8000D0000020CE000020EC000020D300002067
:102C900024010020C6000020C8000020DA00002027
:102CA00025010020F0000020D1000020BC00002001
:102CB000DE000020CA000020F84908552046FFF732
:102CC00048F8F749085510BD10B50446F548005DB1
:102CD00010B103281AD10CE001212046FFF796FA23
:102CE0000A20F14908702046FFF733F8EC490855EF
:102CF00028E004212046FFF789FA0A20EA490870F3
:102D00002046FFF726F8E64908551BE0E748005D36
:102D1000B8B9204601F007F9012812D12046FEF784
:102D200050FE02280DD00120E14908550A20DE4955
:102D300008702046FFF70DF8D94908550120DB49F6
:102D4000085500BF00BF10BD10B50446D548005D52
:102D500007284CD2DFE800F04B05044B2928270058
:102D600000BFD448007878B900212046FFF74EFA1A
:102D70000B20CD4908702046FEF7EBFFC8490855E7
:102D80000020CA4908550DE0C448005D50B90A202A
:102D9000C54908702046FEF7DCFFC14908550120EF
:102DA000BE49085524E000BF00BFC248007878B98A
:102DB00003212046FFF72AFA0B20BB490870204662
:102DC000FEF7C7FFB64908550020B84908550DE081
:102DD000B248005D50B90A20B34908702046FEF79A
:102DE000B8FFAF4908550120AC49085500E000BFC5
:102DF00000BF10BD0146C9B2C81101D10120704702
:102E00000020FCE70246D2B21AB1AB4800788242F9
:102E100025D1C02903D0C22901D0C8290BD1A64889
:102E20000078702805DDA4480078802801DA0120A8
:102E300070470020FCE7D02903D0D22901D0D8293F
:102E40000BD19D480078002805DD9B4800781028AC
:102E500001DA0120ECE70020EAE70120E8E70020A2
:102E6000E6E710B502460B460024002105E032F8E3
:102E70001100204484B2481CC1B29942F7DB04F02F
:102E80007F0010BD2DE9F04707463846FFF7B2FF37
:102E900090B18A48006828B1002088490860012064
:102EA00000F0DFFF854801680068401C834A10601D
:102EB000834820F811707DE080480068E8B37F48BF
:102EC00001680068401C7D4A10607D4820F8117040
:102ED000B0F802807B480088A8EB000404EB4400B3
:102EE000784901EB8000857810460168A81C814272
:102EF00060D1734A51881088FFF784FFE0B3DFF890
:102F0000C09109F104097048007808BB04EB440043
:102F10006C4901EB8000C0786C490978884208DD73
:102F200004EB4400674901EB80002946826848466B
:102F3000904704EB4400634900E038E001EB800077
:102F400080686349884201D0012617E0002615E019
:102F500004EB44005B4901EB800029464268484687
:102F6000904704EB4400574901EB80004068584902
:102F7000884202D0012601E015E0002675B1B8F1C3
:102F8000D10F0BD056B129464846FFF76AFF514989
:102F9000088005F07F005049088004E000204D497A
:102FA00008804D49088000204449086002E0012063
:102FB00000F057FFBDE8F087704710B5044647485A
:102FC000007818B12046FFF7F7FF02E02046FFF730
:102FD00059FF10BD10B53C48007810BB00241EE01E
:102FE000E0B2FEF78EFAC8B9E0B2FEF7EAFC30B103
:102FF000012808D002280AD003280CD10CE0E0B246
:10300000FFF762FE09E0E0B2FFF7F1FD05E0E0B294
:10301000FFF79AFE01E000BF00BF00BF641C022C56
:10302000DED310BD10B52848007858BB002427E037
:10303000E0B2FEF7C6FC30B1012808D002280AD061
:1030400003280CD10CE00120164908550CE00220A1
:103050001449085508E000201249085504E000BF53
:1030600000201049085500BF00BFE0B2FEF7E7FDA1
:10307000E0B2FEF7B3FE0B48005D19490855641C29
:10308000022CD5D310BD704710B51448007810B18C
:10309000FFF7F9FF01E0FFF7C5FF10BDE4000020D6
:1030A000CE000020EC000020F0000020E000002016
:1030B000CA000020D100002025010020E8000020E7
:1030C000D011002050B90008240100200D0000207C
:1030D0001B1F0008D6000020D8000020220100207D
:1030E000EE000020014602290CDAFA48405C28B9BB
:1030F000F948007810B9F948007808B10020704705
:103100000020FCE70020FAE710B5F5480078A0B9E8
:10311000F248007888B900240DE0022C0AD2ED486C
:10312000005D38B9EF48005D022803D14107E0B2E5
:1031300000F0C7FA641C022CEFD310BDFEB50546A3
:103140000E46002405E015F814000DF80400601C7C
:10315000C4B20A2CF7DB6A460821E34806F00CFEED
:10316000E14AE249E24807F0F5FFE0480079FF282C
:103170000BD1DE484079FF2807D1DC488079FF2851
:1031800003D1DA48C079FF2802D00120D94908705C
:10319000002406E0201DD549085CD7490855601C6D
:1031A000C4B2042CF6DBD5480078012823D1D448DA
:1031B0000078D1490978884211D1D1484078CE4968
:1031C000497888420BD1CE488078CB4989788842AB
:1031D00005D1CB48C078C849C978884206D00520B7
:1031E000C84908700120C849087004E00020C5499A
:1031F0000870C5490870002406E0BC48005DC04363
:10320000C2490855601CC4B2042CF6DB0120C04939
:103210000870FEBD10B500F09EFF002406E0B8481F
:10322000015DBA4A201D1154601CC4B2042CF6DBA7
:10323000B64AAE49AE4807F044FDB64A0821AB484D
:1032400006F06CFD10BD70B586B005460E46FFF762
:10325000E1FF002406E0AF48005D01A921F8140059
:10326000601CC4B20A2CF6DB002407E001A931F887
:1032700014000021FDF725FA601CC4B20A2CF5DB0E
:1032800006B070BD2DE9F04781468A460025A84664
:1032900004F043FFA04F002415E0384604F07FFF00
:1032A000002507E03E5DFF2E02D04FF0010803E04D
:1032B000681CC5B2142DF5DB00BFB8F1000F00D1BA
:1032C00003E0601CC4B2052CE7DB00BF934F002471
:1032D00015E0384604F063FF002507E03E5DFF2E51
:1032E00002D04FF0010803E0681CC5B2142DF5DBD5
:1032F00000BFB8F1000F00D103E0601CC4B2052C80
:10330000E7DB00BF04F00FFFFFF784FFBDE8F087A5
:103310002DE9F04186B006460F4615464FF00408E9
:10332000002406E036F8140001A921F81400601CFE
:10333000C4B20A2CF6DB04F0F0FE002409E02846B3
:1033400004F02DFF8046B8F1040F00D103E0601CAB
:10335000C4B2052CF3DB00BFB8F1040F0DD100247B
:1033600009E001AA32F8141005EB440004F0DFFF75
:103370008046601CC4B2BC42F3DB04F0D4FE06B04D
:10338000BDE8F0812DE9F04F8FB006464FF00009FF
:10339000614FDFF88881002405E016F814000CA9BD
:1033A0000855601CC4B20A2CF7DB0CAA08214E4851
:1033B00006F0E2FC4C4A4D494D4807F0CBFE042490
:1033C00005E04A48005D0AA90855601CC4B2082CF3
:1033D000F7DB002405E04D48005D0AA90855601C94
:1033E000C4B2042CF7DB0AAA4049414807F069FC43
:1033F000002426E0042C0DDA3C4810F814000121CA
:1034000001EB4401394A515C00EB012005A921F888
:10341000140014E0201F354911F81000C04300F0DB
:10342000FF0A201F012101EB40003049085CC04326
:1034300000F0FF0B0AEB0B2005A921F81400601C1B
:10344000C4B2082CD6DB36480088401C80B2ADF8E8
:1034500024003448007806283BD2DFE800F004302E
:103460000331050600BF00BF00BF002523E03A4638
:10347000092105A8FFF74CFF002405E037F81400E8
:103480002DF81400601CC4B2082CF7DB00240AE0FD
:103490003DF8140005A931F81410884201D04FF00E
:1034A0000109601CC4B2082CF2DBB9F1000F00D195
:1034B00003E0681CC5B2052DD9DB00BF56E000BF94
:1034C00000254EE04246092105A8FFF721FF002410
:1034D00030E04AE0C6000020D1000020D3000020E8
:1034E00024010020EC000020F1000020F900002061
:1034F000A005002028010020300000202701002026
:103500002D0100200D0000200E00002010000020E2
:10351000180000204407002000F8010800F401080A
:103520001A0000201C00002038F814002DF81400A8
:10353000601CC4B20A2CF7DB00240AE03DF814003A
:1035400005A931F81410884201D04FF00109601C20
:10355000C4B20A2CF2DBB9F1000F00D103E0681C01
:10356000C5B2052DAEDB00BF00E000BF00BFFFF716
:1035700051FE0FB0BDE8F08F2DE9F04104468846BA
:10358000208800F07F002080208800F0010520883E
:10359000C0F34006208887103A463146284600F09E
:1035A0007EFABDE8F0810000054600262C7800BFB9
:1035B00001F0C4F806464A4850F82400002820DDEF
:1035C000474850F82400401E454941F82400304641
:1035D00001F0B8F801220021204600F0BFFA642370
:1035E00000221146104604F053F8012211462046ED
:1035F00000F0B4FA642300221146104604F048F8A3
:10360000D6E7304601F09EF83648025D3648015D47
:10361000204600F0A3FA3549085D03F072FFC7E7C2
:1036200030B585B0002423E001202F490855002043
:103630002C4908552E482F4941F824000323002225
:1036400080212D4800EB442001AD0FC52748035DC4
:10365000054600932B5D284D05EB442505F5FE72CC
:10366000264D2919234D55F8240003F0C8FC641C8D
:10367000022CD9D305B030BD0146022907DA19481A
:10368000405C194A525C40EA4200C0B270470320D5
:10369000FCE770B504460D461948007880B9022C45
:1036A0000EDAC5F340001049085505F001000D4938
:1036B00008550846025D0C48015D204600F04EFAB0
:1036C00070BD70B504460D46022C08DA044840F877
:1036D0002450002D03DD0549085D03F073FE70BD25
:1036E000100100200E0100200C01002052BF000834
:1036F000A935000804010020E411002050BF000893
:10370000D100002010B50121432005F079FA0121F4
:10371000F94805F08FFA01214CF67D6005F07DFA3D
:1037200010BD08B54FF4E06004F07EF825208DF858
:10373000000008208DF8020001208DF80300684683
:1037400004F077F81B208DF8000004208DF80200AB
:1037500001208DF80300684604F06BF808BD0EB533
:10376000E6480068E649B0FBF1F0401E80B2ADF8D3
:1037700000000020ADF802004FF6FF70ADF8040025
:103780000020ADF806008DF808006946DD4805F018
:1037900011FB0121DB4805F078FD0EBDDA480088F9
:1037A000704710B50346D84C2188022B00DA02235B
:1037B000CC18A2B28A4207DD00BFD34C20888842D1
:1037C00009DB9042F9DB06E000BFCF4C2088904235
:1037D000FBDB8842F9DA10BDFEB5002418E0C748CB
:1037E00000684FF4FA51B0FBF1F0C0EB001080001C
:1037F0000A21B0FBF1F604F1080085B205EB4600A2
:103800006900B0FBF1F0401EC04921F81400641CAF
:103810005D2CE4D3BD480088ADF800000020ADF871
:1038200002004FF6FF70ADF804000020ADF806006E
:103830008DF808006946B64805F0BCFA0121B44885
:1038400005F023FDFEBD10B50446082C0ADB642CF0
:1038500008DCA4F10800AD4A32F810100122AC488F
:1038600005F0BEFD10BDAB48008870470020AA4996
:103870000870704770B504460D46A849085D2A4691
:10388000022100F009FF70BD10B500240AE0A34931
:10389000085D1022022100F088FE0121E0B2FFF74E
:1038A000E9FF641C022CF2D310BD00B591B09C4816
:1038B00001909C4802900020039008200490002072
:1038C00005908020069080000790800008902020BE
:1038D000099000200A900B9001A9934804F0DFFAA8
:1038E0000121914804F006FB4FF4404005F0FDF83B
:1038F0004FF4C0200C9000208DF8340001208DF88A
:1039000035004FF460200E9000200F9001208DF8BC
:1039100040000CA982484C3804F029F80CA98348CF
:1039200004F025F80623012208217D484C3804F0D4
:10393000B6F80623012209217C4804F0B0F80121E1
:1039400077484C3804F04AF80121784804F003F92C
:10395000012173484C3804F036F80121734804F013
:1039600032F86F484C3804F050F8704804F04DF8C5
:1039700000BF6B484C3804F04DF80028F9D100BF67
:103980006A4804F047F80028FAD165484C3804F03A
:103990004BF8664804F048F800BF61484C3804F022
:1039A00048F80028F9D100BF604804F042F8002828
:1039B000FAD10021102000F0E0FD0021112000F0DC
:1039C000DCFD012156484C3804F03DF811B000BD33
:1039D00010B500240AE05649085D282100F0CDFD0D
:1039E0005449085D282100F0C8FD641C022CF2D364
:1039F00010BD70B504460D464F49085D2A460321A7
:103A000000F04AFE70BD70B504460D464B49085D96
:103A10002A46022100F040FE70BD70B504460D46F6
:103A20004749085D294600F020FE70BD10B5102101
:103A30004E2000F0A2FD002427E04249085D482105
:103A400000F09BFD3E49085D102100F096FD00212D
:103A5000E0B2FFF7E2FF3C49085D102100F08DFD68
:103A60003649085D1022022100F09FFD0221E0B2DC
:103A7000FFF7C9FF3049085D1022032100F095FDD2
:103A80000521E0B2FFF7B5FF641C022CD5D3082056
:103A9000FFF787FE01214E2000F0E7FD10BD70B555
:103AA00004460E4615464FF4FA7028490860284926
:103AB000085D314600F0D9FD264820F8145070BD4D
:103AC00010B500240AE02249085D102100F055FDE0
:103AD00000221146E0B2FFF7E2FF641C022CF2D391
:103AE0001D490878102100F048FD002211461046BB
:103AF000FFF7D5FF10BD000007000402D8C0000882
:103B000000127A00002C0140242C014010160020E5
:103B10000004004024040040220100206FBF000880
:103B20004C240140F015002008000240002801400C
:103B30006BBF00086DBF00085CBF00085ABF0008DB
:103B400056BF000854BF000858BF000828000020D6
:103B50005EBF00083401002060BF000870B5044655
:103B60000E461546F849085D314600F07EFDF749DE
:103B7000085D294600F079FD70BD10B5002419E0FC
:103B8000F349085D482100F0F8FCF249085D48213E
:103B900000F0F3FCEC49085D102100F0EEFCEB496D
:103BA000085D102100F0E9FC01221146E0B2FFF7A8
:103BB000D5FF641C022CE3D310BD70B504460E463D
:103BC000254604EBD4714910A4EB4101E24A505C54
:103BD000314600F04AFD70BD10B5002409E0DE4911
:103BE000085D142100F0C9FC0121E0B2FFF7E5FFF8
:103BF000641C022CF3D310BD1CB50221002004F07C
:103C00006DFE0821012004F069FE042000900020D0
:103C10008DF804000C208DF8050001208DF80600B9
:103C2000684604F0CCF94FF48070009000208DF8C5
:103C300004000C208DF8050001208DF80600684670
:103C400004F0BDF91CBD10B586B00020ADF80C0025
:103C5000ADF80E0040F23F60ADF810000020ADF866
:103C60001200684605F0FFFA0620ADF808000024AF
:103C70002CE0BA4951F8240003A905F09BF8B74994
:103C800051F8240002230022032105F0B5FBB349BB
:103C900051F82400694605F04EFAB149085D042246
:103CA000022100F082FCAF49085D042100F065FCB0
:103CB000AA4951F824000122114605F001FBA74949
:103CC00051F82400012105F0E0FA641C022CD0D345
:103CD00006B010BD10B50421202000F092FC04466F
:103CE0000421084600F08DFC44EA0014022124203F
:103CF00000F087FC44EA0024C4F3090010BD2DE95C
:103D0000F04148220621202000F04FFC48220421E7
:103D1000084600F04AFC64267BE0FFF7DBFF044620
:103D2000C4F3C00018B100208F49087002E00120E0
:103D30008D49087004F003008C490870C4F300102A
:103D40008B490870C4F34015012D54D12807070E84
:103D5000C4F383103844C5B2A5F110000F2845D232
:103D6000DFE800F0080C1014181C2024282C303434
:103D7000383C400071207F4908703BE072207D494B
:103D8000087037E073207B49087033E0742079496C
:103D900008702FE07520774908702BE07620754970
:103DA000087027E077207349087023E07820714974
:103DB00008701FE079206F4908701BE07A206D4978
:103DC000087017E07B206B49087013E07C2069497C
:103DD00008700FE07D20674908700BE07E20654980
:103DE000087007E07F206349087003E02F206149D5
:103DF000087000BF03E0C4F383105E4908704FF4FD
:103E0000FA50FFF7CEFCFFF765FFA04200D102E0B9
:103E1000761E002E81D100BFBDE8F08110B5FFF7FE
:103E200071FCFFF77EFCFFF79AFCFFF71FFDFFF721
:103E300066FF5148007828B1FFF7CEFCFFF703FF7B
:103E4000FFF7DAFEFFF7C8FEFFF797FEFFF738FE31
:103E5000FFF7ECFDFFF7BCFDFFF727FDFFF714FDB3
:103E600010BD70B50446254604EBD4714910A4EB8F
:103E70004101394A505C00F02FFC70BD70B504461A
:103E80000D4616463249085D00F0ADFB28703149F9
:103E9000085D00F0A8FB307070BD10B500240AE08A
:103EA0003649085D1022022100F07FFB0221E0B2BA
:103EB000FFF7A9FD641C022CF2D310BD10B500243D
:103EC0000AE02F49085D1022032100F06EFB052156
:103ED000E0B2FFF78EFD641C022CF2D310BD10B5CA
:103EE00004462849085D00F07EFBC0B210BD10B545
:103EF00004462549085D00F097FBC0B210BD70B5BF
:103F000004460D462149085D294600F0AEFB70BD10
:103F1000124A52F820209184704701460F4850F809
:103F20002100808C704710B504461949085D00F0E7
:103F30005AFBC0B210BD10B504461649085D00F02A
:103F400052FBC0B210BD000067BF000869BF000887
:103F500063BF000865BF000861BF000818010020AA
:103F600071BF000873BF0008320100202301002048
:103F70002401002025010020220100205ABF000852
:103F80005CBF000854BF000856BF000858BF0008B7
:103F90006BBF00086DBF000810B5024612B1012AC0
:103FA00027D112E0FF4803780078401CFD4C2070B8
:103FB000FD4830F8231023461878C31700EB5373DD
:103FC000DB10A0EBC303237015E0F84803780078FA
:103FD000401CF64C2070F44800EB830041882346D7
:103FE0001878C31700EB5373DB10A0EBC3032370E7
:103FF00001E0002100BF00BF0805000C10BD034612
:10400000002213B1012B17D10AE0002105E0E64898
:1040100030F82100104482B2491C0829F7D30CE083
:10402000002106E0E04800EB81004088104482B2A5
:10403000491C0829F6D300E000BF00BF5004000C63
:10404000704710B5044624B101212D2000F00DFB6E
:1040500003E000212D2000F008FB10BD1FB5D4485F
:104060000090D448007820B14FF48050ADF804009F
:1040700002E00020ADF804004FF40050ADF8060057
:104080000020ADF80800ADF80C000C20ADF80A00D7
:104090006946C94805F005FC012240F22551C64891
:1040A00005F07CFC002240F22661C34805F076FC56
:1040B00010212D2000F061FA1821092000F05DFA8E
:1040C00004210A2000F059FA0020FFF7BAFF01216D
:1040D000B94805F057FC1FBD10B50246002007E0A7
:1040E0000B5CB64C234493F8E8371354431CD8B206
:1040F0000C28F5DB10BD002007E0B149014491F820
:10410000001CB04A1154411CC8B20428F5DB7047AA
:10411000F0B585B004460B460120002104E0665C42
:104120000DF801604E1CF1B29942F8DB5A100021E3
:104130000CE08E181DF80660F643F5B21DF801601C
:10414000AE4201D0002003E04E1CF1B29142F0DB00
:1041500000BF05B0F0BD2DE9F84F4FF00009CA4689
:10416000C84600250026DFF860B298480090BBF8EA
:1041700010500098068AA5F57F40FF3806D1A6F5B5
:104180007F40FF3802D1924908707AE0A5F57F4060
:10419000FF3813D0A6F57F40FF380FD110215846C5
:1041A000FFF7B6FF8046B8F1010F03D1012088491F
:1041B000087066E003208649087062E0A5F57F403C
:1041C000FF3813D1A6F57F40FF380FD0102100989B
:1041D000FFF79EFF8046B8F1010F03D102207C4912
:1041E00008704EE004207A4908704AE010215846D1
:1041F000FFF78EFF8046B8F1010F02D14FF00109A1
:1042000001E04FF0000910210098FFF781FF804680
:10421000B8F1010F02D14FF0010A01E04FF0000A9E
:10422000B54206DBB9F1010F03D1012068490870DE
:1042300027E0B5420DDBB9F1000F0AD1BAF1010F49
:1042400003D10220624908701BE005206049087014
:1042500017E0AE4206DDBAF1010F03D102205C493E
:1042600008700EE0AE420CDDBAF1010F09D1B9F1D0
:10427000010F03D101205649087002E0052054497E
:1042800008705348007806287ED2DFE800F0031259
:1042900055C3DAF2002404E0FF204E490855601CA3
:1042A000C4B2042CF8DB00204B4908804B4908704D
:1042B000FAE0002405E01BF8040049490855601C99
:1042C000C4B2082CF7DB464A4649474806F042FF8D
:1042D00041480580002406E04249201D085C3D4914
:1042E0000855601CC4B2042CF6DB4048007878B94D
:1042F000E84385B238480088C7B23D480770364861
:104300000088070A3A484770EFB287702F0AC770D3
:1043100030480078FF280BD12E484078FF2807D17D
:104320002C488078FF2803D12A48C078FF2802D083
:1043300001202A490870B7E0002405E00098005DDC
:1043400027490855601CC4B2082CF7DB244A2549CC
:10435000254806F0FFFE20480680002406E021499B
:10436000201D085C1B490855601CC4B2042CF6DBF8
:104370001E48007888B9F04386B217480088C7B253
:104380001B480770144800E08DE00088070A1848B1
:104390004770F7B28770370AC7700E480078FF2859
:1043A00034D127E020010020F01500202101002059
:1043B000A0860100220100200038014000F0FF1F0C
:1043C00000F001082901002000F8010800F40108AC
:1043D0001C0000202D0100201A00002027010020D1
:1043E000F1000020F9000020A005002018000020A6
:1043F000100000203B484078FF2807D139488078DA
:10440000FF2803D13748C078FF2802D00120364961
:10441000087049E0002035490880002404E0FF20AE
:1044200030490855601CC4B2042CF8DB00202E492A
:10443000087003F072FE584603F0B1FE03F073FEFD
:1044400032E0002029490880002404E0FF202549AB
:104450000855601CC4B2042CF8DB00202249087007
:1044600003F05BFE009803F09AFE03F05CFE1BE095
:10447000FFE700201D490880002404E0FF201949BF
:104480000855601CC4B2042CF8DB002016490870E3
:1044900003F043FE584603F082FE009803F07FFECF
:1044A00003F041FE00E000BF00BFBDE8F88F10B58B
:1044B000002414E00E4830F8140078B10C4830F8AD
:1044C0001400401E0A4921F81400084630F8140070
:1044D00020B900221146E0B2FFF7E1FA641C022C79
:1044E000E8D310BD2D010020270100201A00002074
:1044F000340100200311072B17D2DFE803F0040773
:104500000A0D10131700864B0B6012E0854B0B60F1
:104510000FE0854B0B600CE0844B0B6009E0844B93
:104520000B6006E0834B0B6003E000BF824B0B6027
:1045300000BF00BF00F00F03136070472DE9F84380
:1045400080460C4615461E46DDF820906A462946F0
:104550004046FFF7CFFF0098C0F11007BC4201D8DA
:10456000204600E038460746009830600120B840F9
:10457000401EC9F80000BDE8F8833EB505460C466C
:1045800001AA02A92846FFF7B5FF0120019988403A
:1045900080B2ADF800008DF8034003208DF80200D2
:1045A0006946029804F096F83EBD70B586B005469F
:1045B0000E46144603AB009304AB05AA31462846C9
:1045C000FFF7BCFFDDE90301884080B2ADF80800C9
:1045D0008DF80B4003208DF80A0002A9059804F01D
:1045E00079F806B070BD1CB504466A4601A920469C
:1045F000FFF780FF019880680099C84000F0010033
:104600001CBD7FB504460D4601AB009302AB03AA67
:1046100029462046FFF792FF039880680299C84018
:104620000199084004B070BD1CB504466A4601A952
:104630002046FFF75FFF0198C0680099C84000F06E
:1046400001001CBD7FB504460D4601AB009302ABD3
:1046500003AA29462046FFF771FF0398C068029914
:10466000C8400199084004B070BD7CB506460C46B0
:104670006A4601A93046FFF73DFF0198C068012155
:10468000009A9140884304F00101914040EA0105FD
:104690000198C56028467CBD2DE9FF4106460F46BE
:1046A000144601AB009302AB03AA39463046FFF72C
:1046B00045FF0398C068DDE9011291408843019AE3
:1046C00004EA0201029A914040EA01050398C5609C
:1046D000284604B0BDE8F0811CB504466A4601A92D
:1046E0002046FFF707FF0198C0680121009A91401A
:1046F00048400199C8601CBD7FB504460D4601AB1A
:10470000009302AB03AA29462046FFF717FF039840
:10471000C068DDE90112914048400399C8607FBD3F
:1047200000080140000C014000100140001401404D
:1047300000180140001C014000200140EFF31080F0
:1047400072B6704780F3108870471D484FF0FF0124
:104750000170002080F309881A48012101701A486D
:104760004FF08051016062B6FEE717484FF080516C
:104770000160704714484FF080510160704772B675
:10478000EFF3098028B1203880E8F00F0F4909685D
:10479000086000B50E4880475DF804EB0D480E49EF
:1047A0000A78027009480D490A680260106890E8AA
:1047B000F00F203080F309884EF0040E62B6704787
:1047C00022ED00E05A01002004ED00E0600100202D
:1047D000A748000853010020540100206801002070
:1047E0007047704710B504462046FBF7C1FD10BD69
:1047F00010B504462046FBF7BCFD10BD10B5FBF715
:10480000B9FD10BD10B5FBF7B6FD10BD70B504467F
:1048100010464FF080750560051F28462C606FF02C
:104820000106051F28462E604FF01236051F284648
:104830002E604FF00336051F28462E604FF00236DB
:10484000051F28462E607610051F28462E60051F7E
:10485000284629604FF01136051F28462E604FF07C
:104860001036051F28462E604FF00936051F2846D2
:104870002E604FF00836051F28462E604FF0073691
:10488000051F28462E604FF00636051F28462E606D
:104890004FF00536051F28462E604FF00436051FE1
:1048A00028462E6070BD10B5FBF766FD10BD10B533
:1048B00004462046FBF761FD10BD10B5FBF75EFD19
:1048C00010BD10B5FFF73AFF04461A480078401CA7
:1048D000184908702046FFF735FF00F0AFFD00F0E3
:1048E000B7FC10BD144909684FF47A72B1FBF2F0BD
:1048F000B0F1807F00D31CE020F07F41491E4FF0D3
:10490000E022516100BF5117002905DA0F2109018A
:104910000A4A0B23D15404E00F210901084A531716
:10492000D15400BF00214FF0E022916107211161B5
:1049300000BF704751010020E0C0000818ED00E002
:1049400000E400E0174818481848194819481A4860
:104950001A481B481B481C481C481D481D481E4837
:104960001E481F481F482048204821482148224807
:1049700022482348234824482448254825482648D7
:1049800026482748274828482848294829482A48A7
:104990002A482B482B482C482C482D482D4800BF2E
:1049A0007047000078BF00087CBF000880BF000887
:1049B00082BF000884BF000886BF000888BF0008C7
:1049C0008ABF00088CBF00088EBF000890BF000897
:1049D00092BF000894BF000896BF000898BF000867
:1049E0009ABF00089CBF00089EBF0008A0BF000837
:1049F000A2BF0008A4BF0008A6BF0008A8BF000807
:104A0000AABF0008ACBF0008AEBF0008B0BF0008D6
:104A1000B2BF0008B4BF0008B6BF0008B8BF0008A6
:104A2000BABF0008BCBF0008BEBF0008C0BF000876
:104A3000C2BF0008C4BF0008C6BF0008C8BF000846
:104A4000CABF0008CCBF0008CEBF0008D0BF000816
:104A5000D2BF0008D4BF00080246002005E011F8CC
:104A6000013B02F8013B431CD8B20B78002BF6D176
:104A7000137070472DE9F04105460E461446002795
:104A800014B90020BDE8F0811DB904202070002079
:104A9000F8E71EB90C2020700020F3E7FF480078EB
:104AA000002803DD112020700020EBE72878012882
:104AB00008D0022807D0032802D0042804D100E03F
:104AC00000BF00BF00BF03E0012020700020D9E735
:104AD00000BFFFF733FE074605F10F013046FFF731
:104AE000BBFF80463846FFF72DFE00202070404671
:104AF000C8E70146002002E0491C421CD0B20A78F7
:104B0000002AF9D170472DE9F04105460E461446BA
:104B10004FF000080CB9BDE8F08115B904202070F1
:104B2000F9E716B90C202070F5E7DC48007800287A
:104B300002DD12202070EEE72878012808D0022834
:104B400007D0032802D0042804D100E000BF00BF32
:104B500000BF02E001202070DDE700BFFFF7EEFD9F
:104B600080463046FFF7C5FF07460F2F05DD40465C
:104B7000FFF7E8FD0B202070CDE7314605F10F006F
:104B8000FFF76AFF4046FFF7DDFD0020207000BF01
:104B9000C1E7F0B5024612F8344F95785678A2F185
:104BA00034020B4618680FE000F10B073F5DB74376
:104BB00000F10B0C0CF8047067463F5D17B9877A5B
:104BC000AF4387721B1D18680028EDD1F0BDB449B2
:104BD000B44A1278885CB449095CB14A515C01EB73
:104BE000C001B24A1170704710B50024FFF7A6FD4E
:104BF0000446AA480078F8B9AD480078E0B9FFF754
:104C0000E6FFAC48A949097850F82100AA49086094
:104C1000A6480078A949097888420DD0A6480068BE
:104C2000806B401CA44909688863A5480068401C43
:104C3000A3490860FFF799FD2046FFF783FD10BDEB
:104C400070B5014600249F4D2D68EC619D4C246891
:104C500021620B4618681BE09A4C246894F8345083
:104C600000F10B04645D974D2D6895F835502C4389
:104C7000944D2D6895F8346000F10B05AC55847A9D
:104C8000904D2D6895F836502C4384721B1D186882
:104C90000028E1D18B4C246894F83420824CA45C29
:104CA000884D2D6895F83550AC437F4DAC542C465B
:104CB000A45C44B9834C246894F83650794C247829
:104CC000AC43784D2C7070BD2DE9FF4F83B0814609
:104CD0000E461546109F0020009017B907B0BDE89A
:104CE000F08FB9F1000F03D1042038700020F5E7F0
:104CF0001EB9042038700020F0E71DB90420387078
:104D00000020EBE700203060CA46DAF8004015E0EA
:104D10002078062807D2DFE800F00604050307081C
:104D200007E006E005E000BF00BF0120387000206A
:104D3000D4E700BF0AF1040ADAF80040002CE7D1FA
:104D400056480078002803DD022038700020C5E7AF
:104D500057480078002803DD0D2038700020BDE79B
:104D6000FFF7ECFC00900020029083460190CA46B9
:104D7000DAF8004068E02078062855D2DFE800F035
:104D800054182B035556208900280CDD2089401E1D
:104D9000208110C601200290002001C50BF1010006
:104DA0001FFA80FB03E0019840F00100019046E00B
:104DB000606858B1606801C50020606010C60120BD
:104DC00002900BF101001FFA80FB03E0019840F014
:104DD0000200019033E0D4F80480B8F816000028EF
:104DE0001DDDD8F81010081DC8F81000086801C5AE
:104DF000D8F80810D8F81000884203D1D8F8040079
:104E0000C8F81000B8F81600401EA8F8160010C622
:104E1000012002900BF101001FFA80FB03E00198D2
:104E200040F0040001900AE000BF00BF0098FFF7C7
:104E300089FC002030600120387058464EE700BFE2
:104E40000AF1040ADAF80040002C94D102980128F3
:104E500008D1002030600098FFF774FC0020387003
:104E600058463BE71748006890F83000019941F038
:104E7000800108431349096881F830000020114976
:104E8000096881F831000F4906980968C8854846C5
:104E9000FFF7D6FE0098FFF755FC15E05101002002
:104EA000D6BF000855010020560100205401002003
:104EB00052010020D81D002068010020530100206D
:104EC0003801002060010020FFF78EFEFFF736FC5E
:104ED0000090FC48006890F8310020B101281BD0F8
:104EE000022818D100E000BFF6480068C4693CB150
:104EF00010C6002030600BF101001FFA80FB09E0B2
:104F00000120F049096881F831004946ED48006800
:104F1000FFF73FFE06E000BF4946EA480068FFF79A
:104F200038FE00BF00BFE748006890F8310020B1AC
:104F3000012828D0022825D11FE0207806280DD28C
:104F4000DFE800F00C0607030D0E002001C510E09D
:104F500000BFDC480068406A01C50AE000BF00BF2E
:104F60000098FFF7EFFB00203060012038705846B2
:104F7000B4E600BF002038700AE0002001C50E2012
:104F8000387005E000BF002001C50A20387000BF5E
:104F900000BF0020CB49096881F83000C949096881
:104FA00081F83100C7490968C861C64909680862C3
:104FB000C449096848620098FFF7C4FB58468DE66B
:104FC0007CB5002514E06946284602F04FFA0646F3
:104FD00066B9BD4850F8254044B1012C06D0D4E94B
:104FE000020100EB810060640198A064681CC5B2F6
:104FF0001F2DE8DD7CBD002402E0C82002F018FB74
:10500000B24800780028F8D0B14800686421B0FBAD
:10501000F1F0AF4908600846006828B90020AD49A2
:105020000870FF2002F06DFA00BFFFF787FB04460F
:10503000A9480068A94908600020A74908602046DF
:10504000FFF780FBA5480068A1490968B0FBF1F0B3
:10505000C0F164009F490870FFF7D4FBFFF7B0FF71
:10506000642002F0E5FAE0E700B587B003230022F0
:1050700080219B48CDE90323CDE901014FF6FE7362
:1050800000931E2300F5FE720021AFF2950001F09F
:10509000B6FF06AA93A11E2002F044F907B000BD96
:1050A000002400BFFFF74AFB04468B480068401C01
:1050B000894908602046FFF745FBFFF79FFBF1E7B2
:1050C00000B587B00323002280218A48CDE903235D
:1050D000CDE901014FF6FF7300931F2300F5FE7227
:1050E0000021AFF2430001F08AFF06AA82A11F202F
:1050F00002F018F907B000BD04E0002200F8012B0F
:105100004A1E91B20029F8DC704730B54FF4207187
:105110007D48FFF7F1FF7C4B03F1200500240AE0F6
:10512000002018705D603F20D8730021197420336F
:105130002035601C84B2132CF2DB002018705860FC
:105140003F20D873002119746F487049086030BD42
:1051500030B54FF4FD616E48FFF7CEFF80215A480D
:10516000FFF7CAFF6A4B03F15C0500240AE05D61AA
:105170003F2083F84C0000214D20C1545C335C3546
:10518000601CC4B2152CF2D3002058613F2083F874
:105190004C0000214D20C15400205E4908605C484D
:1051A0005D49086030BD00225C4B1A705C490020EC
:1051B00004E0002201F8012B421CD0B20428F8DBE5
:1051C0000022584B1A70584B1A70584B1A603D4BBE
:1051D0001A607047002056490860564908705649C1
:1051E00008705649087056490870564908603A498F
:1051F00008603A49086036490860344908707047C9
:1052000010B5FFF7EDFAFFF7E5FFFFF7CCFFFFF76B
:105210009FFFFFF77AFF00F01CFF01F05EF801F03E
:105220009EFBFFF74DFFFFF71FFFFFF7DAFAFFF7CF
:1052300089FB10BD42480078012808D13D4800781C
:10524000FF2804D23B480078401C3A490870704758
:1052500010B500243A480078012831D1FFF76EFAE2
:10526000044634480078002804DD32480078401EA7
:10527000304908702F480078F8B92F480078E0B915
:10528000FFF7A5FC10482849097850F82100274964
:105290000860254800782349097888420DD02348C2
:1052A0000068806B401C21490968886325480068B4
:1052B000401C24490860FFF75DFA2046FFF742FAD8
:1052C00010BD000060010020D81D0020500100200A
:1052D00048010020440100205C0100204C01002016
:1052E000D819002075432F4F532D4949205374611D
:1052F00074000000D81B002075432F4F532D4949DF
:105300002049646C65000000CC1600203C010020A0
:10531000581E00206C01002064010020550100206F
:105320005601002053010020540100206801002094
:105330007C01002051010020520100205B0100206F
:105340005A0100203801002010B50024FF480078E1
:10535000012811D1FFF7F2F90446FD48007840B961
:10536000FC480078FF2804D2FA480078401CF9492C
:1053700008702046FFF7E6F910BD10B50024F34889
:105380000078012822D1FFF7D9F90446F1480078C6
:10539000002818DDEF480078401EEE4908700846E6
:1053A000007860B9EA48007828B92046FFF7CAF9C2
:1053B000FFF71AFC0AE02046FFF7C4F906E0204692
:1053C000FFF7C0F902E02046FFF7BCF910BD10B5A9
:1053D000DE48007890B9FFF7FAFBDF480078DF4934
:1053E0000870DF48DC49097850F82100DD49086081
:1053F00008460068DC490860FFF7A7F910BD10B542
:105400000024022002F014F9FFF798F90446002066
:10541000D64908602046FFF795F9642002F008F9A4
:10542000FFF78CF90446D1480068D1490860012093
:10543000D04908702046FFF785F910BD70B50026E9
:10544000FFF73BFAFFF77AF90646CB480068401CA5
:10545000C94908603046FFF775F9BC480078012853
:1054600058D1C648007820B1012804D0022809D1BB
:1054700003E001250BE0002509E001250120BF49DB
:10548000087004E001250020BC49087000BF00BF7F
:1054900005B970BDBA48046838E0FFF74FF9064611
:1054A000E08D78B3E08D401E0004000CE08529D12A
:1054B00094F8300010F0370F09D014F8300F20F0B6
:1054C0003700207001206070A4F1300402E0002059
:1054D00084F8310094F8300010F0080F12D104F174
:1054E0003404A078A749097840EA0100A54908706A
:1054F0002078A549085C617840EA010014F8341965
:10550000A14A505464693046FFF71CF994F8320000
:105510001F28C2D100BFBCE74FF48F70704770479F
:1055200010B590F8342001F10B039B5C90F83540E6
:10553000A34301F10B04A35423469B5C23B98B7A4C
:1055400090F83640A3438B7210BD2DE9F04F05460D
:105550000F4690469946A87A8C490E5C05F10B00DF
:10556000805D11F800B00BEBC60000F0FF0A7C482C
:1055700050F82A40002004F1240460812760207B39
:1055800020EA0800207384F80D90207BA4F1240405
:1055900010F0080F0DD194F836007A4909780843C5
:1055A000784908707848805D94F83510084376494A
:1055B000885529462046FFF7B3FF206A20B12046D0
:1055C000216AFFF7E6FAE5615046BDE8F08F10B5B5
:1055D000654A1268D061644A126892F8343000F16A
:1055E0000B02D25C604B1B6893F835301A435E4B5C
:1055F0001B6893F8344000F10B031A55827A5A4B1A
:105600001B6893F836301A438272574A126892F830
:1056100034105D4A525C544B1B6893F835309A4302
:10562000594B5A541A46525C42B94F4A126892F882
:105630003630544A12789A43524B1A7010BD0023E8
:10564000837200F10B01002204E0002301F8013B0A
:10565000531CDAB2042AF8DB704705E011F8013B6D
:1056600000F8013B531E9AB2002AF7DC70472DE97F
:10567000F84F05460E4617469846DDE90BABDDF8B8
:10568000289000200090FFF759F8009040480468E7
:10569000ECB304F1180454F8040C3D490860009878
:1056A000FFF750F844F8186CA57600202076607655
:1056B000E08244F814AC44F80C9C44F8107C24F8C4
:1056C00008BC24F8068CE077E810207705F0070086
:1056D000E076217F01208840A077E17E012088408C
:1056E000607700206060A0602061E0602062A062BE
:1056F0006062E06220633F2084F83400A4F1180463
:105700004FF000014FF04D000155204600E05BE0F6
:10571000FFF7CDF82046FFF765F8FFF70FF8009088
:105720000F4840F825401648006860610020A061DD
:105730001348006810B11248006884611048046082
:1057400004F13404A0780F49097823E05A010020BD
:10575000510100205201002054010020530100207B
:10576000D81D002068010020600100205C0100209D
:1057700048010020500100207C0100207001002021
:105780006C0100205501002056010020D6BF000802
:105790006401002040EA01000E49087020780E499B
:1057A000085C617840EA010014F834190A4A505440
:1057B0000A48007800F10100084908700098FEF7D7
:1057C000C1FF0020BDE8F88F0098FEF7BBFF422024
:1057D000F8E7000055010020560100205B01002081
:1057E0002DE9F05F05460F4691461E464FF0000B2F
:1057F00016B90020BDE8F09F1DB96E203070002062
:10580000F8E72878052803D0012030700020F1E760
:1058100009F0800ABAF1000F04D029F080094FF096
:10582000010801E04FF0000800203070FEF786FF0D
:105830008346B9F1000F2CD0B9F1010F3BD0B9F17B
:10584000020F03D0B9F1030F46D111E0288900EA15
:105850000704BC4206D1B8F1010F05D12889A04345
:10586000288101E0702030705846FEF76BFF3AE067
:10587000288900EA070434B1B8F1010F05D128895D
:10588000A043288101E0702030705846FEF75AFF8F
:1058900029E0288927EA0004BC4206D1B8F1010FAB
:1058A00005D128892043288101E0702030705846B6
:1058B000FEF748FF17E0288927EA000434B1B8F161
:1058C000010F05D128892043288101E07020307024
:1058D0005846FEF737FF06E05846FEF733FF002430
:1058E0006F20307000BF00BF204683E72DE9F041F4
:1058F00006460D46002715B90020BDE8F081FD4899
:105900000078002803DD102028700020F5E7FEF75E
:1059100015FF0746F848046894B100684068F649E6
:105920000860052020702681002060603F20A07262
:105930000021E1723846FEF705FF0020287004E0E0
:105940003846FEF7FFFE722028702046D5E730B5B6
:1059500001464A6808682AB9CC68606028B1002509
:10596000456002E0106000B142608B6800259D62D6
:1059700030BDF0B506460F46B468002004F12C0493
:1059800060802780207920F0200020714FF00000F7
:1059900060712079A4F12C04A8B904F13404A07832
:1059A000D649097840EA0100D44908702078D449E2
:1059B000085C617840EA010014F83419D04A505468
:1059C0004FF0010500E000253046FFF7C0FF2846F4
:1059D000F0BD2DE9F0470446894615464FF0000A10
:1059E00015B92046BDE8F0871CB96E202870204606
:1059F000F8E7C0480078002803DD0F202870204613
:105A0000F0E72078052803D0012028702046E9E738
:105A1000FEF794FE8246606808B1012700E0002787
:105A2000B9F1000F03D0B9F1010F40D11BE09FB9CC
:105A30003F20A0720021E17200202070AE48006873
:105A4000606000202081AC4804605046FEF77AFE7A
:105A500000202870002605E05046FEF773FE49201E
:105A6000287026462AE0D4F8048005E0002140464C
:105A7000FFF77FFFD8F80080B8F1000FF6D13F2084
:105A8000A0720021E172002020709B4800686060D5
:105A900000202081984804605046FEF753FE012FF5
:105AA00001D1FFF7A1F800202870002606E050463B
:105AB000FEF748FE07202870264600BF00BF30468C
:105AC00090E72DE9F04105460E461446002714B92B
:105AD0000020BDE8F0811DB96E2020700020F8E79D
