:020000040800F2
:10000000902D0020B99400087504000881040008B0
:100010008D04000899040008A504000800000000F1
:10002000000000000000000000000000B104000813
:10003000BD040008000000002F3F000873400008C6
:10004000CB940008CB940008CB940008CB94000814
:10005000CB940008CB940008CB940008CB94000804
:10006000CB940008CB940008CB940008CB940008F4
:10007000CB940008CB940008CB940008CB940008E4
:10008000CB940008CB940008CB940008CB940008D4
:10009000CB940008CB940008CB940008CB940008C4
:1000A000CB940008CB940008CB94000831050008DD
:1000B000CB940008CB940008CB940008CB940008A4
:1000C000CB940008CB940008CB940008CB94000894
:1000D000CB940008EB040008CB940008CB940008F4
:1000E000CB940008CB940008CB94000800F002F8F1
:1000F00000F04CF80AA090E8000C82448344AAF176
:100100000107DA4501D100F041F8AFF2090EBAE873
:100110000F0013F0010F18BFFB1A43F0010318473B
:10012000E0D5000000D600000A4410F8014B14F09E
:100130000F0508BF10F8015B240908BF10F8014B38
:100140006D1E05D010F8013B6D1E01F8013BF9D181
:10015000641E03D0641E01F8015BFBD19142E4D31D
:10016000704700000023002400250026103A28BF15
:1001700078C1FBD8520728BF30C148BF0B60704719
:100180001FB5AFF300801FBD10B510BD0BF063F8B5
:100190001146FFF7F5FF00F0CBF80BF081F8FFF701
:1001A000F3FF0BF087F800001CB500240CE07E493B
:1001B000085D694606F08FFD18B9DDE90001884247
:1001C00001D2FA201CBD641C072CF0D377480078BC
:1001D00010B14FF4FA70F5E740F2EE20F2E770B597
:1001E00000BFFFF7E1FF85B22B4600221146104603
:1001F00006F089FE002003F03CFA6D4800780028E4
:10020000EFD0012003F035FA002405E04FF08041E3
:10021000E0B202F072FE641C022CF7D3E1E700B5F5
:1002200087B00323002280216248CDE90323CDE972
:100230000101172300F5FE7200215F48009306F0CC
:1002400014FB069006AA5DA1172006F0A2FC07B0D9
:1002500000BD70B503F0EAF903F01CFF04F0C7FC21
:1002600000F07CF901F017FA02F0F4FD0020574984
:1002700008705749087000F06BFA60B9554800786B
:1002800020B90021084600F0FFFF0EE001210846DA
:1002900000F0FAFF09E000204E49087000210846EE
:1002A00000F0F2FF082000F061FB18224A494B4899
:1002B0000AF0A2FF4A494B4803F0E5FA4A49494887
:1002C0000AF070FF03F0EDFA03F01AFB3F480078E4
:1002D000012802D10520454908703C4800780128D2
:1002E00005D1052041490870012031490870FFF708
:1002F00096FF02F0FFFA002504E00121E8B203F0C6
:1003000060F86D1C022DF8D311E0642000F06EF946
:100310000446A4F57F41FF3902D0204602F06BFA73
:1003200002F076FA3248007808B102F001FBECE7FF
:1003300000B587B009F095F804F059FB03230022BB
:1003400080212C48CDE9032300F5FE72CDE9003071
:1003500002910021284806F088FA069006AA27A1F3
:10036000032006F016FC04F02AFC002007B000BDB4
:1003700070477047704770477047704710B500244A
:1003800021480068401E204908600846006850B9AE
:100390004FF4FA70086003F0A9FD044603F05FFC17
:1003A000204603F0A7FD10BDCAB20008FE000020E1
:1003B0000E0000207C030020DF01000855736572E9
:1003C000204946205461736B0000000003010020A7
:1003D0000401002000010020FC0600207C05002014
:1003E00001000020140700202C0000200D00002038
:1003F0000E0100207C01002053020008537461723A
:1004000074205461736B000028000020024606E04F
:100410004FF4FA5100E0491E0029FCD1521E002A77
:10042000F6D1704770B505460021084602F0C9FFB5
:100430000021012002F0C5FFFA20FFF7E7FF0020AE
:1004400003F017F9012003F014F9FA20FFF7DEFF9B
:1004500000240CE0012003F00CF9FA20FFF7D6FF8E
:10046000012003F006F9FA20FFF7D0FF641CAC422C
:10047000F0D370BD10B500BF0120FFF7D3FFFBE73D
:1004800010B500BF0220FFF7CDFFFBE710B500BF9E
:100490000320FFF7C7FFFBE710B500BF0420FFF7FD
:1004A000C1FFFBE710B500BF0520FFF7BBFFFBE76F
:1004B00010B500BF0620FFF7B5FFFBE710B500BF82
:1004C0000720FFF7AFFFFBE77047704710B503F059
:1004D0000DFD04461F480078401C1E490870204648
:1004E00003F008FD04F0ABFA10BD70B503F0FEFC9C
:1004F000044618480078401C16490870204603F04E
:10050000F9FC40F22551144808F001FF28B11248C7
:1005100008F094FE054600F03CF840F226610E48D3
:1005200008F0F5FE08B100F091F804F088FA70BD0B
:1005300010B503F0DBFC044606480078401C054972
:100540000870204603F0D6FC00F0D7FF04F077FADD
:1005500010BD00002D0100200038014010B5002022
:100560007849086008390860091D086005F05DFEDB
:1005700074490C3108600020091F0860091F0860D9
:10058000012005F052FE6F491031086003F03DF97B
:1005900010BD70B50446002503F0A8FC0546694867
:1005A000006820281ED267480068401C6549086022
:1005B000A1F1080001680068401C624A083A106016
:1005C000614820F811401046006800F01F001146F5
:1005D0000860284603F08EFC5A480C30006805F08D
:1005E0007FFF02E0284603F085FC70BDF8B50446A5
:1005F00000256A46214653480C30006805F0AFFEDE
:1006000003F074FC05464F480068C8B14D480068C7
:10061000401E4C490860081F01680068401C494A98
:10062000121F1060484830F811601046006800F052
:100630001F0011460860284603F05CFC3046F8BDF8
:10064000284603F057FC4FF6FF70F8E710B53D4819
:10065000001D00683B490831096888420FD23948BB
:10066000001D02680068401C364B1B1D1860364890
:10067000403030F81210354808F0DCFD0DE0002263
:1006800040F22661314808F072FD002003F0B0F816
:100690002C481030006805F023FF10BDF8B5044663
:1006A0000D4616466A46314626481030006805F069
:1006B00056FE9DF80000D0B9012003F099F80027FC
:1006C00006E035F817002049403121F817007F1C5B
:1006D000A742F6D31B480830046000201949091DC1
:1006E0000860012240F22661184808F040FD9DF89C
:1006F0000000F8BD13B50C46224669460120FFF7FD
:10070000CDFF1CBD70B504460D46012003F070F806
:10071000002606E035F816000B49403121F8160096
:10072000761CA642F6D3074808300460002005492D
:10073000091D0860012240F22661044808F017FDF7
:1007400070BD00003C0000202A0700200038014056
:100750001CB56A4601A9002002F099FF9DF804002B
:1007600008B900201CBD6A4601A9012002F08FFFD4
:100770009DF8040008B90020F4E70120F2E710B565
:1007800000240AE004F0010002F073FFC8230022F5
:100790001146104606F0B7FB641C0A2CF2D3002465
:1007A00004E00121E0B202F00CFE641C022CF8D33C
:1007B00010BD10B500BF002404E00321E0B202F038
:1007C0009CFB641C022CF8D3002301221946184616
:1007D00006F099FBEFE77CB5002519E06A4601A910
:1007E000E8B202F054FF9DF8040030B99DF8000013
:1007F00008B9032407E0022405E09DF8000008B9C9
:10080000012400E000242146E8B202F060FB6D1CE8
:10081000022DE3D37CBD2DE9F047044604F0070028
:1008200008282BD2DFE800F004080D12171C21263F
:1008300001250026A84622E0012502264FF00308E4
:100840001DE0032502264FF0070818E003250326C4
:100850004FF00F0813E0022503264FF00E080EE0BC
:10086000022501264FF00C0809E0002501264FF073
:10087000080804E000250026A84600E000BF00BFED
:100880002946002002F00EFC3146012002F00AFC4D
:100890004FF4C86002F09AFB002002F030FF81465E
:1008A000012002F035FF49EA4009002002F030FF44
:1008B00049EA8009012002F022FF49EAC0074745C2
:1008C00002D10120BDE8F0870020FBE770B590B0B1
:1008D0008548007808B1092400E008240120A040E0
:1008E000401E86B202F06EFB0546002406E045FA83
:1008F00004F0284430402DF81400641C202CF6D35A
:10090000032269462020FFF7C9FE10B1002010B075
:1009100070BD002409E00320FFF768FE3DF81410C5
:10092000884201D00020F2E7641C202CF3D3012080
:10093000EDE770B5054615F0010F0BD0002406E079
:100940006A49E2B2885C002103F068FA641C002C5A
:10095000F6D00AE0002406E06449E2B2885C012196
:1009600003F05CFA641C002CF6D070BD2DE9FE4F3C
:100970000446FFF704FF02F0B5FD05464FF4616041
:1009800060434FF47A714843491090FBF1F00290B4
:1009900000208DF8040003208DF8050007208DF855
:1009A00006000A208DF8070000208DF800000320C3
:1009B0008DF8010007208DF802000A208DF8030051
:1009C000002788E002F08EFD0646AE4203D00120EB
:1009D00002F04FFE3546FFF7FEFE07F00700FFF777
:1009E0001AFFFFF773FF10B1002002F042FE002053
:1009F00000F045FD05280ED19DF80410002000F000
:100A000066FD9DF8040018B90A208DF8040002E084
:100A100000208DF80400012000F031FD05280ED1E2
:100A20009DF80010012000F052FD9DF8000018B95B
:100A30000A208DF8000002E000208DF80000002060
:100A400002F0B4FE8046012002F0B0FE8246C145AD
:100A50000ADDA9EB0800642810DD2449891C087808
:100A6000012103F0DBF909E0A8EB0900642805DDAA
:100A70001E49891C0878012103F0D0F9D34509DD0E
:100A8000ABEB0A0064280EDD18494878012103F019
:100A9000C5F908E0AAEB0B00642804DD1349487887
:100AA000012103F0BBF9C146D3463846FFF741FFA9
:100AB0004FF4FA7300221146104606F024FA0B494F
:100AC000891C0878002103F0A9F908494878002119
:100AD00003F0A4F97F1C02988742FFF473AFFFF77D
:100AE00068FEBDE8FE8F0000FE000020D1B20008C5
:100AF0000146B1F5806F01D20B203EE0B1F5606F89
:100B000001D8002039E0B1F5B05F01D8012034E010
:100B1000B1F5F05F01D802202FE0B1F5185F01D8E0
:100B200003202AE0B1F5385F01D8042025E0B1F5B3
:100B3000585F01D8052020E0B1F5785F01D8062084
:100B40001BE0B1F58C4F01D8072016E0B1F59C4FA2
:100B500001D8082011E0B1F5AC4F01D809200CE014
:100B60004CF66602914201D20C2006E04DF6993215
:100B7000914201D80A2000E00D20704710B50446CC
:100B8000204602F013FE10BD70B504460D46FA482B
:100B900030F814100022F94807F098FF0021204691
:100BA00002F04DFB2B4600221146104606F0ABF931
:100BB0000321204602F038FB70BD10B5012921D178
:100BC000262A0FD2EE4B1B8803EB430404EB0313DE
:100BD000EC4C04EB830333F81230E94C1E3424F858
:100BE000103036E0E64B1B8803EB430404EB0313A1
:100BF000E44C04EB8303B3F84A30E14C1E3424F890
:100C0000103026E029BB0A2A0FD2DD4B9B1D1B8822
:100C100003EB8303DC4C04EB830333F812305B10EB
:100C2000D74C1E3424F8103013E0D54B9B1D1B8885
:100C300003EB8303D44C04EB83035B8A5B10D34C3C
:100C400024786343642493FBF4F3CD4C1E3424F8DE
:100C5000103010BD2DE9F74F84B0044615462046EC
:100C6000FFF78CFF8046002002904FF00A0B059E94
:100C700075E0C349163151F8240003AA002105F09C
:100C80006EFBBF480E3850F82400401CBC490E399A
:100C900041F82400701E16310978484301900198EC
:100CA000584501D9CDF804B0B5480E3850F8241095
:100CB0000198814204D2B2480E3850F824000190C5
:100CC00000212046019AFFF778FF204602F0F0FC51
:100CD00018B9012007B0BDE8F08F4746A7EB05091A
:100CE000B9F1000F01DAC9F100092046FFF746FF0C
:100CF0008046A8EB050ABAF1000F01DACAF1000A32
:100D0000CA4502DA0020029009E0CA4507D00298DD
:100D1000401C02900298642801D90420DAE7BAF551
:100D2000997F07D84046FFF7E3FE954922310855E1
:100D30000020CFE740F2662082450DD2904808306F
:100D40000078834505D98E4808300078ABEB000B5E
:100D500004E04FF0000B01E04FF00A0B761E002E6E
:100D600087D10520B6E72DE9F04104460D46164629
:100D70009846069F002082490E3941F82400083128
:100D80000855002229462046FFF717FF002120467C
:100D900002F055FA3146204602F09CFC41462046BE
:100DA00002F042FA02F00EF93844794951F8241061
:100DB0000880714830F81410704808F015F96E4832
:100DC00030F8141001226D4807F080FEBDE8F08174
:100DD0002DE9F84304460E466948223010F8048095
:100DE000464535D0B8F10B0F08D0B8F10C0F01D142
:100DF0000A2E03D0A6EB0800002801DD012700E041
:100E0000002749F640436348009303783A4600219F
:100E10002046FFF7A8FF5C48503030F816204FF40A
:100E2000C8512046FFF716FF0546280005D00128C7
:100E300002D0052805D102E004E0052502E00225E4
:100E400000E000BF00BF0A212046FFF79DFE00E042
:100E500005252846BDE8F8832DE9FC5F04462046B9
:100E6000FFF78CFE01900198FFF742FE05464448CB
:100E700022300555204601F047FD8246012600BF7D
:100E80003F49263151F824006A46B1B205F067FAAD
:100E90003B480930005D0B2831DA3F48005D0128EE
:100EA0001CD100203C4908553548093010F804B0E1
:100EB0000A2033490931085500201B39085501F132
:100EC0001B00015D2046FFF783FF2D4912390855AD
:100ED000FF201B310855084600F804B000202849BF
:100EE0001239085501F11B00015D2046FFF770FF24
:100EF000234912390855FF201B310855C0E7204609
:100F0000FFF73CFE01900198FFF7F2FD05460B2D1F
:100F100007DA1B48223005554FF0080808276426D9
:100F2000AEE707B17F1E204601F0EEFC8246BAF123
:100F3000000F0ED0B8F1000F0BD057B9B9F1000F68
:100F400002D14FF0010906E04FF00009A8F10108B5
:100F500001E04FF000094946204602F070F9EFB970
:100F6000B8F1000F02D0BAF1000F17D104482230B7
:100F70000555142684E70000D4B20008002C014077
:100F800062000020E2B2000812B400082500002030
:100F9000D8B20008FF0000202300002001266FE7E0
:100FA00010B504460120FFF757FF10BD2DE9F843A7
:100FB00004460E461746012E03D1F94890F80080EA
:100FC00007E026B9F648801D90F8008001E04FF058
:100FD00001083D462CE0681E00FB08F04FEA40097E
:100FE000EF49143151F824006A46002105F0B7F9A1
:100FF000EB48103850F82400401CE949103941F8FA
:101000002400084650F82400484504D2084650F809
:1010100024004FEA80094A4631462046FFF7CDFDBD
:10102000204602F045FB10B90120BDE8F8836D1E93
:10103000002DD0D10520F8E7F8B504460D46164638
:101040002F4625E0D649143151F824006A46002184
:1010500005F085F9D248103850F82400401CD049DA
:10106000103941F82400084650F824200121204678
:10107000FFF7A3FD204602F01BFB08B90120F8BDD5
:10108000204602F03CFBB04201D10020F7E77F1E72
:10109000002FD7D10520F2E738B50546284602F0E3
:1010A0002EFB01282BD04FF47A53BE4800930378CF
:1010B000012211462846FFF756FE012240F6C411D0
:1010C0002846FFF7B9FF0446200005D0012802D0CA
:1010D000052805D102E004E0052402E0022400E036
:1010E00000BF00BF052C05D1192201212846FFF7BA
:1010F0005DFF044604212846FFF746FD00E0052475
:10110000204638BDF8B504460E46204602F0F7FAF0
:10111000012804D02046FFF7BFFF054600E0052563
:10112000052D29D14FF47A539E480093037800226D
:1011300001212046FFF717FE00224FF416712046CA
:10114000FFF77AFF05462DB1012D02D0052D05D1FF
:1011500002E004E0052502E0022500E000BF00BF38
:10116000052D05D1324601212046FFF71FFF054618
:1011700004212046FFF708FD2846F8BD2DE9F0417F
:1011800004468748801F01882046FFF7BBFF0546BD
:10119000052D18D18248103850F82470962300226B
:1011A0001146104605F0AFFE2046FFF775FF0546D5
:1011B000052D08D17A48103850F8246006F5C8701B
:1011C000B84200D203252846BDE8F08110B5044698
:1011D0007348001F01882046FFF794FF10BD10B52B
:1011E00004462046FFF758FF10BD38B5044600BF3F
:1011F0006B49243151F824006A46002105F0AFF80C
:101200006748401C005D012804D002280DD0032847
:1012100021D115E000206249143908552046FFF716
:10122000DEFF5F491439085516E000205C49143987
:1012300008552046FFF7CAFF5949143908550BE0F5
:1012400000205749143908552046FFF797FF5449A5
:101250001439085500E000BF00BF00205049491C68
:101260000855C5E710B504460120FFF7BEFF10BDC5
:1012700010B504460020FFF7EFFD10BD10B5044681
:101280000020FFF7B2FF10BD70B586B004460D46D2
:10129000012C04D1444842490C31086003E0434822
:1012A0003F490C310860012D04D141483C490C31C3
:1012B000486003E03F483A490C31486000262AE084
:1012C000002004F0B2FF3649143141F82600002016
:1012D00004F0ABFF3249243141F8260003230022F9
:1012E0004FF48071344800EB8620CDE90323CDE92B
:1012F00001013248835D014600938B5D2E4901EB6D
:10130000862101F57F7226490C3151F82600002113
:1013100005F0ABFA761C022ED2D306B070BD0128C0
:101320000AD1042903DA1E4A921E11800FE003221B
:101330001B4B9B1E1A800AE048B9042903DA184A9D
:10134000121D118003E00322154B1B1D1A807047EC
:1013500000EB800149004FF4C86251434FF4B4726E
:1013600091FBF2F10E4A921F1180704700EB800151
:1013700049004FF4C86251434FF4B47291FBF2F14B
:10138000074A121F1180704770B504460025022CD1
:1013900003DA0348401C005D90B1002070BD0000DE
:1013A00064000020FF0000207D1200087112000878
:1013B00065120008A10F0008AC070020E0B2000889
:1013C00002F094FD05466848065D0520664908550B
:1013D000284602F08FFD3046E0E70146022906DA92
:1013E00061481530405C10B95F48405C08B9012085
:1013F00070470020FCE770B505460C46022D12DA56
:10140000012C03D0022C01D0032C0CD156481530EE
:10141000405D40B954481530445500F1230151F85E
:10142000250005F05DF870BD0146022908DA4E4836
:101430003430405C0B2803DA4B483430405C704752
:101440000B20FCE72DE9F04104460D46022C14DA8E
:10145000142D12DC00260CE0204602F062F907464B
:10146000FFF746FB0A2802D10120BDE8F081701C7D
:10147000C6B2AE42F0DB0020F7E70120F5E770B519
:1014800004460025022C04DA37481B30005DFF2893
:1014900001D0002070BD02F029FD05463248065DEE
:1014A000052031490855284602F024FD3046F1E771
:1014B0000146022907DA2C481B30405CFF2802D184
:1014C0002948405C08B9012070470020FCE770B54E
:1014D00005460C46022D0FDA0B2C0DDA22481B3084
:1014E000405DFF2808D120481B30445500F11D0104
:1014F00051F8250004F0F4FF70BD70B500242FE012
:101500001A4830F814101A4807F05DFD30B3174838
:1015100030F81410164807F067FD164850F82400FC
:1015200000881149303131F814100844114951F83C
:10153000241008800C480C30005D08B9012506E035
:1015400000250949283151F8240004F0C9FF294633
:10155000204601F074FE04480C300555601CC4B2EE
:10156000022CCDDB70BD000050000020D4B200087A
:10157000002C0140D8B2000870B50546AB48007891
:1015800020B9284602F0BBF8044603E0284602F0E2
:10159000BFF80446012C01D1002070BD0120FCE7FA
:1015A00070B5044600252046FFF7E6FF064602F028
:1015B0009DFC05469D48801D50F82400C6F1FF3172
:1015C000884217D899480E3050F8240010F1020FC5
:1015D00010D89648801D50F8240030449349891D46
:1015E00041F8240001F1080050F82400401C0831A3
:1015F00041F82400284602F07DFC70BD01468B486E
:101600000078012803D18A480078012805D087484E
:10161000007820B98648007808B90120704700207A
:10162000FCE72DE9F0410024002500BF00BF0123A5
:1016300000221146104605F066FC641C84B10024AB
:1016400000260BE0F0B2FFF7D9FF30B17748401C1D
:10165000805D10B1F0B2FFF7A3FF761C022EF1D32C
:101660006D1C0A2DE3D30025002611E06F481A30C7
:10167000805D6E4918318855881D805D091D88552B
:10168000881C8219001F8119F0B202F000F8761C44
:10169000022EEBD3CBE700B585B0032300228021D7
:1016A0006448CDE90323CDE901010F2300F5FE7263
:1016B00000216148009305F0D8F805B000BD01464F
:1016C00002291ADA59481830405C012806D15748D7
:1016D0001A30405C012801D1012200E00022534869
:1016E0001C30405C012806D150481E30405C012867
:1016F00001D1012303E0002301E00022002342EA9C
:101700004300C0B2704749490870704770B5002562
:10171000002413E002F0EAFB054600204349891D3E
:1017200041F82400083141F824000831085501200F
:1017300015390855284602F0DDFB641C022CE9D35C
:1017400070BD70B5002400253CE002F0CFFB0446DC
:10175000E8B2FFF753FF28B33448401C405DC8B1DE
:101760003248801D50F825103448007841432F48F6
:101770000E3050F82500324A12785043814204D28C
:1017800001202A491631485510E00020274916311A
:1017900048550BE0002025491631485501201539E0
:1017A000485503E0002021491631485500201F49C3
:1017B000891D41F82500083141F82500204602F036
:1017C00099FB6D1C022DC0D370BD70B5002500249F
:1017D00012E002F08BFB054600201449891D41F8F8
:1017E0002400083141F824000831085515390855FE
:1017F000284602F07FFB641C022CEAD370BD70B552
:1018000004460025022C0DDA02F070FB054607485D
:101810001630065D0020054916310855284602F0AD
:1018200069FB00E00026304670BD000092000020F9
:1018300000010020AC0F00202316000890000020BB
:10184000910000200146072908D2DFE801F00908CD
:10185000040B0C0A050000BF0120704700BF00BF49
:1018600000BF00BF00BF0020F7E7014607290AD2EA
:10187000DFE801F00A05040B0C07060000BF00BFFB
:1018800000BF0120704700BF00BF00BF0020F9E784
:101890000246072A17D2DFE802F0171304181407CC
:1018A000050000BF01207047F748405C022803D0C4
:1018B000F548405C062801D10120F4E70220F2E758
:1018C00000BF0220EFE700BF00BF0320EBE70146A7
:1018D000ED481A38405CA8B9EB48801E405C0728E8
:1018E0000CD2DFE800F00D08090C0705040000BF6A
:1018F0000220704700BF00BF0120FAE700BF00BF11
:101900000020F6E70020F4E70146DF481A38405C83
:10191000A8B9DD48801E405C07280CD2DFE800F043
:101920000D09060C0805040000BF00BF0220704727
:1019300000BF0120FBE700BF00BF0020F7E7002049
:10194000F5E770B50546D04813380078F0B9CE48B1
:101950001A38405D38B9CC49891E485D2946FFF7E1
:1019600097FF044600E003242146284601F0AFFA21
:10197000C648007850B1012C04D1A107284601F0D7
:10198000BCFA03E00021284601F0B7FA70BD70B53B
:101990000446BD4812380078012821D1BA481A38C7
:1019A000005DE8B9B849891E085DFFF75EFF48B1E0
:1019B000B54810380578B6480078012806D1B549F1
:1019C000085503E00A250020B2490855294620465B
:1019D000FFF77DFD0020AC4914390870012070BD6F
:1019E0000020FCE770B504462046FFF78DFF054652
:1019F0000146204601F056FB70BD014641B1012968
:101A000003D0022903D1082070470420FCE700BF5F
:101A10000220F9E770B505469B4810380570012093
:101A2000994912390870002403E0E0B2FFF7AFFFD4
:101A3000641C022CF9D370BDF0B50246022396480F
:101A40000078002812DD9448007810280EDA9248B9
:101A50000078401E032690FBF6F0C4B28E48007852
:101A6000401E90FBF6F706FB1700C5B28A480078C7
:101A7000702812DD8848007880280EDA86480078C1
:101A80007138032690FBF6F0C4B2834800787138B1
:101A900090FBF6F706FB1700C5B28C4201DB002471
:101AA000002532F81400C5F1020676003041012607
:101AB000C6EB86063040F0BD704770B504460D4653
:101AC000002073490870FFF7A5FF70BD70B504468C
:101AD0000D4600206E4908700120FFF79BFF70BD86
:101AE00070B504460D460020694908700220FFF7D2
:101AF00091FF70BD70B504460D4600206449087022
:101B00000320FFF787FF70BD70B504460D46002027
:101B10005F4908700420FFF77DFF70BD70B5044673
:101B20000D4600205A4908700520FFF773FF70BD6D
:101B300070B504460D460020554908700620FFF791
:101B400069FF70BD70B504460D460020504908700D
:101B50000720FFF75FFF70BD70B504460D460020FB
:101B60004B4908700820FFF755FF70BD70B504465B
:101B70000D460020464908700920FFF74BFF70BD55
:101B800070B504460D460020414908700A20FFF751
:101B900041FF70BD30B50B4600220188A1F18004E1
:101BA000A2B2052A06DA002A04DB3C4CA45C3C4DB8
:101BB0002C7002E064243A4D2C7030BD70B50446A0
:101BC0000D460120324908702F4810380078FFF781
:101BD00021FF70BD2DE9F04104460D4629462046FF
:101BE000FFF72AFF064616F0020F04D00020264910
:101BF0001A39087003E0012023491A39087016F0D9
:101C0000010F04D0002020491A39487003E0012058
:101C10001D491A394870002714E0F8B2FFF791FE09
:101C2000F8B2FFF7DFFE18481438007848B91648B4
:101C30001638C05D28B9F8B2FFF7A9FE1249163967
:101C4000C8557F1C022FE8D3BDE8F0810E4A0C3A3C
:101C500012887AB1028802F07F020B4B0C3B1B8882
:101C60009A420CD1428802F07F02074B0E3B1B8840
:101C70009A4204D10022044B0A3B1A7003E001226D
:101C8000014B0A3B1A707047CE0000200E01002065
:101C90002200002023000020010100201D00002060
:101CA0002500002070B505460C46FC48405DFB4908
:101CB000891C4855881E44552846FFF742FE284691
:101CC000FFF790FE70BD10B50446F448005D012892
:101CD00002D005280AD104E002212046FFF7E2FFE6
:101CE00005E006212046FFF7DDFF00E000BF00BF52
:101CF00010BD70B504460D4629462046FFF79CFEF0
:101D0000064616F0020F02D00020FFF7DCFF16F0A7
:101D1000010F02D00120FFF7D6FF70BD2DE9F04181
:101D200004460D460226208810F07F0F01D10027BF
:101D300000E001273846FFF7E6FCAE4205DA34F84A
:101D4000160000F07F00D6490870D54800780128B9
:101D500003DBD3480078632802DD1420D0490870E3
:101D6000BDE8F08170B505460E46002001F0D0FCBC
:101D7000012801D1142400E0152400212046FEF79B
:101D8000B9FC70BD70B504460D4629462046FFF7E4
:101D900053FE064616F0020F04D00120BF49163943
:101DA000087003E00020BD491639087016F0010FD5
:101DB00004D00120B9491639487003E00020B74922
:101DC0001639487070BD70B505460E46002408E00F
:101DD000B2481838005D18B90121E0B2FFF70BFBDB
:101DE000641C022CF4D370BD70B505460E46002469
:101DF0000DE0AA481838005D40B9A8481638005DC3
:101E0000012803D10221E0B2FFF7F5FA641C022C8D
:101E1000EFD370BD70B505460E4600240DE09F4817
:101E20001838005D40B99D481638005D012803D17F
:101E30000321E0B2FFF7DFFA641C022CEFD370BD80
:101E400070B504460E46002510E0218801F07F00A1
:101E5000FFF77EFA618801F07F00FFF787FAA0881C
:101E600000F07F010120FFF75AFA6D1C022DECD320
:101E700070BD70B504460D4600210120FEF73AFC06
:101E800070BD70B504460D460121002001F01FF819
:101E900070BD70B504460D460221002001F017F810
:101EA00070BD70B504460D460021084601F00FF8DC
:101EB00070BD0122794B113B1A70704770B5054611
:101EC0000E460020754911390870002403E0E0B285
:101ED000FFF737FD641C022CF9D370BD70B50446C2
:101EE0000D460121084600F0F2FF70BD70B50446B2
:101EF0000D460221012000F0EAFF70BD70B50446D6
:101F00000D460021012000F0E2FF70BD0022634B6E
:101F1000103B1A70704770B505460E460020FFF75B
:101F2000C7FA08B1122420E05C480F38007818B1D5
:101F30005A480E38047818E00020FFF775FA044676
:101F40000A2C12D055481238007870B953480E3810
:101F500000780A2803D051480E38047805E008219B
:101F60000020FFF76FFA00B10A2400212046FEF797
:101F7000C1FB70BD70B505460E460120FFF798FA0B
:101F800008B1122420E045480F38007818B14348C2
:101F90000E38047818E00120FFF746FA04460A2CB0
:101FA00012D03E481238007870B93C480E3800789C
:101FB0000A2803D039480E38047805E008210120AA
:101FC000FFF740FA00B10A2400212046FEF792FBF9
:101FD00070BD70B505460E460020FFF769FA08B1DE
:101FE000122403E0002001F0E1FB0412002120464E
:101FF000FEF780FB70BD70B505460E460120FFF769
:1020000057FA08B1122403E0012001F0CFFB0412BB
:1020100000212046FEF76EFB70BD70B505460E46EA
:1020200000201E49103908700120491C0870002446
:1020300008E01A481838005D18B90321E0B200F032
:102040005CFF641C022CF4D370BD70B505460E46CF
:10205000002412E011481838005D68B90F49085D86
:10206000FFF7F0FB40B10D48801C005D022803D053
:102070000221E0B200F02BFF641C022CEAD370BDF9
:1020800010B5002432E00548005D03280AD004287A
:102090000DD0052810D0062825D11FE0CC00002047
:1020A000900000200021E0B2FFF7FCFD1CE00121C0
:1020B000E0B2FFF7F7FD17E0F948005D022803D012
:1020C000F748005D062804D10221E0B2FFF7EAFDDF
:1020D00003E00121E0B2FFF7E5FD05E00221E0B2F7
:1020E000FFF7E0FD00E000BF00BF641C022CCAD374
:1020F00010BD70B504460D46FFF7C2FF70BD10B5A8
:1021000000241AE0E648801E005D20B1012807D0B7
:1021100002280FD109E00321E0B2FFF7C3FD0AE076
:102120000421E0B2FFF7BEFD05E00621E0B2FFF7B3
:10213000B9FD00E000BF00BF641C022CE2D310BD5B
:1021400070B504460D46FFF7DAFF70BD2DE9F0418A
:1021500006460F460020FFF7BAFB0546FFF74DFC89
:102160000005040C0120FFF7B2FB0546FFF745FC14
:10217000044300212046FEF7BDFABDE8F08170B5AA
:1021800005460E460120C6491239087000240EE0AB
:10219000C3481438007848B9C1481638005D28B9DA
:1021A000E0B2FFF7F4FBBE4916390855641C022C57
:1021B000EED370BD10B5002414E0B948801E005D58
:1021C000022802D006280AD104E00121E0B2FFF77C
:1021D00069FD05E00521E0B2FFF764FD00E000BF06
:1021E00000BF641C022CE8D310BD70B505460E4636
:1021F0000020AB49123908700120491C0870A94819
:10220000007870B9FFF7D6FF002408E0A4481A3818
:10221000005D18B90321E0B200F06FFE641C022CCF
:10222000F4D3FFF773FA70BD70B504460D46002075
:102230009B4911390870FFF7C8FA70BD10B5FFF758
:1022400080FA10BD70B505460E460020944912393B
:1022500008700120491C087092480078A8B9FFF75F
:10226000EDFF00240EE08E49891E085DFFF7FDFAA0
:10227000012806D1E0B2FFF7C2FA10B1E0B2FFF7D1
:1022800022FD641C022CEED301E0FFF7D7FF70BDE6
:102290007CB500241AE082481A38005D78B980487D
:1022A0001838005D01280AD1E0B2FFF76DF801A9E6
:1022B0000855E0B2FFF7A3FA0DF8040005E0052089
:1022C00001A9085500200DF80400641C022CE2D37B
:1022D0009DF8040010B19DF8050008B912254AE0E8
:1022E0009DF80400012803D09DF80400022801D1C4
:1022F000312540E09DF80500012803D09DF8050038
:10230000022801D1302536E09DF80400032801D1D0
:10231000212530E09DF80500032801D120252AE081
:102320009DF80000012809D19DF80100012805D180
:102330005B481138007808B113251CE09DF80000B7
:10234000012805D156481138007808B1512512E00E
:102350009DF80100012805D151481138007808B1D5
:10236000502508E04E480A380078012801D116258A
:1023700001E04D48057828467CBD70B505460E46FF
:10238000FFF786FF044648480078844214D1444849
:102390001A38007830B9002001F0B1F9012801D0D5
:1023A000612409E03E481A38407828B9012001F03C
:1023B000A6F9012800D0602400212046FEF79AF9F2
:1023C00070BD70B505460E46FFF762FF044600215A
:1023D0002046FEF78FF970BD2DE9FF4106460F46F6
:1023E000002433E02E481A38005D20BBE0B2FFF72E
:1023F00046F803A908552A49891E085DFFF722FA05
:1024000002A90855E0B2FFF75AF9032803D10120C9
:1024100001A9085502E0002001A90855E0B2FFF724
:1024200003F80B2803D101200DF804000DE0002073
:102430000DF8040009E0052003A90855002002A9B1
:10244000085501A908550DF80400641C022CC9D3D5
:102450009DF80C0010B19DF80D0008B9122562E03E
:102460009DF80C00012803D09DF80C00022801D132
:10247000312558E09DF80D00012803D09DF80D008E
:10248000022801D130254EE09DF80C00042801D12E
:10249000412548E09DF80D00042807D1402542E081
:1024A000CE00002000010020010100209DF8040062
:1024B000012801D1212536E09DF80500012801D130
:1024C000202530E09DF80800012804D1FF4800785D
:1024D00008B1512527E09DF80900012804D1FB48E7
:1024E000007808B150251EE09DF80000012806D1B3
:1024F000F648401E0078012801D1612513E09DF8BF
:102500000100012806D1F148401E0078012801D1C0
:10251000602508E0ED48C01D0078012801D116258E
:1025200001E0EB48057800212846FEF7E3F8BDE816
:10253000FF8110B50446E5480F30005D06281DD226
:10254000DFE800F003041C0F101100BF0221204639
:10255000FFF7A8FB2046FFF71AFADC49491F085588
:102560000DE000BF00BF06212046FFF79BFB204681
:10257000FFF70DFAD549491F085500E000BF00BF1D
:1025800010BD10B50446D1480F30005D10B10328CE
:1025900016D10AE001212046FFF784FB2046FFF711
:1025A000F6F9CA49491F08550BE004212046FFF7F8
:1025B00079FB2046FFF7EBF9C449491F085500E0B5
:1025C00000BF00BF10BD10B50446C0480F30005D0D
:1025D00007281ED2DFE800F01D05041D12111000AF
:1025E00000BF00212046FFF75DFB2046FFF7CFF933
:1025F000B649491F08550DE000BF00BF0321204622
:10260000FFF750FB2046FFF7C2F9B049491F0855B4
:1026100000E000BF00BF10BD0146C9B2C81101D122
:10262000012070470020FCE70246D2B21AB1A84848
:102630000078824225D1C02903D0C22901D0C829FF
:102640000BD1A3480078702805DDA14800788028C8
:1026500001DA012070470020FCE7D02903D0D229FD
:1026600001D0D8290BD19A480078002805DD984878
:102670000078102801DA0120ECE70020EAE70120C9
:10268000E8E70020E6E710B502460023002405E055
:1026900032F81400184483B2601CC4B28C42F7DBD9
:1026A00003F07F0010BD2DE9F04704462046FFF7F8
:1026B000B3FFB0B185480B30006830B100208349CA
:1026C0000B310860012000F0D4FF80480B30016816
:1026D0000068401C7D4A0B3210607E4820F8114093
:1026E00086E07A480B30006800287ED077480B30AF
:1026F00001680068401C754A0B321060754820F86C
:1027000011404588744800882E1A06EB460072492D
:1027100001EB8000877810460168B81C814267D1C0
:102720006C4A51881088FFF77FFF002858D0DFF8E7
:10273000A48108F104086948007808BB06EB46004C
:10274000654901EB8000C07865490978884208DD59
:1027500006EB4600604901EB80003946826840463E
:10276000904706EB46005C4901EB800080685D49BC
:10277000884202D04FF0010919E04FF0000916E03D
:1027800006EB4600544901EB80003946426840465A
:10279000904706EB4600504901EB800040685149E4
:1027A000884202D04FF0010901E04FF000098FB1DB
:1027B000D12D0FD0B9F1000F0CD039464046FFF7AC
:1027C00062FF4249C91C088007F07F00891C08800D
:1027D00006E00AE000203D49C91C0880891C0880E9
:1027E00000203A490B31086002E0012000F041FF6F
:1027F000BDE8F087704710B504463B48007818B133
:102800002046FFF7F7FF02E02046FFF74CFF10BD20
:1028100010B53248007810BB00241EE0E0B2FEF78D
:1028200047FEC8B9E0B2FEF74AFF30B1012808D030
:1028300002280AD003280DD00BE0E0B2FFF7A1FE7A
:1028400009E0E0B2FFF775FE05E0E0B2FFF7BBFE7E
:1028500001E000BF00BF00BF641C022CDED310BD2E
:1028600010B51E480078002842D100242DE0E0B2C7
:10287000FEF725FF30B1012809D002280CD003282B
:1028800010D00EE0012011490F3108550FE0022051
:102890000E490F3108550AE000200C490F31085548
:1028A00005E000BF002009490F31085500BF00BFF7
:1028B000E0B2FFF746F8E0B2FFF794F803480F30B4
:1028C000005D024911310855641C0FE0BD00002075
:1028D00001010020AC11002078B4000800010020A4
:1028E0000D000020B91A0008FE000020022CBED303
:1028F00010BD704710B5F948007810B1FFF7F9FF27
:1029000001E0FFF7ADFF10BD014602290EDAF448E1
:10291000405C38B9F248C01D007818B9F048093059
:10292000007808B1002070470020FCE70020FAE79B
:1029300010B5EC480078B0B9E9480930007890B992
:1029400000240EE0022C0BD2E548005D40B9E448BB
:102950001830005D022803D14107E0B200F0CDFA43
:10296000641C022CEED310BDFEB504460E460025B5
:1029700005E014F815000DF80500681CC5B20A2D15
:10298000F7DB6A460821D84806F0DAFDD64AD7496F
:10299000D74808F0C8F8D5480079FF280BD1D348AC
:1029A0004079FF2807D1D1488079FF2803D1CF484B
:1029B000C079FF2802D00120CE490870002506E02A
:1029C000281DCA49085CCC494855681CC5B2042D6D
:1029D000F6DBCA480078012823D1C9480078C649E7
:1029E0000978884211D1C6484078C349497888425D
:1029F0000BD1C3488078C0498978884205D1C04846
:102A0000C078BD49C978884206D00520BD49087004
:102A10000120BD49087004E00020BA490870BA4995
:102A20000870002506E0B148405DC043B7494855ED
:102A3000681CC5B2042DF6DB0120B5490870FEBD47
:102A400010B500F05DFF002406E0AD48015DAF4A1F
:102A5000201D1154601CC4B2042CF6DBAB4AA34900
:102A6000A34807F057FDAB4A0821A04806F03EFDF9
:102A700010BD70B586B005460E46FFF7E1FF002495
:102A800006E0A448005D01A921F81400601CC4B24E
:102A90000A2CF6DB002407E001A931F8140000211C
:102AA000FDF728FE601CC4B20A2CF5DB06B070BD31
:102AB0002DE9F04781468A460025002704F050FFA3
:102AC000DFF85482002413E0404604F08BFF002519
:102AD00007E018F80460FF2E01D0012703E0681C0E
:102AE000C5B2142DF5DB00BF07B903E0601CC4B20A
:102AF000052CE9DB00BFDFF82482002413E0404608
:102B000004F070FF002507E018F80460FF2E01D0E4
:102B1000012703E0681CC5B2142DF5DB00BF07B91F
:102B200003E0601CC4B2052CE9DB00BF04F01EFF0B
:102B3000FFF786FFBDE8F0872DE9F04186B0054636
:102B40000E4617464FF00408002406E035F814003E
:102B500001A921F81400601CC4B20A2CF6DB04F0B1
:102B6000FFFE002409E0384604F03CFF8046B8F13F
:102B7000040F00D103E0601CC4B2052CF3DB00BFDE
:102B8000B8F1040F0DD1002409E001AA32F81410A5
:102B900007EB440004F0EDFF8046601CC4B2B44271
:102BA000F3DB04F0E3FE06B0BDE8F0812DE9F04F61
:102BB0008FB004464FF00009574D584E002705E0EE
:102BC00014F817000CA9C855781CC7B20A2FF7DBF8
:102BD0000CAA0821444806F0B3FC434A4349444840
:102BE00007F0A1FF042705E04048C05D0AA9C855C9
:102BF000781CC7B2082FF7DB002705E04348C05D0B
:102C00000AA9C855781CC7B2042FF7DB0AAA3749AE
:102C1000374807F07FFC002726E0042F0DDA334900
:102C200011F81700012202EB4701304A515C00EB1A
:102C3000012005A921F8170014E0381F2B4911F8CD
:102C40001000C04300F0FF0A381F012101EB4000D3
:102C50002649085CC04300F0FF0B0AEB0B2005A9D6
:102C600021F81700781CC7B2082FD6DB2C48008843
:102C7000401C80B2ADF824002A480078062871D2A2
:102C8000DFE800F0045B035C050600BF00BF00BF87
:102C90004FF000084CE02A46092105A8FFF74CFF39
:102CA000002705E035F817002DF81700781CC7B28B
:102CB000082FF7DB00270AE03DF8170005A931F8D7
:102CC0001710884201D04FF00109781CC7B2082FB5
:102CD000F2DBB9F1000F27D12DE00000FE0000204B
:102CE000B400002000010020D0000020D800002007
:102CF0007C0500200401002030000020030100209A
:102D0000090100200D0000200E000020100000200E
:102D1000180000202007002000F8010800F4010836
:102D20001A0000201C00002008F1010000F0FF083C
:102D3000B8F1050FAFDB00BF30E000BF4FF0000877
:102D400026E03246092105A8FFF7F6FE002705E038
:102D500036F817002DF81700781CC7B20A2FF7DBDA
:102D600000270BE019E03DF8170005A931F817100E
:102D7000884201D04FF00109781CC7B20A2FF2DB5C
:102D8000B9F1000F00D106E008F1010000F0FF08E2
:102D9000B8F1050FD5DB00BF00E000BF00BFFFF7B3
:102DA0004FFE0FB0BDE8F08F2DE9F0410446884694
:102DB000208800F07F002080208800F00105208816
:102DC000C0F34006208887103A463146284600F076
:102DD0007BFABDE8F081000070B5054600262C782E
:102DE00000BF01F083F806464B4850F82400002845
:102DF00020DD494850F82400401E474941F824008E
:102E0000304601F077F801220021204600F0A6FAB2
:102E1000642300221146104604F075F80122114681
:102E2000204600F09BFA642300221146104604F06D
:102E30006AF8D6E7304601F05DF83748801E025D3B
:102E4000801E015D204600F089FA3449085D03F0D8
:102E50008EFFC6E730B585B0002425E001202E495D
:102E6000091F08550020891C08552D480A3941F8CA
:102E700024000323002280212A4800EB442001ADD6
:102E80000FC52648035D054600932B5D254D05EBD8
:102E9000442505F5FE72244D29191F4D0C3D55F8AA
:102EA000240003F0E2FC641C022CD7D305B030BD33
:102EB0000146022909DA1848801E405C164A121F92
:102EC000525C40EA4200C0B270470320FCE770B594
:102ED00004460D46022C0FDAC5F340000E49091FC7
:102EE000085505F00100891C08550846025D801E42
:102EF000015D204600F032FA70BD70B505460C4603
:102F0000022D08DA044840F82540002C03DD03496F
:102F1000485D03F08FFE70BDEC0000207ABA000817
:102F2000D92D0008C011002078BA000810B5012181
:102F3000432005F07CFA0121FB4805F092FA0121BB
:102F40004CF67D6005F080FA10BD08B54FF4E060E6
:102F500004F09EF825208DF8000008208DF802006E
:102F600001208DF80300684604F097F81B208DF8C7
:102F7000000004208DF8020001208DF8030068464F
:102F800004F08BF808BD0EB5E8480068E849B0FBCE
:102F9000F1F0401E80B2ADF800000020ADF8020054
:102FA0004FF6FF70ADF804000020ADF806008DF874
:102FB00008006946DF4805F00BFB0121DD4805F0FC
:102FC0006AFD0EBDDB4824300088704710B5D94C2F
:102FD00024342188022800DA02200C18A2B28A4286
:102FE00008DD00BFD34C243423888B420ADB934294
:102FF000F8DB07E000BFCF4C243423889342FADB90
:103000008B42F8DA10BDFEB5002418E0C74800680E
:103010004FF4FA51B0FBF1F0C0EB001080000A2130
:10302000B0FBF1F504F1080086B206EB4500710033
:10303000B0FBF1F0401EC04921F81400641C5D2C67
:10304000E4D3BD480088ADF800000020ADF80200D0
:103050004FF6FF70ADF804000020ADF806008DF8C3
:1030600008006946B54805F0B3FA0121B34805F0F8
:1030700012FDFEBD10B50446082C0ADB642C08DCEA
:10308000A4F10800AC4A32F810100122AB4805F058
:10309000ABFD10BDA9482430008870470020A84926
:1030A0000870704770B504460D46A649085D2A466B
:1030B000022100F0CAFE70BD10B500240AE0A1494B
:1030C000085D1022022100F049FE0121E0B2FFF765
:1030D000E9FF641C022CF2D310BD00B591B09A48F0
:1030E0000190954820380290002003900820049019
:1030F00000200590802006908000079080000890B6
:103100002020099000200A900B9001A98F4804F01C
:10311000EEFA01218D4804F015FB4FF4404005F014
:10312000F7F84FF4C0200C9000208DF834000120F7
:103130008DF835004FF460200E9000200F90012094
:103140008DF840000CA980484C3804F038F80CA9E0
:103150007F4804F034F80623012208217A484C38CD
:1031600004F0C3F8062301220921794804F0BDF8D0
:10317000012175484C3804F058F80121744804F0D6
:103180000EF9012170484C3804F044F801217048D0
:1031900004F040F86C484C3804F05EF86C4804F0D9
:1031A0005BF800BF68484C3804F05BF80028F9D1A0
:1031B00000BF674804F055F80028FAD162484C383F
:1031C00004F059F8624804F056F800BF5E484C38E5
:1031D00004F056F80028F9D100BF5D4804F050F81B
:1031E0000028FAD10021102000F0A0FD00211120BC
:1031F00000F09CFD012154484C3804F04BF811B00C
:1032000000BD10B500240CE04E49091F085D2821BF
:1032100000F08CFD4B49891E085D282100F086FDD9
:10322000641C022CF0D310BD70B504460D46454910
:103230001339085D2A46022100F007FE70BD70B503
:1032400004460D463F491739085D294600F0E6FD62
:1032500070BD10B51021382000F068FD10214E20FF
:1032600000F064FD0121382000F0D8FD002421E0A9
:1032700034491939085D482100F058FD31491739A2
:10328000085D102100F052FD0021E0B2FFF7D7FFEA
:103290002C491539085D102100F048FD29491339E2
:1032A000085D1022022100F059FD0321E0B2FFF772
:1032B000BBFF641C022CDBD30820FFF787FE012133
:1032C0004E2000F0ABFD10BD70B504460E4615460D
:1032D0004FF4FA701F4908601A491139085D3146E8
:1032E00000F09CFD1C4820F8145070BD10B500245F
:1032F0000BE014491139085D102100F017FD002280
:103300001146E0B2FFF7E0FF641C022CF1D30D4937
:103310000F390878102100F009FD002211461046EF
:10332000FFF7D2FF10BD000007000402FCBB00083D
:1033300000127A00002C0140EC150020000400402F
:10334000FE00002095BA00084C240140080002400D
:1033500000280140280000201001002070B504461C
:103360000D461646FC49085D294600F057FDFA490E
:10337000891C085D314600F051FD70BD10B5002478
:103380001CE0F549091F085D482100F0CFFCF24917
:10339000891E085D482100F0C9FCEF49085D102135
:1033A00000F0C4FCEC49891C085D102100F0BEFC53
:1033B00001221146E0B2FFF7D1FF641C022CE0D3DA
:1033C00010BD70B504460E46254604EBD471491075
:1033D000A4EB4101E04A921F505C314600F01EFD13
:1033E00070BD10B500240AE0DB49891F085D142177
:1033F00000F09CFC0121E0B2FFF7E3FF641C022C0B
:10340000F2D310BD1CB50221002004F082FE082179
:10341000012004F07EFE0420009000208DF80400BE
:103420000C208DF8050001208DF80600684604F098
:10343000F1F94FF48070009000208DF804000C200A
:103440008DF8050001208DF80600684604F0E2F9C9
:103450001CBD10B586B00020ADF80C00ADF80E0014
:1034600040F23F60ADF810000020ADF81200684651
:1034700005F0FFFA0620ADF8080000242EE0B74959
:1034800051F8240003A905F0A3F8B44951F8240029
:1034900002230022032105F0B2FBB04951F82400B9
:1034A000694605F04EFAAC490A31085D0422022152
:1034B00000F054FCA8490C31085D042100F036FCF2
:1034C000A64951F824000122114605F0FFFAA3494C
:1034D00051F82400012105F0DEFA641C022CCED341
:1034E00006B010BD10B50421202000F063FC044696
:1034F0000421084600F05EFC44EA00140221242066
:1035000000F058FC44EA0024C4F3090010BD2DE982
:10351000F04148220621202000F020FC482204210E
:10352000084600F01BFC64247BE0FFF7DBFF054648
:10353000C5F3C00018B100208949087002E00120DD
:103540008749087005F0030086490870C5F300102C
:1035500085490870C5F34016012E54D13007070E77
:10356000C5F383103844C6B2A6F110000F2845D227
:10357000DFE800F0080C1014181C2024282C30342C
:10358000383C40007120794908703BE0722077494F
:10359000087037E073207549087033E07420734970
:1035A00008702FE07520714908702BE076206F4974
:1035B000087027E077206D49087023E078206B4978
:1035C00008701FE07920694908701BE07A2067497C
:1035D000087017E07B206549087013E07C20634980
:1035E00008700FE07D20614908700BE07E205F4984
:1035F000087007E07F205D49087003E02F205B49D9
:10360000087000BF03E0C5F38310584908704FF4F9
:10361000FA50FFF7DBFCFFF765FFA84200D102E09C
:10362000641E002C81D100BFBDE8F08110B5FFF70A
:103630007DFCFFF78AFCFFF7A6FCFFF72FFDFFF7E5
:1036400066FF4B48007828B1FFF7DDFCFFF701FF6C
:10365000FFF7D8FEFFF7C5FEFFF790FEFFF746FE27
:10366000FFF7F7FDFFF7CDFDFFF737FDFFF724FD6F
:1036700010BD70B50446254604EBD4714910A4EB87
:103680004101354A921F505C00F0FDFB70BD70B5E2
:1036900004460D4616463049091F085D00F07CFBC4
:1036A00028702D49891E085D00F076FB307070BDD2
:1036B00010B5044628491139085D00F06DFBC0B211
:1036C00010BD10B5044624490F39085D00F085FB94
:1036D000C0B210BD70B504460D461F490D39085DD6
:1036E000294600F09BFB70BD1C4A52F820209184B3
:1036F00070470146194850F82100808C704710B57A
:1037000004461549091D085D00F046FBC0B210BD16
:1037100010B504461049891D085D00F03DFBC0B29C
:1037200010BD10B5014611B1012939D124E00B4873
:10373000083003780078401C084C083420700D488D
:1037400030F8232023461878C31700EB5373DB109F
:10375000A0EBC303237025E08DBA0008F40000201D
:103760000E010020FF0000200001002001010020C8
:10377000FE000020CC150020FF4803780078401C94
:10378000FD4C2070FD4800EB8300428823461878EA
:10379000C31700EB5373DB10A0EBC303237001E0EE
:1037A000002200BF00BF1005000C10BD0146002321
:1037B00011B1012917D10AE0002205E0EF4830F8E5
:1037C0002200184483B2521C082AF7D30CE00022CE
:1037D00006E0EA4800EB82004088184483B2521C9D
:1037E000082AF6D300E000BF00BF5804000C704761
:1037F00010B5044624B101212D2000F00FFB03E099
:1038000000212D2000F00AFB10BD1FB5DC48009000
:10381000DC48007820B14FF48050ADF8040002E09D
:103820000020ADF804004FF40050ADF80600002071
:10383000ADF80800ADF80C000C20ADF80A006946A0
:10384000D14805F018FC012240F22551CE4805F080
:103850008EFC002240F22661CB4805F088FC102146
:103860002D2000F063FA1821092000F05FFA0421EE
:103870000A2000F05BFA0020FFF7BAFF0121C248DE
:1038800005F069FC1FBD10B5002207E08B5CBF4C42
:10389000234493F8E8378354531CDAB20C2AF5DB3F
:1038A00010BD002007E0BA49014491F8001CB94A54
:1038B0001154411CC8B20428F5DB7047F0B585B03F
:1038C00002460120002404E0165D0DF80460661C29
:1038D000F4B28C42F8DB4B1000240CE0E6181DF823
:1038E0000660F643F5B21DF80460AE4201D0002038
:1038F00003E0661CF4B29C42F0DB00BF05B0F0BDF3
:103900002DE9F84F002500260027A946AA46DFF832
:1039100088B2A2480090BBF810900098B0F810A0B0
:10392000A9F57F40FF3806D1AAF57F40FF3802D1C4
:103930009B4908706AE0A9F57F40FF3811D0AAF5CD
:103940007F40FF380DD110215846FFF7B7FF0746DB
:10395000012F02D19249087058E003209049087065
:1039600054E0A9F57F40FF3812D1AAF57F40FF3817
:103970000ED010210098FFF7A1FF0746012F03D1B9
:1039800002208749087041E00420854908703DE025
:1039900010215846FFF792FF0746012F01D101255C
:1039A00000E0002510210098FFF788FF0746012F4F
:1039B00001D1012600E00026D14505DB012D03D110
:1039C00001207749087021E0D1450ADB4DB9012E6D
:1039D00003D102207249087018E005207049087070
:1039E00014E0CA4505DD012E03D102206C490870A0
:1039F0000CE0CA450ADD012E08D1012D03D10120BA
:103A00006749087002E0052065490870644800783D
:103A1000062875D2DFE800F0031260D6EDF200242C
:103A200004E0FF205F490855601CC4B2042CF8DB99
:103A300000205D4908805D4908700DE1002405E023
:103A40001BF804005A490855601CC4B2082CF7DB67
:103A5000574A5849584807F066F85348A0F800906C
:103A6000002406E05349201D085C4E490855601C9F
:103A7000C4B2042CF6DB51480078C8B96FEA0900DB
:103A80001FFA80F94848008800F0FF084C4880F889
:103A90000080454800884FEA1028494880F8018096
:103AA00009F0FF0880F802804FEA192880F80380A7
:103AB0003C480078FF280BD13A484078FF2807D1CE
:103AC00038488078FF2803D13648C078FF2802D0D4
:103AD000012036490870BFE0002405E00098005D31
:103AE00033490855601CC4B2082CF7DB304A314911
:103AF000314807F018F82C48A0F800A0002407E08F
:103B0000A9E02C49201D085C26490855601CC4B258
:103B1000042CF6DB29480078C8B96FEA0A001FFABE
:103B200080FA2148008800F0FF08254880F80080CE
:103B30001D4800884FEA1028214880F801800AF0CB
:103B4000FF0880F802804FEA1A2880F803801548A1
:103B50000078FF280BD113484078FF2807D111487F
:103B60008078FF2803D10F48C078FF2802D00120B9
:103B70000E49087070E00000FD000020CC15002008
:103B8000A0860100FE0000200038014000F0FF1F69
:103B900000F001080501002000F8010800F4010808
:103BA0001C000020090100201A0000200301002051
:103BB000D0000020D80000207C0500201800002044
:103BC00010000020002033490880002404E0FF207A
:103BD00031490855601CC4B2042CF8DB00202F4981
:103BE000087003F0BDFE584603F0FCFE03F0BEFE75
:103BF00032E0002027490880002405E011E0FF2082
:103C000025490855601CC4B2042CF8DB0020234968
:103C1000087003F0A5FE009803F0E4FE03F0A6FE92
:103C20001AE000201B490880002404E0FF201A4904
:103C30000855601CC4B2042CF8DB0020174908703A
:103C400003F08EFE584603F0CDFE009803F0CAFE46
:103C500003F08CFE00E000BF00BFBDE8F88F10B598
:103C6000002414E00E4830F8140078B10C4830F805
:103C70001400401E0A4921F81400084630F81400C8
:103C800020B900221146E0B2FFF71EFB641C022C93
:103C9000E8D310BD1A000020090100200301002014
:103CA000100100200311072B17D2DFE803F00407EF
:103CB0000A0D10131700864B0B6012E0854B0B604A
:103CC0000FE0854B0B600CE0844B0B6009E0844BEC
:103CD0000B6006E0834B0B6003E000BF824B0B6080
:103CE00000BF00BF00F00F03136070472DE9F843D9
:103CF00004460D4616461F46DDF820806A463146CA
:103D00002046FFF7CFFF0098C0F110094D4501D8BC
:103D1000284600E04846814600983860012000FAB5
:103D200009F0401EC8F80000BDE8F8833EB504461F
:103D30000D4601AA02A92046FFF7B4FF0120019910
:103D4000884080B2ADF800008DF8035003208DF854
:103D500002006946029804F0DDF83EBD70B586B0F9
:103D600004460D46164603AB009304AB05AA29464C
:103D70002046FFF7BBFFDDE90301884080B2ADF8C4
:103D800008008DF80B6003208DF80A0002A9059841
:103D900004F0C0F806B070BD1CB504466A4601A91F
:103DA0002046FFF77FFF019880680099C84000F027
:103DB00001001CBD7FB504460D4601AB009302AB6C
:103DC00003AA29462046FFF791FF039880680299CD
:103DD000C8400199084004B070BD1CB504466A464D
:103DE00001A92046FFF75EFF0198C0680099C8400E
:103DF00000F001001CBD7FB504460D4601AB0093E9
:103E000002AB03AA29462046FFF770FF0398C0685B
:103E10000299C8400199084004B070BD7CB50446C1
:103E20000D466A4601A92046FFF73CFF0198C0688D
:103E30000121009A9140884305F00101914040EA38
:103E400001060198C66030467CBD2DE9FF4104465D
:103E50000D46164601AB009302AB03AA2946204645
:103E6000FFF744FF0398C068DDE9011291408843E1
:103E700001993140914040EA01070398C7603846F4
:103E800004B0BDE8F0811CB504466A4601A920468D
:103E9000FFF708FF0198C1680120009A9040414057
:103EA0000198C1601CBD7FB504460D4601AB00936F
:103EB00002AB03AA29462046FFF718FF0398C16802
:103EC000DDE90102904041400398C1607FBD0000E0
:103ED00000080140000C01400010014000140140A6
:103EE00000180140001C014000200140EFF3108049
:103EF00072B6704780F3108870471D484FF0FF017D
:103F00000170002080F309881A48012101701A48C5
:103F10004FF08051016062B6FEE717484FF08051C4
:103F20000160704714484FF080510160704772B6CD
:103F3000EFF3098028B1203880E8F00F0F490968B5
:103F4000086000B50E4880475DF804EB0D480E4947
:103F50000A78027009480D490A680260106890E802
:103F6000F00F203080F309884EF0040E62B67047DF
:103F700022ED00E03601002004ED00E03C010020CD
:103F8000574000082F01002030010020440100208C
:103F90007047704710B504462046FCF7E9F910BD9C
:103FA00010B504462046FCF7E4F910BD10B5FCF747
:103FB000E1F910BD10B5FCF7DEF910BD70B504468F
:103FC00010464FF080750560051F28462C606FF085
:103FD0000105061F304635604FF01235061F30468A
:103FE00035604FF00335061F304635604FF002351F
:103FF000061F304635606D10061F30463560051FC0
:10400000284629604FF01135061F304635604FF0C5
:104010001035061F304635604FF00935061F304613
:1040200035604FF00835061F304635604FF00735D4
:10403000061F304635604FF00635061F30463560A6
:104040004FF00535061F304635604FF00435061F2A
:104050003046356070BD10B5FCF78EF910BD10B557
:1040600004462046FCF789F910BD10B5FCF786F927
:1040700010BD10B5FFF73AFF04461A480078401CFF
:10408000184908702046FFF735FF00F0CFFD00F01B
:10409000D6FC10BD144909684FF47A72B1FBF2F0F6
:1040A000B0F1807F00D31CE020F07F41491E4FF02B
:1040B000E022516100BF5117002905DA0F210901E3
:1040C0000A4A0B23D15404E00F210901084A53176F
:1040D000D15400BF00214FF0E0229161072111610E
:1040E00000BF70472D01002004BC000818ED00E05F
:1040F00000E400E0174818481848194819481A48B9
:104100001A481B481B481C481C481D481D481E488F
:104110001E481F481F48204820482148214822485F
:10412000224823482348244824482548254826482F
:1041300026482748274828482848294829482A48FF
:104140002A482B482B482C482C482D482D4800BF86
:10415000704700009CBA0008A0BA0008A4BA000882
:10416000A6BA0008A8BA0008AABA0008ACBA0008A3
:10417000AEBA0008B0BA0008B2BA0008B4BA000873
:10418000B6BA0008B8BA0008BABA0008BCBA000843
:10419000BEBA0008C0BA0008C2BA0008C4BA000813
:1041A000C6BA0008C8BA0008CABA0008CCBA0008E3
:1041B000CEBA0008D0BA0008D2BA0008D4BA0008B3
:1041C000D6BA0008D8BA0008DABA0008DCBA000883
:1041D000DEBA0008E0BA0008E2BA0008E4BA000853
:1041E000E6BA0008E8BA0008EABA0008ECBA000823
:1041F000EEBA0008F0BA0008F2BA0008F4BA0008F3
:10420000F6BA0008F8BA00080246002005E011F8E6
:10421000013B02F8013B431CD8B20B78002BF6D1CE
:10422000137070472DE9F04104460D4616460027ED
:1042300016B90020BDE8F0811CB9042030700020C0
:10424000F8E71DB90C2030700020F3E7FC48007837
:10425000002803DD112030700020EBE720780128D2
:1042600008D0022807D0032802D0042804D100E097
:1042700000BF00BF00BF03E0012030700020D9E77D
:1042800000BFFFF733FE074604F10F012846FFF792
:10429000BBFF80463846FFF72DFE002030704046B9
:1042A000C8E70146002002E0491C421CD0B20A784F
:1042B000002AF9D170472DE9F04104460D46164613
:1042C0004FF000080EB9BDE8F08114B90420307039
:1042D000F9E715B90C203070F5E7D94800780028C7
:1042E00002DD12203070EEE72078012808D0022885
:1042F00007D0032802D0042804D100E000BF00BF8B
:1043000000BF02E001203070DDE700BFFFF7EEFDE7
:1043100080462846FFF7C5FF07460F2F05DD4046BC
:10432000FFF7E8FD0B203070CDE7294604F10F00C0
:10433000FFF76AFF4046FFF7DDFD00203070C2E75F
:10434000F0B510F8344F8578467834380A4611466F
:1043500013680EE003F10B0717F804C02CEA060CF3
:1043600007F804C03F5D17B99F7AAF439F72121DD3
:104370001368002BEED1F0BDB249B34A1278885CC5
:10438000B249095CAF4A515C01EBC001B04A1170FF
:10439000704710B50024FFF7A9FD0446A84800782F
:1043A000F8B9AC480078E0B9FFF7E6FFAA48A84999
:1043B000097850F82100A9490860A5480078A84963
:1043C000097888420DD0A5480068806B401CA3493D
:1043D00009688863A3480068401CA2490860FFF789
:1043E0009CFD2046FFF786FD10BD70B500249E4D54
:1043F0002D68EC619C4C24682062014608460B68DD
:104400001BE0994C246894F8345003F10B04645D6C
:10441000954D2D6895F835502C43934D2D6895F8A2
:10442000346003F10B05AC559C7A8F4D2D6895F8DF
:1044300036502C439C72091D0B68002BE1D18A4C2D
:10444000246894F83420814CA45C874D2D6895F83D
:104450003550AC437D4DAC542C46A45C44B9824CE1
:10446000246894F83650784C2478AC43764D2C7000
:1044700070BD2DE9FF5F04460D4616461F46DDF868
:10448000388000200090B8F1000F02D104B0BDE8E0
:10449000F09F24B9042088F800000020F6E725B931
:1044A000042088F800000020F0E726B9042088F8EE
:1044B00000000020EAE700202860A1464C46D9F819
:1044C00000A017E09AF80000062807D2DFE800F005
:1044D00006040503070808E007E006E000BF00BF88
:1044E000012088F800000020D0E700BF09F104098E
:1044F000D9F800A0BAF1000FE4D1514800780028A3
:1045000004DD022088F800000020BFE75148007851
:10451000002804DD0D2088F800000020B6E7FFF732
:10452000E5FC00900020039002900190A1464C46CB
:10453000D9F800A073E09AF8000006285ED2DFE800
:1045400000F05D1C33035E5FBAF8080000280FDD41
:10455000BAF80800401EAAF8080045F804AB01208C
:104560000390002001C60298401C80B2029003E034
:10457000019840F0010001904CE0DAF8040070B1BD
:10458000DAF8040001C60020CAF8040045F804ABBC
:10459000012003900298401C80B2029003E0019831
:1045A00040F00200019035E0DAF804B0BBF81600E4
:1045B00000281EDDDBF81010081DCBF8100008687D
:1045C00001C6DBF80810DBF81000884203D1DBF8E5
:1045D0000400CBF81000BBF81600401EABF8160024
:1045E00045F804AB012003900298401C80B2029071
:1045F00003E0019840F0040001900BE000BF00BF11
:104600000098FFF777FC00202860012088F8000060
:1046100002983BE700BF09F10409D9F800A0BAF1FC
:10462000000F88D10398012820D10020286000982D
:10463000FFF760FC002088F80000029826E70000E1
:104640002D010020FABA00083101002032010020BB
:10465000300100202E010020B41D00204401002064
:104660002F010020140100203C010020FF480068B9
:1046700090F83000019941F080010843FB49096836
:1046800081F830000020F949096881F83100F748C5
:104690000068C7852046FFF7A8FE0098FFF72AFCB0
:1046A000FFF777FEFFF722FC0090F048006890F8D3
:1046B000310020B101281FD002281CD100E000BF2A
:1046C000EA480068D0F81CA0BAF1000F08D045F8FD
:1046D00004AB002028600298401C80B2029009E0E0
:1046E0000120E249096881F831002146DF4800686D
:1046F000FFF726FE06E000BF2146DC480068FFF712
:104700001FFE00BF00BFD948006890F8310020B1FB
:1047100001282CD0022829D122E09AF8000006288E
:104720000DD2DFE800F00C0607030D0E002001C6D5
:1047300011E000BFCD480068406A01C60BE000BF31
:1047400000BF0098FFF7D6FB00202860012088F802
:10475000000002989AE600BF002088F800000CE0F4
:10476000002001C60E2088F8000006E000BF0020EF
:1047700001C60A2088F8000000BF00BF0020BB4926
:10478000096881F83000B949096881F83100B749F2
:104790000968C861B54909680862B449096848628E
:1047A0000098FFF7A7FB029870E67CB5002614E09E
:1047B0006946304602F08FFA054665B9AC4850F8B4
:1047C000264044B1012C06D0D4E9020100EB81005F
:1047D00060640198A064701CC6B21F2EE8DD7CBD29
:1047E00010B5002402E0C82002F05EFBA14800786A
:1047F0000028F8D0A04800686421B0FBF1F09E4981
:1048000008600846006828B900209C490870FF200D
:1048100002F0ADFA00BFFFF769FB04469848006854
:10482000984908600020964908602046FFF762FB1F
:104830009448006890490968B0FBF1F0C0F1640049
:104840008E490870FFF7B6FBFFF7AFFF642002F058
:104850002BFBE0E700B587B00323002280218A48C4
:10486000CDE90323CDE901014FF6FE7300931E232A
:1048700000F5FE720021AFF2970001F0F6FF06AAE4
:1048800082A11E2002F085F907B000BD10B50024FA
:1048900000BFFFF72BFB044679480068401C7849AD
:1048A00008602046FFF726FBFFF780FBF1E700B525
:1048B00087B00323002280217848CDE90323CDE986
:1048C00001014FF6FF7300931F2300F5FE720021D4
:1048D000AFF2470001F0C9FF06AA71A11F2002F044
:1048E00058F907B000BD04E0002200F8012B4A1E71
:1048F00091B20029F8DC704730B54FF420716C4854
:10490000FFF7F1FF6A4C04F1200500230AE00020C4
:10491000207065603F20E073002121742034203531
:10492000581C83B2132BF2DB0020207060603F2004
:10493000E073002121745E485E49086030BD30B5E7
:104940004FF4FD615C48FFF7CEFF80214848FFF738
:10495000CAFF594C04F15C0500230AE065613F2061
:1049600084F84C0000214D2001555C345C35581C06
:10497000C3B2152BF2D3002060613F2084F84C00B5
:1049800000214D20015500204C4908604A484C49FF
:10499000086030BD00224B4B1A704B48002104E0E8
:1049A000002200F8012B4A1CD1B20429F8DB0022B6
:1049B000464B1A70464B1A70464B1A602B4B1A60C6
:1049C0007047002044490860444908704449087011
:1049D00044490870444908704449086028490860FF
:1049E000284908602449086022490870704710B5BA
:1049F000FFF7CEFAFFF7E5FFFFF7CCFFFFF79FFFCA
:104A0000FFF77AFF00F04EFF01F094F801F0D9FBB8
:104A1000FFF74DFFFFF71EFFFFF7BBFAFFF76AFB3B
:104A200010BD31480078012808D12C480078FF28B3
:104A300004D22A480078401C28490870704710B5F5
:104A4000002429480078012875D1FFF74FFA044661
:104A500022480078002804DD20480078401E1F49C5
:104A600008701E48007800B942E061E03C01002077
:104A7000B41D00202C010020240100202001002072
:104A80003801002028010020B419002075432F4F61
:104A9000532D49492053746174000000B41B002059
:104AA00075432F4F532D49492049646C6500000020
:104AB000A816002018010020341E00204801002004
:104AC0004001002031010020320100202F01002090
:104AD0003001002044010020580100202D01002059
:104AE0002E01002037010020360100201401002093
:104AF000FF480078E0B9FFF73FFCFE48FE4909781F
:104B000050F82100FD490860FB480078FC4909780D
:104B100088420DD0F9480068806B401CF74909684D
:104B20008863F8480068401CF6490860FFF7FAF906
:104B30002046FFF7DFF910BD10B50024F2480078D9
:104B4000012811D1FFF7D2F90446F048007840B9A6
:104B5000E7480078FF2804D2E5480078401CE44983
:104B600008702046FFF7C6F910BD10B50024E648CE
:104B70000078012822D1FFF7B9F90446DC48007813
:104B8000002818DDDA480078401ED9490870084628
:104B9000007860B9DD48007828B92046FFF7AAF907
:104BA000FFF7F7FB0AE02046FFF7A4F906E02046EE
:104BB000FFF7A0F902E02046FFF79CF910BD10B501
:104BC000D148007890B9FFF7D7FBCB480078CC49A3
:104BD0000870C848C849097850F82100C7490860DA
:104BE00008460068CA490860FFF787F910BD10B58C
:104BF0000024022002F058F9FFF778F9044600205B
:104C0000C44908602046FFF775F9642002F04CF9AA
:104C1000FFF76CF90446BF480068BF4908600120EF
:104C2000BE4908702046FFF765F910BD70B5002633
:104C3000FFF71BFAFFF75AF90646B9480068401C0F
:104C4000B74908603046FFF755F9AF4800780128AA
:104C500054D1B448007820B1012804D0022809D1E9
:104C600003E001250BE0002509E001250120AD4905
:104C7000087004E001250020AA49087000BF00BFA9
:104C800005B970BDA848046834E0FFF72FF906465F
:104C9000E08D58B3E08D401E0004000CE08525D166
:104CA00094F8300010F0370F08D014F8300F20F0CF
:104CB0003700207001206070303C02E0002084F852
:104CC000310094F8300010F0080F0FD13434A07880
:104CD0009649097808439549087020789449085CFA
:104CE0006178084314F83419914A50546469304685
:104CF000FFF700F994F832001F28C6D1C1E74FF43E
:104D00008F707047704710B590F8342001F10B0395
:104D10009B5C90F83540A34301F10B04A354234658
:104D20009B5C23B98B7A90F83640A3438B7210BDFD
:104D30002DE9F04F04460D4616461F46A07A7D49E0
:104D400011F8009004F10B0010F8090011F800A010
:104D50000AEBC90000F0FF0B664850F82B800020DA
:104D6000A8F82E00C8F8245098F83000B04388F80E
:104D7000300088F8317098F8300010F0080F0FD12B
:104D800098F8360069490978084368490870684806
:104D900010F8090098F835100843654901F8090032
:104DA00021464046FFF7AFFFD8F8200030B140461B
:104DB000D8F82010FFF7C4FAC8F81C405846BDE8E0
:104DC000F08F10B5524A1268D061514A126892F8B9
:104DD000343000F10B02D25C4D4B1B6893F8353038
:104DE0001A434B4B1B6893F8344000F10B031A55E0
:104DF000827A474B1B6893F836301A438272444AD2
:104E0000126892F834104A4A525C414B1B6893F87E
:104E100035309A43464B5A541A46525C42B93C4A82
:104E2000126892F83630414A12789A433F4B1A7012
:104E300010BD0023837200F10B01002204E0002367
:104E400001F8013B531CDAB2042AF8DB704705E095
:104E500011F8013B00F8013B531E9AB2002AF7DC1F
:104E600070472DE9F84F04460D4616461F46DDE90A
:104E70000B9ADDF8288000200090FFF737F80090AB
:104E80002D48D0F800B0BBF1000F7ED02A49DBF8E6
:104E9000140008600098FFF72DF8CBF800508BF84D
:104EA000324000208BF830008BF83100ABF82E0038
:104EB000CBF80490CBF80C80CBF80860ABF810A0CE
:104EC000ABF812708BF83700E0108BF8340004F068
:104ED00007008BF833009BF83410012088408BF8D2
:104EE00036009BF83310012088408BF8350025E010
:104EF0002E010020B41D00203001002044010020BC
:104F00002F01002014010020360100202D01002077
:104F10003C01002038010020240100202C01002049
:104F2000580100204C0100204801002031010020E0
:104F300032010020FABA0008400100200020CBF81E
:104F40001C00CBF82000CBF82800CBF82400CBF8CD
:104F50003800CBF84000CBF83C00CBF84400CBF84D
:104F600048003F208BF84C0000214D2000F80B102A
:104F70005846FFF774F85846FFF70CF8FEF7B6FFEF
:104F800000901C4840F824B000E02DE01A4800686A
:104F9000CBF814000020CBF818001748006818B1AF
:104FA00015480068C0F818B01348C0F800B09BF866
:104FB0003600124909780843104908709BF83400FC
:104FC0000F49085C9BF8351008439BF834100C4AD5
:104FD00050540C480078401C0A4908700098FEF7AD
:104FE00089FF0020BDE8F88F0098FEF783FF42207C
:104FF000F8E70000B41D0020480100203101002026
:1050000032010020370100202DE9F05F04460D46F3
:1050100016461F464FF0000B17B90020BDE8F09F61
:105020001CB96E2038700020F8E72078052803D0DE
:10503000012038700020F1E706F08009B9F1000F77
:1050400004D026F080064FF0010A01E04FF0000A7C
:1050500000203870FEF74AFF83466EB3012E3ED023
:10506000022E02D0032E4ED112E0208900EA05085C
:10507000A84507D1BAF1010F06D1208920EA08001E
:10508000208101E0702038705846FEF733FF42E07F
:10509000208900EA0508B8F1000F07D0BAF1010F26
:1050A00006D1208920EA0800208101E070203870B4
:1050B0005846FEF71FFF2EE0208925EA0008A84584
:1050C00007D1BAF1010F06D1208940EA08002081FA
:1050D00001E0702038705846FEF70CFF1BE0208975
:1050E00025EA0008B8F1000F07D0BAF1010F06D188
:1050F000208940EA0800208101E07020387058467D
:10510000FEF7F8FE07E05846FEF7F4FE4FF0000801
:105110006F20387000BF00BF40467FE72DE9F041A7
:1051200004460D46002715B90020BDE8F081FA4875
:105130000078002803DD102028700020F5E7FEF736
:10514000D5FE0746F548066896B100684068F34901
:105150000860052030703481002070603F20B072FC
:105160000021F1723846FEF7C5FE0020287004E0E9
:105170003846FEF7BFFE722028703046D5E730B5BE
:10518000436804682BB9C26854602CB1002565607F
:1051900002E01C6004B16360816800258D6230BD4F
:1051A000F0B504460D46A66800202C367080358088
:1051B000307920F0200030710020707130792C3E61
:1051C00088B93436B078D64909780843D44908708C
:1051D0003078D449085C7178084316F83419D14AFC
:1051E0005054012700E000272046FFF7C8FF38464B
:1051F000F0BD2DE9F04704460D4616464FF0000A73
:1052000016B92046BDE8F0871CB96E2030702046E4
:10521000F8E7C1480078002803DD0F2030702046F1
:10522000F0E72078052803D0012030702046E9E718
:10523000FEF75CFE8246606808B1012700E00027A7
:1052400015B1012D40D11BE09FB93F20A072002174
:10525000E17200202070B148006860600020208169
:10526000AE4804605046FEF745FE00203070804690
:1052700005E05046FEF73EFE49203070A0462AE089
:10528000D4F8049005E000214846FFF789FFD9F8DB
:105290000090B9F1000FF6D13F20A0720021E17219
:1052A000002020709D4800686060002020819B489D
:1052B00004605046FEF71EFE012F01D1FFF769F88A
:1052C00000203070804606E05046FEF713FE0720AF
:1052D0003070A04600BF00BF404693E72DE9F04183
:1052E00004460D461646002716B90020BDE8F08199
:1052F0001CB96E2030700020F8E71DB90C2030700A
:105300000020F3E784480078002803DD1120307086
:105310000020EBE7FEF7EAFD07462078052806D0D7
:105320003846FEF7E7FD012030700020DEE704F18B
:105330000A012846FEF768FF80463846FEF7DAFD88
:10534000002030704046D1E72DE9F04104460D467B
:1053500016464FF000080EB9BDE8F08114B96E2072
:105360003070F9E715B90C203070F5E76A4800781D
:10537000002802DD12203070EEE7FEF7B7FD804610
:105380002078052805D04046FEF7B4FD0120307096
:10539000E2E72846FEF785FF07460F2F05DD40466A
:1053A000FEF7A8FD73203070D6E7294604F10A0005
:1053B000FEF72AFF4046FEF79DFD00203070CBE748
:1053C000F0B5059D584F3F6897F8307047F02007BB
:1053D000DFF854C1DCF800C08CF830700027DFF82B
:1053E00048C1DCF800C08CF831704F4F3F68FD8534
:1053F0004D4F3F68B9620A828B744B4F3F688F6094
:1054000047680F6000274F60C860466806B171604A
:105410004160454F3F6897F83440424F3F5DDFF8A9
:1054200008C1DCF800C09CF835C027EA0C07DFF89B
:10543000F4C00CF8047067463F5D5FB93A4F3F68AF
:1054400097F836C0364F3F7827EA0C07DFF8D0C010
:105450008CF80070F0BD2DE9F04F89B004460D4680
:1054600016461F46DDF8488000200290B8F1000F74
:1054700002D109B0BDE8F08F24B96E2088F8000091
:105480000020F6E724480078002804DD022088F890
:1054900000000020EDE725480078002804DD0D20FD
:1054A00088F800000020E4E72078052804D00120D7
:1054B00088F800000020DCE706F0800003900398E5
:1054C00020B126F080064FF0010B01E04FF0000BF9
:1054D000FEF70CFD0290002E59D0012E7CD0022E3A
:1054E00002D0032E6CD12EE0208900EA0509A945DF
:1054F0001ED1BBF1010F03D1208920EA09002081D0
:1055000009480068A0F82C900298FEF7F3FC0020F0
:1055100088F800004846ACE72D0100201C0100205F
:1055200031010020320100203C0100202E0100202A
:1055300033462A4604A920460097FFF741FF029808
:10554000FEF7D8FC76E0208900EA0509B9F1000FE2
:1055500012D0BBF1010F03D1208920EA090020817C
:10556000E1480068A0F82C900298FEF7C3FC0020E8
:1055700088F8000048467CE733462A4604A92046BE
:105580000097FFF71DFF0298FEF7B4FC52E0208958
:1055900025EA0009A94514D1BBF1010F03D12089E7
:1055A00040EA09002081D0480068A0F82C900298B9
:1055B000FEF7A0FC002088F80000484659E70BE001
:1055C0002EE033462A4604A920460097FFF7F8FE4E
:1055D0000298FEF78FFC2DE0208925EA0009B9F139
:1055E000000F12D0BBF1010F03D1208940EA09005E
:1055F0002081BD480068A0F82C900298FEF77AFC44
:10560000002088F80000484633E733462A4604A9BC
:1056100020460097FFF7D4FE0298FEF76BFC09E0E6
:105620000298FEF767FC4FF000096F2088F8000031
:1056300048461EE700BFFEF7ACFEFEF757FC02909F
:10564000A948006890F8310038B3A748006890F87E
:1056500031A00020A449096881F8310004A8FFF7AF
:105660008EFD0020A049096881F830000298FEF7FD
:1056700041FC4FF00009BAF1010F07D0BAF1020F57
:1056800003D10E2088F8000004E000BF0A2088F84B
:10569000000000BF00BF4846EBE693480068B0F842
:1056A0002C90BBF1010F1CD166B1012E0BD0022E44
:1056B00002D0032E0CD100E000BF208920EA0900AF
:1056C00020810DE000BF208940EA0900208107E029
:1056D0000298FEF70FFC6F2088F800000020C8E653
:1056E00000BF0298FEF706FC002088F8000048463C
:1056F000BFE670B50025FEF7F9FB05467A4800685D
:10570000848D2846FEF7F6FB204670BD2DE9FC5F30
:1057100004460D4616461F46002000900FB9BDE80E
:10572000FC9F1CB96E2038700020F8E7207805280F
:1057300003D0012038700020F1E7FEF7D7FB00907E
:1057400016B1012E08D103E02089A84320810AE088
:1057500020892843208106E00098FEF7CBFB7120CA
:1057600038700020DBE700BF4FF00009D4F8048058
:1057700061E098F8120068B301283FD0022802D0F7
:1057800003284ED113E02089B8F8101000EA010A6E
:10579000B8F81000504509D151464046FFF700FDCA
:1057A0008346BBF1010F01D14FF0010940E0208990
:1057B000B8F8101000EA010ABAF1000F09D05146FA
:1057C0004046FFF7EDFC8346BBF1010F01D14FF0DE
:1057D00001092DE0B8F81000218920EA010AB8F883
:1057E0001000504509D151464046FFF7D9FC834689
:1057F000BBF1010F01D14FF0010919E0B8F8100019
:10580000218920EA010ABAF1000F09D05146404629
:10581000FFF7C6FC8346BBF1010F01D14FF0010930
:1058200006E00098FEF766FB6F203870002076E7F0
:1058300000BFD8F80080B8F1000F9AD10098FEF7A9
:1058400059FBB9F1010F01D1FEF7A3FDFEF74EFBA5
:105850000090208901900098FEF74CFB00203870E2
:1058600001985CE72DE9F04104460D46002715B983
:105870000020BDE8F0811CB96E2028700020F8E7F8
:105880002078052803D0012028700020F1E7FEF7DA
:105890002DFB074626893846FEF72CFB0020287092
:1058A0003046E6E770B58C211048FFF71CF80F4D25
:1058B00005F11C0600240AE0002028706E603F20DD
:1058C000A8720021E9721C351C36601C84B2042CBD
:1058D000F2DB0020287068603F20A8720021E97286
:1058E00002480349086070BD3C01002028190020CF
:1058F0001C0100202DE9F84F04460D4616461F46B0
:10590000002000900FB9BDE8F88F1CB962203870F4
:105910000020F8E714F0030F03D062203870002055
:10592000F1E7022D03D25B2038700020EBE7042E54
:1059300003D25C2038700020E5E7FEF7D7FA00902C
:105940008D48D0F80080006820B18B48006840681E
:10595000894908600098FEF7CDFAB8F1000F03D12D
:105960005A2038700020CEE7A24604EB06094FF01B
:10597000000B05E0CAF80090CA46B1440BF1010BD8
:10598000681E5845F6D80020CAF80000C8F8004044
:10599000C8F80440C8F81050C8F80C50C8F808609F
:1059A00038704046AFE72DE9F04104460D46002728
:1059B00015B90020BDE8F0811CB9602028700020D6
:1059C000F8E7FEF793FA0746206960B16668306829
:1059D00060602069401E20613846FEF78BFA002087
:1059E00028703046E6E73846FEF784FA5D202870D6
:1059F0000020DFE72DE9F04104460D46164600275A
:105A000016B90020BDE8F0811CB96020307000207C
:105A1000F8E71DB90C2030700020F3E757480078F4
:105A2000002803DD112030700020EBE7FEF75EFA5E
:105A3000074604F114012846FEF7E6FB8046384687
:105A4000FEF758FA002030704046DBE72DE9F041C0
:105A500004460D4616464FF000080EB9BDE8F08129
:105A600014B960203070F9E715B90C203070F5E7F3
:105A700042480078002802DD12203070EEE7FEF781
:105A800035FA80462846FEF70CFC07460F2F05DD49
:105A90004046FEF72FFA63203070DFE7294604F115
:105AA0001400FEF7B1FB4046FEF724FA00203070E8
:105AB000D4E770B504460D4600260CB9602070BDD1
:105AC0000DB95F20FBE7FEF711FA0646D4E9031093
:105AD000884204D33046FEF70DFA5E20EFE7606897
