:020000040800F2
:10000000B82D0020699D0008950400089F04000891
:10001000A9040008B3040008BD04000800000000A3
:10002000000000000000000000000000C7040008FD
:10003000D104000800000000FF4700084349000801
:100040007B9D00087B9D00087B9D00087B9D000830
:100050007B9D00087B9D00087B9D00087B9D000820
:100060007B9D00087B9D00087B9D00087B9D000810
:100070007B9D00087B9D00087B9D00087B9D000800
:100080007B9D00087B9D00087B9D00087B9D0008F0
:100090007B9D00087B9D00087B9D00087B9D0008E0
:1000A0007B9D00087B9D00087B9D000843050008A0
:1000B0007B9D00087B9D00087B9D00087B9D0008C0
:1000C0007B9D00087B9D00087B9D00087B9D0008B0
:1000D0007B9D0008FD0400087B9D00087B9D0008B7
:1000E0007B9D00087B9D00087B9D000800F002F8C6
:1000F00000F05CF80AA090E8000C82448344AAF166
:100100000107DA4501D100F051F8AFF2090EBAE863
:100110000F0013F0010F18BFFB1A43F0010318473B
:100120003CDB00005CDB00000A444FF0000C10F8E0
:10013000013B13F0070408BF10F8014B1D1108BF65
:1001400010F8015B641E05D010F8016B641E01F805
:10015000016BF9D113F0080F1EBF10F8014BAD1C55
:100160000C1B09D16D1E58BF01F801CBFAD505E073
:1001700014F8016B01F8016B6D1EF9D59142D6D3CD
:10018000704700000023002400250026103A28BFF5
:1001900078C1FBD8520728BF30C148BF0B607047F9
:1001A0001FB50BF036FB1FBD10B510BD0BF0F5FAF7
:1001B0001146FFF7F5FF00F0CBF80BF013FB03B48B
:1001C000FFF7F2FF03BC0BF01DFB00001CB5002481
:1001D0000CE07D49085D694607F088F918B9DDE94A
:1001E0000001884201D2FA201CBD641C072CF0D308
:1001F0007648007810B14FF4FA70F5E740F2EE203F
:10020000F2E700BFFFF7E2FF85B22B46002211465E
:10021000104607F07DFA002003F063FE6C4800787A
:100220000028EFD0012003F05CFE002405E04FF031
:100230008041E0B203F085FA641C022CE2D2F6E7BA
:1002400000B587B00323002280216248CDE9032353
:10025000CDE90101172300F5FE7200215E480093ED
:1002600006F00DFF069006AA5CA1172007F09AF889
:1002700007B000BD03F012FE04F074FB05F0FFF8B8
:1002800000F074F901F0C3FB03F00AFA00205749AB
:1002900008705749087000F05DFA60B95548007859
:1002A00020B90021084600F0EFFF0EE001210846CA
:1002B00000F0EAFF09E000204E49087000210846DE
:1002C00000F0E2FF082000F04CFB18224A494B489E
:1002D0000BF036FA4A494B4803F03EFF4A49494879
:1002E0000BF005FA03F047FF03F075FF3F48007875
:1002F000012802D10520454908703C4800780128B2
:1003000005D1052041490870012031490870FFF7E7
:1003100097FF02F0F7FE002404E00121E0B203F0B1
:100320008CFC641C022CF8D311E0642000F061F90D
:100330000546A5F57F40FF3802D0284602F07BFE37
:1003400002F086FE3248007808B102F020FFECE7A8
:1003500000B587B009F0DDFC04F092FF0323002212
:1003600080212C48CDE9032300F5FE72CDE9003051
:1003700002910021284806F082FE069006AA27A1D5
:10038000032007F00FF805F062F8002007B000BD69
:1003900070477047704770477047704710B500242A
:1003A00021480068401E204908600846006850B98E
:1003B0004FF4FA70086004F001FA044604F0B7F84C
:1003C000204604F0FFF910BD20B8000822010020EB
:1003D0000E000020A0030020030200085573657280
:1003E000204946205461736B000000002701002063
:1003F000280100202401002020070020A005002063
:1004000001000020380700202C0000200D000020F3
:1004100032010020A00100207502000853746172AF
:1004200074205461736B000028000020014606E030
:100430004FF4FA5200E0521E002AFCD1491E002956
:10044000F6D1704770B504460021084603F0F5FB6D
:100450000021012003F0F1FBFA20FFF7E7FF002065
:1004600003F03FFD012003F03CFDFA20FFF7DEFF23
:1004700000250CE0012003F034FDFA20FFF7D6FF41
:10048000012003F02EFDFA20FFF7D0FF6D1CA542DE
:10049000F0D370BD00BF0120FFF7D4FFFBE700BF22
:1004A0000220FFF7CFFFFBE700BF0320FFF7CAFFE3
:1004B000FBE700BF0420FFF7C5FFFBE700BF0520F7
:1004C000FFF7C0FFFBE700BF0620FFF7BBFFFBE71E
:1004D00000BF0720FFF7B6FFFBE77047704710B576
:1004E00004F06CF904461F480078401C1D49087050
:1004F000204604F067F904F0EBFE10BD70B504F07F
:100500005DF9044617480078401C164908702046DB
:1005100004F058F940F22551134809F050FB28B176
:10052000114809F0E3FA054600F039F840F2266177
:100530000D4809F044FB08B100F089F804F0C8FE4A
:1005400070BD10B504F03AF9044606480078401C26
:1005500004490870204604F035F901F08CF904F0E4
:10056000B7FE10BD510100200038014010B5002039
:100570006E4908606E4908606E49086006F063FACB
:100580006D49086000206D4908606D4908600120D0
:1005900006F059FA6B49086003F0A0FD10BD70B574
:1005A0000446002504F00AF9054660480068202842
:1005B0001BD25E480068401C5C4908605C480168CA
:1005C0000068401C5A4A10605F4820F811401046ED
:1005D000006800F01F0011460860284604F0F2F899
:1005E0005548006806F08FFB02E0284604F0EAF860
:1005F00070BDF8B5044600266A4621464E4800689C
:1006000006F0BEFA04F0DAF8064648480068C0B1C1
:1006100046480068401E4549086046480168006831
:10062000401C444A1060484830F811501046006899
:1006300000F01F0011460860304604F0C3F8284659
:10064000F8BD304604F0BEF84FF6FF70F8E710B57D
:100650003B4800683949096888420CD2384802682A
:100660000068401C364B1860384830F81210384883
:1006700009F038FA0CE0002240F22661344809F013
:10068000CDF9002003F01DFD2E48006806F03BFB6D
:1006900010BDF8B505460F4616466A46314629484C
:1006A000006806F06DFA9DF80000B8B9012003F06B
:1006B00008FD002405E037F81400244921F814004F
:1006C000641CAC42F7D31D48056000201C4908603B
:1006D000012240F226611E4809F0A0F99DF80000B1
:1006E000F8BD13B50C46224669460120FFF7D1FF3D
:1006F0001CBD70B505460E46012003F0E2FC002447
:1007000005E036F81400114921F81400641CAC42CD
:10071000F7D30A480560002009490860012240F229
:1007200026610B4809F07AF970BD00003C000020FA
:100730003400002038000020480000204400002041
:10074000400000204C0000204E0700208E070020B3
:10075000003801401CB56A4601A9002003F0CEFB19
:100760009DF8040008B900201CBD6A4601A90120BB
:1007700003F0C4FB9DF8040008B90020F4E7012051
:10078000F2E710B500240AE004F0010003F0A9FB31
:10079000C82300221146104606F0BAFF641C0A2C3A
:1007A000F2D3002404E00121E0B203F046FA641C15
:1007B000022CF8D310BD00BF002404E00321E0B2F6
:1007C00002F0BFFF641C022CF8D30023012219465B
:1007D000184606F09DFFEFE77CB5002419E06A4655
:1007E00001A9E0B203F08AFB9DF8040030B99DF83E
:1007F000000008B9032507E0022505E09DF8000088
:1008000008B9012500E000252946E0B202F081FF89
:10081000641C022CE3D37CBD2DE9F047074607F0AA
:100820000700082825D2DFE800F004080C1014188F
:100830001C200124002501261CE00124022503269A
:1008400018E003240225072614E0032403250F26BD
:1008500010E0022403250E260CE0022401250C26BC
:1008600008E000240125082604E0002400250026D5
:1008700000E000BF00BF2146002003F03BF82946FE
:10088000012003F037F84FF4C86002F0CAFF0020DF
:1008900003F089FB8146012003F08DFB49EA400902
:1008A000002003F088FB49EA8009012003F07BFB6C
:1008B00049EAC008B04502D10120BDE8F087002018
:1008C000FBE770B590B08348007808B1092400E0D8
:1008D00008240120A040401E86B202F09FFF05467A
:1008E000002406E045FA04F0284430402DF81400B6
:1008F000641C202CF6D3032269462020FFF7C9FE92
:1009000010B1002010B070BD002409E00320FFF7F3
:1009100070FE3DF81410884201D00020F2E7641CFC
:10092000202CF3D30120EDE770B5054615F0010F3B
:100930000BD0002406E06849E2B2885C002103F095
:10094000D4FE641C002CF6D00AE0002406E06249C4
:10095000E2B2885C012103F0C8FE641C002CF6D0D2
:1009600070BD0EB58246FFF70CFF03F0F3F9834626
:100970004FF461610AFB01F04FF47A71484349106A
:1009800090FBF1F0029000208DF8040003208DF818
:10099000050007208DF806000A208DF807000020CA
:1009A0008DF8000003208DF8010007208DF802006B
:1009B0000A208DF80300002785E003F0CBF90646F6
:1009C0005E4503D0012003F08CFAB346FFF704FF25
:1009D00007F00700FFF720FFFFF773FF10B10020BB
:1009E00003F07FFA002000F0A6FD05280ED19DF847
:1009F0000410002000F0C4FD9DF8040018B90A207E
:100A00008DF8040002E000208DF80400012000F0C1
:100A100092FD05280ED19DF80010012000F0B0FDD8
:100A20009DF8000018B90A208DF8000002E00020AF
:100A30008DF80000002003F022FB0546012003F0A2
:100A40001EFB0446A84509DDA8EB050064280EDD61
:100A500022490878012103F048FE08E0A5EB0800D0
:100A6000642804DD1D490878012103F03EFEA145FC
:100A700009DDA9EB040064280EDD1749487801213F
:100A800003F033FE08E0A4EB0900642804DD1249FA
:100A90004878012103F029FEA846A1463846FFF711
:100AA00043FF4FF4FA7300221146104606F030FE61
:100AB0000A490878002103F018FE07494878002108
:100AC00003F013FE7F1C02988742FFF476AFFFF716
:100AD00072FE00002201002027B8000829B8000893
:100AE000FA480078704770B504460D46F84830F86B
:100AF00014100022F74808F023FC0021204602F0E1
:100B0000CCFF2B4600221146104606F001FE0221C2
:100B1000204602F0B8FF70BD10B501292BD1262A5E
:100B200014D2ED4B1B8803EB430404EB0313EB4C93
:100B300004EB830333F81230E94C247863436424D4
:100B400093FBF4F3E74C24F8103037E0E24B1B88BA
:100B500003EB430404EB0313E04C04EB8303B3F80F
:100B60004A30DF4C24786343642493FBF4F3DD4C78
:100B700024F8103022E009BB0A2A0DD2DA4B1B8878
:100B800003EB8303D94C04EB830333F812305B107F
:100B9000D44C24F8103011E0D34B1B8803EB8303B3
:100BA000D24C04EB83035B8A5B10CD4C2478634307
:100BB000642493FBF4F3CB4C24F8103010BD2DE9E2
:100BC000F84304460F469046012F02D1C8480678E4
:100BD00004E017B9C748067800E00126454628E03A
:100BE000681E70434FEA4009C34951F824006A4621
:100BF000002105F0C5FFC14850F82400401CBF4942
:100C000041F82400084650F82400484504D208461C
:100C100050F824004FEA80094A4639462046FFF73B
:100C20007BFF204603F09BF910B90120BDE8F88353
:100C30006D1E002DD4D10520F8E7F8B504460D4609
:100C400016462F4622E0AC4951F824006A4600219E
:100C500005F096FFA94850F82400401CA74941F828
:100C60002400084650F8242001212046FFF754FFB5
:100C7000204603F074F908B90120F8BD204603F0BE
:100C800092F9B04201D10020F7E77F1E002FDAD1A0
:100C90000520F2E72DE9F04104460E461546984638
:100CA000069F0020954941F82400954908550022E7
:100CB00031462046FFF730FF0021204602F0EDFECE
:100CC0002946204603F05BF90121204602F0DBFEB5
:100CD00002F0A4FD38448B4951F8241008807C4868
:100CE00030F814107B4808F0D6FD794830F814101D
:100CF0000122784808F024FBBDE8F081F8B50546EC
:100D00000E468148007810B18048405D70BB28468F
:100D100003F049F901282AD04FF4FA537C48009394
:100D20000378012211462846FFF7B4FF012240F262
:100D3000EE212846FFF781FF04462CB1012C02D09A
:100D4000052C05D102E004E0052402E0022400E0C5
:100D500000BF00BF052C05D10A2201212846FFF75C
:100D60002EFF044601212846FFF7BDFE00E00524C2
:100D7000284603F018F9012829D14FF4FA536448A2
:100D800000930378002201212846FFF783FF002209
:100D900040F2EE212846FFF750FF04462CB1012C0B
:100DA00002D0052C05D102E004E0052402E0022473
:100DB00000E000BF00BF052C05D10A220121284612
:100DC000FFF7FDFE044601212846FFF78CFE022CAA
:100DD00029D14FF4FA534E480093037800220121A1
:100DE0002846FFF757FF002240F2EE212846FFF782
:100DF00024FF04462CB1012C02D0052C05D102E0C1
:100E000004E0052402E0022400E000BF00BF052C3E
:100E100005D10A2201212846FFF7D1FE044601210F
:100E20002846FFF760FE052C29D14FF4FA533848C5
:100E300000930378012211462846FFF72BFF012279
:100E400040F2EE212846FFF7F8FE04462CB1012CB3
:100E500002D0052C05D102E004E0052402E00224C2
:100E600000E000BF00BF052C05D10A220121284661
:100E7000FFF7A5FE044601212846FFF734FE23486C
:100E8000405D10B90120214948552046F8BDF8B50C
:100E900005460E46284603F086F801285AD04FF43E
:100EA000FA531B4800930378012211462846FFF7A6
:100EB000F1FE01224FF4C8712846FFF7BEFE04463A
:100EC00044B3012C27D0052C2AD127E09400002020
:100ED0002CB80008002C0140660000203AB8000839
:100EE00026000020840000206C0000206AB9000861
:100EF000680000206E0000207C00002058000020C8
:100F00006000002030B80008DB000020DC0000207A
:100F10002301002000E004E0052402E0022400E0B8
:100F200000BF00BF052C10D1192201212846FFF770
:100F300046FE0446284603F036F8012805D1F84855
:100F400001882846FFF7DAFE044601212846FFF70C
:100F5000CAFD00E005242046F8BD70B504464FF4F4
:100F6000C3712046FFF793FF0546284670BD70B554
:100F70000446EB4801882046FFF7C0FE0546052DD4
:100F800002D10120E7490855284670BDF8B505464D
:100F90000E4631462846FFF7B1FE0446052C29D1FE
:100FA0004FF4FA53E0480093037801221146284693
:100FB000FFF770FE00224FF4D7712846FFF73DFE81
:100FC00004462CB1012C02D0052C05D102E004E02E
:100FD000052402E0022400E000BF00BF052C05D17B
:100FE0000A2201212846FFF7EAFD0446012128468E
:100FF000FFF779FD052C29D14FF4FA53CA48009325
:101000000378002201212846FFF744FE012240F226
:10101000EE212846FFF711FE04462CB1012C02D028
:10102000052C05D102E004E0052402E0022400E0E2
:1010300000BF00BF052C05D10A2201212846FFF779
:10104000BEFD044601212846FFF74DFD022C05D1C7
:10105000284602F0A8FF012800D105242046F8BD4B
:1010600070B50546AF48405D02280BD0AC480188FA
:101070002846FFF78BFF0446052C04D10220A9491E
:10108000485500E00524204670BD38B50546284681
:1010900002F089FF01282AD04FF4FA53A2480093A6
:1010A0000378012211462846FFF7F4FD01229F48EC
:1010B00001682846FFF7C1FD04462CB1012C02D07F
:1010C000052C05D102E004E0052402E0022400E042
:1010D00000BF00BF052C05D1192201212846FFF7CA
:1010E0006EFD044601212846FFF7FDFC00E00524C3
:1010F000204638BDF8B506460D46304602F053FF8F
:10110000012804D03046FFF7C0FF044600E0052464
:10111000052C29D14FF4FA53834800930378002219
:1011200001213046FFF7B6FD002240F2EE213046A5
:10113000FFF783FD04462CB1012C02D0052C05D10C
:1011400002E004E0052402E0022400E000BF00BF4A
:10115000052C05D12A4601213046FFF730FD044613
:1011600001213046FFF7BFFC2046F8BD2DE9F041D4
:1011700004466B4801882046FFF7BCFF0546052D55
:1011800013D16B4850F824602046FFF77EFF0546D8
:10119000052D0AD1664850F8247007F5C870B04292
:1011A00000D2032501205F4908552846BDE8F0819B
:1011B00070B504465F4801882046FFF79BFF05464F
:1011C000052D02D1032057490855284670BD10B59A
:1011D00004462046FFF759FF10BD08B5044600BF7E
:1011E000554951F824006A46002105F0C9FC5348CE
:1011F000005D0A3806283AD2DFE800F0271E030C0B
:10120000153000204E4908552046FFF7E0FF4C49B5
:1012100008552DE000204A4908552046FFF7C8FF31
:101220004749085524E00020454908552046FFF766
:101230009DFF434908551BE00020414908552046C1
:10124000FFF70EFF3E49085512E000203C490855C3
:101250002046FFF78CFE3A49085509E0002038493E
:1012600008552046FFF779FE3549085500E000BFD4
:1012700000BF002031490855B2E70120FFF7ADFF5C
:1012800070470020FFF7A9FF70B586B005460E46EF
:10129000012D03D12B482C49086002E02B482A4934
:1012A0000860012E03D127482749486002E02848FA
:1012B00025494860002427E0002005F0C4FB2549AB
:1012C00041F82400002005F0BEFB1B4941F8240032
:1012D000032300224FF480711F4800EB8420CDE9E6
:1012E0000323CDE901011D48035D014600930B5D19
:1012F000194901EB842101F57F72134951F824004B
:10130000002105F0BCFE641C022CD5D306B070BDD4
:1013100001282BD1042925DA114A11802FE0000081
:101320006200002022000020230100205000002045
:1013300058000020640000208C000020690000207C
:10134000540000208112000874000020831200085D
:101350007B1200087C000020D007002038B800086D
:10136000660000200322FF4B1A8008E038B90429E8
:1013700002DAFD4A118002E00322FB4B1A8070471B
:1013800000EB800149004FF4C86251434FF4B4723E
:1013900091FBF2F1F54A1180704700EB80014900A2
:1013A0004FF4C86251434FF4B47291FBF2F1F04A2A
:1013B000118070474FF4C86141434FF4B47291FB00
:1013C000F2F1EA4A118070474FF4C86141434FF48B
:1013D000B47291FBF2F1E64A1180704770B5044691
:1013E0000026022C02DAE348005D08B1002070BD3F
:1013F00003F0E4F90646E048055D0520DE4908559E
:10140000304603F0DFF92846F1E70146022905DA04
:10141000D848405C10B9D848405C08B901207047F2
:101420000020FCE770B505460C46022D13DA0C2CA3
:1014300007D00D2C05D00E2C03D00A2C01D00B2C7C
:1014400009D1CC48405D30B9CA484455CB4951F820
:10145000250005F058FC70BD0146022906DAC8488F
:10146000405C0B2802DAC648405C70470B20FCE762
:101470000146B1F5806F01D20B203EE0B1F5606FFF
:1014800001D8002039E0B1F5B05F01D8012034E087
:10149000B1F5F05F01D802202FE0B1F5185F01D857
:1014A00003202AE0B1F5385F01D8042025E0B1F52A
:1014B000585F01D8052020E0B1F5785F01D80620FB
:1014C0001BE0B1F58C4F01D8072016E0B1F59C4F19
:1014D00001D8082011E0B1F5AC4F01D809200CE08B
:1014E0004CF66602914201D20C2006E04DF699328C
:1014F000914201D80A2000E00D2070472DE9F0410B
:1015000006460C46022E14DA142C12DC00250CE0E0
:10151000304602F081FD0746FFF7AAFF0A2802D1F4
:101520000120BDE8F081681CC5B2A542F0DB0020B7
:10153000F7E70120F5E770B504460026022C03DA30
:101540009048005DFF2801D0002070BD03F036F9FF
:1015500006468948055D052087490855304603F051
:1015600031F92846F1E70146022905DA8148405C55
:1015700010B98148405C08B9012070470020FCE7A1
:1015800070B504460D46022C0CDA0B2D0ADA7D48A4
:10159000005DFF2806D17B480555784951F82400A5
:1015A00005F0B1FB70BD10B50446204602F067FDA2
:1015B00010BD2DE9F74F84B0044691462046FFF751
:1015C000F2FF0646002001904FF00A08DDF814A053
:1015D00068E06D4951F8240003AA002105F0D0FA13
:1015E0006A4850F82400401C684941F82400AAF1D8
:1015F00001006749097800FB01FBC34500D9C346D8
:10160000624850F82400584502D2604850F824B08F
:101610005A4600212046FFF77FFA204602F09FFC41
:1016200018B9012007B0BDE8F08F0296029EA6EB24
:101630000907002F00DA7F422046FFF7B4FF064675
:10164000A6EB0905002D00DA6D42BD4202DA00204A
:10165000019009E0BD4207D00198401C019001981B
:10166000642801D90420DDE7B5F5997F06D8304616
:10167000FFF7FEFE424908550020D3E740F26620FE
:1016800085420BD242480078804504D94048007812
:10169000A8EB000804E04FF0000801E04FF00A0852
:1016A000AAF1010ABAF1000F93D10520BAE72DE99A
:1016B000F84380460C46324810F80860B44230D0F7
:1016C0000B2E06D00C2E01D10A2C02D0A01B002814
:1016D00001DD012700E0002749F640432D48009333
:1016E00003783A4600214046FFF7D4FA2A4830F8FA
:1016F00014204FF4C8514046FFF75BFF05462DB15B
:10170000012D02D0052D05D102E004E0052502E0FF
:10171000022500E000BF00BF0A214046FFF7E3F9C1
:1017200000E005252846BDE8F8831CB504462046A0
:10173000FFF739FF01900198FFF79AFE0546104820
:101740000555204601F0E8FC81464FF0010B00BF33
:101750000A4951F824006A461FFA8BF105F010FA85
:1017600008481BE0660000206C000020620000209A
:101770006400002069000020540000208C0000203C
:10178000880000206F0000207C000020580000200E
:101790006E00002023010020BAB90008005D0B286C
:1017A0002ADA4E48005D012818D100204B4908551F
:1017B0004B4810F804A00A2049490855002049491F
:1017C00008554748015D2046FFF771FF4549085518
:1017D000FF2043490855084600F804A0002041496D
:1017E00008553F48015D2046FFF761FF3D49085518
:1017F000FF203B490855ABE72046FFF7D4FE019098
:101800000198FFF735FE05460B2D06DA36480555DB
:10181000082708264FF0640B9AE706B1761E20468B
:1018200001F07AFC8146B9F1000F0BD057B14EB9E7
:10183000B8F1000F02D14FF0010805E04FF00008A9
:101840007F1E01E04FF000084146204602F025F9D6
:1018500046B917B1B9F1000F04D1234805554FF02F
:10186000140B75E74FF0010B72E70020FFF75DFFE7
:101870000120FFF75AFF70B500242BE01B4830F819
:1018800014101B4807F0F6FF10B3184830F8141076
:10189000174808F000F8174850F824000088164947
:1018A00031F814100844134951F8241008801348E3
:1018B000005D08B9012505E00025114951F8240013
:1018C00005F021FA2946204602F0E7F80B480555B5
:1018D000601CC4B2022CD1DB70BD000024000020CB
:1018E0006F00002054000020880000202CB8000861
:1018F000002C014030B80008840000206000002067
:101900007C00002070B505469E48007820B9284626
:1019100002F049FB044603E0284602F04CFB044673
:10192000012C01D1002070BD0120FCE770B50446F8
:1019300000262046FFF7E6FF054602F03FFF064679
:10194000914850F82400C5F1FF31884213D88F48E0
:1019500050F8240010F1020F0DD88B4850F82400E5
:101960002844894941F82400884850F82400401C44
:10197000864941F82400304602F024FF70BD01463C
:1019800080480078012803D181480078012805D0DB
:101990007C48007820B97E48007808B9012070475B
:1019A0000020FCE70025002600BF00BF0123002225
:1019B0001146104605F0ACFE6D1C7DB100250024DB
:1019C0000AE0E0B2FFF7DBFF28B17248005D10B11A
:1019D000E0B2FFF7ABFF641C022CF2D3761C0A2E98
:1019E000E4D3002600240FE06B48005D6B490855E6
:1019F0006B48005D6B490855694802196648011932
:101A0000E0B202F07BFA641C022CCFD2ECE700B506
:101A100085B00323002280216348CDE90323CDE96B
:101A200001010F2300F5FE7200216048009305F0CC
:101A300026FB05B000BD0146022916DA5748405C76
:101A4000012805D15448405C012801D1012300E060
:101A500000235448405C012805D15148405C0128CE
:101A600001D1012203E0002201E00023002243EA29
:101A70004200C0B2704743490870704770B50025F6
:101A8000002412E002F09AFE054600203E4941F88B
:101A900024003E4941F824004549085501203D49AC
:101AA0000855284602F08EFE641C022CEAD370BD55
:101AB00070B50025002434E002F080FE0546E0B257
:101AC000FFF75DFFF8B13348005DA8B12E4850F82C
:101AD00024003849097848432C4951F82410364AE3
:101AE00012785143884203D20120314908550DE054
:101AF00000202F49085509E000202D4908550120F4
:101B00002449085502E000202949085500201E49B3
:101B100041F824001D4941F82400284602F052FEF5
:101B2000641C022CC8D370BD70B50025002411E0E0
:101B300002F044FE05460020134941F824001349F1
:101B400041F824001A49085512490855284602F060
:101B500039FE641C022CEBD370BD70B50446002620
:101B6000022C0BDA02F02AFE06461148055D002021
:101B70000F490855304602F025FE00E000252846B2
:101B800070BD00009A000020A0000020A8000020E6
:101B9000240100209B000020B4000020B20000209F
:101BA000B8000020B6000020D00F0020A5190008C2
:101BB000B00000209800002099000020014607296D
:101BC00008D2DFE801F00908040B0C0A050000BF89
:101BD0000120704700BF00BF00BF00BF00BF002052
:101BE000F7E7014607290AD2DFE801F00A05040BEE
:101BF0000C07060000BF00BF00BF0120704700BFF8
:101C000000BF00BF0020F9E70246072A17D2DFE82D
:101C100002F0171304181407050000BF01207047D5
:101C2000FE48405C022803D0FC48405C062801D1F5
:101C30000120F4E70220F2E700BF0220EFE700BF37
:101C400000BF0320EBE70146F548405CA0B9F5482A
:101C5000405C07280CD2DFE800F00D08090C0705EE
:101C6000040000BF0220704700BF00BF0120FAE758
:101C700000BF00BF0020F6E70020F4E70146E84877
:101C8000405CA0B9E748405C07280CD2DFE800F0D0
:101C90000D09060C0805040000BF00BF02207047B4
:101CA00000BF0120FBE700BF00BF0020F7E70020D6
:101CB000F5E770B50546DC480078E0B9D848405DE6
:101CC00030B9D849485D2946FFF79EFF044600E039
:101CD00003242146284601F01CFDD448007850B169
:101CE000012C04D1A107284601F02BFD03E00021BF
:101CF000284601F026FD70BD10B500240FE0E0B2CB
:101D000002F051F9012802D0C948007818B9012021
:101D1000C849085502E00020C6490855641C022C39
:101D2000EDD310BD70B50446FFF7E6FFBD49085D71
:101D3000FFF757FF38B1C048005D012803D1BD4807
:101D4000005D012817D0B749085DFFF74AFF30B1A1
:101D5000B748007818B9B94800780A280BD0B149BB
:101D6000085DFFF73EFF88B1B548005D70B9B34824
:101D700000780A280AD1AA48005D38B92046FFF742
:101D80005AFE022802D0AD48057800E01025294609
:101D90002046FFF747FB0020AA490870012070BDCC
:101DA00070B50446FFF7A8FF9E49085DFFF719FFCD
:101DB00020B99A49085DFFF714FF38B19E48005DCD
:101DC000012803D19B48005D012803D09648007884
:101DD000012805D19248005D10B99848057800E0C7
:101DE000102529462046FFF71DFB00209549087065
:101DF000012070BD70B504462046FFF73FFF054641
:101E00000146204601F076FD70BD014641B1012931
:101E100003D0022903D1082070470420FCE700BF4B
:101E20000220F9E770B5044687480470002C18DDDD
:101E30000A2C16DA854902461278885CFFF7C4FA44
:101E40008249814A1278885CFFF7B4FA78480078B2
:101E500018B90D207949087017E00E2077490870ED
:101E600013E01CB90A20754908700EE00A2C03D152
:101E70000B207249087008E00B2C03D10F206F492A
:101E8000087002E010206D49087001207049087048
:101E900000250AE001206849485514B90020684926
:101EA0004855E8B2FFF73EFF6D1C022DF2D370BD1E
:101EB000F0B502460B46022566480078002812DD80
:101EC0006448007810280EDA62480078401E032625
:101ED00090FBF6F0C1B25F480078401E90FBF6F729
:101EE00006FB1700C4B25B480078702812DD594821
:101EF000007880280EDA574800787138032690FB66
:101F0000F6F0C1B253480078713890FBF6F706FB43
:101F10001700C4B2994201DB0021002432F81100FD
:101F2000C4F10206760030410126C6EB8606304039
:101F3000F0BD704770B504460D460A20FFF772FFEA
:101F400070BD70B504460D460020FFF76BFF70BDF5
:101F500070B504460D460120FFF764FF70BD70B5F3
:101F600004460D460220FFF75DFF70BD70B50446C4
:101F70000D460320FFF756FF70BD70B504460D46B1
:101F80000420FFF74FFF70BD70B504460D460520D5
:101F9000FFF748FF70BD70B504460D460620FFF7F9
:101FA00041FF70BD70B504460D460720FFF73AFFAC
:101FB00070BD70B504460D460820FFF733FF70BDB5
:101FC00070B504460D460920FFF72CFF70BD30B5F3
:101FD00002460B4600201188A1F18004A0B205281A
:101FE00006DA002804DB1C4C245C1C4D2C7002E03B
:101FF00064241A4D2C7030BD704738B5002435E08C
:102000000748005D48B91648005D01282AD1E0B2B2
:10201000FFF7E4F90DF8040027E023E0EE000020CC
:10202000C6000020EC000020D1000020320100207A
:10203000DB000020CC000020CA000020F0000020BF
:10204000DC000020D0000020E0000020BC000020C8
:10205000D2000020250100201D00002026000020C5
:10206000C800002005200DF80400641C022CC7D312
:102070009DF8000010B19DF8010008B9222512E07A
:102080009DF80000012803D09DF80000022801D12E
:10209000022508E09DF80100012803D09DF8010009
:1020A000022800D12025284638BDF8B506460F463F
:1020B000002500246FE0E0B2FFF7BDFC022803D04A
:1020C000FA48005D022807D10CB9052562E005F049
:1020D0000F0545F050055DE0F548005D38B90CB9D5
:1020E000032557E005F00F0545F0300552E0F148B3
:1020F000005D48B9F048005D012805D1E0B2FFF766
:102100006DF90DF8040002E005200DF804001DF83B
:102110000400052830D184B9002001F044FF0128D3
:1021200001D0012509E0E5480078012800D1042507
:10213000E2480078022800D10225012C19D10120A3
:1021400001F031FF012804D005F00F0545F010051E
:102150000FE0DA484078012803D105F00F0545F07B
:102160004005D6484078022803D105F00F0545F018
:102170002005D34805800DE0CD48005D012807D13A
:102180000CB9032506E005F00F0545F0300501E028
:10219000CB480588641C022C8DD300212846FEF70D
:1021A000A0FAF8BD70B505460E46C6480478002171
:1021B0002046FEF796FA70BD0022C34B1A70704796
:1021C0000122C14B1A7070472DE9F04106460F46B7
:1021D00039463046FFF76CFE054615F0020F03D076
:1021E0000020B449087002E00120B249087015F0DF
:1021F000010F03D00020AF49487002E00120AD4933
:102200004870002411E0E0B2FFF753FDE0B2FFF7A1
:10221000F1FDAE48007838B9AD48005D20B9E0B2B4
:10222000FFF780FDAA490855641C022CEBD3BDE8DA
:10223000F081A84A12886AB1028802F07F02A54B99
:102240001B889A420AD1428802F07F02A24B1B8867
:102250009A4203D10022A14B1A7002E001229F4B47
:102260001A70704770B504460D469D48005D9D4943
:10227000095D884202D001209B4908559948005DBC
:1022800097490855974805552046FFF712FD204607
:10229000FFF7B0FD70BD10B504469248005D0128FF
:1022A00002D005280AD104E002212046FFF7DAFF18
:1022B00005E006212046FFF7D5FF00E000BF00BF84
:1022C00010BD70B505460E4631462846FFF7F0FDB5
:1022D000044614F0020F02D00020FFF7DCFF14F0D8
:1022E000010F02D00120FFF7D6FF70BD2DE9F041AC
:1022F00004460E460227208810F07F0F01D10025EA
:1023000000E001252846FFF7B6FBB74205DA34F8AE
:10231000170000F07F0075490870744800780128A4
:1023200003DB72480078632802DD14206F490870CF
:10233000BDE8F08170B505460E46002001F03BFE79
:10234000012801D1142400E0152400212046FEF7C5
:10235000C8F970BD70B505460E4631462846FFF7F0
:10236000A7FD044614F0020F03D001205249087063
:1023700002E000205049087014F0010F03D0012042
:102380004D49487002E000204B49487070BD70B55F
:1023900005460E4600240CE04648005D40B9514910
:1023A000085DFFF71EFC18B10C21E0B2FFF73AF808
:1023B000641C022CF0D370BD70B505460E46002497
:1023C00010E03C48005D60B93B48005D012808D141
:1023D0004449085DFFF705FC18B10D21E0B2FFF795
:1023E00021F8641C022CECD370BD70B505460E4676
:1023F000002410E02F48005D60B92F48005D0128DF
:1024000008D13849085DFFF7ECFB18B10E21E0B2A6
:10241000FFF708F8641C022CECD370BD70B50446BD
:102420000D4616462348005D40B92E49085DFFF76A
:10243000D8FB18B10C212046FEF7F4FF70BD70B533
:1024400004460D4616461B48005D40B92549085D07
:10245000FFF7C7FB18B10B212046FEF7E3FF70BD65
:1024600070B504460D4616461248005D40B91D4938
:10247000085DFFF7B6FB18B10A212046FEF7D2FF30
:1024800070BD70B504460D4616460A48005D60B939
:102490000948005D012808D11249085DFFF7A1FB3A
:1024A00018B10D212046FEF7BDFF70BDDE000020F3
:1024B000E2000020C6000020C8000020220000200A
:1024C000E400002025010020DB000020D0000020D7
:1024D000CE000020D8000020D6000020DA00002026
:1024E000EE000020EC000020CA0000209800002030
:1024F00070B504460D461646F848005D60B9F848C8
:10250000005D012808D1F749085DFFF76AFB18B1A3
:102510000E212046FEF786FF70BD70B504460E46BC
:10252000002510E0218801F07F00FEF729FF618877
:1025300001F07F00FEF731FFA08800F07F0101204D
:10254000FEF7E6FE6D1C022DECD370BD70B504469F
:102550000D4600210320FEF7C4F870BD70B5044697
:102560000D460121002001F0D4F870BD70B504467D
:102570000D460221002001F0CCF870BD70B5044674
:102580000D460021084601F0C4F870BD70B5044640
:102590000D460121084601F0BCF870BD70B5044637
:1025A0000D460221012001F0B4F870BD70B504465B
:1025B0000D460021012001F0ACF870BD70B5044655
:1025C0000D460020FFF737FA022803D00021084605
:1025D000FFF7C4FF0120FFF72EFA022803D00021E5
:1025E0000846FFF7D3FF0120BF490870BF480078B5
:1025F000BF490870BD48007810B90620BB49087073
:1026000070BD70B504460D460020B7490870FFF74D
:1026100012FA022803D000210846FFF7A7FF012085
:10262000FFF709FA022803D000210846FFF7B6FF9A
:10263000AF480078AD49087070BD0022AD4B1A70EC
:10264000704770B505460E460020FEF78CFF08B1B6
:1026500012241BE0A848007810B1A848047815E0BF
:102660000020FEF7F9FE04460A2C0FD0A44800789B
:1026700060B9A24800780A2802D0A048047805E092
:1026800008210020FEF73AFF00B10A24002120466D
:10269000FEF727F870BD70B505460E460120FEF71F
:1026A00062FF08B112241BE09348007810B19348F0
:1026B000047815E00120FEF7CFFE04460A2C0FD067
:1026C0008F48007860B98D4800780A2802D08B487E
:1026D000047805E008210120FEF710FF00B10A246C
:1026E00000212046FDF7FDFF70BD70B505460E4682
:1026F0000020FEF738FF08B1122403E0002001F0AB
:10270000BEFC041200212046FDF7EBFF70BD70B542
:1027100005460E460120FEF726FF08B1122403E00D
:10272000012001F0ACFC041200212046FDF7D9FF86
:1027300070BD70B505460E4600206E490870012038
:102740006D490870002407E06448005D18B9032152
:10275000E0B200F0F6FF641C022CF5D370BD70B53A
:1027600005460E46002410E05C48005D60B95D49F6
:10277000085DFFF723FA38B16248005D022803D0F4
:102780000221E0B200F0C5FF641C022CECD370BD46
:1027900010B500210846FFF7E2FF002434E051485D
:1027A000005D032806D0042809D005280CD006288F
:1027B00021D11BE00021E0B2FFF754FD1FE0012111
:1027C000E0B2FFF74FFD1AE04E48005D022803D04B
:1027D0004C48005D062804D10221E0B2FFF742FD1B
:1027E00003E00121E0B2FFF73DFD08E00221E0B285
:1027F000FFF738FD03E001203A49085500BF00BF4C
:10280000002041490855641C022CC8D310BD70B586
:1028100004460D46FFF7BCFF00210846FFF79FFF67
:1028200070BD10B500241CE02E48005D20B10128C9
:1028300007D002280FD109E00321E0B2FFF712FD13
:102840000AE00421E0B2FFF70DFD05E00621E0B249
:10285000FFF708FD00E000BF00BF02202A4908552D
:10286000641C022CE0D310BD70B504460D46FFF782
:10287000D8FF70BD2DE9F04106460F460020FFF756
:10288000E2F90546FFF7C1FA0005040C0120FFF745
:10289000DAF90546FFF7B9FA044300212046FDF7AF
:1028A00020FFBDE8F08170B505460E4601201149B4
:1028B000087000240BE01248007838B91348005D16
:1028C00020B9E0B2FFF72EFA10490855641C022C1B
:1028D000F1D370BD10B500242EE00000C60000202A
:1028E000C8000020EC000020D1000020E000002003
:1028F000E1000020D2000020D3000020D4000020FE
:10290000D0000020EE000020DE000020CE000020DD
:10291000FC48005D022802D006280AD104E001210B
:10292000E0B2FFF79FFC05E00521E0B2FFF79AFC5B
:1029300000E000BF00BF641C022CE9D310BD70B5DD
:1029400005460E460020F04908700120EF49087046
:10295000EF48007868B9FFF7BDFF002407E0ED48B5
:10296000005D18B90321E0B200F0EBFE641C022CFC
:10297000F5D3FFF783F870BD70B504460D4600200F
:10298000E2490870FFF7D0F870BD10B5FFF790F876
:1029900010BD70B505460E460020DB4908700120C9
:1029A000DA490870DA480078A0B9FFF7EEFF002492
:1029B0000DE0D449085DFFF714F9012806D1E0B213
:1029C000FFF7CBF810B1E0B2FFF765FC641C022CF6
:1029D000EFD301E0FFF7D9FF70BD7CB5002518E00B
:1029E000CC48405D70B9CC48405D01280AD1E8B2BE
:1029F000FEF7F4FC01A94855E8B2FFF7AEF80DF870
:102A0000050005E0052001A9485500200DF8050046
:102A10006D1C022DE4D39DF8040010B19DF8050053
:102A200008B9122446E09DF80400012803D09DF85F
:102A30000400022801D131243CE09DF80500012862
:102A400003D09DF80500022801D1302432E09DF822
:102A50000400032801D121242CE09DF8050003285F
:102A600001D1202426E09DF80000012808D19DF81E
:102A70000100012804D1A548007808B1132419E009
:102A80009DF80000012804D1A048007808B1512425
:102A900010E09DF80100012804D19C48007808B19D
:102AA000502407E09D480078012801D1162401E058
:102AB0009B48047820467CBD70B505460E46FFF75E
:102AC0008CFF044696480078844212D191480078E1
:102AD00030B9002001F067FA012801D0612408E034
:102AE0008C48407828B9012001F05DFA012800D017
:102AF000602400212046FDF7F4FD70BD70B5054649
:102B00000E46FFF76AFF044600212046FDF7E9FD67
:102B100070BD2DE9FF4106460F46002431E07D4897
:102B2000005D18BBE0B2FEF706FD03A90855754924
:102B3000085DFFF743F802A90855E0B2FEF77BFFF6
:102B4000032803D1012001A9085502E0002001A9B2
:102B50000855E0B2FEF780FC0B2803D101200DF8E8
:102B600004000DE000200DF8040009E0052003A991
:102B70000855002002A9085501A908550DF80400C0
:102B8000641C022CCBD39DF80C0010B19DF80D00F5
:102B900008B9122559E09DF80C00012803D09DF8D2
:102BA0000C00022801D131254FE09DF80D000128CD
:102BB00003D09DF80D00022801D1302545E09DF895
:102BC0000C00042801D141253FE09DF80D000428A8
:102BD00001D1402539E09DF80400012801D12125CB
:102BE00033E09DF80500012801D120252DE09DF856
:102BF0000800012804D14548007808B1512524E097
:102C00009DF80900012804D14048007808B15025FA
:102C10001BE09DF80000012805D13B480078012801
:102C200001D1612511E09DF80100012805D1364848
:102C30000078012801D1602507E038480078012894
:102C400001D1162501E03648057800212846FDF718
:102C500048FDBDE8FF8110B504462A48005D0628FE
:102C600027D2DFE800F003042614151600BF022166
:102C70002046FFF7F7FA10202A49087001202A4958
:102C800008552046FFF78CF82849085512E000BF88
:102C900000BF06212046FFF7E5FA10202149087001
:102CA0000120214908552046FFF77AF81F490855A9
:102CB00000E000BF00BF1E480078012821D1204657
:102CC00001F071F901281CD11A491B4A1278885C5D
:102CD000FEF77AFB1749184A1278885CFEF76AFB00
:102CE0000120164908550D200E490870002014498E
:102CF00008550620104908702046FFF751F80B4987
:102D0000085510BDEC000020D2000020D3000020A8
:102D100024010020C6000020C8000020DA000020A6
:102D200025010020F0000020DE000020CE00002061
:102D3000D1000020BC000020E0000020CA000020DC
:102D4000E600002010B50446FA48005D10B10328E3
:102D50001AD10CE001212046FFF784FA0A20F64937
:102D600008702046FFF71CF8F449085528E00421B4
:102D70002046FFF777FA0A20EF4908702046FFF750
:102D80000FF8EE4908551BE0ED48005DB8B9204644
:102D900001F009F9012812D12046FEF74CFE022865
:102DA0000DD00120E74908550A20E3490870204664
:102DB000FEF7F6FFE14908550120E149085500BF3B
:102DC00000BF10BD10B50446DA48005D07284CD29C
:102DD000DFE800F04B05044B2928270000BFDA4844
:102DE000007878B900212046FFF73CFA0B20D24941
:102DF00008702046FEF7D4FFD04908550020D0497E
:102E000008550DE0D148005D50B90A20CA49087044
:102E10002046FEF7C5FFC94908550120CB49085592
:102E200024E000BF00BFC848007878B903212046DD
:102E3000FFF718FA0B20C04908702046FEF7B0FFD4
:102E4000BE4908550020BE4908550DE0BF48005D49
:102E500050B90A20B84908702046FEF7A1FFB749CB
:102E600008550120B949085500E000BF00BF10BD5A
:102E70000146C9B2C81101D1012070470020FCE70A
:102E80000246D2B21AB1B2480078824225D1C02996
:102E900003D0C22901D0C8290BD1AD4800787028D1
:102EA00005DDAB480078802801DA0120704700205A
:102EB000FCE7D02903D0D22901D0D8290BD1A448CE
:102EC0000078002805DDA2480078102801DA0120EA
:102ED000ECE70020EAE70120E8E70020E6E710B58C
:102EE00002460B460024002105E032F81100204480
:102EF00084B2481CC1B29942F7DB04F07F0010BDD8
:102F00002DE9F04707463846FFF7B2FF90B19148E8
:102F1000006828B100208F490860012000F0E1FF1F
:102F20008C4801680068401C8A4A10608A4820F872
:102F300011707DE087480068E8B386480168006842
:102F4000401C844A1060844820F81170B0F8028058
:102F500082480088A8EB000404EB44007F4901EBA1
:102F60008000857810460168A81C814260D17A4AA9
:102F700051881088FFF784FFE0B3DFF8DC9109F196
:102F800004097748007808BB04EB4400734901EB5F
:102F90008000C07873490978884208DD04EB44005A
:102FA0006E4901EB8000294682684846904704EB51
:102FB00044006A4900E038E001EB800080686A491B
:102FC000884201D0012617E0002615E004EB4400FA
:102FD000624901EB8000294642684846904704EB6D
:102FE00044005E4901EB800040685F49884202D09E
:102FF000012601E015E0002675B1B8F1D10F0BD024
:1030000056B129464846FFF76AFF5849088005F03F
:103010007F005749088004E0002054490880544943
:10302000088000204B49086002E0012000F059FFB1
:10303000BDE8F087704710B504464E48007818B1D7
:103040002046FFF7F7FF02E02046FFF759FF10BDCB
:1030500010B54348007810BB00241EE0E0B2FEF734
:1030600082FAC8B9E0B2FEF7E6FC30B1012808D018
:1030700002280AD003280CD10CE0E0B2FFF762FE70
:1030800009E0E0B2FFF7E7FD05E0E0B2FFF79AFEE6
:1030900001E000BF00BF00BF641C022CDED310BDE6
:1030A00010B52F48007858BB002427E0E0B2FEF7A7
:1030B000C2FC30B1012808D002280AD003280CD164
:1030C0000CE001201B4908550CE002201949085565
:1030D00008E000201749085504E000BF002015490A
:1030E000085500BF00BFE0B2FEF7E3FDE0B2FEF717
:1030F00081FE1048005D20490855641C022CD5D380
:1031000010BD704710B51B48007810B1FFF7F9FFEC
:1031100001E0FFF7C5FF10BD0146022935DA174867
:10312000405C28B90848007810B91548007848B3C1
:1031300000207047EC000020F0000020CE000020AE
:10314000E2000020CA000020D1000020E60000209C
:1031500025010020E8000020D0110020D0B900088F
:10316000240100200D000020331F0008D60000209D
:10317000D800002022010020EE000020C600002020
:10318000D3000020FFE7002070470020FCE710B5C7
:10319000FF480078A0B9FF48007888B900240DE006
:1031A000022C0AD2FC48005D38B9FC48005D0228B8
:1031B00003D14107E0B200F0C4FA641C022CEFD343
:1031C00010BDFEB505460E46002405E015F81400B6
:1031D0000DF80400601CC4B20A2CF7DB6A46082113
:1031E000EF4806F009FEEE4AEE49EF4807F0F2FF1D
:1031F000EC480079FF280BD1EA484079FF2807D135
:10320000E8488079FF2803D1E648C079FF2802D03A
:103210000120E6490870002406E0201DE149085C11
:10322000E3490855601CC4B2042CF6DBE148007881
:10323000012823D1E0480078DD490978884211D17E
:10324000DD484078DA49497888420BD1DA488078FD
:10325000D7498978884205D1D748C078D449C978F8
:10326000884206D00520D54908700120D44908704D
:1032700004E00020D1490870D1490870002406E01C
:10328000C848005DC043CF490855601CC4B2042C37
:10329000F6DB0120CC490870FEBD10B500F09BFFA5
:1032A000002406E0C448015DC64A201D1154601C7C
:1032B000C4B2042CF6DBC34ABA49BB4807F041FD4F
:1032C000C24A0821B74806F069FD10BD70B586B046
:1032D00005460E46FFF7E1FF002406E0BB48005D0F
:1032E00001A921F81400601CC4B20A2CF6DB0024EA
:1032F00007E001A931F814000021FDF7F2F9601C84
:10330000C4B20A2CF5DB06B070BD2DE9F04781464A
:103310008A460025A84604F040FFAD4F002415E082
:10332000384604F07CFF002507E03E5DFF2E02D00A
:103330004FF0010803E0681CC5B2142DF5DB00BF97
:10334000B8F1000F00D103E0601CC4B2052CE7DB2C
:1033500000BFA04F002415E0384604F060FF0025B0
:1033600007E03E5DFF2E02D04FF0010803E0681C2D
:10337000C5B2142DF5DB00BFB8F1000F00D103E09A
:10338000601CC4B2052CE7DB00BF04F00CFFFFF7A4
:1033900084FFBDE8F0872DE9F04186B006460F4670
:1033A00015464FF00408002406E036F8140001A981
:1033B00021F81400601CC4B20A2CF6DB04F0EDFE08
:1033C000002409E0284604F02AFF8046B8F1040FE3
:1033D00000D103E0601CC4B2052CF3DB00BFB8F1E0
:1033E000040F0DD1002409E001AA32F8141005EBF6
:1033F000440004F0DCFF8046601CC4B2BC42F3DB36
:1034000004F0D1FE06B0BDE8F0812DE9F04F8FB099
:1034100006464FF000096E4FDFF8B881002405E042
:1034200016F814000CA90855601CC4B20A2CF7DB6E
:103430000CAA08215A4806F0DFFC594A59495A4853
:1034400007F0C8FE042405E05648005D0AA90855A7
:10345000601CC4B2082CF7DB002405E05948005D6D
:103460000AA90855601CC4B2042CF7DB0AAA4D490E
:103470004D4807F066FC002426E0042C0DDA49488C
:1034800010F81400012101EB4401464A515C00EBA5
:10349000012005A921F8140014E0201F414911F86A
:1034A0001000C04300F0FF0A201F012101EB400083
:1034B0003C49085CC04300F0FF0B0AEB0B2005A958
:1034C00021F81400601CC4B2082CD6DB42480088E6
:1034D000401C80B2ADF8240040480078062856D23F
:1034E000DFE800F004300331050600BF00BF00BF75
:1034F000002523E03A46092105A8FFF74CFF0024E8
:1035000005E037F814002DF81400601CC4B2082C34
:10351000F7DB00240AE03DF8140005A931F8141087
:10352000884201D04FF00109601CC4B2082CF2DBC4
:10353000B9F1000F00D103E0681CC5B2052DD9DB3D
:1035400000BF54E000BF00254CE04246092105A819
:10355000FFF721FF002405E038F814002DF81400CF
:10356000601CC4B20A2CF7DB00240AE03DF814000A
:1035700005A931F81410884201D04FF00109601CF0
:10358000C4B20A2CF2DBB9F1000F29D12CE02DE0F6
:1035900024010020D3000020C6000020EC00002001
:1035A000F1000020F9000020A005002028010020E3
:1035B00030000020270100202D0100200D000020F8
:1035C0000E000020100000201800002044070020FA
:1035D00000F8010800F401081A0000201C00002077
:1035E000681CC5B2052DB0DB00BF00E000BF00BF06
:1035F000FFF753FE0FB0BDE8F08F2DE9F041044610
:103600008846208800F07F002080208800F0010597
:103610002088C0F34006208887103A463146284665
:1036200000F07DFABDE8F081054600262C7800BF49
:1036300001F0C4F806464A4850F82400002820DD6E
:10364000474850F82400401E454941F824003046C0
:1036500001F0B8F801220021204600F0BFFA6423EF
:1036600000221146104604F053F80122114620466C
:1036700000F0B4FA642300221146104604F048F822
:10368000D6E7304601F09EF83648025D3648015DC7
:10369000204600F0A3FA3549085D03F072FFC7E742
:1036A00030B585B0002423E001202F4908550020C3
:1036B0002C4908552E482F4941F8240003230022A5
:1036C00080212D4800EB442001AD0FC52748035D44
:1036D000054600932B5D284D05EB442505F5FE724C
:1036E000264D2919234D55F8240003F0C8FC641C0D
:1036F000022CD9D305B030BD0146022907DA19489A
:10370000405C194A525C40EA4200C0B27047032054
:10371000FCE770B504460D461948007880B9022CC4
:103720000EDAC5F340001049085505F001000D49B7
:1037300008550846025D0C48015D204600F04EFA2F
:1037400070BD70B504460D46022C08DA044840F8F6
:103750002450002D03DD0549085D03F073FE70BDA4
:10376000100100200E0100200C010020D2BF000833
:103770002936000804010020E4110020D0BF000811
:10378000D100002010B50121432005F079FA012174
:10379000F94805F08FFA01214CF67D6005F07DFABD
:1037A00010BD08B54FF4E06004F07EF825208DF8D8
:1037B000000008208DF8020001208DF80300684603
:1037C00004F077F81B208DF8000004208DF802002B
:1037D00001208DF80300684604F06BF808BD0EB5B3
:1037E000E6480068E649B0FBF1F0401E80B2ADF853
:1037F00000000020ADF802004FF6FF70ADF80400A5
:103800000020ADF806008DF808006946DD4805F097
:1038100011FB0121DB4805F078FD0EBDDA48008878
:10382000704710B50346D84C2188022B00DA0223DA
:10383000CC18A2B28A4207DD00BFD34C2088884250
:1038400009DB9042F9DB06E000BFCF4C20889042B4
:10385000FBDB8842F9DA10BDFEB5002418E0C7484A
:1038600000684FF4FA51B0FBF1F0C0EB001080009B
:103870000A21B0FBF1F604F1080085B205EB460021
:103880006900B0FBF1F0401EC04921F81400641C2F
:103890005D2CE4D3BD480088ADF800000020ADF8F1
:1038A00002004FF6FF70ADF804000020ADF80600EE
:1038B0008DF808006946B64805F0BCFA0121B44805
:1038C00005F023FDFEBD10B50446082C0ADB642C70
:1038D00008DCA4F10800AD4A32F810100122AC480F
:1038E00005F0BEFD10BDAB48008870470020AA4916
:1038F0000870704770B504460D46A849085D2A4611
:10390000022100F009FF70BD10B500240AE0A349B0
:10391000085D1022022100F088FE0121E0B2FFF7CD
:10392000E9FF641C022CF2D310BD00B591B09C4895
:1039300001909C48029000200390082004900020F1
:10394000059080200690800007908000089020203D
:10395000099000200A900B9001A9934804F0DFFA27
:103960000121914804F006FB4FF4404005F0FDF8BA
:103970004FF4C0200C9000208DF8340001208DF809
:1039800035004FF460200E9000200F9001208DF83C
:1039900040000CA982484C3804F029F80CA983484F
:1039A00004F025F80623012208217D484C3804F054
:1039B000B6F80623012209217C4804F0B0F8012161
:1039C00077484C3804F04AF80121784804F003F9AC
:1039D000012173484C3804F036F80121734804F093
:1039E00032F86F484C3804F050F8704804F04DF845
:1039F00000BF6B484C3804F04DF80028F9D100BFE7
:103A00006A4804F047F80028FAD165484C3804F0B9
:103A10004BF8664804F048F800BF61484C3804F0A1
:103A200048F80028F9D100BF604804F042F80028A7
:103A3000FAD10021102000F0E0FD0021112000F05B
:103A4000DCFD012156484C3804F03DF811B000BDB2
:103A500010B500240AE05649085D282100F0CDFD8C
:103A60005449085D282100F0C8FD641C022CF2D3E3
:103A700010BD70B504460D464F49085D2A46032126
:103A800000F04AFE70BD70B504460D464B49085D16
:103A90002A46022100F040FE70BD70B504460D4676
:103AA0004749085D294600F020FE70BD10B5102181
:103AB0004E2000F0A2FD002427E04249085D482185
:103AC00000F09BFD3E49085D102100F096FD0021AD
:103AD000E0B2FFF7E2FF3C49085D102100F08DFDE8
:103AE0003649085D1022022100F09FFD0221E0B25C
:103AF000FFF7C9FF3049085D1022032100F095FD52
:103B00000521E0B2FFF7B5FF641C022CD5D30820D5
:103B1000FFF787FE01214E2000F0E7FD10BD70B5D4
:103B200004460E4615464FF4FA70284908602849A5
:103B3000085D314600F0D9FD264820F8145070BDCC
:103B400010B500240AE02249085D102100F055FD5F
:103B500000221146E0B2FFF7E2FF641C022CF2D310
:103B60001D490878102100F048FD0022114610463A
:103B7000FFF7D5FF10BD00000700040258C1000880
:103B800000127A00002C0140242C01401016002065
:103B9000000400402404004022010020EFBF000880
:103BA0004C240140F015002008000240002801408C
:103BB000EBBF0008EDBF0008DCBF0008DABF00085B
:103BC000D6BF0008D4BF0008D8BF000828000020D6
:103BD000DEBF000834010020E0BF000870B50446D5
:103BE0000E461546F849085D314600F07EFDF7495E
:103BF000085D294600F079FD70BD10B5002419E07C
:103C0000F349085D482100F0F8FCF249085D4821BD
:103C100000F0F3FCEC49085D102100F0EEFCEB49EC
:103C2000085D102100F0E9FC01221146E0B2FFF727
:103C3000D5FF641C022CE3D310BD70B504460E46BC
:103C4000254604EBD4714910A4EB4101E24A505CD3
:103C5000314600F04AFD70BD10B5002409E0DE4990
:103C6000085D142100F0C9FC0121E0B2FFF7E5FF77
:103C7000641C022CF3D310BD1CB50221002004F0FB
:103C80006DFE0821012004F069FE04200090002050
:103C90008DF804000C208DF8050001208DF8060039
:103CA000684604F0CCF94FF48070009000208DF845
:103CB00004000C208DF8050001208DF806006846F0
:103CC00004F0BDF91CBD10B586B00020ADF80C00A5
:103CD000ADF80E0040F23F60ADF810000020ADF8E6
:103CE0001200684605F0FFFA0620ADF8080000242F
:103CF0002CE0BA4951F8240003A905F09BF8B74914
:103D000051F8240002230022032105F0B5FBB3493A
:103D100051F82400694605F04EFAB149085D0422C5
:103D2000022100F082FCAF49085D042100F065FC2F
:103D3000AA4951F824000122114605F001FBA749C8
:103D400051F82400012105F0E0FA641C022CD0D3C4
:103D500006B010BD10B50421202000F092FC0446EE
:103D60000421084600F08DFC44EA001402212420BE
:103D700000F087FC44EA0024C4F3090010BD2DE9DB
:103D8000F04148220621202000F04FFC4822042167
:103D9000084600F04AFC64267BE0FFF7DBFF0446A0
:103DA000C4F3C00018B100208F49087002E0012060
:103DB0008D49087004F003008C490870C4F30010AA
:103DC0008B490870C4F34015012D54D12807070E04
:103DD000C4F383103844C5B2A5F110000F2845D2B2
:103DE000DFE800F0080C1014181C2024282C3034B4
:103DF000383C400071207F4908703BE072207D49CB
:103E0000087037E073207B49087033E074207949EB
:103E100008702FE07520774908702BE076207549EF
:103E2000087027E077207349087023E078207149F3
:103E300008701FE079206F4908701BE07A206D49F7
:103E4000087017E07B206B49087013E07C206949FB
:103E500008700FE07D20674908700BE07E206549FF
:103E6000087007E07F206349087003E02F20614954
:103E7000087000BF03E0C4F383105E4908704FF47C
:103E8000FA50FFF7CEFCFFF765FFA04200D102E039
:103E9000761E002E81D100BFBDE8F08110B5FFF77E
:103EA00071FCFFF77EFCFFF79AFCFFF71FFDFFF7A1
:103EB00066FF5148007828B1FFF7CEFCFFF703FFFB
:103EC000FFF7DAFEFFF7C8FEFFF797FEFFF738FEB1
:103ED000FFF7ECFDFFF7BCFDFFF727FDFFF714FD33
:103EE00010BD70B50446254604EBD4714910A4EB0F
:103EF0004101394A505C00F02FFC70BD70B504469A
:103F00000D4616463249085D00F0ADFB2870314978
:103F1000085D00F0A8FB307070BD10B500240AE009
:103F20003649085D1022022100F07FFB0221E0B239
:103F3000FFF7A9FD641C022CF2D310BD10B50024BC
:103F40000AE02F49085D1022032100F06EFB0521D5
:103F5000E0B2FFF78EFD641C022CF2D310BD10B549
:103F600004462849085D00F07EFBC0B210BD10B5C4
:103F700004462549085D00F097FBC0B210BD70B53E
:103F800004460D462149085D294600F0AEFB70BD90
:103F9000124A52F820209184704701460F4850F889
:103FA0002100808C704710B504461949085D00F067
:103FB0005AFBC0B210BD10B504461649085D00F0AA
:103FC00052FBC0B210BD0000E7BF0008E9BF000807
:103FD000E3BF0008E5BF0008E1BF000818010020AA
:103FE000F1BF0008F3BF00083201002023010020C8
:103FF000240100202501002022010020DABF000852
:10400000DCBF0008D4BF0008D6BF0008D8BF000836
:10401000EBBF0008EDBF000810B5024612B1012A3F
:1040200027D112E0FF4803780078401CFD4C207037
:10403000FD4830F8231023461878C31700EB53735C
:10404000DB10A0EBC303237015E0F8480378007879
:10405000401CF64C2070F44800EB83004188234656
:104060001878C31700EB5373DB10A0EBC303237066
:1040700001E0002100BF00BF0805000C10BD034691
:10408000002213B1012B17D10AE0002105E0E64818
:1040900030F82100104482B2491C0829F7D30CE003
:1040A000002106E0E04800EB81004088104482B225
:1040B000491C0829F6D300E000BF00BF5004000CE3
:1040C000704710B5044624B101212D2000F00DFBEE
:1040D00003E000212D2000F008FB10BD1FB5D448DF
:1040E0000090D448007820B14FF48050ADF804001F
:1040F00002E00020ADF804004FF40050ADF80600D7
:104100000020ADF80800ADF80C000C20ADF80A0056
:104110006946C94805F005FC012240F22551C64810
:1041200005F07CFC002240F22661C34805F076FCD5
:1041300010212D2000F061FA1821092000F05DFA0D
:1041400004210A2000F059FA0020FFF7BAFF0121EC
:10415000B94805F057FC1FBD10B50246002007E026
:104160000B5CB64C234493F8E8371354431CD8B285
:104170000C28F5DB10BD002007E0B149014491F89F
:10418000001CB04A1154411CC8B20428F5DB70472A
:10419000F0B585B004460B460120002104E0665CC2
:1041A0000DF801604E1CF1B29942F8DB5A10002163
:1041B0000CE08E181DF80660F643F5B21DF801609C
:1041C000AE4201D0002003E04E1CF1B29142F0DB80
:1041D00000BF05B0F0BD2DE9F84F4FF00009CA4609
:1041E000C84600250026DFF860B298480090BBF86A
:1041F00010500098068AA5F57F40FF3806D1A6F535
:104200007F40FF3802D1924908707AE0A5F57F40DF
:10421000FF3813D0A6F57F40FF380FD11021584644
:10422000FFF7B6FF8046B8F1010F03D1012088499E
:10423000087066E003208649087062E0A5F57F40BB
:10424000FF3813D1A6F57F40FF380FD0102100981A
:10425000FFF79EFF8046B8F1010F03D102207C4991
:1042600008704EE004207A4908704AE01021584650
:10427000FFF78EFF8046B8F1010F02D14FF0010920
:1042800001E04FF0000910210098FFF781FF804600
:10429000B8F1010F02D14FF0010A01E04FF0000A1E
:1042A000B54206DBB9F1010F03D10120684908705E
:1042B00027E0B5420DDBB9F1000F0AD1BAF1010FC9
:1042C00003D10220624908701BE005206049087094
:1042D00017E0AE4206DDBAF1010F03D102205C49BE
:1042E00008700EE0AE420CDDBAF1010F09D1B9F150
:1042F000010F03D101205649087002E005205449FE
:1043000008705348007806287ED2DFE800F00312D8
:1043100055C3DAF2002404E0FF204E490855601C22
:10432000C4B2042CF8DB00204B4908804B490870CC
:10433000FAE0002405E01BF8040049490855601C18
:10434000C4B2082CF7DB464A4649474806F042FF0C
:1043500041480580002406E04249201D085C3D4993
:104360000855601CC4B2042CF6DB4048007878B9CC
:10437000E84385B238480088C7B23D4807703648E0
:104380000088070A3A484770EFB287702F0AC77053
:1043900030480078FF280BD12E484078FF2807D1FD
:1043A0002C488078FF2803D12A48C078FF2802D003
:1043B00001202A490870B7E0002405E00098005D5C
:1043C00027490855601CC4B2082CF7DB244A25494C
:1043D000254806F0FFFE20480680002406E021491B
:1043E000201D085C1B490855601CC4B2042CF6DB78
:1043F0001E48007888B9F04386B217480088C7B2D3
:104400001B480770144800E08DE00088070A184830
:104410004770F7B28770370AC7700E480078FF28D8
:1044200034D127E020010020F015002021010020D8
:10443000A0860100220100200038014000F0FF1F8B
:1044400000F001082901002000F8010800F401082B
:104450001C0000202D0100201A0000202701002050
:10446000F1000020F9000020A00500201800002025
:10447000100000203B484078FF2807D13948807859
:10448000FF2803D13748C078FF2802D001203649E1
:10449000087049E0002035490880002404E0FF202E
:1044A00030490855601CC4B2042CF8DB00202E49AA
:1044B000087003F072FE584603F0B1FE03F073FE7D
:1044C00032E0002029490880002404E0FF2025492B
:1044D0000855601CC4B2042CF8DB00202249087087
:1044E00003F05BFE009803F09AFE03F05CFE1BE015
:1044F000FFE700201D490880002404E0FF2019493F
:104500000855601CC4B2042CF8DB00201649087062
:1045100003F043FE584603F082FE009803F07FFE4E
:1045200003F041FE00E000BF00BFBDE8F88F10B50A
:10453000002414E00E4830F8140078B10C4830F82C
:104540001400401E0A4921F81400084630F81400EF
:1045500020B900221146E0B2FFF7E1FA641C022CF8
:10456000E8D310BD2D010020270100201A000020F3
:10457000340100200311072B17D2DFE803F00407F2
:104580000A0D10131700864B0B6012E0854B0B6071
:104590000FE0854B0B600CE0844B0B6009E0844B13
:1045A0000B6006E0834B0B6003E000BF824B0B60A7
:1045B00000BF00BF00F00F03136070472DE9F84300
:1045C00080460C4615461E46DDF820906A46294670
:1045D0004046FFF7CFFF0098C0F11007BC4201D85A
:1045E000204600E038460746009830600120B84079
:1045F000401EC9F80000BDE8F8833EB505460C46EC
:1046000001AA02A92846FFF7B5FF012001998840B9
:1046100080B2ADF800008DF8034003208DF8020051
:104620006946029804F096F83EBD70B586B005461E
:104630000E46144603AB009304AB05AA3146284648
:10464000FFF7BCFFDDE90301884080B2ADF8080048
:104650008DF80B4003208DF80A0002A9059804F09C
:1046600079F806B070BD1CB504466A4601A920461B
:10467000FFF780FF019880680099C84000F00100B2
:104680001CBD7FB504460D4601AB009302AB03AAE7
:1046900029462046FFF792FF039880680299C84098
:1046A0000199084004B070BD1CB504466A4601A9D2
:1046B0002046FFF75FFF0198C0680099C84000F0EE
:1046C00001001CBD7FB504460D4601AB009302AB53
:1046D00003AA29462046FFF771FF0398C068029994
:1046E000C8400199084004B070BD7CB506460C4630
:1046F0006A4601A93046FFF73DFF0198C0680121D5
:10470000009A9140884304F00101914040EA01057C
:104710000198C56028467CBD2DE9FF4106460F463D
:10472000144601AB009302AB03AA39463046FFF7AB
:1047300045FF0398C068DDE9011291408843019A62
:1047400004EA0201029A914040EA01050398C5601B
:10475000284604B0BDE8F0811CB504466A4601A9AC
:104760002046FFF707FF0198C0680121009A914099
:1047700048400199C8601CBD7FB504460D4601AB99
:10478000009302AB03AA29462046FFF717FF0398C0
:10479000C068DDE90112914048400399C8607FBDBF
:1047A00000080140000C01400010014000140140CD
:1047B00000180140001C014000200140EFF3108070
:1047C00072B6704780F3108870471D484FF0FF01A4
:1047D0000170002080F309881A48012101701A48ED
:1047E0004FF08051016062B6FEE717484FF08051EC
:1047F0000160704714484FF080510160704772B6F5
:10480000EFF3098028B1203880E8F00F0F490968DC
:10481000086000B50E4880475DF804EB0D480E496E
:104820000A78027009480D490A680260106890E829
:10483000F00F203080F309884EF0040E62B6704706
:1048400022ED00E05A01002004ED00E060010020AC
:10485000274900085301002054010020680100206E
:104860007047704710B504462046FBF791FD10BD18
:1048700010B504462046FBF78CFD10BD10B5FBF7C4
:1048800089FD10BD10B5FBF786FD10BD70B504465F
:1048900010464FF080750560051F28462C606FF0AC
:1048A0000106051F28462E604FF01236051F2846C8
:1048B0002E604FF00336051F28462E604FF002365B
:1048C000051F28462E607610051F28462E60051FFE
:1048D000284629604FF01136051F28462E604FF0FC
:1048E0001036051F28462E604FF00936051F284652
:1048F0002E604FF00836051F28462E604FF0073611
:10490000051F28462E604FF00636051F28462E60EC
:104910004FF00536051F28462E604FF00436051F60
:1049200028462E6070BD10B5FBF736FD10BD10B5E2
:1049300004462046FBF731FD10BD10B5FBF72EFDF8
:1049400010BD10B5FFF73AFF04461A480078401C26
:10495000184908702046FFF735FF00F0AFFD00F062
:10496000B7FC10BD144909684FF47A72B1FBF2F03C
:10497000B0F1807F00D31CE020F07F41491E4FF052
:10498000E022516100BF5117002905DA0F2109010A
:104990000A4A0B23D15404E00F210901084A531796
:1049A000D15400BF00214FF0E02291610721116135
:1049B00000BF70475101002060C1000818ED00E001
:1049C00000E400E0174818481848194819481A48E0
:1049D0001A481B481B481C481C481D481D481E48B7
:1049E0001E481F481F482048204821482148224887
:1049F0002248234823482448244825482548264857
:104A000026482748274828482848294829482A4826
:104A10002A482B482B482C482C482D482D4800BFAD
:104A200070470000F8BF0008FCBF000800C0000885
:104A300002C0000804C0000806C0000808C0000842
:104A40000AC000080CC000080EC0000810C0000812
:104A500012C0000814C0000816C0000818C00008E2
:104A60001AC000081CC000081EC0000820C00008B2
:104A700022C0000824C0000826C0000828C0000882
:104A80002AC000082CC000082EC0000830C0000852
:104A900032C0000834C0000836C0000838C0000822
:104AA0003AC000083CC000083EC0000840C00008F2
:104AB00042C0000844C0000846C0000848C00008C2
:104AC0004AC000084CC000084EC0000850C0000892
:104AD00052C0000854C000080246002005E011F84A
:104AE000013B02F8013B431CD8B20B78002BF6D1F6
:104AF000137070472DE9F04105460E461446002715
:104B000014B90020BDE8F0811DB9042020700020F8
:104B1000F8E71EB90C2020700020F3E7FF4800786A
:104B2000002803DD112020700020EBE72878012801
:104B300008D0022807D0032802D0042804D100E0BE
:104B400000BF00BF00BF03E0012020700020D9E7B4
:104B500000BFFFF733FE074605F10F013046FFF7B0
:104B6000BBFF80463846FFF72DFE002020704046F0
:104B7000C8E70146002002E0491C421CD0B20A7876
:104B8000002AF9D170472DE9F04105460E4614463A
:104B90004FF000080CB9BDE8F08115B90420207071
:104BA000F9E716B90C202070F5E7DC4800780028FA
:104BB00002DD12202070EEE72878012808D00228B4
:104BC00007D0032802D0042804D100E000BF00BFB2
:104BD00000BF02E001202070DDE700BFFFF7EEFD1F
:104BE00080463046FFF7C5FF07460F2F05DD4046DC
:104BF000FFF7E8FD0B202070CDE7314605F10F00EF
:104C0000FFF76AFF4046FFF7DDFD0020207000BF80
:104C1000C1E7F0B5024612F8344F95785678A2F104
:104C200034020B4618680FE000F10B073F5DB743F5
:104C300000F10B0C0CF8047067463F5D17B9877ADA
:104C4000AF4387721B1D18680028EDD1F0BDB44931
:104C5000B44A1278885CB449095CB14A515C01EBF2
:104C6000C001B24A1170704710B50024FFF7A6FDCD
:104C70000446AA480078F8B9AD480078E0B9FFF7D3
:104C8000E6FFAC48A949097850F82100AA49086014
:104C9000A6480078A949097888420DD0A64800683E
:104CA000806B401CA44909688863A5480068401CC3
:104CB000A3490860FFF799FD2046FFF783FD10BD6B
:104CC00070B5014600249F4D2D68EC619D4C246811
:104CD00021620B4618681BE09A4C246894F8345003
:104CE00000F10B04645D974D2D6895F835502C4309
:104CF000944D2D6895F8346000F10B05AC55847A1D
:104D0000904D2D6895F836502C4384721B1D186801
:104D10000028E1D18B4C246894F83420824CA45CA8
:104D2000884D2D6895F83550AC437F4DAC542C46DA
:104D3000A45C44B9834C246894F83650794C2478A8
:104D4000AC43784D2C7070BD2DE9FF4F83B0814688
:104D50000E461546109F0020009017B907B0BDE819
:104D6000F08FB9F1000F03D1042038700020F5E76F
:104D70001EB9042038700020F0E71DB904203870F7
:104D80000020EBE700203060CA46DAF8004015E06A
:104D90002078062807D2DFE800F00604050307089C
:104DA00007E006E005E000BF00BF012038700020EA
:104DB000D4E700BF0AF1040ADAF80040002CE7D17A
:104DC00056480078002803DD022038700020C5E72F
:104DD00057480078002803DD0D2038700020BDE71B
:104DE000FFF7ECFC00900020029083460190CA4639
:104DF000DAF8004068E02078062855D2DFE800F0B5
:104E000054182B035556208900280CDD2089401E9C
:104E1000208110C601200290002001C50BF1010085
:104E20001FFA80FB03E0019840F00100019046E08A
:104E3000606858B1606801C50020606010C601203C
:104E400002900BF101001FFA80FB03E0019840F093
:104E50000200019033E0D4F80480B8F8160000286E
:104E60001DDDD8F81010081DC8F81000086801C52D
:104E7000D8F80810D8F81000884203D1D8F80400F8
:104E8000C8F81000B8F81600401EA8F8160010C6A2
:104E9000012002900BF101001FFA80FB03E0019852
:104EA00040F0040001900AE000BF00BF0098FFF747
:104EB00089FC002030600120387058464EE700BF62
:104EC0000AF1040ADAF80040002C94D10298012873
:104ED00008D1002030600098FFF774FC0020387083
:104EE00058463BE71748006890F83000019941F0B8
:104EF000800108431349096881F8300000201149F6
:104F0000096881F831000F4906980968C885484644
:104F1000FFF7D6FE0098FFF755FC15E05101002081
:104F200056C0000855010020560100205401002001
:104F300052010020D81D00206801002053010020EC
:104F40003801002060010020FFF78EFEFFF736FCDD
:104F50000090FC48006890F8310020B101281BD077
:104F6000022818D100E000BFF6480068C4693CB1CF
:104F700010C6002030600BF101001FFA80FB09E031
:104F80000120F049096881F831004946ED48006880
:104F9000FFF73FFE06E000BF4946EA480068FFF71A
:104FA00038FE00BF00BFE748006890F8310020B12C
:104FB000012828D0022825D11FE0207806280DD20C
:104FC000DFE800F00C0607030D0E002001C510E01D
:104FD00000BFDC480068406A01C50AE000BF00BFAE
:104FE0000098FFF7EFFB0020306001203870584632
:104FF000B4E600BF002038700AE0002001C50E2092
:10500000387005E000BF002001C50A20387000BFDD
:1050100000BF0020CB49096881F83000C949096800
:1050200081F83100C7490968C861C6490968086242
:10503000C449096848620098FFF7C4FB58468DE6EA
:105040007CB5002514E06946284602F04FFA064672
:1050500066B9BD4850F8254044B1012C06D0D4E9CA
:10506000020100EB810060640198A064681CC5B275
:105070001F2DE8DD7CBD002402E0C82002F018FBF3
:10508000B24800780028F8D0B14800686421B0FB2D
:10509000F1F0AF4908600846006828B90020AD4922
:1050A0000870FF2002F06DFA00BFFFF787FB04468F
:1050B000A9480068A94908600020A749086020465F
:1050C000FFF780FBA5480068A1490968B0FBF1F033
:1050D000C0F164009F490870FFF7D4FBFFF7B0FFF1
:1050E000642002F0E5FAE0E700B587B00323002270
:1050F00080219B48CDE90323CDE901014FF6FE73E2
:1051000000931E2300F5FE720021AFF2950001F01E
:10511000B6FF06AA93A11E2002F044F907B000BD15
:10512000002400BFFFF74AFB04468B480068401C80
:10513000894908602046FFF745FBFFF79FFBF1E731
:1051400000B587B00323002280218A48CDE90323DC
:10515000CDE901014FF6FF7300931F2300F5FE72A6
:105160000021AFF2430001F08AFF06AA82A11F20AE
:1051700002F018F907B000BD04E0002200F8012B8E
:105180004A1E91B20029F8DC704730B54FF4207107
:105190007D48FFF7F1FF7C4B03F1200500240AE076
:1051A000002018705D603F20D873002119742033EF
:1051B0002035601C84B2132CF2DB0020187058607C
:1051C0003F20D873002119746F487049086030BDC2
:1051D00030B54FF4FD616E48FFF7CEFF80215A488D
:1051E000FFF7CAFF6A4B03F15C0500240AE05D612A
:1051F0003F2083F84C0000214D20C1545C335C35C6
:10520000601CC4B2152CF2D3002058613F2083F8F3
:105210004C0000214D20C15400205E4908605C48CC
:105220005D49086030BD00225C4B1A705C4900206B
:1052300004E0002201F8012B421CD0B20428F8DB64
:105240000022584B1A70584B1A70584B1A603D4B3D
:105250001A60704700205649086056490870564940
:1052600008705649087056490870564908603A490E
:1052700008603A4908603649086034490870704748
:1052800010B5FFF7EDFAFFF7E5FFFFF7CCFFFFF7EB
:105290009FFFFFF77AFF00F01CFF01F05EF801F0BE
:1052A0009EFBFFF74DFFFFF71FFFFFF7DAFAFFF74F
:1052B00089FB10BD42480078012808D13D4800789C
:1052C000FF2804D23B480078401C3A4908707047D8
:1052D00010B500243A480078012831D1FFF76EFA62
:1052E000044634480078002804DD32480078401E27
:1052F000304908702F480078F8B92F480078E0B995
:10530000FFF7A5FC10482849097850F821002749E3
:105310000860254800782349097888420DD0234841
:105320000068806B401C2149096888632548006833
:10533000401C24490860FFF75DFA2046FFF742FA57
:1053400010BD000060010020D81D00205001002089
:1053500048010020440100205C0100204C01002095
:10536000D819002075432F4F532D4949205374619C
:1053700074000000D81B002075432F4F532D49495E
:105380002049646C65000000CC1600203C01002020
:10539000581E00206C0100206401002055010020EF
:1053A0005601002053010020540100206801002014
:1053B0007C01002051010020520100205B010020EF
:1053C0005A0100203801002010B50024FF48007861
:1053D000012811D1FFF7F2F90446FD48007840B9E1
:1053E000FC480078FF2804D2FA480078401CF949AC
:1053F00008702046FFF7E6F910BD10B50024F34809
:105400000078012822D1FFF7D9F90446F148007845
:10541000002818DDEF480078401EEE490870084665
:10542000007860B9EA48007828B92046FFF7CAF941
:10543000FFF71AFC0AE02046FFF7C4F906E0204611
:10544000FFF7C0F902E02046FFF7BCF910BD10B528
:10545000DE48007890B9FFF7FAFBDF480078DF49B3
:105460000870DF48DC49097850F82100DD49086000
:1054700008460068DC490860FFF7A7F910BD10B5C1
:105480000024022002F014F9FFF798F904460020E6
:10549000D64908602046FFF795F9642002F008F924
:1054A000FFF78CF90446D1480068D1490860012013
:1054B000D04908702046FFF785F910BD70B5002669
:1054C000FFF73BFAFFF77AF90646CB480068401C25
:1054D000C94908603046FFF775F9BC4800780128D3
:1054E00058D1C648007820B1012804D0022809D13B
:1054F00003E001250BE0002509E001250120BF495B
:10550000087004E001250020BC49087000BF00BFFE
:1055100005B970BDBA48046838E0FFF74FF9064690
:10552000E08D78B3E08D401E0004000CE08529D1A9
:1055300094F8300010F0370F09D014F8300F20F035
:105540003700207001206070A4F1300402E00020D8
:1055500084F8310094F8300010F0080F12D104F1F3
:105560003404A078A749097840EA0100A5490870E9
:105570002078A549085C617840EA010014F83419E4
:10558000A14A505464693046FFF71CF994F8320080
:105590001F28C2D100BFBCE74FF48F70704770471F
:1055A00010B590F8342001F10B039B5C90F8354066
:1055B000A34301F10B04A35423469B5C23B98B7ACC
:1055C00090F83640A3438B7210BD2DE9F04F05468D
:1055D0000F4690469946A87A8C490E5C05F10B005F
:1055E000805D11F800B00BEBC60000F0FF0A7C48AC
:1055F00050F82A40002004F1240460812760207BB9
:1056000020EA0800207384F80D90207BA4F1240484
:1056100010F0080F0DD194F836007A490978084344
:10562000784908707848805D94F8351008437649C9
:10563000885529462046FFF7B3FF206A20B120464F
:10564000216AFFF7E6FAE5615046BDE8F08F10B534
:10565000654A1268D061644A126892F8343000F1E9
:105660000B02D25C604B1B6893F835301A435E4BDB
:105670001B6893F8344000F10B031A55827A5A4B99
:105680001B6893F836301A438272574A126892F8B0
:1056900034105D4A525C544B1B6893F835309A4382
:1056A000594B5A541A46525C42B94F4A126892F802
:1056B0003630544A12789A43524B1A7010BD002368
:1056C000837200F10B01002204E0002301F8013B8A
:1056D000531CDAB2042AF8DB704705E011F8013BED
:1056E00000F8013B531E9AB2002AF7DC70472DE9FF
:1056F000F84F05460E4617469846DDE90BABDDF838
:10570000289000200090FFF759F800904048046866
:10571000ECB304F1180454F8040C3D4908600098F7
:10572000FFF750F844F8186CA576002020766076D4
:10573000E08244F814AC44F80C9C44F8107C24F843
:1057400008BC24F8068CE077E810207705F0070005
:10575000E076217F01208840A077E17E012088400B
:10576000607700206060A0602061E0602062A0623D
:105770006062E06220633F2084F83400A4F11804E2
:105780004FF000014FF04D000155204600E05BE076
:10579000FFF7CDF82046FFF765F8FFF70FF8009008
:1057A0000F4840F825401648006860610020A0615D
:1057B0001348006810B11248006884611048046002
:1057C00004F13404A0780F49097823E05A0100203D
:1057D00051010020520100205401002053010020FB
:1057E000D81D002068010020600100205C0100201D
:1057F00048010020500100207C01002070010020A1
:105800006C010020550100205601002056C0000800
:105810006401002040EA01000E49087020780E491A
:10582000085C617840EA010014F834190A4A5054BF
:105830000A48007800F10100084908700098FEF756
:10584000C1FF0020BDE8F88F0098FEF7BBFF4220A3
:10585000F8E7000055010020560100205B01002000
:105860002DE9F05F05460F4691461E464FF0000BAE
:1058700016B90020BDE8F09F1DB96E2030700020E1
:10588000F8E72878052803D0012030700020F1E7E0
:1058900009F0800ABAF1000F04D029F080094FF016
:1058A000010801E04FF0000800203070FEF786FF8D
:1058B0008346B9F1000F2CD0B9F1010F3BD0B9F1FB
:1058C000020F03D0B9F1030F46D111E0288900EA95
:1058D0000704BC4206D1B8F1010F05D12889A043C5
:1058E000288101E0702030705846FEF76BFF3AE0E7
:1058F000288900EA070434B1B8F1010F05D12889DD
:10590000A043288101E0702030705846FEF75AFF0E
:1059100029E0288927EA0004BC4206D1B8F1010F2A
:1059200005D128892043288101E070203070584635
:10593000FEF748FF17E0288927EA000434B1B8F1E0
:10594000010F05D128892043288101E070203070A3
:105950005846FEF737FF06E05846FEF733FF0024AF
:105960006F20307000BF00BF204683E72DE9F04173
:1059700006460D46002715B90020BDE8F081FD4818
:105980000078002803DD102028700020F5E7FEF7DE
:1059900015FF0746F848046894B100684068F64966
:1059A0000860052020702681002060603F20A072E2
:1059B0000021E1723846FEF705FF0020287004E060
:1059C0003846FEF7FFFE722028702046D5E730B536
:1059D00001464A6808682AB9CC68606028B1002589
:1059E000456002E0106000B142608B6800259D6256
:1059F00030BDF0B506460F46B468002004F12C0413
:105A000060802780207920F0200020714FF0000076
:105A100060712079A4F12C04A8B904F13404A078B1
:105A2000D649097840EA0100D44908702078D44961
:105A3000085C617840EA010014F83419D04A5054E7
:105A40004FF0010500E000253046FFF7C0FF284673
:105A5000F0BD2DE9F0470446894615464FF0000A8F
:105A600015B92046BDE8F0871CB96E202870204685
:105A7000F8E7C0480078002803DD0F202870204692
:105A8000F0E72078052803D0012028702046E9E7B8
:105A9000FEF794FE8246606808B1012700E0002707
:105AA000B9F1000F03D0B9F1010F40D11BE09FB94C
:105AB0003F20A0720021E17200202070AE480068F3
:105AC000606000202081AC4804605046FEF77AFEFA
:105AD00000202870002605E05046FEF773FE49209E
