:020000040800F2
:10000000802D0020A1930008BD040008C904000849
:10001000D5040008E1040008ED0400080000000019
:10002000000000000000000000000000F9040008CB
:100030000505000800000000173E00085B3F0008AF
:10004000B3930008B3930008B3930008B393000878
:10005000B3930008B3930008B3930008B393000868
:10006000B3930008B3930008B3930008B393000858
:10007000B3930008B3930008B3930008B393000848
:10008000B3930008B3930008B3930008B393000838
:10009000B3930008B3930008B3930008B393000828
:1000A000B3930008B3930008B393000879050008E0
:1000B000B3930008B3930008B3930008B393000808
:1000C000B3930008B3930008B3930008B3930008F8
:1000D000B393000833050008B3930008B3930008F6
:1000E000B3930008B3930008B393000800F002F83C
:1000F00000F04CF80AA090E8000C82448344AAF176
:100100000107DA4501D100F041F8AFF2090EBAE873
:100110000F0013F0010F18BFFB1A43F0010318473B
:10012000C8D40000E8D400000A4410F8014B14F0D1
:100130000F0508BF10F8015B240908BF10F8014B38
:100140006D1E05D010F8013B6D1E01F8013BF9D181
:10015000641E03D0641E01F8015BFBD19142E4D31D
:10016000704700000023002400250026103A28BF15
:1001700078C1FBD8520728BF30C148BF0B60704719
:100180001FB5AFF300801FBD10B510BD0AF0D7FF3B
:100190001146FFF7F5FF00F0EDF80AF0F5FFFFF765
:1001A000F3FF0AF0FBFF00001CB500240CE08F49B0
:1001B000085D694606F003FD18B9DDE900018842D3
:1001C00001D2FA201CBD641C072CF0D388480078AB
:1001D00010B14FF4FA70F5E740F2EE20F2E770B597
:1001E00000BFFFF7E1FF85B22B4600221146104603
:1001F00006F0FDFD002003F0B0F97E4800780028ED
:10020000EFD0012003F0A9F9002403E0E0B202F0EE
:10021000F7FD641C022CF9D3E3E700B587B0032394
:10022000002280217448CDE90323CDE90101172381
:1002300000F5FE7200217148009306F08AFA0690DC
:1002400006AA6FA1172006F018FC07B000BD70B514
:1002500003F060F903F092FE04F03DFC00F0A2F917
:1002600001F015FA02F07AFD002069490870694929
:10027000087000F091FA60B96748007820B9002151
:10028000084600F0FEFF0EE00121084600F0F9FFED
:1002900009E00020604908700021084600F0F1FFE5
:1002A000082000F086FB18225C495D480AF018FF20
:1002B0005C495D4803F05CFA5C495B480AF0E6FE85
:1002C00003F064FA03F091FA51480078012802D152
:1002D00005205749087055480078564909788842E2
:1002E00011D1524840785349497888420BD14F4840
:1002F000C0785049C978884205D14C4880784D492A
:10030000897888420ED000204B49087009E000250A
:1003100001E06D1C6D1CB5F5202FFAD3012003F010
:100320001CF9F4E73A480078012805D10520404936
:10033000087001202F490870FFF76FFF02F05DFA87
:10034000002504E00121E8B202F0B9FF6D1C022D86
:10035000F8D30EE0642000F06DF90446A4F57F4167
:10036000FF3902D0204602F0DFF902F0EAF902F08C
:1003700063FAEFE700B587B008F0E7FF04F0ABFAE7
:100380000323002280212D48CDE9032300F5FE72CE
:10039000CDE9003002910021294806F0DAF90690F3
:1003A00006AA28A1032006F068FB04F07CFB0020CD
:1003B00007B000BD7047704770477047704770477F
:1003C00010B5002422480068401E214908600846F4
:1003D000006850B94FF4FA70086003F0FBFC044663
:1003E00003F0B0FB204603F0F9FC10BDB2B10008E9
:1003F000EE0000200E0000206C030020DF0100084A
:1004000055736572204946205461736B00000000EB
:10041000F3000020F4000020F0000020EC06002093
:100420006C050020010000200407002024000020AB
:100430000D000020F50000200F0000206C010020BE
:100440004F0200085374617274205461736B000092
:1004500020000020024606E04FF4FA5100E0491E59
:100460000029FCD1521E002AF6D1704770B505460E
:100470000021084602F023FF0021012002F01FFFA7
:10048000FA20FFF7E7FF002003F067F8012003F0F0
:1004900064F8FA20FFF7DEFF00240CE0012003F0EF
:1004A0005CF8FA20FFF7D6FF012003F056F8FA2097
:1004B000FFF7D0FF641CAC42F0D370BD10B500BF95
:1004C0000120FFF7D3FFFBE710B500BF0220FFF7C5
:1004D000CDFFFBE710B500BF0320FFF7C7FFFBE729
:1004E00010B500BF0420FFF7C1FFFBE710B500BF48
:1004F0000520FFF7BBFFFBE710B500BF0620FFF7A5
:10050000B5FFFBE710B500BF0720FFF7AFFFFBE724
:100510007047704710B503F05DFC04461F48007833
:10052000401C1E490870204603F058FC04F0FBF9FB
:1005300010BD70B503F04EFC044618480078401C0E
:1005400016490870204603F049FC40F22551144832
:1005500008F051FE28B1124808F0E4FD054600F00D
:100560003CF840F226610E4808F045FE08B100F064
:1005700091F804F0D8F970BD10B503F02BFC0446D7
:1005800006480078401C05490870204603F026FC08
:1005900000F0B0FF04F0C7F910BD00001D010020FD
:1005A0000038014010B5002078490860083908601B
:1005B000091D086005F0ADFD74490C31086000208C
:1005C000091F0860091F0860012005F0A2FD6F499E
:1005D0001031086003F08EF810BD70B50446002598
:1005E00003F0F8FB05466948006820281ED26748DA
:1005F0000068401C65490860A1F1080001680068B6
:10060000401C624A083A1060614820F811401046C8
:10061000006800F01F0011460860284603F0DEFB6A
:100620005A480C30006805F0CFFE02E0284603F07F
:10063000D5FB70BDF8B5044600256A4621465348EF
:100640000C30006805F0FFFD03F0C4FB05464F4881
:100650000068C8B14D480068401E4C490860081F3A
:1006600001680068401C494A121F1060484830F871
:1006700011601046006800F01F001146086028460F
:1006800003F0ACFB3046F8BD284603F0A7FB4FF65D
:10069000FF70F8E710B53D48001D00683B49083180
:1006A000096888420FD23948001D02680068401C62
:1006B000364B1B1D18603648403030F81210354854
:1006C00008F02CFD0DE0002240F22661314808F0D0
:1006D000C2FC002003F001F82C481030006805F03F
:1006E00073FE10BDF8B504460D4616466A463146FF
:1006F00026481030006805F0A6FD9DF80000D0B92E
:10070000012002F0EAFF002706E035F81700204933
:10071000403121F817007F1CA742F6D31B48083050
:10072000046000201949091D0860012240F2266179
:10073000184808F090FC9DF80000F8BD13B50C4671
:10074000224669460120FFF7CDFF1CBD70B5044667
:100750000D46012002F0C1FF002606E035F8160024
:100760000B49403121F81600761CA642F6D3074803
:100770000830046000200549091D0860012240F28C
:100780002661044808F067FC70BD000034000020BA
:100790001A070020003801401CB56A4601A9002054
:1007A00002F0E9FE9DF8040008B900201CBD6A466D
:1007B00001A9012002F0DFFE9DF8040008B9002025
:1007C000F4E70120F2E710B500240AE004F001008C
:1007D00002F0C3FEC82300221146104606F007FBB4
:1007E000641C0A2CF2D3002404E00121E0B202F0E0
:1007F00066FD641C022CF8D310BD10B500BF0024A8
:1008000003E0E0B202F0FCFA641C022CF9D30023EE
:1008100001221946184606F0EAFAF0E77CB50025F1
:1008200019E06A4601A9E8B202F0A5FE9DF80400AD
:1008300030B99DF8000008B9032407E0022405E060
:100840009DF8000008B9012400E000242146E8B228
:1008500002F0C0FA6D1C022DE3D37CBD2DE9F047F8
:10086000044604F0070008282BD2DFE800F0040853
:100870000D12171C212601250026A84622E001257D
:1008800002264FF003081DE0032502264FF007085B
:1008900018E0032503264FF00F0813E00225032676
:1008A0004FF00E080EE0022501264FF00C0809E07B
:1008B000002501264FF0080804E000250026A84680
:1008C00000E000BF00BF2946002002F069FB31466E
:1008D000012002F065FB4FF4C86002F0F5FA002039
:1008E00002F081FE8146012002F086FE49EA4009BD
:1008F000002002F081FE49EA8009012002F073FE27
:1009000049EAC007474502D10120BDE8F087002031
:10091000FBE770B590B08848007808B1092400E082
:1009200008240120A040401E86B202F0C9FA054604
:10093000002406E045FA04F0284430402DF8140065
:10094000641C202CF6D3032269462020FFF7CAFE40
:1009500010B1002010B070BD002409E00320FFF7A3
:1009600069FE3DF81410884201D00020F2E7641CB3
:10097000202CF3D30120EDE770B5054615F0010FEB
:100980000BD0002406E06D49E2B2885C002103F040
:10099000B9F9641C002CF6D00AE0002406E067498F
:1009A000E2B2885C012103F0ADF9641C002CF6D0A2
:1009B00070BD2DE9FF5F0446FFF705FF02F010FD53
:1009C0000546012003904FF4616060434FF47A7153
:1009D0004843491090FBF1F700208DF808000320F0
:1009E0008DF8090007208DF80A000A208DF80B0009
:1009F00000208DF8040003208DF8050007208DF8F5
:100A000006000A208DF807004FF000088DE002F084
:100A1000E7FC0646AE4203D0012002F09EFD3546BB
:100A2000FFF7FCFE08F00700FFF718FFFFF771FF64
:100A300010B1002002F091FD002000F01EFD0528FD
:100A40000ED19DF80810002000F040FD9DF8080030
:100A500018B90A208DF8080002E000208DF808007F
:100A6000012000F00AFD05280ED19DF80410012098
:100A700000F02CFD9DF8040018B90A208DF8040040
:100A800002E000208DF80400002002F004FE814600
:100A9000012002F000FE8346CA450ADDAAEB0900E8
:100AA000642810DD2549891C0878012103F02AF902
:100AB00009E0A9EB0A00642805DD2049891C0878B3
:100AC000012103F01FF9009858450ADD0098A0EBBA
:100AD0000B0064280FDD19494878012103F012F951
:100AE00009E00098ABEB0000642804DD1349487866
:100AF000012103F007F9CA46CDF800B04046FFF7E0
:100B00003BFF4FF4FA7300221146104606F06FF9CE
:100B10000A49891C0878002103F0F4F8074948784D
:100B2000002103F0EFF808F10108B845FFF46FAFBA
:100B3000FFF763FEBDE8FF9FEE000020B9B100089B
:100B40000146B1F5806F01D20B203EE0B1F5606F38
:100B500001D8002039E0B1F5B05F01D8012034E0C0
:100B6000B1F5F05F01D802202FE0B1F5185F01D890
:100B700003202AE0B1F5385F01D8042025E0B1F563
:100B8000585F01D8052020E0B1F5785F01D8062034
:100B90001BE0B1F58C4F01D8072016E0B1F59C4F52
:100BA00001D8082011E0B1F5AC4F01D809200CE0C4
:100BB0004CF66602914201D20C2006E04DF69932C5
:100BC000914201D80A2000E00D20704710B504467C
:100BD000204602F060FD10BD70B504460D46FF488A
:100BE00030F814100022FE4807F0E4FE00212046F1
:100BF00002F0A3FA2B4600221146104606F0F7F841
:100C00000321204602F08EFA70BD10B5012921D1D2
:100C1000262A0FD2F34B1B8803EB430404EB031388
:100C2000F14C04EB830333F81230EE4C1E3424F8FD
:100C3000103030E0EB4B1B8803EB430404EB031351
:100C4000E94C04EB8303B3F84A30E64C1E3424F835
:100C5000103020E0F9B90A2A0FD2E24B9B1D1B8805
:100C600003EB8303E14C04EB830333F812305B1096
:100C7000DC4C1E3424F810300DE0DA4B9B1D1B8831
:100C800003EB8303D94C04EB83035B8A5B10D54CE5
:100C90001E3424F8103010BD2DE9F74F84B00446FF
:100CA00015462046FFF792FF8046002002904FF045
:100CB0000A0B059E75E0CB49163151F8240003AAB2
:100CC000002105F0C0FAC7480E3850F82400401C37
:100CD000C4490E3941F82400701E16310978484382
:100CE00001900198584501D9CDF804B0BD480E389F
:100CF00050F824100198814204D2BA480E3850F8B6
:100D00002400019000212046019AFFF77EFF204633
:100D100002F042FC18B9012007B0BDE8F08F474649
:100D2000A7EB0509B9F1000F01DAC9F10009204666
:100D3000FFF74CFF8046A8EB050ABAF1000F01DA75
:100D4000CAF1000ACA4502DA0020029009E0CA4549
:100D500007D00298401C02900298642801D9042010
:100D6000DAE7BAF5997F07D84046FFF7E9FE9D49D3
:100D7000223108550020CFE740F2662082450DD28F
:100D8000984808300078834505D99648083000789F
:100D9000ABEB000B04E04FF0000B01E04FF00A0B4F
:100DA000761E002E87D10520B6E72DE9F0410446D6
:100DB0000D4616469846069F00208A490E3941F88E
:100DC000240008310855002229462046FFF71DFF60
:100DD0000021204602F0B1F93146204602F0EEFB38
:100DE0004146204602F09EF902F06AF838448049F4
:100DF00051F824100880794830F81410784808F029
:100E000067F8764830F814100122754807F0D2FDD3
:100E1000BDE8F0812DE9F84304460E4671482230C2
:100E200010F80480464535D0B8F10B0F08D0B8F162
:100E30000C0F01D10A2E03D0A6EB0800002801DD1B
:100E4000012700E0002749F640436A4800930378F1
:100E50003A4600212046FFF7A8FF6448503030F89A
:100E600016204FF4C8512046FFF716FF054628000C
:100E700005D0012802D0052805D102E004E00525AF
:100E800002E0022500E000BF00BF0A212046FFF774
:100E9000A3FE00E005252846BDE8F8832DE9F84FBC
:100EA00004462046FFF792FE83465846FFF748FE69
:100EB00005464C4822300555204601F0A8FC8246E4
:100EC000012600BF4749263151F824006A46B1B2D5
:100ED00005F0B9F943480930005D0B2810DA00200D
:100EE00040491239085501F11B00015D2046FFF70A
:100EF00091FF3C4912390855FF201B310855E1E7A5
:100F00002046FFF763FE83465846FFF719FE054665
:100F10000B2D07DA3348223005554FF00808082713
:100F20006426CFE707B17F1E204601F070FC8246A1
:100F3000BAF1000F0ED0B8F1000F0BD057B9B9F1CC
:100F4000000F02D14FF0010906E04FF00009A8F1AF
:100F5000010801E04FF000094946204602F0EDF893
:100F600057B9B8F1000F02D0BAF1000F04D11D48F3
:100F7000223005551426A5E70126A3E710B504463F
:100F80000120FFF78BFF10BD2DE9F84304460E4604
:100F90001746012E04D11348801C90F8008007E00A
:100FA00026B91048083090F8008001E04FF00108A1
:100FB0003D463BE0681E00FB08F04FEA4009094946
:100FC000163151F824006A46002105F03CF9054825
:100FD0000E3850F82400401C02490DE0BCB1000856
:100FE000002C01405A000020CAB10008FAB20008E3
:100FF000C0B10008EF0000200E3941F82400084677
:1010000050F82400484504D2084650F824004FEA1E
:1010100080094A4631462046FFF7F7FD204602F098
:10102000BBFA10B90120BDE8F8836D1E002DC1D1B7
:101030000520F8E7F8B504460D4616462F4624E08D
:10104000F74951F824006A46002105F0FCF8F448FD
:10105000243850F82400401CF149243941F8240078
:10106000084650F8242001212046FFF7CEFD2046F7
:1010700002F092FA08B90120F8BD204602F0B3FA56
:10108000B04201D10020F7E77F1E002FD8D1052004
:10109000F2E738B50546284602F0A5FA01282BD01C
:1010A0004FF47A53DF480093037801221146284613
:1010B000FFF77BFE012240F6C4112846FFF7BAFF76
:1010C0000446200005D0012802D0052805D102E001
:1010D00004E0052402E0022400E000BF00BF052C6C
:1010E00005D1192201212846FFF74EFF04460421AD
:1010F0002846FFF771FD00E00524204638BDF8B50D
:1011000004460E46204602F06EFA012804D020461E
:10111000FFF7BFFF054600E00525052D29D14FF457
:101120007A53C04800930378002201212046FFF73C
:101130003CFE00224FF416712046FFF77BFF054668
:101140002DB1012D02D0052D05D102E004E00525C9
:1011500002E0022500E000BF00BF052D05D13246A8
:1011600001212046FFF710FF054604212046FFF726
:1011700033FD2846F8BD2DE9F0410446A8481A3849
:1011800001882046FFF7BBFF0546052D18D1A4486E
:10119000243850F82470962300221146104605F09A
:1011A00026FE2046FFF775FF0546052D08D19C4811
:1011B000243850F8246006F5C870B84200D20325E0
:1011C0002846BDE8F08110B50446954818380188D6
:1011D0002046FFF794FF10BD10B504462046FFF7E8
:1011E00058FF10BD38B5044600BF8D49103151F885
:1011F00024006A46002105F026F889481338005D6E
:10120000012804D002280DD0032821D115E00020A8
:101210008349283908552046FFF7DEFF80492839E1
:10122000085516E000207E49283908552046FFF76A
:10123000CAFF7B49283908550BE000207849283936
:1012400008552046FFF797FF75492839085500E0F3
:1012500000BF00BF0020724913390855C5E710B51B
:1012600004460120FFF7BEFF10BD10B50446002064
:10127000FFF714FE10BD10B504460020FFF7B2FFC3
:1012800010BD70B586B004460D46012C04D16648E9
:1012900063490839086003E0644861490839086017
:1012A000012D04D162485E490839486003E0614875
:1012B0005B4908394860002629E0002004F029FF36
:1012C000574941F82600002004F023FF544910310B
:1012D00041F82600032300224FF48071564800EBAA
:1012E0008620CDE90323CDE901015448835D014601
:1012F00000938B5D504901EB862101F57F724849CF
:10130000083951F82600002105F023FA761C022E38
:10131000D3D306B070BD01280AD1042903DA404AAC
:10132000163A11800FE003223D4B163B1A800AE06B
:1013300048B9042903DA3A4A103A118003E003223B
:10134000374B103B1A80704700EB800149004FF487
:10135000C86251434FF4B47291FBF2F1304A1A3A29
:101360001180704700EB800149004FF4C86251437F
:101370004FF4B47291FBF2F1294A183A1180704788
:1013800070B504460025022C03DA25481338005DA9
:1013900008B1002070BD02F01DFD05462048283828
:1013A000065D05201E4928390855284602F016FD1D
:1013B0003046EFE70146022907DA19481338405C46
:1013C00018B917482838405C08B901207047002038
:1013D000FCE770B505460C46022D12DA012C03D04D
:1013E000022C01D0032C0CD10D481338405D40B9BC
:1013F0000B481338445500F1230151F8250004F03F
:10140000E3FF70BD0146022908DA05480C30405C54
:101410000B2803DA02480C30405C70470B20FCE7D5
:1014200070000020EF000020771200086B12000807
:101430005F1200087D0F00089C070020C8B100085B
:101440002DE9F04104460D46022C14DA142D12DC6D
:1014500000260CE0204602F0D8F80746FFF770FBA4
:101460000A2802D10120BDE8F081701CC6B2AE424C
:10147000F0DB0020F7E70120F5E770B50446002512
:10148000022C03DA3648005DFF2801D0002070BD31
:1014900002F0A0FC054632481B38065D05203049A5
:1014A0001B390855284602F099FC3046EFE7014603
:1014B000022907DA2A48405CFF2803D128481B3854
:1014C000405C08B9012070470020FCE770B5054674
:1014D0000C46022D0DDA0B2C0BDA2148405DFF285B
:1014E00007D11F48445500F11D0151F8250004F0B3
:1014F0006BFF70BD70B500242FE01A4830F814104F
:10150000194807F0D4FC30B3164830F814101648C8
:1015100007F0DEFC154850F824000088104915310A
:1015200031F814100844114951F8241008800C486F
:101530000F38005D08B9012506E0002508490D3186
:1015400051F8240004F040FF2946204601F0F5FD43
:1015500003480F380555601CC4B2022CCDDB70BDAA
:1015600063000020BCB10008002C0140C0B100089D
:1015700070B50546AB48007820B9284602F033F82C
:10158000044603E0284602F037F80446012C01D156
:10159000002070BD0120FCE770B504460025204600
:1015A000FFF7E6FF064602F015FC05469D48801D44
:1015B00050F82400C6F1FF31884217D899480E3000
:1015C00050F8240010F1020F10D89648801D50F8F2
:1015D000240030449349891D41F8240001F108009A
:1015E00050F82400401C083141F82400284602F03D
:1015F000F5FB70BD01468B480078012803D18A486D
:101600000078012805D08748007820B986480078FE
:1016100008B9012070470020FCE72DE9F0410024C3
:10162000002500BF00BF012300221146104605F02F
:10163000DEFB641C84B1002400260BE0F0B2FFF74F
:10164000D9FF30B17748401C805D10B1F0B2FFF790
:10165000A3FF761C022EF1D36D1C0A2DE3D30025C7
:10166000002611E06F481A30805D6E4918318855A8
:10167000881D805D091D8855881C8219001F8119ED
:10168000F0B201F078FF761C022EEBD3CBE700B569
:1016900085B00323002280216448CDE90323CDE9EE
:1016A00001010F2300F5FE7200216148009305F04F
:1016B00050F805B000BD014602291ADA5948183021
:1016C000405C012806D157481A30405C012801D1FE
:1016D000012200E0002253481C30405C012806D162
:1016E00050481E30405C012801D1012303E0002353
:1016F00001E00022002342EA4300C0B2704749499A
:101700000870704770B50025002413E002F062FBFA
:10171000054600204349891D41F82400083141F85D
:10172000240008310855012015390855284602F0D3
:1017300055FB641C022CE9D370BD70B50024002554
:101740003CE002F047FB0446E8B2FFF753FF28B342
:101750003448401C405DC8B13248801D50F8251007
:101760003448007841432F480E3050F82500324A63
:1017700012785043814204D201202A49163148553B
:1017800010E000202749163148550BE0002025497C
:101790001631485501201539485503E000202149EC
:1017A0001631485500201F49891D41F82500083190
:1017B00041F82500204602F011FB6D1C022DC0D31C
:1017C00070BD70B50025002412E002F003FB054651
:1017D00000201449891D41F82400083141F82400F3
:1017E0000831085515390855284602F0F7FA641CE7
:1017F000022CEAD370BD70B504460025022C0DDA28
:1018000002F0E8FA054607481630065D0020054953
:1018100016310855284602F0E1FA00E0002630466D
:1018200070BD00008A000020F00000209C0F002006
:101830001B160008880000208900002001460729A7
:1018400008D2DFE801F00908040B0C0A050000BF0C
:101850000120704700BF00BF00BF00BF00BF0020D5
:10186000F7E7014607290AD2DFE801F00A05040B71
:101870000C07060000BF00BF00BF0120704700BF7B
:1018800000BF00BF0020F9E70246072A17D2DFE8B1
:1018900002F0171304181407050000BF0120704759
:1018A000FC48405C022803D0FA48405C062801D17D
:1018B0000120F4E70220F2E700BF0220EFE700BFBB
:1018C00000BF0320EBE70146F2481A38405CA8B994
:1018D000F048801E405C07280CD2DFE800F00D08BD
:1018E000090C0705040000BF0220704700BF00BFBD
:1018F0000120FAE700BF00BF0020F6E70020F4E770
:101900000146E4481A38405CA8B9E248801E405CB1
:1019100007280CD2DFE800F00D09060C08050400CA
:1019200000BF00BF0220704700BF0120FBE700BFDF
:1019300000BF0020F7E70020F5E770B50546D54861
:101940001338007880B9D3481A38405D38B9D14986
:10195000891E485D2946FFF797FF044600E00324EF
:101960002146284601F036FA70BD70B50446C948D4
:1019700012380078012818D1C6481A38005DA0B97D
:10198000C449891E085DFFF76CFF18B1C1481038C3
:10199000057800E00A2529462046FFF797FD00203C
:1019A000BC4914390870012070BD0020FCE770B5F7
:1019B00004462046FFF7A4FF05460146204601F0F5
:1019C000EFFA70BD014641B1012903D0022903D1CC
:1019D000082070470420FCE700BF0220F9E770B53B
:1019E0000546AC48103805700120AA491239087024
:1019F000002403E0E0B2FFF7B8FF641C022CF9D327
:101A000070BDF0B502460223A3480078002812DD1D
:101A1000A148007810280EDA9F480078401E03265F
:101A200090FBF6F0C4B29C480078401E90FBF6F79D
:101A300006FB1700C5B298480078702812DD96485A
:101A4000007880280EDA944800787138032690FBDD
:101A5000F6F0C4B290480078713890FBF6F706FBB8
:101A60001700C5B28C4201DB0024002532F81400B7
:101A7000C5F10206760030410126C6EB86063040ED
:101A8000F0BD704770B504460D460020FFF7A7FF74
:101A900070BD70B504460D460120FFF7A0FF70BD74
:101AA00070B504460D460220FFF799FF70BD70B572
:101AB00004460D460320FFF792FF70BD70B5044643
:101AC0000D460420FFF78BFF70BD70B504460D4630
:101AD0000520FFF784FF70BD70B504460D46062053
:101AE000FFF77DFF70BD70B504460D460720FFF778
:101AF00076FF70BD70B504460D460820FFF76FFFF6
:101B000070BD70B504460D460920FFF768FF70BD33
:101B100070B504460D460A20FFF761FF70BD2DE940
:101B2000F04104460D4629462046FFF76AFF064667
:101B300016F0020F04D0002056491A39087003E04D
:101B4000012054491A39087016F0010F04D0002002
:101B500050491A39487003E001204E491A3948703B
:101B6000002714E0F8B2FFF7E8FEF8B2FFF71FFF16
:101B700048481438007848B946481638C05D28B936
:101B8000F8B2FFF7F2FE43491639C8557F1C022F01
:101B9000E8D3BDE8F0813F4A0C3A12887AB1028856
:101BA00002F07F023B4B0C3B1B889A420CD14288CF
:101BB00002F07F02374B0E3B1B889A4204D1002271
:101BC000344B0A3B1A7003E00122324B0A3B1A7075
:101BD000704770B505460C462E48801E405D2D4965
:101BE0004855881E44552846FFF7A7FE2846FFF7AC
:101BF000DEFE70BD10B504462648801E005D01283B
:101C000002D005280AD104E002212046FFF7E1FFB7
:101C100005E006212046FFF7DCFF00E000BF00BF23
:101C200010BD70B504460D4629462046FFF7E9FE73
:101C3000064616F0020F02D00020FFF7DBFF16F079
:101C4000010F02D00120FFF7D5FF70BD2DE9F04153
:101C500004460D460226208810F07F0F01D1002790
:101C600000E001273846FFF74AFDAE4205DA34F8B6
:101C7000160000F07F000949087008480078012824
:101C800003DB06480078632802DD1420034908704E
:101C9000BDE8F081C6000020F1000020880000208F
:101CA00070B505460E46002001F0A6FC012801D1C2
:101CB000142400E0152400212046FEF73FFD70BDEE
:101CC00070B504460D4629462046FFF79AFE0646A3
:101CD00016F0020F03D00120F949087002E000203D
:101CE000F749087016F0010F03D00120F44948703D
:101CF00002E00020F249487070BD70B505460E46FE
:101D0000002408E0EE48801E005D18B90121E0B211
:101D1000FFF75FFB641C022CF4D370BD70B5054661
:101D20000E4600240CE0E648801E005D38B9E44809
:101D3000005D012803D10221E0B2FFF74AFB641CD9
:101D4000022CF0D370BD70B505460E4600240CE0A1
:101D5000DB48801E005D38B9D948005D012803D1F9
:101D60000321E0B2FFF735FB641C022CF0D370BDF9
:101D700070B504460E46002510E0218801F07F0072
:101D8000FFF7E2FA618801F07F00FFF7EBFAA08825
:101D900000F07F010120FFF7BEFA6D1C022DECD38D
:101DA00070BD70B504460D4600210120FEF7C6FC4B
:101DB00070BD70B504460D460121002001F00AF8FF
:101DC00070BD70B504460D460221002001F002F8F6
:101DD00070BD70B504460D460021084600F0FAFFBC
:101DE00070BD0122B64B5B1D1A70704770B5054679
:101DF0000E460020B249491D0870002403E0E0B2FD
:101E0000FFF79BFD641C022CF9D370BD70B504462E
:101E10000D460121084600F0DDFF70BD70B5044697
:101E20000D460221012000F0D5FF70BD70B50446BB
:101E30000D460021012000F0CDFF70BD0022A04B17
:101E40009B1D1A70704770B505460E460020FFF7BF
:101E50002EFB08B1122420E09948C01D007818B16B
:101E600097480830047818E00020FFF7CBFA0446C2
:101E70000A2C12D09248001D007870B990480830A2
:101E800000780A2803D08E480830047805E008213D
:101E90000020FFF7D5FA00B10A2400212046FEF702
:101EA0004DFC70BD70B505460E460120FFF7FFFAE8
:101EB00008B1122420E08248C01D007818B1804883
:101EC0000830047818E00120FFF79CFA04460A2C39
:101ED00012D07B48001D007870B97948083000782E
:101EE0000A2803D076480830047805E0082101204C
:101EF000FFF7A6FA00B10A2400212046FEF71EFCD7
:101F000070BD70B505460E460020FFF7D0FA08B147
:101F1000122403E0002001F0BEFB04120021204641
:101F2000FEF70CFC70BD70B505460E460120FFF7AC
:101F3000BEFA08B1122403E0012001F0ACFB041248
:101F400000212046FEF7FAFB70BD70B505460E462F
:101F500000205B49891D08700120491C087000247D
:101F600007E05748801E005D10B9E0B200F048FF5E
:101F7000641C022CF5D370BD70B505460E460024D6
:101F800013E04F48801E005D70B94D491631085D61
:101F9000FFF754FC40B14A481830005D022803D0D6
:101FA0000221E0B200F016FF641C022CE9D370BDE0
:101FB00010B5002431E042481630005D032806D0F9
:101FC000042809D005280CD0062823D11DE00021C3
:101FD000E0B2FFF7FEFD1EE00121E0B2FFF7F9FDE0
:101FE00019E037481830005D022804D03448183012
:101FF000005D062804D10221E0B2FFF7EAFD03E00C
:102000000121E0B2FFF7E5FD05E00221E0B2FFF7B4
:10201000E0FD00E000BF00BF641C022CCBD310BD6C
:1020200070B504460D46FFF7C3FF70BD10B5002420
:102030001AE023481630005D20B1012807D002289D
:102040000FD109E00321E0B2FFF7C3FD0AE004214C
:10205000E0B2FFF7BEFD05E00621E0B2FFF7B9FDF3
:1020600000E000BF00BF641C022CE2D310BD70B5BD
:1020700004460D46FFF7DAFF70BD2DE9F041064634
:102080000F460020FFF71FFC0546FFF79BFC0005ED
:10209000040C0120FFF717FC0546FFF793FC0443EF
:1020A00000212046FEF74AFBBDE8F08170B50546E9
:1020B0000E4601200249891D0870002410E000002E
:1020C000AE000020F948007848B9F848801E005D4D
:1020D00028B9E0B2FFF749FCF449891E0855641C91
:1020E000022CEFD370BD10B5002414E0EF4812307D
:1020F000005D022802D006280AD104E00121E0B2E6
:10210000FFF767FD05E00521E0B2FFF762FD00E0A3
:1021100000BF00BF641C022CE8D310BD70B505469B
:102120000E460020E149891C08700120491C0870F6
:10213000DF48007868B9FFF7D6FF002407E0DB48E6
:10214000801F005D10B9E0B200F05AFE641C022C42
:10215000F5D3FFF7D7FA70BD70B504460D460020E1
:10216000D249C91C0870FFF72CFB70BD10B5FFF7F2
:10217000E4FA10BD70B505460E460020CB49891C17
:1021800008700120491C0870C9480078A8B9FFF7F9
:10219000EDFF00240EE0C5491231085DFFF761FB39
:1021A000012806D1E0B2FFF726FB10B1E0B2FFF73D
:1021B00021FD641C022CEED301E0FFF7D7FF70BDB8
:1021C0007CB500241AE0B948801F005D78B9B74893
:1021D000001F005D01280AD1E0B2FFF7D1F801A984
:1021E0000855E0B2FFF707FB0DF8040005E00520F5
:1021F00001A9085500200DF80400641C022CE2D34C
:102200009DF8040010B19DF8050008B912254AE0B8
:102210009DF80400012803D09DF80400022801D194
:10222000312540E09DF80500012803D09DF8050008
:10223000022801D1302536E09DF80400032801D1A1
:10224000212530E09DF80500032801D120252AE052
:102250009DF80000012809D19DF80100012805D151
:102260009248C01C007808B113251CE09DF80000BE
:10227000012805D18D48C01C007808B1512512E015
:102280009DF80100012805D18848C01C007808B1DC
:10229000502508E085480A300078012801D116252C
:1022A00001E08448057828467CBD70B505460E4699
:1022B000FFF786FF04467F480078844214D17B48AC
:1022C000801F007830B9002001F08DF9012801D07D
:1022D000612409E07548801F407828B9012001F089
:1022E00082F9012800D0602400212046FEF726FA5A
:1022F00070BD70B505460E46FFF762FF044600212B
:102300002046FEF71BFA70BD2DE9FF4106460F4639
:10231000002433E06548801F005D20BBE0B2FFF77A
:10232000ACF803A9085561491231085DFFF786FA38
:1023300002A90855E0B2FFF7BEF9032803D1012036
:1023400001A9085502E0002001A90855E0B2FFF7F5
:1023500059F80B2803D101200DF804000DE00020EE
:102360000DF8040009E0052003A90855002002A982
:10237000085501A908550DF80400641C022CC9D3A6
:102380009DF80C0010B19DF80D0008B912255EE013
:102390009DF80C00012803D09DF80C00022801D103
:1023A000312554E09DF80D00012803D09DF80D0063
:1023B000022801D130254AE09DF80C00042801D103
:1023C000412544E09DF80D00042801D140253EE060
:1023D0009DF80400012801D1212538E09DF8050071
:1023E000012801D1202532E09DF80800012805D1FF
:1023F0002E48C01C007808B1512528E09DF809003E
:10240000012805D12948C01C007808B150251EE0DC
:102410009DF80000012806D12448801C007801287E
:1024200001D1612513E09DF80100012806D11F4864
:10243000801C0078012801D1602508E01B480A3083
:102440000078012801D1162501E01A4805780021FD
:102450002846FEF773F9BDE8FF8110B5044613481E
:102460001230005D06281DD2DFE800F003041C0FC7
:10247000101100BF02212046FFF7ABFB2046FFF7FB
:1024800074FA0A49891E08550DE000BF00BF0621F5
:102490002046FFF79EFB2046FFF767FA0349891E97
:1024A000085500E000BF00BF10BD0000B2000020D2
:1024B000F0000020F100002010B50446FF48005D48
:1024C00010B1032816D10AE001212046FFF781FB55
:1024D0002046FFF74AFAF949143908550BE0042160
:1024E0002046FFF776FB2046FFF73FFAF349143901
:1024F000085500E000BF00BF10BD10B50446EF480E
:10250000005D07281ED2DFE800F01D05041D121132
:10251000100000BF00212046FFF75BFB2046FFF7BD
:1025200024FAE649143908550DE000BF00BF032125
:102530002046FFF74EFB2046FFF717FADF49143914
:10254000085500E000BF00BF10BD0146C9B2C81168
:1025500001D1012070470020FCE70246D2B21AB137
:10256000D7480078824225D1C02903D0C22901D0A2
:10257000C8290BD1D2480078702805DDD0480078F2
:10258000802801DA012070470020FCE7D02903D021
:10259000D22901D0D8290BD1C9480078002805DDFF
:1025A000C7480078102801DA0120ECE70020EAE7AC
:1025B0000120E8E70020E6E710B5024600230024EA
:1025C00005E032F81400184483B2601CC4B28C4297
:1025D000F7DB03F07F0010BD2DE9F04704462046ED
:1025E000FFF7B3FFB0B1B548001F006830B100205D
:1025F000B249091F0860012000F0AFFFAF48001F7B
:1026000001680068401CAD4A121F1060AD4820F8F8
:10261000114086E0A948001F006800287ED0A74826
:10262000001F01680068401CA44A121F1060A548E2
:1026300020F811404588A44800882E1A06EB460071
:10264000A14901EB8000877810460168B81C8142DF
:1026500067D19C4A51881088FFF77FFF002858D027
:10266000DFF8608208F104089848007808BB06EBA0
:102670004600954901EB8000C07895490978884269
:1026800008DD06EB4600904901EB80003946826880
:102690004046904706EB46008B4901EB800080687E
:1026A0008C49884202D04FF0010919E04FF000092F
:1026B00016E006EB4600844901EB8000394642688B
:1026C0004046904706EB46007F4901EB800040689A
:1026D0008049884202D04FF0010901E04FF0000923
:1026E0008FB1D12D0FD0B9F1000F0CD03946404633
:1026F000FFF762FF71490C39088007F07F00891CE1
:10270000088006E00AE000206C490C390880891C2A
:10271000088000206949091F086002E0012000F0DC
:102720001CFFBDE8F087704710B504466A48007882
:1027300018B12046FFF7F7FF02E02046FFF74CFFF5
:1027400010BD10B56148007810BB00241EE0E0B257
:10275000FEF7ADFEC8B9E0B2FEF7ADFF30B101281B
:1027600008D002280AD003280DD00BE0E0B2FFF712
:10277000A3FE09E0E0B2FFF770FE05E0E0B2FFF76C
:10278000BCFE01E000BF00BF00BF641C022CDED312
:1027900010BD10B54D48007800282CD1002428E049
:1027A000E0B2FEF788FF30B1012808D002280AD035
:1027B00003280DD00BE00120404908550CE0022011
:1027C0003E49085508E000203C49085504E000BF98
:1027D00000203A49085500BF00BFE0B2FFF7ADF84E
:1027E000E0B2FFF7E4F83548005D3449891C08552C
:1027F000641C022CD4D310BD704710B53648007845
:1028000010B1FFF7F9FF01E0FFF7C3FF10BD01466C
:1028100002290FDA29481838405C38B9274811389E
:10282000007818B925480F38007808B100207047A3
:102830000020FCE70020FAE710B524480078A8B98A
:102840001E480F38007888B900240DE0022C0AD207
:102850001A481838005D30B91848005D022802D1C6
:10286000E0B200F0CDFA641C022CEFD310BDFEB52F
:1028700004460E46002505E014F815000DF8050085
:10288000681CC5B20A2DF7DB6A460821134806F01A
:10289000CBFD124A1249134808F0B9F810480079E4
:1028A000FF2822D10E484079FF281ED10C4880799C
:1028B000FF281AD10A48C079FF2815E0C40000207B
:1028C000F10000209C11002060B30008F0000020FF
:1028D0000D000020831A0008EE000020C800002030
:1028E000D00000206C05002002D00120F3490870C0
:1028F000002506E0281DF249085CF2494855681C8D
:10290000C5B2042DF6DBF0480078012823D1EF484A
:102910000078EC490978884211D1EC484078E949BF
:10292000497888420BD1E9488078E649897888421D
:1029300005D1E648C078E349C978884206D0052029
:10294000E34908700120E349087004E00020E049F1
:102950000870E0490870002506E0D948405DC04392
:10296000DD494855681CC5B2042DF6DB0120DB4962
:102970000870FEBD10B500F038FF002406E0D34813
:10298000015DD54A201D1154601CC4B2042CF6DB35
:10299000D14ACB49D24807F031FDD24A0821C84874
:1029A00006F018FD10BD70B586B005460E46FFF75F
:1029B000E1FF002406E0CB48005D01A921F81400E6
:1029C000601CC4B20A2CF6DB002407E001A931F830
:1029D00014000021FDF7B2FE601CC4B20A2CF5DB26
:1029E00006B070BD2DE9F04781468A4600250027D4
:1029F00004F02AFFDFF8F082002413E0404604F0E0
:102A000065FF002507E018F80460FF2E01D00127BC
:102A100003E0681CC5B2142DF5DB00BF07B903E065
:102A2000601CC4B2052CE9DB00BFDFF8C0820024C3
:102A300013E0404604F04AFF002507E018F8046060
:102A4000FF2E01D0012703E0681CC5B2142DF5DB71
:102A500000BF07B903E0601CC4B2052CE9DB00BF6E
:102A600004F0F8FEFFF786FFBDE8F0872DE9F0419E
:102A700086B005460E4617464FF00408002406E0CF
:102A800035F8140001A921F81400601CC4B20A2C06
:102A9000F6DB04F0D9FE002409E0384604F016FF06
:102AA0008046B8F1040F00D103E0601CC4B2052CCD
:102AB000F3DB00BFB8F1040F0DD1002409E001AA37
:102AC00032F8141007EB440004F0C7FF8046601C86
:102AD000C4B2B442F3DB04F0BDFE06B0BDE8F08141
:102AE0002DE9F04F8FB004464FF000097E4D7F4E28
:102AF000002705E014F817000CA9C855781CC7B2C8
:102B00000A2FF7DB0CAA0821794806F08DFC784AD9
:102B10006B49734807F07BFF042705E06848C05DF8
:102B20000AA9C855781CC7B2082FF7DB002705E0B3
:102B30006948C05D0AA9C855781CC7B2042FF7DBE5
:102B40000AAA5F49664807F059FC002726E0042FCF
:102B50000DDA5B4911F81700012202EB4701584AD0
:102B6000515C00EB012005A921F8170014E0381F83
:102B7000534911F81000C04300F0FF0A381F01212B
:102B800001EB40004E49085CC04300F0FF0B0AEB2C
:102B90000B2005A921F81700781CC7B2082FD6DB37
:102BA00054480088401C80B2ADF824005248007898
:102BB000062864D2DFE800F004340335050600BFC0
:102BC00000BF00BF4FF0000825E02A46092105A8F4
:102BD000FFF74CFF002705E035F817002DF8170028
:102BE000781CC7B2082FF7DB00270AE03DF8170072
:102BF00005A931F81710884201D04FF00109781C5F
:102C0000C7B2082FF2DBB9F1000F00D106E008F1DE
:102C1000010000F0FF08B8F1050FD6DB00BF2FE080
:102C200000BF4FF0000825E03246092105A8FFF754
:102C30001DFF002705E036F817002DF81700781C57
:102C4000C7B20A2FF7DB00270AE03DF8170005A9F5
:102C500031F81710884201D04FF00109781CC7B233
:102C60000A2FF2DBB9F1000F00D106E008F10100F4
:102C700000F0FF08B8F1050FD6DB00BF00E000BF91
:102C800000BFFFF777FE0FB0BDE8F08F2DE9F041F0
:102C900004468846208800F07F002080208800F0CD
:102CA00001052088C0F34006208887103A46314647
:102CB000284600F087FABDE8F0810000F40000200B
:102CC000D000002028000020F3000020F9000020A0
:102CD0000D0000200E000020100000201800002031
:102CE0006C0500201007002000F8010800F401081E
:102CF000C80000201A0000201C00002070B5044607
:102D0000257800BF4349485D03F0A5FF0122114625
:102D1000284600F0A1FA032616E0012200212846E9
:102D200000F09AFA642300221146104604F05FF87E
:102D300001221146284600F08FFA64230022114632
:102D4000104604F054F8761E002EE6D13248425D5B
:102D5000801E415D284600F07FFAD3E730B585B08C
:102D6000002425E001202C49891E08550020891CDB
:102D700008552A480A3941F82400032300228021FB
:102D8000274800EB442001AD0FC52248035D0546EE
:102D900000932B5D224D05EB442505F5FE72214D78
:102DA00029191D4D0A3D55F8240003F0D2FC641C7E
:102DB000022CD7D305B030BD0146022908DA1648E7
:102DC000405C154A921E525C40EA4200C0B2704715
:102DD0000320FCE770B504460D46022C0FDAC5F35C
:102DE00040000D49891E085505F00100891C085551
:102DF0000846025D801E015D204600F02DFA70BD80
:102E000010B50446022C03DA0249085D03F086FE81
:102E100010BD000062B90008E2000020FD2C00088F
:102E2000B011002060B9000810B50121432005F061
:102E300072FA0121FB4805F088FA01214CF67D6009
:102E400005F076FA10BD08B54FF4E06004F094F890
:102E500025208DF8000008208DF8020001208DF853
:102E60000300684604F08DF81B208DF80000042054
:102E70008DF8020001208DF80300684604F081F807
:102E800008BD0EB5E8480068E849B0FBF1F0401E07
:102E900080B2ADF800000020ADF802004FF6FF70E0
:102EA000ADF804000020ADF806008DF80800694672
:102EB000DF4805F001FB0121DD4805F060FD0EBD96
:102EC000DB4824300088704710B5D94C2434218861
:102ED000022800DA02200C18A2B28A4208DD00BFE4
:102EE000D34C243423888B420ADB9342F8DB07E07F
:102EF00000BFCF4C243423889342FADB8B42F8DAAC
:102F000010BDFEB5002418E0C74800684FF4FA5120
:102F1000B0FBF1F0C0EB001080000A21B0FBF1F52E
:102F200004F1080086B206EB45007100B0FBF1F039
:102F3000401EC04921F81400641C5D2CE4D3BD4838
:102F40000088ADF800000020ADF802004FF6FF70D9
:102F5000ADF804000020ADF806008DF808006946C1
:102F6000B54805F0A9FA0121B34805F008FDFEBDFA
:102F700010B50446082C0ADB642C08DCA4F1080018
:102F8000AC4A32F810100122AB4805F0A1FD10BD8B
:102F9000A9482430008870470020A849087070476D
:102FA00070B504460D46A649085D2A46022100F088
:102FB000C0FE70BD10B500240AE0A149085D1022D2
:102FC000022100F03FFE0121E0B2FFF7E9FF641C9F
:102FD000022CF2D310BD00B591B09A4801909548EB
:102FE00020380290002003900820049000200590D3
:102FF0008020069080000790800008902020099093
:1030000000200A900B9001A98F4804F0E4FA0121F6
:103010008D4804F00BFB4FF4404005F0EDF84FF401
:10302000C0200C9000208DF8340001208DF8350070
:103030004FF460200E9000200F9001208DF840008A
:103040000CA980484C3804F02EF80CA97F4804F0F5
:103050002AF80623012208217A484C3804F0B9F8EE
:10306000062301220921794804F0B3F801217548AB
:103070004C3804F04EF80121744804F004F90121A1
:1030800070484C3804F03AF80121704804F036F8E2
:103090006C484C3804F054F86C4804F051F800BF08
:1030A00068484C3804F051F80028F9D100BF67484F
:1030B00004F04BF80028FAD162484C3804F04FF87D
:1030C000624804F04CF800BF5E484C3804F04CF8FD
:1030D0000028F9D100BF5D4804F046F80028FAD175
:1030E0000021102000F096FD0021112000F092FD3B
:1030F000012154484C3804F041F811B000BD10B51E
:1031000000240CE04E49091F085D282100F082FDD3
:103110004B49891E085D282100F07CFD641C022CAF
:10312000F0D310BD70B504460D4645491339085D0E
:103130002A46022100F0FDFD70BD70B504460D4623
:103140003F491739085D294600F0DCFD70BD10B518
:103150001021382000F05EFD10214E2000F05AFDB5
:103160000121382000F0CEFD002421E03449193936
:10317000085D482100F04EFD31491739085D1021E6
:1031800000F048FD0021E0B2FFF7D7FF2C491539C8
:10319000085D102100F03EFD29491339085D102219
:1031A000022100F04FFD0321E0B2FFF7BBFF641CDA
:1031B000022CDBD30820FFF787FE01214E2000F010
:1031C000A1FD10BD70B504460E4615464FF4FA70C9
:1031D0001F4908601A491139085D314600F092FD17
:1031E0001C4820F8145070BD10B500240BE01449A1
:1031F0001139085D102100F00DFD00221146E0B2EA
:10320000FFF7E0FF641C022CF1D30D490F39087859
:10321000102100F0FFFC002211461046FFF7D2FFFC
:1032200010BD000007000402E4BA000800127A0092
:10323000002C0140DC15002000040040EE000020BE
:103240007DB900084C2401400800024000280140DC
:1032500020000020FE00002070B504460D461646F2
:10326000FF49085D294600F04DFDFD49891C085DB8
:10327000314600F047FD70BD10B500241CE0F84950
:10328000091F085D482100F0C5FCF549891E085D4D
:10329000482100F0BFFCF249085D102100F0BAFCA3
:1032A000EF49891C085D102100F0B4FC0122114691
:1032B000E0B2FFF7D1FF641C022CE0D310BD70B563
:1032C00004460E46254604EBD4714910A4EB410197
:1032D000E34A921F505C314600F014FD70BD10B5FA
:1032E00000240AE0DE49891F085D142100F092FCE9
:1032F0000121E0B2FFF7E3FF641C022CF2D310BD02
:103300001CB50221002004F078FE0821012004F001
:1033100074FE0420009000208DF804000C208DF82D
:10332000050001208DF80600684604F0E7F94FF427
:103330008070009000208DF804000C208DF80500AE
:1033400001208DF80600684604F0D8F91CBD10B5C0
:1033500086B00020ADF80C00ADF80E0040F23F60E2
:10336000ADF810000020ADF81200684605F0F5FA3F
:103370000620ADF8080000242EE0BA4951F82400D8
:1033800003A905F099F8B74951F824000223002257
:10339000032105F0A8FBB34951F82400694605F064
:1033A00044FAAF490A31085D0422022100F04AFCC8
:1033B000AB490C31085D042100F02CFCA94951F8FF
:1033C00024000122114605F0F5FAA64951F824001F
:1033D000012105F0D4FA641C022CCED306B010BD36
:1033E00010B50421202000F059FC044604210846B1
:1033F00000F054FC44EA00140221242000F04EFCAA
:1034000044EA0024C4F3090010BD2DE9F04148222C
:103410000621202000F016FC48220421084600F076
:1034200011FC642471E0FFF7DBFF054605F00300A3
:103430008D490870C5F300108C490870C5F340161B
:10344000012E54D13007070EC5F383103844C6B29D
:10345000A6F110000F2845D2DFE800F0080C101488
:10346000181C2024282C3034383C4000712080491E
:1034700008703BE072207E49087037E073207C4979
:10348000087033E074207A4908702FE0752078497D
:1034900008702BE076207649087027E07720744981
:1034A000087023E07820724908701FE07920704985
:1034B00008701BE07A206E49087017E07B206C4989
:1034C000087013E07C206A4908700FE07D2068498D
:1034D00008700BE07E206649087007E07F20644991
:1034E000087003E02F206249087000BF03E0C5F3B5
:1034F00083105F4908704FF4FA50FFF7E5FCFFF7BF
:103500006FFFA84200D102E0641E002C8BD100BFE7
:10351000BDE8F08110B5FFF787FCFFF794FCFFF7DB
:10352000B0FCFFF739FDFFF770FF5248007828B173
:10353000FFF7E7FCFFF70BFFFFF7E2FEFFF7CFFE19
:10354000FFF79AFEFFF750FEFFF701FEFFF7D7FDEA
:10355000FFF741FDFFF72EFD10BD70B5044625466F
:1035600004EBD4714910A4EB41013D4A921F505C19
:1035700000F0FDFB70BD70B504460D461646384997
:10358000091F085D00F07CFB28703549891E085D25
:1035900000F076FB307070BD10B50446304911392B
:1035A000085D00F06DFBC0B210BD10B504462C499B
:1035B0000F39085D00F085FBC0B210BD70B5044640
:1035C0000D4627490D39085D294600F09BFB70BD6B
:1035D000244A52F82020918470470146214850F82F
:1035E0002100808C704710B504461D49091D085DF7
:1035F00000F046FBC0B210BD10B504461849891D45
:10360000085D00F03DFBC0B210BD10B5014611B120
:1036100001293AD114E01348083003780078401C9F
:10362000104C08342070144830F8232023461878B2
:10363000C31700EB5373DB10A0EBC303237026E02A
:103640000848093003780078401C064C0934207083
:10365000094800EB8300428823461878C3170DE021
:1036600075B90008E4000020EF000020F000002001
:10367000F1000020EE000020BC15002000EB537389
:10368000DB10A0EBC303237001E0002200BF00BFEA
:103690001005000C10BD0146002311B1012917D1FE
:1036A0000AE0002205E0FA4830F82200184483B20C
:1036B000521C082AF7D30CE0002206E0F44800EB85
:1036C00082004088184483B2521C082AF6D300E0D6
:1036D00000BF00BF5804000C704710B5044624B169
:1036E00001212D2000F00EFB03E000212D2000F031
:1036F00009FB10BD1FB5E7480090E748007820B1EE
:103700004FF48050ADF8040002E00020ADF8040052
:103710004FF40050ADF806000020ADF80800ADF8F9
:103720000C000C20ADF80A006946DC4805F017FCD7
:10373000012240F22551D94805F08DFC002240F2CB
:103740002661D64805F087FC10212D2000F062FA92
:103750001821092000F05EFA04210A2000F05AFA2C
:103760000020FFF7BAFF0121CC4805F068FC1FBD1F
:1037700010B5002207E08B5CC94C234493F8E8376E
:103780008354531CDAB20C2AF5DB10BD002007E08D
:10379000C449014491F8001CC34A1154411CC8B2E9
:1037A0000428F5DB7047F0B585B0024601200024FF
:1037B00004E0165D0DF80460661CF4B28C42F8DB80
:1037C0004B1000240CE0E6181DF80660F643F5B235
:1037D0001DF80460AE4201D0002003E0661CF4B284
:1037E0009C42F0DB00BF05B0F0BD2DE9F84F00258D
:1037F00000260027A946AA46DFF8B0B2AC480090E0
:10380000BBF810900098B0F810A0A9F57F40FF38E1
:1038100006D1AAF57F40FF3802D1A64908706AE0B8
:10382000A9F57F40FF3811D0AAF57F40FF380DD1B0
:1038300010215846FFF7B7FF0746012F02D19D49D7
:10384000087058E003209B49087054E0A9F57F40B8
:10385000FF3812D1AAF57F40FF380ED01021009812
:10386000FFF7A1FF0746012F03D1022091490870FD
:1038700041E004208F4908703DE010215846FFF7D1
:1038800092FF0746012F01D1012500E000251021FC
:103890000098FFF788FF0746012F01D1012600E0BD
:1038A0000026D14505DB012D03D101208149087097
:1038B00021E0D1450ADB4DB9012E03D102207D491B
:1038C000087018E005207B49087014E0CA4505DD42
:1038D000012E03D10220774908700CE0CA450ADDA9
:1038E000012E08D1012D03D101207249087002E098
:1038F0000520704908706F480078062875D2DFE807
:1039000000F0031260AFECC6002404E0FF206A4917
:103910000855601CC4B2042CF8DB002067490880FD
:10392000674908700BE1002405E01BF804006549B5
:103930000855601CC4B2082CF7DB624A6249634830
:1039400007F065F85D48A0F80090002406E05E49A5
:10395000201D085C58490855601CC4B2042CF6DBD5
:103960005B480078C8B96FEA09001FFA80F953482C
:10397000008800F0FF08574880F800804F48008812
:103980004FEA1028534880F8018009F0FF0880F8BA
:1039900002804FEA192880F8038047480078FF2802
:1039A0000BD145484078FF2807D143488078FF284D
:1039B00003D14148C078FF2802D001204049087057
:1039C000BDE0002405E00098005D3E490855601CFC
:1039D000C4B2082CF7DB3B4A3B493C4807F017F8D8
:1039E0003648A0F800A0002407E0A7E03649201DD3
:1039F000085C31490855601CC4B2042CF6DB34481D
:103A00000078C8B96FEA0A001FFA80FA2B480088CC
:103A100000F0FF082F4880F80080284800884FEA0F
:103A200010282C4880F801800AF0FF0880F80280F6
:103A30004FEA1A2880F803801F480078FF280BD12E
:103A40001D484078FF2807D11B488078FF2803D104
:103A50001948C078FF2802D00120194908706EE08B
:103A6000002016490880002404E0FF201249085570
:103A7000601CC4B2042CF8DB00201149087003F06C
:103A8000E3FE584603F022FF03F0E4FE57E03BE07C
:103A9000BC150020A0860100EE0000200038014087
:103AA00000F0FF1F00F00108F500002000F80108F9
:103AB00000F401081C000020F90000201A0000207A
:103AC000F3000020C8000020D00000206C0500207A
:103AD0001800002010000020FFE700202749088080
:103AE000002404E0FF2026490855601CC4B2042CC1
:103AF000F8DB00202349087003F0A6FE009803F0CD
:103B0000E5FE03F0A7FE1AE000201C49088000240F
:103B100004E0FF201A490855601CC4B2042CF8DBED
:103B200000201849087003F08FFE584603F0CEFEBF
:103B3000009803F0CBFE03F08DFE00E000BF00BF55
:103B4000BDE8F88F10B5002414E00F4830F81400D9
:103B500078B10D4830F81400401E0B4921F81400CC
:103B6000084630F8140020B900221146E0B2FFF7F1
:103B700029FB641C022CE8D310BD00001A000020B1
:103B8000F9000020F3000020FE0000200311072BA5
:103B900017D2DFE803F004070A0D10131700864B55
:103BA0000B6012E0854B0B600FE0854B0B600CE067
:103BB000844B0B6009E0844B0B6006E0834B0B6089
:103BC00003E000BF824B0B6000BF00BF00F00F039B
:103BD000136070472DE9F84304460D4616461F460C
:103BE000DDF820806A4631462046FFF7CFFF009877
:103BF000C0F110094D4501D8284600E048468146ED
:103C000000983860012000FA09F0401EC8F8000052
:103C1000BDE8F8833EB504460D4601AA02A9204638
:103C2000FFF7B4FF01200199884080B2ADF8000091
:103C30008DF8035003208DF802006946029804F0C5
:103C4000DDF83EBD70B586B004460D46164603ABA2
:103C5000009304AB05AA29462046FFF7BBFFDDE928
:103C60000301884080B2ADF808008DF80B60032096
:103C70008DF80A0002A9059804F0C0F806B070BDDE
:103C80001CB504466A4601A92046FFF77FFF01984C
:103C900080680099C84000F001001CBD7FB5044653
:103CA0000D4601AB009302AB03AA29462046FFF75D
:103CB00091FF039880680299C8400199084004B0B8
:103CC00070BD1CB504466A4601A92046FFF75EFF99
:103CD0000198C0680099C84000F001001CBD7FB584
:103CE00004460D4601AB009302AB03AA29462046C9
:103CF000FFF770FF0398C0680299C8400199084017
:103D000004B070BD7CB504460D466A4601A9204644
:103D1000FFF73CFF0198C0680121009A9140884359
:103D200005F00101914040EA01060198C660304665
:103D30007CBD2DE9FF4104460D46164601AB0093BC
:103D400002AB03AA29462046FFF744FF0398C06848
:103D5000DDE901129140884301993140914040EAE8
:103D600001070398C760384604B0BDE8F0811CB570
:103D700004466A4601A92046FFF708FF0198C1687A
:103D80000120009A904041400198C1601CBD7FB560
:103D900004460D4601AB009302AB03AA2946204618
:103DA000FFF718FF0398C168DDE901029040414028
:103DB0000398C1607FBD000000080140000C014075
:103DC000001001400014014000180140001C014097
:103DD00000200140EFF3108072B6704780F3108826
:103DE00070471D484FF0FF010170002080F30988E3
:103DF0001A48012101701A484FF08051016062B6E3
:103E0000FEE717484FF080510160704714484FF0AB
:103E100080510160704772B6EFF3098028B12038F5
:103E200080E8F00F0F490968086000B50E48804728
:103E30005DF804EB0D480E490A78027009480D49F7
:103E40000A680260106890E8F00F203080F309885B
:103E50004EF0040E62B6704722ED00E0260100200D
:103E600004ED00E02C0100203F3F00081F0100206E
:103E700020010020340100207047704710B504462F
:103E80002046FCF797FA10BD10B504462046FCF713
:103E900092FA10BD10B5FCF78FFA10BD10B5FCF703
:103EA0008CFA10BD70B5044610464FF08075056061
:103EB000051F28462C606FF00105061F304635604F
:103EC0004FF01235061F304635604FF00335061FA0
:103ED000304635604FF00235061F304635606D10B4
:103EE000061F30463560051F284629604FF0113502
:103EF000061F304635604FF01035061F30463560DE
:103F00004FF00935061F304635604FF00835061F63
:103F1000304635604FF00735061F304635604FF0AC
:103F20000635061F304635604FF00535061F304612
:103F300035604FF00435061F3046356070BD10B552
:103F4000FCF73CFA10BD10B504462046FCF737FAE2
:103F500010BD10B5FCF734FA10BD10B5FFF73AFFED
:103F600004461A480078401C184908702046FFF79C
:103F700035FF00F0CFFD00F0D6FC10BD14490968F4
:103F80004FF47A72B1FBF2F0B0F1807F00D31CE005
:103F900020F07F41491E4FF0E022516100BF5117D0
:103FA000002905DA0F2109010A4A0B23D15404E044
:103FB0000F210901084A5317D15400BF00214FF0C7
:103FC000E02291610721116100BF70471D010020AF
:103FD000ECBA000818ED00E000E400E017481848CB
:103FE0001848194819481A481A481B481B481C48C1
:103FF0001C481D481D481E481E481F481F48204891
:104000002048214821482248224823482348244860
:104010002448254825482648264827482748284830
:104020002848294829482A482A482B482B482C4800
:104030002C482D482D4800BF7047000084B9000867
:1040400088B900088CB900088EB9000890B900083A
:1040500092B9000894B9000896B9000898B9000808
:104060009AB900089CB900089EB90008A0B90008D8
:10407000A2B90008A4B90008A6B90008A8B90008A8
:10408000AAB90008ACB90008AEB90008B0B9000878
:10409000B2B90008B4B90008B6B90008B8B9000848
:1040A000BAB90008BCB90008BEB90008C0B9000818
:1040B000C2B90008C4B90008C6B90008C8B90008E8
:1040C000CAB90008CCB90008CEB90008D0B90008B8
:1040D000D2B90008D4B90008D6B90008D8B9000888
:1040E000DAB90008DCB90008DEB90008E0B9000858
:1040F0000246002005E011F8013B02F8013B431C99
:10410000D8B20B78002BF6D1137070472DE9F0412F
:1041100004460D461646002716B90020BDE8F0817A
:104120001CB9042030700020F8E71DB90C20307055
:104130000020F3E7FC480078002803DD11203070F0
:104140000020EBE72078012808D0022807D00328B8
:1041500002D0042804D100E000BF00BF00BF03E08C
:10416000012030700020D9E700BFFFF733FE07467B
:1041700004F10F012846FFF7BBFF80463846FFF7E2
:104180002DFE002030704046C8E70146002002E0C6
:10419000491C421CD0B20A78002AF9D170472DE997
:1041A000F04104460D4616464FF000080EB9BDE832
:1041B000F08114B904203070F9E715B90C20307083
:1041C000F5E7D9480078002802DD12203070EEE7CC
:1041D0002078012808D0022807D0032802D004281C
:1041E00004D100E000BF00BF00BF02E0012030703A
:1041F000DDE700BFFFF7EEFD80462846FFF7C5FF6D
:1042000007460F2F05DD4046FFF7E8FD0B20307015
:10421000CDE7294604F10F00FFF76AFF4046FFF79C
:10422000DDFD00203070C2E7F0B510F8344F85781E
:10423000467834380A46114613680EE003F10B073E
:1042400017F804C02CEA060C07F804C03F5D17B944
:104250009F7AAF439F72121D1368002BEED1F0BD01
:10426000B249B34A1278885CB249095CAF4A515CE2
:1042700001EBC001B04A1170704710B50024FFF780
:10428000A9FD0446A8480078F8B9AC480078E0B920
:10429000FFF7E6FFAA48A849097850F82100A94984
:1042A0000860A5480078A849097888420DD0A5483B
:1042B0000068806B401CA34909688863A3480068B4
:1042C000401CA2490860FFF79CFD2046FFF786FDD1
:1042D00010BD70B500249E4D2D68EC619C4C246887
:1042E0002062014608460B681BE0994C246894F84C
:1042F000345003F10B04645D954D2D6895F83550ED
:104300002C43934D2D6895F8346003F10B05AC55A3
:104310009C7A8F4D2D6895F836502C439C72091D60
:104320000B68002BE1D18A4C246894F83420814C2E
:10433000A45C874D2D6895F83550AC437D4DAC5449
:104340002C46A45C44B9824C246894F83650784CCE
:104350002478AC43764D2C7070BD2DE9FF5F044688
:104360000D4616461F46DDF8388000200090B8F153
:10437000000F02D104B0BDE8F09F24B9042088F8F2
:1043800000000020F6E725B9042088F8000000208E
:10439000F0E726B9042088F800000020EAE70020B2
:1043A0002860A1464C46D9F800A017E09AF8000012
:1043B000062807D2DFE800F006040503070808E036
:1043C00007E006E000BF00BF012088F800000020E1
:1043D000D0E700BF09F10409D9F800A0BAF1000F35
:1043E000E4D151480078002804DD022088F800005C
:1043F0000020BFE751480078002804DD0D2088F830
:1044000000000020B6E7FFF7E5FC009000200390D5
:1044100002900190A1464C46D9F800A073E09AF8AA
:10442000000006285ED2DFE800F05D1C33035E5F0B
:10443000BAF8080000280FDDBAF80800401EAAF8F4
:10444000080045F804AB01200390002001C6029843
:10445000401C80B2029003E0019840F001000190FE
:104460004CE0DAF8040070B1DAF8040001C600206C
:10447000CAF8040045F804AB012003900298401CE0
:1044800080B2029003E0019840F00200019035E014
:10449000DAF804B0BBF8160000281EDDDBF81010B7
:1044A000081DCBF81000086801C6DBF80810DBF81F
:1044B0001000884203D1DBF80400CBF81000BBF8F1
:1044C0001600401EABF8160045F804AB012003901F
:1044D0000298401C80B2029003E0019840F0040072
:1044E00001900BE000BF00BF0098FFF777FC0020B1
:1044F0002860012088F8000002983BE700BF09F11E
:104500000409D9F800A0BAF1000F88D10398012856
:1045100020D1002028600098FFF760FC002088F878
:104520000000029826E700001D010020E2B9000803
:104530002101002022010020200100201E01002076
:10454000A41D0020340100201F01002004010020D0
:104550002C010020FF48006890F83000019941F0DC
:1045600080010843FB49096881F830000020F949BF
:10457000096881F83100F7480068C7852046FFF7D1
:10458000A8FE0098FFF72AFCFFF777FEFFF722FC52
:104590000090F048006890F8310020B101281FD049
:1045A00002281CD100E000BFEA480068D0F81CA037
:1045B000BAF1000F08D045F804AB0020286002983B
:1045C000401C80B2029009E00120E249096881F8AC
:1045D00031002146DF480068FFF726FE06E000BFF5
:1045E0002146DC480068FFF71FFE00BF00BFD94826
:1045F000006890F8310020B101282CD0022829D180
:1046000022E09AF8000006280DD2DFE800F00C0640
:1046100007030D0E002001C611E000BFCD48006861
:10462000406A01C60BE000BF00BF0098FFF7D6FB51
:1046300000202860012088F8000002989AE600BF58
:10464000002088F800000CE0002001C60E2088F849
:10465000000006E000BF002001C60A2088F8000024
:1046600000BF00BF0020BB49096881F83000B9498C
:10467000096881F83100B7490968C861B549096816
:104680000862B449096848620098FFF7A7FB0298DE
:1046900070E67CB5002614E06946304602F08FFAD9
:1046A000054665B9AC4850F8264044B1012C06D007
:1046B000D4E9020100EB810060640198A064701CE1
:1046C000C6B21F2EE8DD7CBD10B5002402E0C82074
:1046D00002F05EFBA14800780028F8D0A0480068EE
:1046E0006421B0FBF1F09E4908600846006828B9D3
:1046F00000209C490870FF2002F0ADFA00BFFFF7D0
:1047000069FB04469848006898490860002096496B
:1047100008602046FFF762FB9448006890490968EA
:10472000B0FBF1F0C0F164008E490870FFF7B6FBF2
:10473000FFF7AFFF642002F02BFBE0E700B587B086
:104740000323002280218A48CDE90323CDE901011A
:104750004FF6FE7300931E2300F5FE720021AFF2A8
:10476000970001F0F6FF06AA82A11E2002F085F94B
:1047700007B000BD10B5002400BFFFF72BFB0446B7
:1047800079480068401C784908602046FFF726FBFE
:10479000FFF780FBF1E700B587B0032300228021FB
:1047A0007848CDE90323CDE901014FF6FF7300936B
:1047B0001F2300F5FE720021AFF2470001F0C9FF90
:1047C00006AA71A11F2002F058F907B000BD04E04D
:1047D000002200F8012B4A1E91B20029F8DC704734
:1047E00030B54FF420716C48FFF7F1FF6A4C04F1CB
:1047F000200500230AE00020207065603F20E07360
:104800000021217420342035581C83B2132BF2DB95
:104810000020207060603F20E073002121745E481A
:104820005E49086030BD30B54FF4FD615C48FFF76C
:10483000CEFF80214848FFF7CAFF594C04F15C05C0
:1048400000230AE065613F2084F84C0000214D20E0
:1048500001555C345C35581CC3B2152BF2D30020D3
:1048600060613F2084F84C0000214D20015500205C
:104870004C4908604A484C49086030BD00224B4B07
:104880001A704B48002104E0002200F8012B4A1C5A
:10489000D1B20429F8DB0022464B1A70464B1A703D
:1048A000464B1A602B4B1A60704700204449086041
:1048B00044490870444908704449087044490870E4
:1048C000444908602849086028490860244908606C
:1048D00022490870704710B5FFF7CEFAFFF7E5FFE1
:1048E000FFF7CCFFFFF79FFFFFF77AFF00F04EFFC7
:1048F00001F094F801F0D9FBFFF74DFFFFF71EFF21
:10490000FFF7BBFAFFF76AFB10BD314800780128BA
:1049100008D12C480078FF2804D22A480078401C8F
:1049200028490870704710B50024294800780128EC
:1049300075D1FFF74FFA044622480078002804DDBD
:1049400020480078401E1F4908701E48007800B9B2
:1049500042E061E02C010020A41D00201C01002089
:10496000140100201001002028010020180100205F
:10497000A419002075432F4F532D494920537461CA
:1049800074000000A41B002075432F4F532D49498C
:104990002049646C65000000981600200801002082
:1049A000241E0020380100203001002021010020B9
:1049B000220100201F0100202001002034010020DE
:1049C000480100201D0100201E01002027010020B9
:1049D0002601002004010020FF480078E0B9FFF71D
:1049E0003FFCFE48FE49097850F82100FD49086067
:1049F000FB480078FC49097888420DD0F9480068E6
:104A0000806B401CF74909688863F8480068401CBF
:104A1000F6490860FFF7FAF92046FFF7DFF910BD05
:104A200010B50024F2480078012811D1FFF7D2F91F
:104A30000446F048007840B9E7480078FF2804D2DF
:104A4000E5480078401CE44908702046FFF7C6F9A5
:104A500010BD10B50024E6480078012822D1FFF7E8
:104A6000B9F90446DC480078002818DDDA480078F7
:104A7000401ED94908700846007860B9DD480078C2
:104A800028B92046FFF7AAF9FFF7F7FB0AE020460E
:104A9000FFF7A4F906E02046FFF7A0F902E0204660
:104AA000FFF79CF910BD10B5D148007890B9FFF719
:104AB000D7FBCB480078CC490870C848C84909786A
:104AC00050F82100C749086008460068CA490860D4
:104AD000FFF787F910BD10B50024022002F058F945
:104AE000FFF778F904460020C44908602046FFF724
:104AF00075F9642002F04CF9FFF76CF90446BF48E1
:104B00000068BF4908600120BE4908702046FFF7D1
:104B100065F910BD70B50026FFF71BFAFFF75AF9CB
:104B20000646B9480068401CB74908603046FFF7A0
:104B300055F9AF480078012854D1B448007820B125
:104B4000012804D0022809D103E001250BE000254B
:104B500009E001250120AD49087004E0012500208D
:104B6000AA49087000BF00BF05B970BDA848046815
:104B700034E0FFF72FF90646E08D58B3E08D401E74
:104B80000004000CE08525D194F8300010F0370FB8
:104B900008D014F8300F20F037002070012060702A
:104BA000303C02E0002084F8310094F8300010F02E
:104BB000080F0FD13434A0789649097808439549F5
:104BC000087020789449085C6178084314F8341917
:104BD000914A505464693046FFF700F994F8320066
:104BE0001F28C6D1C1E74FF48F707047704710B5CA
:104BF00090F8342001F10B039B5C90F83540A343FF
:104C000001F10B04A35423469B5C23B98B7A90F8E3
:104C10003640A3438B7210BD2DE9F04F04460D467C
:104C200016461F46A07A7D4911F8009004F10B004A
:104C300010F8090011F800A00AEBC90000F0FF0B02
:104C4000664850F82B800020A8F82E00C8F82450A1
:104C500098F83000B04388F8300088F8317098F840
:104C6000300010F0080F0FD198F836006949097824
:104C7000084368490870684810F8090098F835102A
:104C80000843654901F8090021464046FFF7AFFF98
:104C9000D8F8200030B14046D8F82010FFF7C4FA09
:104CA000C8F81C405846BDE8F08F10B5524A12684B
:104CB000D061514A126892F8343000F10B02D25C94
:104CC0004D4B1B6893F835301A434B4B1B6893F8D8
:104CD000344000F10B031A55827A474B1B6893F856
:104CE00036301A438272444A126892F834104A4AA3
:104CF000525C414B1B6893F835309A43464B5A54EB
:104D00001A46525C42B93C4A126892F83630414A1F
:104D100012789A433F4B1A7010BD0023837200F142
:104D20000B01002204E0002301F8013B531CDAB21E
:104D3000042AF8DB704705E011F8013B00F8013B5D
:104D4000531E9AB2002AF7DC70472DE9F84F04464B
:104D50000D4616461F46DDE90B9ADDF82880002037
:104D60000090FFF737F800902D48D0F800B0BBF165
:104D7000000F7ED02A49DBF8140008600098FFF786
:104D80002DF8CBF800508BF8324000208BF8300023
:104D90008BF83100ABF82E00CBF80490CBF80C80E8
:104DA000CBF80860ABF810A0ABF812708BF83700A6
:104DB000E0108BF8340004F007008BF833009BF808
:104DC0003410012088408BF836009BF83310012006
:104DD00088408BF8350025E01E010020A41D00202E
:104DE00020010020340100201F01002004010020C8
:104DF000260100201D0100202C0100202801002098
:104E0000140100201C010020480100203C0100206A
:104E1000380100202101002022010020E2B9000811
:104E2000300100200020CBF81C00CBF82000CBF88C
:104E30002800CBF82400CBF83800CBF84000CBF8A2
:104E40003C00CBF84400CBF848003F208BF84C00E6
:104E500000214D2000F80B105846FFF774F8584613
:104E6000FFF70CF8FEF7B6FF00901C4840F824B09E
:104E700000E02DE01A480068CBF814000020CBF8C1
:104E800018001748006818B115480068C0F818B035
:104E90001348C0F800B09BF836001249097808435F
:104EA000104908709BF834000F49085C9BF83510D6
:104EB00008439BF834100C4A50540C480078401CAE
:104EC0000A4908700098FEF789FF0020BDE8F88FB6
:104ED0000098FEF783FF4220F8E70000A41D0020A1
:104EE000380100202101002022010020270100209C
:104EF0002DE9F05F04460D4616461F464FF0000BA5
:104F000017B90020BDE8F09F1CB96E203870002052
:104F1000F8E72078052803D0012038700020F1E759
:104F200006F08009B9F1000F04D026F080064FF09A
:104F3000010A01E04FF0000A00203870FEF74AFF36
:104F400083466EB3012E3ED0022E02D0032E4ED1E8
:104F500012E0208900EA0508A84507D1BAF1010F3F
:104F600006D1208920EA0800208101E070203870F5
:104F70005846FEF733FF42E0208900EA0508B8F101
:104F8000000F07D0BAF1010F06D1208920EA0800EE
:104F9000208101E0702038705846FEF71FFF2EE098
:104FA000208925EA0008A84507D1BAF1010F06D1EA
:104FB000208940EA0800208101E0702038705846BE
:104FC000FEF70CFF1BE0208925EA0008B8F1000F6E
:104FD00007D0BAF1010F06D1208940EA08002081EC
:104FE00001E0702038705846FEF7F8FE07E058469A
:104FF000FEF7F4FE4FF000086F20387000BF00BFCE
:1050000040467FE72DE9F04104460D46002715B9DB
:105010000020BDE8F081FA480078002803DD102068
:1050200028700020F5E7FEF7D5FE0746F54806682C
:1050300096B100684068F3490860052030703481FB
:10504000002070603F20B0720021F1723846FEF7F8
:10505000C5FE0020287004E03846FEF7BFFE72202F
:1050600028703046D5E730B5436804682BB9C2686C
:1050700054602CB10025656002E01C6004B16360DF
:10508000816800258D6230BDF0B504460D46A668E6
:1050900000202C3670803580307920F0200030716F
:1050A0000020707130792C3E88B93436B078D649FA
:1050B00009780843D44908703078D449085C71787D
:1050C000084316F83419D14A5054012700E000274C
:1050D0002046FFF7C8FF3846F0BD2DE9F0470446EB
:1050E0000D4616464FF0000A16B92046BDE8F08777
:1050F0001CB96E2030702046F8E7C14800780028BF
:1051000003DD0F2030702046F0E72078052803D01B
:10511000012030702046E9E7FEF75CFE82466068B9
:1051200008B1012700E0002715B1012D40D11BE097
:105130009FB93F20A0720021E17200202070B14889
:105140000068606000202081AE4804605046FEF791
:1051500045FE00203070804605E05046FEF73EFEDA
:1051600049203070A0462AE0D4F8049005E00021E0
:105170004846FFF789FFD9F80090B9F1000FF6D142
:105180003F20A0720021E172002020709D4800683D
:105190006060002020819B4804605046FEF71EFEA0
:1051A000012F01D1FFF769F800203070804606E03A
:1051B0005046FEF713FE07203070A04600BF00BF28
:1051C000404693E72DE9F04104460D461646002778
:1051D00016B90020BDE8F0811CB96E2030700020A7
:1051E000F8E71DB90C2030700020F3E78448007800
:1051F000002803DD112030700020EBE7FEF7EAFD08
:1052000007462078052806D03846FEF7E7FD01203E
:1052100030700020DEE704F10A012846FEF768FF3F
:1052200080463846FEF7DAFD002030704046D1E770
:105230002DE9F04104460D4616464FF000080EB920
:10524000BDE8F08114B96E203070F9E715B90C2073
:105250003070F5E76A480078002802DD12203070CF
:10526000EEE7FEF7B7FD80462078052805D04046DA
:10527000FEF7B4FD01203070E2E72846FEF785FF17
:1052800007460F2F05DD4046FEF7A8FD732030705E
:10529000D6E7294604F10A00FEF72AFF4046FEF74A
:1052A0009DFD00203070CBE7F0B5059D584F3F685D
:1052B00097F8307047F02007DFF854C1DCF800C0E1
:1052C0008CF830700027DFF848C1DCF800C08CF89B
:1052D00031704F4F3F68FD854D4F3F68B9620A827C
:1052E0008B744B4F3F688F6047680F6000274F609B
:1052F000C860466806B171604160454F3F6897F8E5
:105300003440424F3F5DDFF808C1DCF800C09CF834
:1053100035C027EA0C07DFF8F4C00CF804706746C4
:105320003F5D5FB93A4F3F6897F836C0364F3F78D8
:1053300027EA0C07DFF8D0C08CF80070F0BD2DE92B
:10534000F04F89B004460D4616461F46DDF84880EA
:1053500000200290B8F1000F02D109B0BDE8F08F33
:1053600024B96E2088F800000020F6E72448007871
:10537000002804DD022088F800000020EDE7254821
:105380000078002804DD0D2088F800000020E4E704
:105390002078052804D0012088F800000020DCE7F0
:1053A00006F080000390039820B126F080064FF0AD
:1053B000010B01E04FF0000BFEF70CFD0290002EF8
:1053C00059D0012E7CD0022E02D0032E6CD12EE0BB
:1053D000208900EA0509A9451ED1BBF1010F03D1BF
:1053E000208920EA0900208109480068A0F82C9053
:1053F0000298FEF7F3FC002088F800004846ACE76E
:105400001D0100200C0100202101002022010020AC
:105410002C0100201E01002033462A4604A9204604
:105420000097FFF741FF0298FEF7D8FC76E020894D
:1054300000EA0509B9F1000F12D0BBF1010F03D149
:10544000208920EA09002081E1480068A0F82C901A
:105450000298FEF7C3FC002088F8000048467CE76D
:1054600033462A4604A920460097FFF71DFF0298FD
:10547000FEF7B4FC52E0208925EA0009A94514D1C1
:10548000BBF1010F03D1208940EA09002081D048F7
:105490000068A0F82C900298FEF7A0FC002088F885
:1054A0000000484659E70BE02EE033462A4604A99F
:1054B00020460097FFF7F8FE0298FEF78FFC2DE0DC
:1054C000208925EA0009B9F1000F12D0BBF1010FC4
:1054D00003D1208940EA09002081BD480068A0F876
:1054E0002C900298FEF77AFC002088F800004846CD
:1054F00033E733462A4604A920460097FFF7D4FE37
:105500000298FEF76BFC09E00298FEF767FC4FF08B
:1055100000096F2088F8000048461EE700BFFEF72C
:10552000ACFEFEF757FC0290A948006890F83100E5
:1055300038B3A748006890F831A00020A449096852
:1055400081F8310004A8FFF78EFD0020A04909680A
:1055500081F830000298FEF741FC4FF00009BAF1E3
:10556000010F07D0BAF1020F03D10E2088F8000016
:1055700004E000BF0A2088F8000000BF00BF4846D2
:10558000EBE693480068B0F82C90BBF1010F1CD1FA
:1055900066B1012E0BD0022E02D0032E0CD100E0FA
:1055A00000BF208920EA090020810DE000BF20898A
:1055B00040EA0900208107E00298FEF70FFC6F2007
:1055C00088F800000020C8E600BF0298FEF706FC3D
:1055D000002088F800004846BFE670B50025FEF7B9
:1055E000F9FB05467A480068848D2846FEF7F6FBED
:1055F000204670BD2DE9FC5F04460D4616461F4649
:10560000002000900FB9BDE8FC9F1CB96E203870D7
:105610000020F8E72078052803D00120387000200A
:10562000F1E7FEF7D7FB009016B1012E08D103E099
:105630002089A84320810AE020892843208106E0B0
:105640000098FEF7CBFB712038700020DBE700BF2D
:105650004FF00009D4F8048061E098F8120068B3B4
:1056600001283FD0022802D003284ED113E0208920
:10567000B8F8101000EA010AB8F81000504509D136
:1056800051464046FFF700FD8346BBF1010F01D1B3
:105690004FF0010940E02089B8F8101000EA010A33
:1056A000BAF1000F09D051464046FFF7EDFC8346A2
:1056B000BBF1010F01D14FF001092DE0B8F8100046
:1056C000218920EA010AB8F81000504509D1514655
:1056D0004046FFF7D9FC8346BBF1010F01D14FF0E3
:1056E000010919E0B8F81000218920EA010ABAF18D
:1056F000000F09D051464046FFF7C6FC8346BBF178
:10570000010F01D14FF0010906E00098FEF766FB9A
:105710006F203870002076E700BFD8F80080B8F11D
:10572000000F9AD10098FEF759FBB9F1010F01D192
:10573000FEF7A3FDFEF74EFB009020890190009834
:10574000FEF74CFB0020387001985CE72DE9F04132
:1057500004460D46002715B90020BDE8F0811CB9AC
:105760006E2028700020F8E72078052803D001205B
:1057700028700020F1E7FEF72DFB07462689384602
:10578000FEF72CFB002028703046E6E770B58C2130
:105790001048FFF71CF80F4D05F11C0600240AE025
:1057A000002028706E603F20A8720021E9721C352D
:1057B0001C36601C84B2042CF2DB00202870686068
:1057C0003F20A8720021E97202480349086070BDB9
:1057D0002C010020181900200C0100202DE9F84FA1
:1057E00004460D4616461F46002000900FB9BDE83E
:1057F000F88F1CB9622038700020F8E714F0030F0E
:1058000003D0622038700020F1E7022D03D25B2024
:1058100038700020EBE7042E03D25C2038700020A3
:10582000E5E7FEF7D7FA00908D48D0F800800068D1
:1058300020B18B4800684068894908600098FEF7ED
:10584000CDFAB8F1000F03D15A2038700020CEE70E
:10585000A24604EB06094FF0000B05E0CAF80090E1
:10586000CA46B1440BF1010B681E5845F6D800201A
:10587000CAF80000C8F80040C8F80440C8F8105042
:10588000C8F80C50C8F8086038704046AFE72DE9FA
:10589000F04104460D46002715B90020BDE8F0810F
:1058A0001CB9602028700020F8E7FEF793FA07463D
:1058B000206960B16668306860602069401E2061C0
:1058C0003846FEF78BFA002028703046E6E7384667
:1058D000FEF784FA5D2028700020DFE72DE9F04113
:1058E00004460D461646002716B90020BDE8F08193
:1058F0001CB9602030700020F8E71DB90C20307012
:105900000020F3E757480078002803DD11203070AD
:105910000020EBE7FEF75EFA074604F11401284683
:10592000FEF7E6FB80463846FEF758FA0020307056
:105930004046DBE72DE9F04104460D4616464FF0A0
:1059400000080EB9BDE8F08114B960203070F9E7A5
:1059500015B90C203070F5E742480078002802DDC8
:1059600012203070EEE7FEF735FA80462846FEF743
:105970000CFC07460F2F05DD4046FEF72FFA63208B
:105980003070DFE7294604F11400FEF7B1FB404612
:10599000FEF724FA00203070D4E770B504460D46B7
:1059A00000260CB9602070BD0DB95F20FBE7FEF743
:1059B00011FA0646D4E90310884204D33046FEF7B4
:1059C0000DFA5E20EFE76068286065602069401C82
:1059D00020613046FEF702FA0020E4E770B5044685
:1059E0000D4600260CB9602070BD0DB96120FBE7A3
:1059F000FEF7F0F906462068286060686860A068D5
:105A0000A860E068E860206928613046FEF7E6F9A2
:105A1000D5E90301401A68610020E5E770B5B421BB
:105A20001148FEF7D4FE104D00240DE0601C00EB81
:105A3000C0000D4901EB800068603F2028750021FF
:105A400069752435601C84B2042CEFDB002068608B
:105A50003F2028750021697503480149086070BD21
:105A6000400100201D0100200C2600202DE9F041FE
:105A700004460D464FF0000815B90020BDE8F0813E
:105A80001CB9042028700020F8E72078022803D0F1
:105A9000012028700020F1E7FEF79CF98046676836
:105AA000F88A00280FDD3969081D38610E68F88A08
:105AB000401EF882B9683869884201D17868386137
:105AC0000020287002E01F20287000264046FEF7C4
:105AD00085F93046D2E72DE9F04104460D464FF0F6
